:020000040800F2
:1000000058170020250100089101000891010008FF
:100010009101000891010008910100080000000012
:10002000000000000000000000000000253900086A
:100030009101000800000000293A0008653A000814
:100040009101000891010008910100089101000848
:100050009101000891010008910100089101000838
:100060009101000891010008910100089101000828
:100070009101000891010008910100089101000818
:1000800091010008910100087107000800000000BC
:1000900000000000000000000000000091010008C6
:1000A00091010008910100089101000891010008E8
:1000B00091010008910100089101000891010008D8
:1000C00091010008910100089101000891010008C8
:1000D00091010008910100089101000891010008B8
:1000E0009101000891010008910100080000000042
:1000F0000000000000000000000000000000000000
:1001000000000000000000000000000000000000EF
:1001100000000000000000009101000891010008AB
:100120005FF808F180B582B000AF45F61023C0F645
:1001300000037B6040F20003C2F200033B600BE06F
:100140007B681A683B681A603B6803F104033B60F4
:100150007B6803F104037B603A6840F20803C2F253
:1001600000039A42ECD3084808494FF00002884245
:10017000B8BF40F8042BFADB00F00EF801F082F86B
:1001800007F10807BD4680BD080000205813002075
:1001900080B400AFFEE700BF80B500AF4FF48053DE
:1001A000C4F202034FF48052C4F20202126842F019
:1001B00001021A604FF48052C4F202024FF48053DD
:1001C000C4F202035B6819464FF00003CFF6FF0349
:1001D00001EA030353604FF48053C4F202034FF467
:1001E0008052C4F20202126822F0847222F4803239
:1001F0001A604FF48053C4F202034FF48052C4F2E9
:100200000202126822F480221A604FF48053C4F272
:1002100002034FF48052C4F20202526822F4FE023A
:100220005A604FF48053C4F202034FF41F029A60E5
:100230004FF48053C4F202034FF00002DA6200F080
:1002400009F84FF46D43CEF200034FF000629A605C
:1002500080BD00BF80B500AF00F002F880BD00BFD8
:1002600080B483B000AF4FF000037B604FF0000319
:100270003B604FF48053C4F202034FF48052C4F247
:100280000202126842F480321A604FF48053C4F2C2
:1002900002031B6803F400333B607B6803F1010336
:1002A0007B603B68002B03D17B68B3F5A06FECD17A
:1002B0004FF48053C4F202031B6803F40033002B95
:1002C00003D04FF001033B6002E04FF000033B60BE
:1002D0003B68012B6DD14FF48053C4F202034FF4FD
:1002E0008052C4F2020252685A604FF48053C4F242
:1002F00002034FF48052C4F2020252685A604FF473
:100300008053C4F202034FF48052C4F202025268D6
:100310005A604FF48053C4F202034FF48052C4F287
:100320000202526822F47C125A604FF48053C4F2E5
:1003300002034FF48052C4F20202526842F498124F
:100340005A604FF48053C4F202034FF48052C4F257
:100350000202126842F080721A6000BF4FF48053AC
:10036000C4F202031B6803F00073002BF6D04FF4B5
:100370008053C4F202034FF48052C4F20202526866
:1003800022F003025A604FF48053C4F202034FF488
:100390008052C4F20202526842F002025A6000BF68
:1003A0004FF48053C4F202035B6803F00C03082B84
:1003B000F6D107F10C07BD4680BC704780B489B008
:1003C00000AF786039604FF00003FB614FF000032D
:1003D0003B614FF00003BB614FF00003FB604FF047
:1003E00000037B614FF00003BB603B68DB7803F0E8
:1003F0000F03FB613B68DB7803F01003002B05D093
:100400003B689B78FA6942EA0303FB613B681B88FF
:1004100003F0FF03002B51D07B681B687B614FF01A
:100420000003BB6144E0BB694FF0010202FA03F331
:10043000FB603B681B881A46FB6802EA03033B61CA
:100440003A69FB689A422FD1BB694FEA8303FB608C
:10045000FB684FF00F0202FA03F3BB60BB686FEA60
:1004600003037A6902EA03037B61FB68FA6902FA13
:1004700003F37A6942EA03037B613B68DB78282B4C
:1004800007D1BB694FF0010202FA03F27B685A619F
:100490000AE03B68DB78482B06D1BB694FF00102CC
:1004A00002FA03F27B681A61BB6903F10103BB61C5
:1004B000BB69072BB7D97B687A691A603B681B88D0
:1004C000FF2B56D97B685B687B614FF00003BB61F3
:1004D00049E0BB6903F108034FF0010202FA03F39C
:1004E000FB603B681B881A46FB6802EA03033B611A
:1004F0003A69FB689A4232D1BB694FEA8303FB60D9
:10050000FB684FF00F0202FA03F3BB60BB686FEAAF
:1005100003037A6902EA03037B61FB68FA6902FA62
:1005200003F37A6942EA03037B613B68DB78282B9B
:1005300008D1BB6903F108034FF0010202FA03F28C
:100540007B685A613B68DB78482B08D1BB6903F1B3
:1005500008034FF0010202FA03F27B681A61BB69DB
:1005600003F10103BB61BB69072BB2D97B687A69D0
:100570005A6007F12407BD4680BC704780B485B03F
:1005800000AF78600B467B804FF00003FB737B6805
:100590009B681A467B8802EA0303002B03D04FF0C6
:1005A0000103FB7302E04FF00003FB73FB7B184673
:1005B00007F11407BD4680BC704700BF80B483B00C
:1005C00000AF786013460A467A807B707B78002BF8
:1005D00003D07A887B681A6102E07A887B685A6166
:1005E00007F10C07BD4680BC704700BF80B58CB0DA
:1005F00004AF4FF012033B724FF000037B724FF0D9
:100600000003BB724FF00103FB7207F108031846A9
:1006100003F0AAFF4FF400704FF0010101F006FA59
:100620004FF004004FF0010101F000FA4FF0010318
:10063000BB804FF00003FB714FF00303BB7107F168
:1006400004034FF40060C4F201001946FFF7B6FE40
:100650004FF00003FB604FF001033B744FF00003C9
:100660007B744FF460237B614FF00003BB614FF05C
:1006700000033B7707F10C034FF41050C4F2010064
:10068000194602F05BF94FF41050C4F201004FF02C
:10069000010102F049FB4FF41050C4F201004FF089
:1006A00000014FF001024FF0070302F095FA4FF4FA
:1006B0001050C4F201004FF4E04102F055FA4FF43B
:1006C0001050C4F201004FF0010102F031FA4FF472
:1006D0001050C4F201004FF0010102F08FF94FF405
:1006E0001050C4F2010002F0CBF900BF4FF41050DB
:1006F000C4F2010002F0D4F90346002BF6D14FF406
:100700001050C4F201004FF490614FF0010202F06A
:1007100091F94FF41050C4F2010002F0DDF900BF6E
:100720004FF41050C4F2010002F0E6F90346002B2A
:10073000F6D145F2AC53C0F600034FF0010200922F
:100740004FF0000201924FF0000202924FF00002BF
:10075000039240F2CD70C0F6000019464FF08002BF
:100760004FF0000301F0F6F907F12007BD4680BD08
:1007700080B500AF4FF41050C4F201004FF4906107
:1007800002F012FB0346002B1DD04FF41050C4F2B0
:1007900001004FF4906102F03DFB4FF41050C4F2A1
:1007A00001004FF0140102F0E5FA03461A4641F247
:1007B0002813C2F200031A8040F20803C2F20003B9
:1007C0004FF001021A70184680BD00BF80B584B09A
:1007D00000AF78604FF00003FB7340F20C03C2F2ED
:1007E00000034FF000021A604FF00003FB7331E08A
:1007F0004FF0050001F0E4FA4FF41050C4F201008C
:100800004FF0010102F0CCF901E003F0CFF840F223
:100810000803C2F200031B78002BF6D040F2080355
:10082000C2F200034FF000021A7041F22813C2F224
:1008300000031B881A4640F20C03C2F200031B6837
:10084000D21840F20C03C2F200031A60FB7B03F1E2
:100850000103FB73FB7B1F2BCAD940F20C03C2F2CE
:1008600000031B684FEA531241F21433C2F2000333
:100870009A6041F22813C2F200031B884FF0000077
:10088000194600F07BF841F22C13C2F200034FF03E
:10089000000283F82E20A0E780B485B000AF786016
:1008A00039604FF00003FB604FF00003BB604FF472
:1008B000E843C4F200031B68FB607B6840F6FE72ED
:1008C00002FA03F36FEA0303FA6802EA0303FB6028
:1008D0003B681A683B685B681A433B689B681A432D
:1008E0003B68DB6842EA0303BB607B68BA6802FAD4
:1008F00003F3FA6842EA0303FB604FF4E843C4F2EF
:100900000003FA681A6007F11407BD4680BC7047FF
:1009100080B483B000AF78600B46FB70FB78002B8F
:1009200012D04FF4E843C4F200034FF4E842C4F29B
:100930000002126811467A684FF0010000FA02F2D4
:1009400041EA02021A6013E04FF4E843C4F20003E4
:100950004FF4E842C4F20002126811467A684FF080
:10096000010000FA02F26FEA020201EA02021A60D2
:1009700007F10C07BD4680BC704700BF80B485B04E
:1009800000AF78600B467B804FF00003FB604FF4B4
:10099000E843C4F20003FB60FA687B68D31803F1F4
:1009A0000803FB60FB687A881A6007F11407BD46EC
:1009B00080BC704700000000B0B588B000AFF860A0
:1009C000B9601346FB71FB79032B00F2348101A15E
:1009D00051F823F0E50900084B0A0008F30A000863
:1009E000950B00084FF001031C46B868AE4904F0AF
:1009F00025FC0346002B02D14FF000031C46E3B256
:100A0000002B01D0A84BBB604FF001031C46B86817
:100A1000A64904F031FC0346002B02D14FF000033D
:100A20001C46E3B2002B01D0A04BBB60B86804F0B9
:100A30002DFC034607F11002104645F2FC51C0F6AA
:100A400000011A4600F0ACFFF6E04FF001031C462F
:100A5000B868954904F0F2FB0346002B02D14FF031
:100A600000031C46E3B2002B01D08F4BBB60B8687B
:100A700004F05CF802460B464FF001010C461046AC
:100A8000194683A3D3E9002304F022F90346002B7F
:100A900002D14FF000031C46E3B2002B01D0844B7F
:100AA000BB60B86804F0F2FB0546B868814904F001
:100AB00027FA0346184604F0E9FB02464CF6CD43FC
:100AC000CCF6CC43A3FB02134FEAD30423464FEAF0
:100AD00083031B194FEA4303D41A07F11003184686
:100AE00045F20061C0F600012A46234600F058FF97
:100AF000A2E04FF001031C46B8686B4904F09EFB6E
:100B00000346002B02D14FF000031C46E3B2002B3A
:100B100001D0654BBB60B86804F008F802460B468C
:100B20004FF001010C46104619465BA3D3E90023A0
:100B300004F0CEF80346002B02D14FF000031C4610
:100B4000E3B2002B01D05C4BBB60B86804F09EFBA5
:100B50000446B868594904F0D3F90346184604F02E
:100B600095FB024648F21F53C5F2EB13A3FB021399
:100B70004FEA53134FF0640101FB03F3D31A07F15B
:100B80001002104645F20861C0F60001224600F04E
:100B900007FF51E04FF001031C46B868424904F0DA
:100BA0004DFB0346002B02D14FF000031C46E3B27D
:100BB000002B01D03C4BBB60B86803F0B7FF024686
:100BC0000B464FF001010C461046194634A3D3E9F9
:100BD000002304F07DF80346002B02D14FF0000300
:100BE0001C46E3B2002B01D0354BBB60B86804F063
:100BF0004DFB0446B868334904F082F903461846B1
:100C000004F044FB024644F6D353C1F26203A3FB53
:100C100002134FEA93134FF47A7101FB03F3D31AD3
:100C200007F11002104645F21061C0F6000122469D
:100C300000F0B6FE00E000BF41F25433C2F2000300
:100C40001B6818464FF000014FF0FF324FF00003D1
:100C500003F018F80346012B13D107F11003F868CD
:100C6000194600F031F841F25433C2F200031B6818
:100C700018464FF000014FF000024FF0000302F061
:100C80006FFF07F12007BD46B0BD00BFAFF3008086
:100C900033333333333F8F408FC2F5285CFF5840E6
:100CA000736891ED7CFF234000000000003C1C466F
:100CB0009AF9794400002041E1FAC7420000C84295
:100CC000E7FB1F4100007A44F0B585B000AF7860C3
:100CD00039604FF00003FB734FF00003BB734FF01C
:100CE00000037B734FF000033B73386804F0F0FBA4
:100CF00003463B737B685B8819467B681B881C46F0
:100D00007B68D88941F22C12C2F200020B464FEAEE
:100D1000C3035B1A4FEA43031B194FEA4303D3187B
:100D200002465A807B685B8819467B681B881C4694
:100D30007B68188A41F22C12C2F200020B464FEA7D
:100D4000C3035B1A4FEA43031B1903F101034FEA84
:100D50004303D31802465A807B685B8819467B6838
:100D60001B881C467B68988941F22C12C2F2000253
:100D70000B464FEAC3035B1A4FEA43031B1903F107
:100D800002034FEA4303D31802465A807B685B880C
:100D900019467B681B881C467B68188941F22C1217
:100DA000C2F200020B464FEAC3035B1A4FEA430349
:100DB0001B1903F103034FEA4303D31802465A8079
:100DC0007B685B8819467B681B881C467B68588952
:100DD00041F22C12C2F200020B464FEAC3035B1A27
:100DE0004FEA43031B1903F104034FEA4303D318EB
:100DF00002465A807B685B8819467B681B881846C8
:100E000041F22C12C2F200020B464FEAC3035B1AF6
:100E10004FEA43031B1803F105034FEA4303D318BA
:100E20004FF480725A807B685B8819467B681B8808
:100E3000184641F22C12C2F200020B464FEAC303DD
:100E40005B1A4FEA43031B1803F106034FEA4303FF
:100E5000D3184FF400725A807B685B8819467B6810
:100E60001B88184641F22C12C2F200020B464FEAD0
:100E7000C3035B1A4FEA43031B1803F107034FEA4E
:100E80004303D3184FF440725A807B685B8819463D
:100E90007B681B88184641F22C12C2F200020B46F6
:100EA0004FEAC3035B1A4FEA43031B1803F108031D
:100EB0004FEA4303D3184FF480625A807B685B8803
:100EC00019467B681B88184641F22C12C2F20002B8
:100ED0000B464FEAC3035B1A4FEA43031B1803F1A7
:100EE00009034FEA4303D3184FF4A0625A807B688A
:100EF0005B8819467B681B88184641F22C12C2F2A7
:100F000000020B464FEAC3035B1A4FEA43031B1868
:100F100003F10A034FEA4303D3184FF4C0625A8027
:100F20007B685B8819467B681B88184641F22C1247
:100F3000C2F200020B464FEAC3035B1A4FEA4303B7
:100F40001B1803F10B034FEA4303D3184FF4E0627D
:100F50005A807B685B8819467B681B88184641F27B
:100F60002C12C2F200020B464FEAC3035B1A4FEA8F
:100F700043031B1803F10C034FEA4303D3184FF448
:100F800000625A807B7B03F105037B734FF0000303
:100F9000FB7352E1FB7B3A68D3181B782F2B3BD9AC
:100FA000FB7B3A68D3181B78392B35D87B685B8874
:100FB00019467D7B7B681B881C46FB7B3A68D318EF
:100FC0001B78A3F1300245F2BC53C0F600039B1816
:100FD000DB7F1A467B7BA3F104039BB24FEA03231A
:100FE0009BB29BB242EA03039BB298B241F22C122D
:100FF000C2F200020B464FEAC3035B1A4FEA4303F7
:101000005B191B194FEA4303D31802465A807B7BB6
:1010100003F101037B730CE1FB7B3A68D3181B7867
:101020002E2B40F0B580FB7B002B36D17B685B8894
:1010300019467D7B7B681B881C467B685B8818464D
:1010400097F80DC07B681B881E4641F22C12C2F235
:10105000000203464FEAC3031B1A4FEA43036344EB
:101060009B194FEA4303D3185B8843F0800398B27F
:1010700041F22C12C2F200020B464FEAC3035B1A84
:101080004FEA43035B191B194FEA4303D318024687
:101090005A807B7B03F101037B73FB7B002B00F009
:1010A000C780FB7B03F1FF333A68D3181B782E2BE4
:1010B00037D17B685B8819467D7B7B681B881C4623
:1010C0007B685B88184697F80DC07B681B881E46B6
:1010D00041F22C12C2F2000203464FEAC3031B1A6C
:1010E0004FEA430363449B194FEA4303D3185B88D9
:1010F00043F0800398B241F22C12C2F200020B4678
:101100004FEAC3035B1A4FEA43035B191B194FEA0B
:101110004303D31802465A807B7B03F101037B73A0
:1011200087E07B685B8819467B7B03F1FF357B6832
:101130001B881C467B685B8818467B7B03F1FF3C61
:101140007B681B881E4641F22C12C2F20002034645
:101150004FEAC3031B1A4FEA430363449B194FEA48
:101160004303D3185B8843F0800398B241F22C12FA
:10117000C2F200020B464FEAC3035B1A4FEA430375
:101180005B191B194FEA4303D31802465A8050E0FB
:101190004FF00A03BB7340E0FB7B3A68D3181A7820
:1011A000B97B45F2BC53C0F600035B5C9A4230D178
:1011B0007B685B8819467D7B7B681B881C46BA7BF5
:1011C00045F2BC53C0F600039B18DB7F1A467B7BBD
:1011D000A3F104039BB24FEA03239BB29BB242EA02
:1011E00003039BB298B241F22C12C2F200020B46EA
:1011F0004FEAC3035B1A4FEA43035B191B194FEA1B
:101200004303D31802465A807B7B03F101037B73AF
:1012100006E0BB7B03F10103BB73BB7B1E2BBBD979
:101220007A7B7B68DB8803F105039A420BDC00E0E4
:1012300000BFFB7B03F10103FB73FA7B3B7B9A420C
:10124000FFF4A8AE00E000BF7B7B184607F114074F
:10125000BD46F0BD80B582B000AF786002F0F2FF0D
:1012600000F08AF800F03EFCFFF7C0F902F018F831
:1012700001F0E8FD4FF0000000F042FD07F1080723
:10128000BD4680BD80B584B004AFFEF785FF45F252
:101290001863C0F600034FF0010200924FF0000205
:1012A00001924FF0000202924FF00002039241F2CD
:1012B0005520C0F6000019464FF080024FF00003A1
:1012C00000F048FC00F0AAFDFEE700BF80B400AFCC
:1012D00041F22C13C2F200034FF001021A7041F2E6
:1012E0002C13C2F200034FF00002DA8341F22C13F8
:1012F000C2F200034FF000029A8341F22C13C2F2B3
:1013000000034FF001021A8441F22C13C2F20003D1
:101310004FF004025A8441F22C13C2F2000340F64B
:1013200009229A8441F22C13C2F200034FF4106296
:10133000DA8441F22C13C2F200035B8C03F1FF3319
:101340009BB29BB243F430639BB29AB241F22C132E
:10135000C2F200031A8541F22C13C2F2000340F6D8
:1013600001425A8541F22C13C2F200034FF470621D
:101370009A85BD4680BC704780B582B000AF4FF003
:101380000003FB71FFF7A2FF02F02AFFFB7918466A
:1013900007F10807BD4680BD80B483B000AF786018
:1013A0000B46FB707B68FA781A704FF00103184601
:1013B00007F10C07BD4680BC704700BF80B485B004
:1013C00000AF786039604FF00003FB600FE03B68CE
:1013D0001A787B681A707B6803F101037B603B68B5
:1013E00003F101033B60FB6803F10103FB603B6811
:1013F0001B78002BEBD1FB68184607F11407BD469C
:1014000080BC704780B586B000AFF8607A603B6002
:101410000B46FB724FF000037B617B6803F1FF33E7
:101420007B603B68092B25D93A684CF6CD43CCF656
:10143000CC43A3FB02134FEAD303FA7AF8681146B0
:101440007A68FFF7DFFF78617B69FA68D318FB6081
:1014500013E0FB7AF8681946FFF79EFFFB6803F17B
:101460000103FB607B6903F101037B617B6803F18E
:10147000FF337B607B68002BEBDC39684CF6CD4397
:10148000CCF6CC43A3FB01234FEAD30213464FEA29
:1014900083039B184FEA4303CA1AD3B203F1300304
:1014A000DBB2F8681946FFF777FF03467A69D3186D
:1014B0007B617B69184607F11807BD4680BD00BFF8
:1014C00080B586B000AFF8607A603B600B46FB7277
:1014D0004FF000037B613B68002B04DA3B68C3F1EB
:1014E00000033B6101E03B683B617B6803F1FF3334
:1014F0007B603B69092B2AD93B68002B12DA3A69D9
:101500004CF6CD43CCF6CC43A3FB02134FEAD303F6
:10151000C3F10003FA7AF86811467A68FFF7D0FF42
:1015200078610FE03A694CF6CD43CCF6CC43A3FB8F
:1015300002134FEAD303FA7AF86811467A68FFF784
:10154000BFFF78617B69FA68D318FB602BE03B68CA
:10155000002B15DA7B6803F1FF337B6010E0FB7A28
:10156000F8681946FFF718FFFB6803F10103FB60F9
:101570007B6903F101037B617B6803F1FF337B60CF
:101580007B68002BEBDC3B68002B0CDAF8684FF033
:101590002D01FFF701FF03467A69D3187B61FB68D1
:1015A00003F10103FB6039694CF6CD43CCF6CC4323
:1015B000A3FB01234FEAD30213464FEA83039B1890
:1015C0004FEA4303CA1AD3B203F13003DBB2F8681F
:1015D0001946FFF7E1FE03467A69D3187B617B6900
:1015E000184607F11807BD4680BD00BF80B588B01A
:1015F00002AFF8607A600A46FA72FB704FF000039F
:101600007B617B6803F1FF337B603B6A4FEA131316
:10161000002B24D03B6A4FEA1311FA7AFB78009131
:10162000F86811467A68FFF7E1FF03467A69D31834
:101630007B617B69FA68D318FB6013E0FB7AF8687A
:101640001946FFF7A9FEFB6803F10103FB607B6904
:1016500003F101037B617B6803F1FF337B607B68EF
:10166000002BEBDC3B6A03F00F03092B0CD83B6A21
:10167000DBB203F00F03DBB203F13003DBB2F86837
:101680001946FFF789FE1BE0FB78002B0CD03B6A64
:10169000DBB203F00F03DBB203F13703DBB2F86810
:1016A0001946FFF779FE0BE03B6ADBB203F00F034C
:1016B000DBB203F15703DBB2F8681946FFF76CFEA3
:1016C0007B6903F101037B617B69184607F1180709
:1016D000BD4680BD80B58AB002AFF860B9607A605F
:1016E0003B604FF00003BB614FF000037B61FB6880
:1016F000002B00F01C81FB684FF000021A7017E10C
:101700007B681B78252B10D07B681A78FB681A70D1
:10171000FB6803F10103FB607B6803F101037B605D
:101720007B6903F101037B6102E17B6803F1010343
:101730001B78252B10D1FB684FF025021A70FB682F
:1017400003F10103FB607B6803F102037B607B69AB
:1017500003F101037B61EBE04FF02003FB774FF0D7
:101760000003BB777B6803F101037B607B681B7818
:10177000302B1BD14FF03003FB777B6803F1010363
:101780007B6014E0BB7F1A464FEA8202D3184FEA0F
:101790004303DAB27B681B78D318DBB2A3F13003C2
:1017A000BB777B6803F101037B6000E000BF7B68CF
:1017B0001B782F2B03D97B681B78392BE2D9BA7F92
:1017C0007B69D3181A46BB689A4205D9BB68DAB25E
:1017D0007B69DBB2D31ABB777B681B78A3F1580314
:1017E000202B00F2948001A252F823F0C1180008C7
:1017F0000F1900080F1900080F1900080F19000829
:101800000F1900080F1900080F1900080F19000818
:101810000F1900080F190008F718000871180008C0
:101820000F1900080F1900080F1900080F190008F8
:10183000711800080F1900080F1900080F19000887
:101840000F1900080F1900080F1900080F190008D8
:101850000F1900080F190008E11800080F190008F7
:10186000891800080F1900080F190008A1180008AE
:10187000BA7F3B6803F1040139601B68F97FF8689F
:10188000FFF71EFEB86145E0BA7F3B6803F1040133
:1018900039601B68F97FF868FFF7B4FDB86139E07B
:1018A000BA7F3B6803F1040139601968FB7F00913E
:1018B000F86819464FF00003FFF798FEB86129E079
:1018C000BA7F3B6803F1040139601968FB7F00911E
:1018D000F86819464FF00103FFF788FEB86119E078
:1018E0003B6803F104023A601B68F8681946FFF789
:1018F00065FDB8610EE03B6803F104023A601B68C5
:10190000DBB2F8681946FFF747FDB86102E04FF017
:10191000FF332CE07B6803F101037B60BB69FA684D
:10192000D318FB607A69BB69D3187B6100E000BF04
:101930007B681B78002B04D07A69BB689A42FFF45D
:10194000DFAE7A69BB689A4204D2FB684FF00002AE
:101950001A700BE0FB6803F1FF33FB60FB684FF08C
:1019600000021A707B6903F1FF337B617B691846C3
:1019700007F12007BD4680BD80B584B000AFF86098
:10198000B9607A60F8684FF06401BA687B68FFF765
:10199000A1FE0346184607F11007BD4680BD00BFF3
:1019A0000EB480B585B000AF786007F12003BB604E
:1019B0007868F969BA68FFF7DFFFF860FB681846D6
:1019C00007F11407BD46BDE8804003B0704700BF73
:1019D00080B483B000AF78600B46FB70FB78002BBF
:1019E0000ED04FF48053C4F202034FF48052C4F27D
:1019F0000202526911467A6841EA02025A610FE016
:101A00004FF48053C4F202034FF48052C4F2020236
:101A1000526911467A686FEA020201EA02025A61CB
:101A200007F10C07BD4680BC704700BF80B483B08F
:101A300000AF78600B46FB70FB78002B0ED04FF4A4
:101A40008053C4F202034FF48052C4F2020292693E
:101A500011467A6841EA02029A610FE04FF480531E
:101A6000C4F202034FF48052C4F20202926911469A
:101A70007A686FEA020201EA02029A6107F10C0732
:101A8000BD4680BC704700BF80B483B000AF7860B3
:101A90000B46FB70FB78002B0ED04FF48053C4F242
:101AA00002034FF48052C4F20202D26911467A68EE
:101AB00041EA0202DA610FE04FF48053C4F20203FC
:101AC0004FF48052C4F20202D26911467A686FEA7A
:101AD000020201EA0202DA6107F10C07BD4680BC8E
:101AE000704700BF80B586B000AF4FF004004FF0E4
:101AF0000101FFF79BFF4FF000504FF00101FFF78E
:101B0000C3FF4FF01003BB804FF00003FB7107F1E0
:101B100004034FF40060C4F201001946FEF74EFCC6
:101B20004FF00003BB604FF00003FB604FF0000379
:101B30007B6107F108034FF000001946FEF7ACFE89
:101B40004FF000004FF00101FEF7E2FE07F1180729
:101B5000BD4680BD80B58AB002AFF860B9603B6019
:101B60001346FB80FB881846396B00F0D9FDB8613D
:101B7000BB69002B00F0A680BB691A6BFB8803F1E0
:101B8000FF334FEA8303D3187B617B6923F007039C
:101B90007B61FB880093B869B968BA6A7B6B00F017
:101BA0009DFC7869F9683A6801F08CFE03461A4694
:101BB000BB691A60FB6A002B02D0FB6ABA691A6023
:101BC00001F000FF40F2E803C2F200031B6803F1DA
:101BD000010240F2E803C2F200031A6040F210036F
:101BE000C2F200031B68002B0FD140F21003C2F2B7
:101BF0000003BA691A6040F2E803C2F200031B68EE
:101C0000012B18D100F0A8FC15E040F2F803C2F255
:101C100000031B68002B0ED140F21003C2F2000338
:101C20001B68DA6ABB6A9A4205D840F21003C2F216
:101C30000003BA691A60BB69DA6A40F2F003C2F2C3
:101C400000031B689A4206D9BB69DA6A40F2F003C6
:101C5000C2F200031A6040F20C13C2F200031B68C8
:101C600003F1010240F20C13C2F200031A60BB69D7
:101C7000DA6A40F2F403C2F200031B689A4206D902
:101C8000BB69DA6A40F2F403C2F200031A60BB696E
:101C9000DA6A13464FEA83039B184FEA83031A4616
:101CA00040F21403C2F20003D218BB6903F104032B
:101CB0001046194601F076FD4FF00103FB6101F07B
:101CC00097FE02E04FF0FF33FB61FB69012B11D15E
:101CD00040F2F803C2F200031B68002B0AD040F266
:101CE0001003C2F200031B68DA6ABB6A9A4201D28F
:101CF00001F05CFEFB69184607F12007BD4680BD78
:101D000080B584B000AF786001F05CFE40F2100353
:101D1000C2F200031B687A689A4202D14FF00003B6
:101D20007B607B68002B05D140F21003C2F20003F8
:101D30001B6800E07B68FB60FB6803F10403184646
:101D400001F096FDFB689B6A002B05D0FB6803F150
:101D50001803184601F08CFDFB6803F1040340F200
:101D6000BC00C2F20000194601F01CFD40F2D00395
:101D7000C2F200031B6803F1010240F2D003C2F279
:101D800000031A6040F20C13C2F200031B6803F157
:101D9000010240F20C13C2F200031A6001F028FEA7
:101DA00040F2F803C2F200031B68002B04D07B68EA
:101DB000002B01D101F0FAFD07F11007BD4680BDEF
:101DC00080B584B000AF78604FF00003FB607B68A3
:101DD000002B19D000F05CF840F2EC03C2F20003D3
:101DE0001A687B68D318BB6040F21003C2F200038C
:101DF0001B6803F10403184601F03AFDB86800F0CF
:101E000049FC00F057F8F860FB68002B01D101F0A5
:101E1000CDFD07F11007BD4680BD00BF80B586B07F
:101E200004AF45F22063C0F600034FF000020092B9
:101E30004FF0000201924FF0000202924FF00002B8
:101E4000039242F2B940C0F6000019464FF08002FA
:101E50004FF00003FFF77EFE78607B68012B13D103
:101E60004FF0BF0080F3118840F2F803C2F2000384
:101E70004FF001021A6040F2EC03C2F200034FF08F
:101E800000021A6001F068FD07F10807BD4680BD39
:101E900080B400AF40F2FC03C2F200031B6803F100
:101EA000010240F2FC03C2F200031A60BD4680BC8E
:101EB000704700BF90B583B000AF4FF000037B6068
:101EC00001F080FD40F2FC03C2F200031B6803F145
:101ED000FF3240F2FC03C2F200031A6040F2FC033E
:101EE000C2F200031B68002B40F0868040F2E8033A
:101EF000C2F200031B68002B7ED04FF000033B6052
:101F00003DE040F2A803C2F20003DB68DB681C4638
:101F100004F11803184601F0ABFC04F10403184661
:101F200001F0A6FCE26A40F2F403C2F200031B686F
:101F30009A4205D9E26A40F2F403C2F200031A6041
:101F4000E26A13464FEA83039B184FEA83031A465B
:101F500040F21403C2F20003D21804F10403104645
:101F6000194601F01FFCE26A40F21003C2F20003BE
:101F70001B68DB6A9A4202D34FF001033B6040F2D8
:101F8000A803C2F200031B68002BBAD140F2001371
:101F9000C2F200031B68002B18D00DE000F034F8EB
:101FA00040F20013C2F200031B6803F1FF3240F25B
:101FB0000013C2F200031A6040F20013C2F20003E1
:101FC0001B68002BEAD14FF001033B603B68012BFB
:101FD00006D040F20413C2F200031B68012B0BD1A0
:101FE0004FF001037B6040F20413C2F200034FF094
:101FF00000021A6001F0DAFC01F0FAFC7B68184676
:1020000007F10C07BD4690BD80B584B000AF40F22B
:10201000FC03C2F200031B68002B40F0C08040F2BA
:10202000EC03C2F200031B6803F1010240F2EC036F
:10203000C2F200031A6040F2EC03C2F200031B6814
:10204000002B40D140F2A003C2F200031B68FB60EA
:1020500040F2A403C2F200031A6840F2A003C2F2E5
:1020600000031A6040F2A403C2F20003FA681A6087
:1020700040F20813C2F200031B6803F1010240F2B0
:102080000813C2F200031A6040F2A003C2F2000378
:102090001B681B68002B07D140F20003C2F200034B
:1020A0004FF0FF321A600EE040F2A003C2F20003CC
:1020B0001B68DB68DB68BB60BB685A6840F20003E2
:1020C000C2F200031A6040F2EC03C2F200031A6885
:1020D00040F20003C2F200031B689A426BD340F245
:1020E000A003C2F200031B681B68002B07D140F25B
:1020F0000003C2F200034FF0FF321A605BE040F2CF
:10210000A003C2F200031B68DB68DB68BB60BB682E
:102110005B687B6040F2EC03C2F200031A687B68E4
:102120009A4206D240F20003C2F200037A681A60B3
:1021300041E0BB6803F10403184601F099FBBB685A
:102140009B6A002B05D0BB6803F11803184601F009
:102150008FFBBB68DA6A40F2F403C2F200031B682B
:102160009A4206D9BB68DA6A40F2F403C2F200036D
:102170001A60BB68DA6A13464FEA83039B184FEA7A
:1021800083031A4640F21403C2F20003D218BB685C
:1021900003F104031046194601F004FB9FE740F2E7
:1021A0000013C2F200031B6803F1010240F20013A6
:1021B000C2F200031A6007F11007BD4680BD00BFE0
:1021C00080B483B000AF40F2FC03C2F200031B688E
:1021D000002B14D040F20413C2F200034FF00102AE
:1021E0001A604FE040F2F403C2F200031B6803F1EF
:1021F000FF3240F2F403C2F200031A6000E000BFB5
:1022000040F2F403C2F200031A6813464FEA830354
:102210009B184FEA83031A4640F21403C2F20003EC
:10222000D3181B68002BDDD040F2F403C2F2000388
:102230001A6813464FEA83039B184FEA83031A4632
:1022400040F21403C2F20003D3187B607B685B6822
:102250005B681A467B685A607B685A687B6803F142
:1022600008039A4205D17B685B685B681A467B6805
:102270005A607B685B68DB681A4640F21003C2F262
:1022800000031A6007F10C07BD4680BC704700BF11
:1022900080B584B000AF7860396040F21003C2F2BC
:1022A00000031B6803F118037868194601F0A4FACB
:1022B00040F21003C2F200031B6803F10403184646
:1022C00001F0D6FA3B68B3F1FF3F0ED140F21003A4
:1022D000C2F200031B6803F1040340F2D400C2F20F
:1022E0000000194601F05EFA0AE040F2EC03C2F287
:1022F00000031A683B68D318FB60F86800F0CAF95D
:1023000007F11007BD4680BD80B584B000AF78608E
:102310007B68DB68DB68BB60BB6803F118031846A9
:1023200001F0A6FA40F2FC03C2F200031B68002B86
:102330002BD1BB6803F10403184601F099FABB687E
:10234000DA6A40F2F403C2F200031B689A4206D92B
:10235000BB68DA6A40F2F403C2F200031A60BB6899
:10236000DA6A13464FEA83039B184FEA83031A463F
:1023700040F21403C2F20003D218BB6803F1040355
:102380001046194601F00EFA09E0BB6803F1180384
:1023900040F2A800C2F20000194601F003FABB683F
:1023A000DA6A40F21003C2F200031B68DB6A9A4249
:1023B00003D34FF00103FB6002E04FF00003FB602A
:1023C000FB68184607F11007BD4680BD80B483B096
:1023D00000AF786040F20813C2F200031A687B680D
:1023E0001A6040F2EC03C2F200031A687B685A607C
:1023F00007F10C07BD4680BC704700BF80B584B0B4
:1024000000AF7860396001F0DDFA3B681B68B3F11A
:10241000FF3F03D14FF00003FB6038E07B681A6890
:1024200040F20813C2F200031B689A420CD07B688A
:102430005A6840F2EC03C2F200031B689A4203D8C8
:102440004FF00103FB6022E040F2EC03C2F2000314
:102450001A687B685B68D21A3B681B689A4213D281
:102460003B681A687B68596840F2EC03C2F20003CB
:102470001B68CB1AD2183B681A607868FFF7A6FF72
:102480004FF00003FB6002E04FF00103FB6001F03E
:10249000AFFAFB68184607F11007BD4680BD00BFC4
:1024A00080B400AF40F20413C2F200034FF0010207
:1024B0001A60BD4680BC704780B582B000AF7860BE
:1024C00000E000BF00F09AF840F21403C2F20003EB
:1024D0001B68012BF5D901F069FAF3E780B584B0E8
:1024E00000AFF860B9607A603B60FB6803F13403C9
:1024F0001A46BB68104619464FF0100203F018F850
:10250000FB684FF0000283F843207B68042B02D95C
:102510004FF004037B60FB687A68DA62FB687A68D4
:102520005A64FB6803F10403184601F02DF9FB68B7
:1025300003F11803184601F027F9FB68FA681A61DD
:102540007B68C3F10502FB689A61FB68FA685A620E
:1025500007F11007BD4680BD80B582B000AF4FF0D7
:1025600000037B6013E07A6813464FEA83039B18ED
:102570004FEA83031A4640F21403C2F20003D31851
:10258000184601F0DDF87B6803F101037B607B688E
:10259000042BE8D940F27800C2F2000001F0D0F834
:1025A00040F28C00C2F2000001F0CAF840F2A8002C
:1025B000C2F2000001F0C4F840F2BC00C2F2000018
:1025C00001F0BEF840F2D400C2F2000001F0B8F809
:1025D00040F2A003C2F2000340F27802C2F200020D
:1025E0001A6040F2A403C2F2000340F28C02C2F26D
:1025F00000021A6007F10807BD4680BD80B582B0B1
:1026000000AF40F2D003C2F200031B68002B3CD0A5
:10261000FFF73EFC40F2BC03C2F200031B68002B34
:1026200014BF002301237B60FFF744FC7B68002B71
:102630002BD101F0C7F940F2BC03C2F20003DB6802
:10264000DB683B603B6803F10403184601F010F9B6
:1026500040F2E803C2F200031B6803F1FF3240F2CC
:10266000E803C2F200031A6040F2D003C2F2000392
:102670001B6803F1FF3240F2D003C2F200031A607C
:1026800001F0B6F9386800F085F807F10807BD4693
:1026900080BD00BF80B582B000AF786040F210030B
:1026A000C2F200031B687A685A6040F2EC03C2F27F
:1026B00000031B687A689A4210D240F2A403C2F267
:1026C00000031A6840F21003C2F200031B6803F112
:1026D00004031046194601F08FF81DE040F2A003F4
:1026E000C2F200031A6840F21003C2F200031B6832
:1026F00003F104031046194601F07EF840F200038E
:10270000C2F200031B687A689A4205D240F20003C5
:10271000C2F200037A681A6007F10807BD4680BD5F
:1027200080B584B000AF03463960FB804FF04800AD
:1027300002F042F80346FB60FB68002B23D03B68A5
:10274000002B07D1FB884FEA8303184602F034F8C8
:10275000034600E03B68FA681363FB681B6B002BC1
:1027600006D1F86802F074F84FF00003FB600AE04D
:10277000FB681A6BFB884FEA830310464FF0A501F4
:102780001A4602F04BFEFB68184607F11007BD46DB
:1027900080BD00BF80B582B000AF78607B681B6BE6
:1027A000184602F055F8786802F052F807F1080769
:1027B000BD4680BD80B483B000AF40F21003C2F2CA
:1027C00000031B687B607B68184607F10C07BD4659
:1027D00080BC704780B584B000AF78607B68FB60D8
:1027E000FB68DA6A40F21003C2F200031B68DB6A7E
:1027F0009A4257D240F21003C2F200031B68DB6A10
:10280000C3F10502FB689A61FB685969FB68DA6AE3
:1028100013464FEA83039B184FEA83031A4640F29C
:102820001403C2F20003D318994233D1FB6803F1B9
:102830000403184601F01CF840F21003C2F2000332
:102840001B68DA6AFB68DA62FB68DA6A40F2F40352
:10285000C2F200031B689A4206D9FB68DA6A40F2AA
:10286000F403C2F200031A60FB68DA6A13464FEA07
:1028700083039B184FEA83031A4640F21403C2F203
:102880000003D218FB6803F104031046194600F058
:1028900089FF07E040F21003C2F200031B68DA6A06
:1028A000FB68DA6207F11007BD4680BD80B584B0D1
:1028B00000AF78607B68FB607B68002B3AD0FB68D8
:1028C000DA6AFB685B6C9A4234D0FB6803F104035C
:1028D000184600F0CDFFFB685A6CFB68DA62FB68B3
:1028E000DB6AC3F10502FB689A61FB68DA6A40F2B1
:1028F000F403C2F200031B689A4206D9FB68DA6A45
:1029000040F2F403C2F200031A60FB68DA6A13466D
:102910004FEA83039B184FEA83031A4640F21403DD
:10292000C2F20003D218FB6803F1040310461946F3
:1029300000F038FF07F11007BD4680BD80B485B0B8
:1029400000AF786039604FF00003FB604FF0000388
:10295000FB727B685B68FB60FB6823F4702323F4E5
:102960008073FB603B681A683B681B794FEA03235E
:1029700042EA0303FA6842EA0303FB607B68FA68F1
:102980005A607B689B68FB60FA684FF2FD73CFF674
:10299000F17302EA0303FB603B68DA683B689B68FB
:1029A0001A433B685B794FEA430342EA0303FA6840
:1029B00042EA0303FB607B68FA689A607B68DB6A23
:1029C000FB60FB6823F47003FB603B681B7C03F136
:1029D000FF33DAB2FB7A42EA0303FB72FB7A4FEA77
:1029E0000353FA6842EA0303FB607B68FA68DA6221
:1029F00007F11407BD4680BC704700BF80B483B0A8
:102A000000AF78600B46FB70FB78002B06D07B682C
:102A10009B6843F001027B689A6005E07B689B68D5
:102A200023F001027B689A6007F10C07BD4680BC69
:102A3000704700BF80B485B000AF786013460A4687
:102A40007A807B704FF00003FB737B88FB737B788D
:102A5000002B07D07B685B681A46FB7B1A437B68B8
:102A60005A6008E07B685B681A46FB7B6FEA0303E9
:102A70001A407B685A6007F11407BD4680BC704756
:102A800080B483B000AF78607B689B6843F0080235
:102A90007B689A6007F10C07BD4680BC704700BF99
:102AA00080B485B000AF78604FF00003FB737B68A3
:102AB0009B6803F00803002B03D04FF00103FB7366
:102AC00002E04FF00003FB73FB7B184607F114078D
:102AD000BD4680BC704700BF80B483B000AF786053
:102AE0007B689B6843F004027B689A6007F10C07DF
:102AF000BD4680BC704700BF80B485B000AF786031
:102B00004FF00003FB737B689B6803F00403002B0A
:102B100003D04FF00103FB7302E04FF00003FB739F
:102B2000FB7B184607F11407BD4680BC704700BF09
:102B300080B483B000AF78600B46FB70FB78002B4D
:102B400006D07B685B6843F480627B685A6005E06E
:102B50007B685B6823F480627B685A6007F10C072E
:102B6000BD4680BC704700BF80B485B000AF7860C0
:102B700039604FF00003FB607B689B68FB60FB687B
:102B800023F4E043FB60FA683B6842EA0303FB601E
:102B90007B68FA689A6007F11407BD4680BC7047ED
:102BA00080B483B000AF78600B46FB70FB78002BDD
:102BB00006D07B689B6843F402127B689A6005E04C
:102BC0007B689B6823F402127B689A6007F10C070C
:102BD000BD4680BC704700BF80B487B000AF78604E
:102BE000F970BA707B704FF000037B614FF0000307
:102BF0003B614FF00003FB60FB78092B29D97B6810
:102C0000DB687B61FA7813464FEA43039B18A3F114
:102C10001E034FF0070202FA03F33B613B696FEAC0
:102C200003037A6902EA03037B617978FA78134631
:102C30004FEA43039B18A3F11E0301FA03F33B6120
:102C40007A693B6942EA03037B617B687A69DA60EF
:102C500024E07B681B697B61FA7813464FEA4303E3
:102C60009B184FF0070202FA03F33B613B696FEADE
:102C700003037A6902EA03037B617978FA781346E1
:102C80004FEA43039B1801FA03F33B617A693B69FE
:102C900042EA03037B617B687A691A617B689B6BFC
:102CA0007B617B6903F440134FEA1353FB60FB68BD
:102CB000DBB26FEA0303DAB2BB78D318DBB203F1FD
:102CC0000303DBB21A4613464FEA83039B184FF007
:102CD0001F0202FA03F33B613B696FEA03037A695F
:102CE00002EA03037B61F978FB68DBB26FEA030356
:102CF000DAB2BB78D318DBB203F10303DBB21A46B6
:102D000013464FEA83039B1801FA03F33B617A6988
:102D10003B6942EA03037B617B687A699A6307F146
:102D20001C07BD4680BC704780B485B000AF78609A
:102D30000B46FB704FF00003FB604FF00003BB60DD
:102D40007B689B6BFB60FB6823F44013FB60FB78A4
:102D500003F1FF33BB60BB684FEA0353FA6842EAF2
:102D60000303FB607B68FA689A6307F11407BD46AA
:102D700080BC704780B485B000AF78600B46FB70B4
:102D80004FF00003FB607B68FB60FA78FB68D318A8
:102D900003F12803FB60FB681B689BB2184607F130
:102DA0001407BD4680BC704780B487B000AF786020
:102DB0000B467B804FF00003FB754FF000033B6137
:102DC0004FF00003FB607B884FEA13239BB23B610B
:102DD0007B685B681A467B88DBB202EA0303FB6010
:102DE0007B681B681A463B6902EA0303002B06D086
:102DF000FB68002B03D04FF00103FB7502E04FF09E
:102E00000003FB75FB7D184607F11C07BD4680BC1F
:102E1000704700BF80B485B000AF78600B467B8000
:102E20004FF00003FB737B884FEA13239BB2FB73C5
:102E3000FB7B6FEA03027B681A6007F11407BD464B
:102E400080BC704780B586B004AF4FF008004FF0EB
:102E50000101FEF7EBFD4FF47053BB804FF002030E
:102E6000BB714FF04803FB7107F104034FF440605E
:102E7000C4F201001946FDF7A1FA45F22863C0F635
:102E800000034FF0010200924FF0000201924FF058
:102E9000000202924FF00002039242F6B960C0F6BF
:102EA000000019464FF040024FF00003FEF752FEBB
:102EB00007F10807BD4680BD80B584B000AF7860DB
:102EC0004FF00003FB7304E000BF02E000BF00E02E
:102ED00000BF4FF00A00FEF773FF00F01FF8034633
:102EE000BB734FF00A00FEF76BFF00F017F80346C4
:102EF0007B73BA7B7B7B9A42E6D1BA7BFB7B9A429F
:102F0000E4D0BB7BFB73BB7B3B73BB7B002BDFD075
:102F10003B7B184600F0D0F8DBE700BF80B500AF80
:102F20004FF44060C4F201004FF48061FDF726FBCE
:102F30000346002B02D14FF045032BE04FF44060D5
:102F4000C4F201004FF40061FDF718FB0346002BAB
:102F500002D14FF051031DE04FF44060C4F2010074
:102F60004FF48051FDF70AFB0346002B02D14FF0CE
:102F70003E030FE04FF44060C4F201004FF40051F3
:102F8000FDF7FCFA0346002B02D14FF02B0301E0C2
:102F90004FF00003184680BD80B483B000AF786066
:102FA0007A6845F23863C0F600039A4206D041F2CF
:102FB0001033C2F200037A681A6000E000BF07F124
:102FC0000C07BD4680BC704780B582B000AF41F2AF
:102FD0001033C2F200031B681A6845F23863C0F66A
:102FE00000039A4218D141F21033C2F200031B6869
:102FF0009A6845F23863C0F600039A420CD041F259
:103000001033C2F200031B689B687B607B68DB683F
:103010001846FFF7C1FF08E041F21033C2F2000387
:103020001B681B681846FFF7B7FF07F10807BD4686
:1030300080BD00BF80B582B000AF4FF00003FB71D0
:1030400041F21033C2F200031A6845F25C63C0F625
:1030500000039A4207D140F21113C2F200034FF06D
:1030600001021A7018E040F21113C2F200034FF08F
:1030700000021A7041F21430C2F200004FF0FF015A
:1030800000F0FAFA41F21033C2F200031B685B69E8
:1030900008481946FDF718FE40F21213C2F2000369
:1030A0004FF000021A704FF00103184607F10807AD
:1030B000BD4680BD4811002080B584B000AF0346F6
:1030C000FB7140F21013C2F200031B78002B41D1B8
:1030D000FB79452B11D0452B06DC2B2B36D03E2B14
:1030E00008D0002B03D032E0512B25D02FE04FF039
:1030F000010352E0FFF768FF29E041F21033C2F20A
:1031000000031B681B7C002B0CD041F21033C2F271
:1031100000031A68FB791046194600F043F84FF097
:1031200001033AE041F21033C2F200031B68DB688E
:103130001846FFF731FF0AE041F21033C2F20003F4
:103140001B689B681846FFF727FF00E000BFFFF7EA
:1031500071FF20E0FB79512B09D140F21013C2F22C
:1031600000034FF000021A70FFF764FF13E041F212
:103170001033C2F200031B681B7CFB60FB68002B52
:1031800009D041F21033C2F200031A68FB791046ED
:10319000194600F007F84FF00103184607F1100731
:1031A000BD4680BD80B582B000AF78600B46FB7035
:1031B00040F21013C2F200034FF001021A707B6854
:1031C0001B7CA3F104031D2B62D801A252F823F04B
:1031D000493200085B3200086D3200087F32000877
:1031E00091320008913200089132000891320008B3
:1031F00091320008913200089132000891320008A3
:103200009132000891320008913200089132000892
:103210009132000891320008913200089132000882
:103220009132000891320008913200089132000872
:103230009132000891320008913200089132000862
:103240009132000891320008FB7818464FF00001D7
:103250004FF0000200F05CF81AE0FB7818464FF0DF
:1032600000014FF0010200F053F811E0FB7818461E
:103270004FF000014FF0020200F04AF808E0FB783E
:1032800018464FF000014FF0030200F041F800BF74
:103290004FF00003184607F10807BD4680BD00BF88
:1032A00080B584B004AF41F21033C2F2000345F29E
:1032B0005C62C0F600021A60FFF7BCFE45F6D4134C
:1032C000C0F600034FF0010200924FF0000201929D
:1032D0004FF0000202924FF00002039243F2F160BD
:1032E000C0F6000019464FF480724FF00003FEF75D
:1032F00031FC41F21430C2F200004FF0FF0100F047
:10330000BBF94FF000031846BD4680BD0000000029
:1033100090B585B000AF13460246FA710A46BA71FD
:103320007B71FB793E2B00F01E81452B03D02B2BAC
:1033300000F043818EE140F21213C2F200031B78C9
:10334000002B40F0958040F21913C2F200034FF0B9
:1033500000021A707B79032B3ED801A252F823F0A9
:10336000713300088B330008A5330008BF33000811
:10337000BA7941F21433C2F200034FEA82129B1869
:1033800003F128031B68FB6026E0BA7941F214338D
:10339000C2F200034FEA82129B1803F130031B684C
:1033A000FB6019E0BA7941F21433C2F200034FEA2C
:1033B00082129B1803F134031B68FB600CE0BA799E
:1033C00041F21433C2F200034FEA82129B1803F158
:1033D00038031B68FB6000BF4FF001031C46F86810
:1033E000A34901F03FFF0346002B02D14FF0000339
:1033F0001C46E3B2002B26D0F86801F097FB02468A
:103400000B464FF001010C461046194694A3D3E930
:10341000002301F049FC0346002B02D14FF00003CA
:103420001C46E3B2002B0ED0924BFB60F86801F013
:103430007DFB02460B468C4845F6E411C0F60001C0
:10344000FEF7AEFA08E0884845F6EC11C0F6000138
:103450004FF0060201F03AFF84488349FDF734FC3F
:1034600040F21213C2F200034FF001021A70F1E0B1
:103470004FF001031C46F8687D4901F0F3FE034656
:10348000002B02D14FF000031C46E3B2002B59D0B1
:10349000F86801F04BFB02460B464FF001010C4669
:1034A000104619466EA3D3E9002301F0FDFB034645
:1034B000002B02D14FF000031C46E3B2002B41D099
:1034C0007B79032B3ED801A252F823F0DD340008AB
:1034D000F7340008113500082B350008BA7941F29D
:1034E0001433C2F200034FEA82129B1803F128033F
:1034F000FA681A6026E0BA7941F21433C2F2000386
:103500004FEA82129B1803F13003FA681A6019E03F
:10351000BA7941F21433C2F200034FEA82129B18C7
:1035200003F13403FA681A600CE0BA7941F21433FB
:10353000C2F200034FEA82129B1803F13803FA68C3
:103540001A6000BF40F21213C2F200034FF00002F3
:103550001A7040F21013C2F200034FF000021A700A
:10356000FFF768FD76E040F21913C2F200031B7802
:1035700003F10103DAB240F21913C2F200031A7028
:1035800040F21913C2F200031B78012B06D140F25E
:103590001913C2F200034FF002021A7040F219131D
:1035A000C2F200031B78042B53D940F21913C2F264
:1035B00000034FF000021A704CE040F21913C2F2FF
:1035C00000031B781A4641F21433C2F200039B1821
:1035D0001B7C03F10103D9B241F21433C2F20003A0
:1035E0009B180A461A7440F21913C2F200031B78A2
:1035F0001A4641F21433C2F200039B181B7C2F2B96
:103600000DD940F21913C2F200031B781A4641F299
:103610001433C2F200039B181B7C392B0DD940F2E6
:103620001913C2F200031B781A4641F21433C2F296
:1036300000039B184FF030021A7441F21433C2F2A7
:1036400000034FF02E025A7408480749FDF73CFB6F
:1036500000E000BF07F11407BD4690BDAFF3008046
:103660007B14AE47E1FA23402413002048110020C8
:1036700000000000E7FB1F4180B582B000AF78601A
:103680000B46FB70FB78032B12D87B6803F1180301
:10369000184645F6F411C0F600014FF0060201F09D
:1036A00015FEFB787A68D3184FF020021A761BE0DB
:1036B000FB780F2B0CD17B6803F11803184645F6F5
:1036C000FC11C0F600014FF0060201F0FFFD0BE017
:1036D0007B6803F11803184645F6F411C0F60001A3
:1036E0004FF0060201F0F2FD07F10807BD4680BD6C
:1036F00080B582B000AF786000E000BF4FF03200CC
:10370000FEF75EFB41F21033C2F200031A6845F285
:103710005C63C0F600039A42EFD141F21433C2F267
:1037200000039B68184601F093FB034603481946C3
:103730004FF00002FDF740F9E0E700BF481100201C
:1037400080B483B000AF78607B6803F108031A4649
:103750007B685A607B684FF0FF329A607B6803F1A8
:1037600008031A467B68DA607B6803F108031A468F
:103770007B681A617B684FF000021A6007F10C0742
:10378000BD4680BC704700BF80B483B000AF786096
:103790007B684FF000021A6107F10C07BD4680BC40
:1037A000704700BF80B485B000AF786039607B6837
:1037B0005B68FB60FB685B681A463B685A607B6825
:1037C0005A683B689A60FB685B683A689A603A6836
:1037D000FB685A603A687B685A603B687A681A618D
:1037E0007B681B6803F101027B681A6007F114070C
:1037F000BD4680BC704700BF80B485B000AF786024
:1038000039603B681B68BB60BB68B3F1FF3F03D105
:103810007B681B69FB600EE07B6803F10803FB60BB
:1038200002E0FB685B68FB60FB685B681B681A462C
:10383000BB689A42F5D9FB685B681A463B685A60D8
:103840003B685B683A689A603B68FA689A603A68D5
:10385000FB685A603B687A681A617B681B6803F1F1
:1038600001027B681A6007F11407BD4680BC7047EF
:1038700080B485B000AF78607B685B687A689268D6
:103880009A607B689B687A6852685A607B681B699B
:10389000FB60FB685A687B689A4203D17B689A6830
:1038A000FB685A607B684FF000021A61FB681B6876
:1038B00003F1FF32FB681A6007F11407BD4680BCB4
:1038C000704700BF80B485B000AFF860B9607A601F
:1038D000FB68A3F10403FB60FB684FF080721A6081
:1038E000FB68A3F10403FB60BA68FB681A60FB681D
:1038F000A3F10403FB60FB684FF000021A60FB6851
:10390000A3F11403FB607A68FB681A60FB68A3F1FB
:103910002003FB60FB68184607F11407BD4680BC16
:10392000704700BF064B19680868B0E8F00F80F3D5
:1039300009884FF0000080F311884EF00D0E70479B
:103940001000002003480068006880F3088862B611
:1039500000DF00BF08ED00E080B500AF4EF6205359
:10396000CEF200034EF62052CEF20002126842F46C
:103970007F021A604EF62053CEF200034EF620521C
:10398000CEF20002126842F07F421A6000F086F820
:1039900040F20403C2F200034FF000021A60FFF786
:1039A000D1FF4FF00003184680BD00BF80B400AFC8
:1039B0004EF60453CEF200034FF080521A60BD461B
:1039C00080BC704780B400AF4FF0BF0080F3118817
:1039D00040F20403C2F200031B6803F1010240F24B
:1039E0000403C2F200031A60BD4680BC704700BFEA
:1039F00080B400AF40F20403C2F200031B6803F17D
:103A0000FF3240F20403C2F200031A6040F20403E2
:103A1000C2F200031B68002B03D14FF0000080F3BB
:103A20001188BD4680BC7047EFF309800C4B1A68C3
:103A300020E9F00F10602DE908404FF0BF0080F33F
:103A40001188FEF7BDFB4FF0000080F31188BDE840
:103A5000084019680868B0E8F00F80F309887047DB
:103A60001000002080B582B000AF4EF60453CEF2B5
:103A700000034FF080521A604FF000037B604FF05C
:103A8000BF0080F31188FEF7BFFA4FF0000080F30B
:103A9000118807F10807BD4680BD00BF80B400AFA4
:103AA0004EF21403CEF2000345F6BF521A604EF2F6
:103AB0001003CEF200034FF007021A60BD4680BC2F
:103AC000704700BF80B584B000AF0346FB714FF074
:103AD0004C0000F071FE0346FB60FB68002B38D001
:103AE000FB684FF000025A60FB684FF000021A605A
:103AF000FB684FF000029A60FB684FF00002DA604A
:103B0000FB684FF000029A63FB684FF00102DA6332
:103B1000FB684FF000021A64FB684FF0FF325A64F2
:103B2000FB684FF0FF329A64FB6803F110031846FC
:103B3000FFF706FEFB6803F124031846FFF700FEBB
:103B4000F8684FF000014FF000024FF0000300F062
:103B500007F8FB68184607F11007BD4680BD00BF97
:103B600080B588B000AFF860B9607A603B604FF014
:103B70000003FB6100E000BFFFF724FFFB689B6BC5
:103B80001A46FB68DB6B9A4218D2F868B9683A6843
:103B900000F03CF9FB685B6A002B0AD0FB6803F17C
:103BA00024031846FEF7B0FB0346012B01D1FFF7B3
:103BB000FDFEFFF71DFF4FF001035DE07B68002B6A
:103BC00004D1FFF715FF4FF0000355E0FB69002B10
:103BD00007D107F114031846FEF7F8FB4FF0010375
:103BE000FB61FFF705FFFEF753F9FFF7EBFEFB68FC
:103BF0005B6CB3F1FF3F03D1FB684FF000025A64E6
:103C0000FB689B6CB3F1FF3F03D1FB684FF00002F0
:103C10009A64FFF7EDFE07F1140207F10403104662
:103C20001946FEF7EBFB0346002B1ED1F86800F0A7
:103C3000DDF90346002B12D0FB6803F110027B680C
:103C400010461946FEF724FBF86800F069F9FEF704
:103C500031F90346002B8ED1FFF7A8FE8CE7F868F8
:103C600000F05EF9FEF726F986E7F86800F058F9EB
:103C7000FEF720F94FF00003184607F12007BD4674
:103C800080BD00BF80B588B000AFF860B9607A60D1
:103C90003B604FF00003FB6100E000BFFFF792FEC6
:103CA000FB689B6B002B40D0FB68DB68BB61F8684E
:103CB000B96800F00DF93B68002B1FD1FB689B6BC6
:103CC00003F1FF32FB689A63FB681B68002B05D188
:103CD000FEF770FD03461A46FB685A60FB681B69D5
:103CE000002B1DD0FB6803F110031846FEF70CFBF8
:103CF0000346012B14D1FFF759FE11E0FB68BA69A6
:103D0000DA60FB685B6A002B0AD0FB6803F12403CE
:103D10001846FEF7F9FA0346002B01D0FFF746FEDE
:103D2000FFF766FE4FF001036BE07B68002B04D1C8
:103D3000FFF75EFE4FF0000363E0FB69002B07D145
:103D400007F110031846FEF741FB4FF00103FB613A
:103D5000FFF74EFEFEF79CF8FFF734FEFB685B6C46
:103D6000B3F1FF3F03D1FB684FF000025A64FB68D8
:103D70009B6CB3F1FF3F03D1FB684FF000029A64E4
:103D8000FFF736FE07F1100207F10403104619464B
:103D9000FEF734FB0346002B2CD1F86800F010F935
:103DA0000346002B20D0FB681B68002B08D1FFF7CF
:103DB00009FEFB685B681846FEF70CFDFFF718FE6E
:103DC000FB6803F124027B6810461946FEF760FA8F
:103DD000F86800F0A5F8FEF76DF80346002B7FF4B5
:103DE0005CAFFFF7E3FD59E7F86800F099F8FEF7DC
:103DF00061F853E7F86800F093F8FEF75BF84FF0CE
:103E00000003184607F12007BD4680BD80B584B089
:103E100000AFF860B9607A60FB681B6C002B0DD1B5
:103E2000FB681B68002B48D1FB685B681846FEF7EF
:103E30003DFDFB684FF000025A603EE07B68002BBE
:103E40001AD1FB689A68FB681B6C1046B9681A4661
:103E500001F03CFAFB689A68FB681B6CD218FB689F
:103E60009A60FB689A68FB685B689A4225D3FB6896
:103E70001A68FB689A6020E0FB68DA68FB681B6CD4
:103E80001046B9681A4601F021FAFB68DA68FB6847
:103E90001B6CC3F10003D218FB68DA60FB68DA68B8
:103EA000FB681B689A4208D2FB685A68FB681B6C67
:103EB000C3F10003D218FB68DA60FB689B6B03F167
:103EC0000102FB689A6307F11007BD4680BD00BF81
:103ED00080B582B000AF786039607B681B68002BCA
:103EE00019D07B68DA687B681B6CD2187B68DA6053
:103EF0007B68DA687B685B689A4203D37B681A68E0
:103F00007B68DA607B68DA687B681B6C386811460E
:103F10001A4601F0DBF907F10807BD4680BD00BF76
:103F200080B582B000AF7860FFF74CFD14E07B688D
:103F30005B6A002B15D07B6803F124031846FEF75B
:103F4000E3F90346002B01D0FEF7AAFA7B689B6CCD
:103F500003F1FF327B689A647B689B6C002BE6DC84
:103F600000E000BF7B684FF0FF329A64FFF740FD2E
:103F7000FFF728FD14E07B681B69002B15D07B68D8
:103F800003F110031846FEF7BFF90346002B01D0DA
:103F9000FEF786FA7B685B6C03F1FF327B685A643C
:103FA0007B685B6C002BE6DC00E000BF7B684FF0B9
:103FB000FF325A64FFF71CFD07F10807BD4680BDBC
:103FC00080B584B000AF7860FFF7FCFC7B689B6B2A
:103FD000002B14BF00230123FB60FFF709FDFB68E2
:103FE000184607F11007BD4680BD00BF80B584B0FC
:103FF00000AF7860FFF7E6FC7B689B6B1A467B6836
:10400000DB6B9A4214BF00230123FB60FFF7F0FC37
:10401000FB68184607F11007BD4680BD80B485B027
:1040200000AF786039604FF00003FB607B681B686D
:10403000FB60FB6823F4FE4323F0F003FB603B6866
:104040009A683B681B6A1A433B681B691A433B68C2
:104050005B691A433B689B691A433B68DB691A43F7
:104060003B685B6A1A433B689B6A42EA0303FA684F
:1040700042EA0303FB607B68FA681A603B68DA680F
:104080007B685A603B681A687B689A603B685A682C
:104090007B68DA6007F11407BD4680BC704700BF3B
:1040A00080B483B000AF78607B684FF000021A6084
:1040B0007B684FF000025A607B684FF000029A6004
:1040C0007B684FF00002DA607B684FF000021A61F3
:1040D0007B684FF000025A617B684FF000029A61E2
:1040E0007B684FF00002DA617B684FF000021A62D1
:1040F0007B684FF000025A627B684FF000029A62C0
:1041000007F10C07BD4680BC704700BF80B483B088
:1041100000AF78600B46FB70FB78002B06D07B6805
:104120001B6843F001027B681A6008E07B681B682B
:104130001A464FF6FE7302EA03037A68136007F12A
:104140000C07BD4680BC704780B485B000AF786076
:104150004FF00003FB734FF00003BB607B6803F07C
:104160008053002B06D04FF48063C4F202031B6817
:10417000BB6005E04FF00003C4F202031B68BB60A4
:10418000BA687B6802EA0303002B03D04FF00103F7
:10419000FB7302E04FF00003FB73FB7B184607F153
:1041A0001407BD4680BC704780B483B000AF786010
:1041B0007B6803F08053002B06D04FF48063C4F279
:1041C00002037A685A6005E04FF00003C4F202036C
:1041D0007A685A6007F10C07BD4680BC704700BF83
:1041E00080B586B004AF4FF00003FB7145F60423A1
:1041F000C0F600034FF0010200924FF0000201925E
:104200004FF0000202924FF00002039244F2694024
:10421000C0F6000019464FF080024FF00003FDF792
:1042200099FC4FF00100FFF74DFC024641F2543378
:10423000C2F200031A60FB79184607F10807BD4671
:1042400080BD00BF80B592B000AF41F214004FF0C6
:104250000101FDF7EBFB4FF0A003A7F844304FF04E
:10426000030387F846304FF0180387F8473007F10B
:1042700044034FF40060C4F201001946FCF79EF8B5
:104280004FF48073A7F844304FF0100387F847309D
:104290004FF0030387F8463007F144034FF4006002
:1042A000C4F201001946FCF789F84FF000033B8681
:1042B0004FF482737B864FF40063BB864FF000039C
:1042C000FB864FF000033B874FF400737B874FF072
:1042D0000003BB874FF00003FB8707F130034FF467
:1042E0004050C4F20100194600F0B4F94FF44050B8
:1042F000C4F201004FF0000100F03EFA4FF44050CC
:10430000C4F201004FF0010100F0F0F94FF4006039
:10431000C4F201004FF480714FF00002FCF74EF937
:104320004FF001004FF00101FDF752FB07F10403CC
:104330001846FFF7B5FE43F20C03C4F201037B609D
:104340004FF01003FB604FF000037B614FF08003E0
:10435000BB614FF48073FB614FF480633B624FF0AD
:1043600000037B624FF00003BB624FF000037B62EF
:104370004FF00003FB6207F104034FF03000C4F27A
:1043800002001946FFF74AFE4FF40070FFF70CFFDA
:1043900007F104031846FFF783FE43F20C03C4F24F
:1043A00001037B604FF00003FB604FF000037B6173
:1043B0004FF08003BB614FF48073FB614FF4806367
:1043C0003B624FF000037B624FF00003BB624FF093
:1043D00000037B624FF00003FB6207F104034FF020
:1043E0001C00C4F202001946FFF718FE4FF020002F
:1043F000FFF7DAFE4FF44050C4F201004FF0020123
:104400004FF0010200F092F94FF44050C4F2010065
:104410004FF001014FF0010200F088F907F1480761
:10442000BD4680BD80B582B000AF78600B467B8012
:104430004FF03003C4F202037A68DA604FF03003C1
:10444000C4F202037A885A604FF40070FFF7ACFEA2
:104450004FF03000C4F202004FF00101FFF756FEAA
:1044600007F10807BD4680BD80B584B000AF786015
:104470004FF00003FB734FF00003FB7369E04FF450
:104480000060C4F201004FF480714FF00002FCF7AD
:1044900095F841F25433C2F200031B6818464FF0FE
:1044A00000014FF0FF324FF00003FFF7EBFB034634
:1044B000012B36D12B4AFB7B4FEA4303D318184616
:1044C0004FF00101FFF7AEFF01E0FFF76FFA4FF485
:1044D0000070FFF739FE0346002BF6D04FF0300096
:1044E000C4F202004FF00001FFF710FE01E0FFF7F9
:1044F0005DFA4FF44053C4F201031B899BB203F0F1
:104500008003002BF3D141F25433C2F200031B6845
:1045100018464FF000014FF000024FF00003FFF784
:104520001FFB4FF40060C4F201004FF480714FF0A4
:104530000102FCF743F84FF40060C4F201004FF4AD
:1045400080714FF00002FCF739F8FB7B03F10103A7
:10455000FB73FB7B0C2B92D94FF03200FDF730FC44
:1045600089E700BF2E11002080B487B000AF7860CB
:104570004FF000037B614FF000033B614FF00F03EE
:10458000FB607B68DB78002B49D04FF46D43CEF2A3
:104590000003DB686FEA030303F4E0634FEA1323CD
:1045A0007B617B69C3F104033B617B69FA6822FA92
:1045B00003F3FB607B685B781A463B6902FA03F3FE
:1045C0007B617B689B781A46FB6802EA03037A6981
:1045D00042EA03037B617B694FEA03137B614FF47B
:1045E0006143CEF200037A68127811467A69D2B23A
:1045F0005B1883F800234FF46143CEF200037A681E
:1046000012784FEA5212D2B27968097801F01F018C
:104610004FF0010000FA01F143F8221014E04FF4CA
:104620006143CEF200037A6812784FEA5212D2B296
:104630007968097801F01F014FF0010000FA01F1DB
:1046400002F1200243F8221007F11C07BD4680BC8E
:10465000704700BF80B485B000AF786039604FF01C
:104660000003FB817B681B88FB81FB8903F44153BA
:10467000FB813B681A883B685B8842EA03039AB275
:104680003B689B8842EA03039AB23B68DB8842EAB4
:1046900003039AB23B681B8942EA03039AB23B6860
:1046A0005B8942EA03039AB23B689B8942EA0303AF
:1046B0009AB23B68DB8942EA03039AB2FB8942EA79
:1046C0000303FB817B68FA891A807B689B8B9BB212
:1046D00023F400639AB27B689A833B681A8A7B68EA
:1046E0001A8207F11407BD4680BC704780B483B0BE
:1046F00000AF78600B46FB70FB78002B08D07B681E
:104700001B889BB243F040039AB27B681A8007E093
:104710007B681B889BB223F040039AB27B681A80A7
:1047200007F10C07BD4680BC704700BF80B483B062
:1047300000AF786013460A467A807B707B78002B46
:1047400009D07B689B889AB27B8842EA03039AB2BD
:104750007B689A800BE07B689B889AB27B886FEAC3
:1047600003039BB202EA03039AB27B689A8007F1C3
:104770000C07BD4680BC704780B483B000AF786042
:104780000B46FB70FB78002B08D07B681B889BB224
:1047900043F400539AB27B681A8007E07B681B8859
:1047A0009BB223F400539AB27B681A8007F10C077E
:1047B000BD4680BC704700BF80B584B000AF786054
:1047C0004FF00003FB607B6803F00703002B05D06C
:1047D0007B6823F0070303F108037B60FDF758FBB8
:1047E00041F22013C2F200031A687B68D21840F627
:1047F000FF739A4224D841F22013C2F200031A68D0
:104800007B68D21841F22013C2F200031B689A425F
:1048100016D941F22013C2F200031A6840F22013A5
:10482000C2F20003D318FB6041F22013C2F200036E
:104830001A687B68D21841F22013C2F200031A6092
:10484000FDF738FBFB68184607F11007BD4680BD31
:1048500080B483B000AF786007F10C07BD4680BC20
:10486000704700BF81F0004102E000BF83F00043C9
:1048700030B54FEA41044FEA430594EA050F08BFFB
:1048800090EA020F1FBF54EA000C55EA020C7FEABF
:10489000645C7FEA655C00F0E2804FEA5454D4EB3C
:1048A0005555B8BF6D420CDD2C4480EA020281EA06
:1048B000030382EA000083EA010180EA020281EA3E
:1048C0000303362D88BF30BD11F0004F4FEA013190
:1048D0004FF4801C4CEA113102D0404261EB41019F
:1048E00013F0004F4FEA03334CEA133302D0524225
:1048F00063EB430394EA050F00F0A780A4F10104E1
:10490000D5F1200E0DDB02FA0EFC22FA05F280181A
:1049100041F1000103FA0EF2801843FA05F3594100
:104920000EE0A5F120050EF1200E012A03FA0EFC7F
:1049300028BF4CF0020C43FA05F3C01851EBE371A9
:1049400001F0004507D54FF0000EDCF1000C7EEBC6
:1049500000006EEB0101B1F5801F1BD3B1F5001F04
:104960000CD349085FEA30004FEA3C0C04F1010423
:104970004FEA445212F5800F80F09A80BCF1004F4C
:1049800008BF5FEA500C50F1000041EB045141EACE
:10499000050130BD5FEA4C0C404141EB010111F4CF
:1049A000801FA4F10104E9D191F0000F04BF01467A
:1049B0000020B1FA81F308BF2033A3F10B03B3F158
:1049C00020020CDA0C3208DD02F1140CC2F10C02E8
:1049D00001FA0CF021FA02F10CE002F11402D8BF46
:1049E000C2F1200C01FA02F120FA0CFCDCBF41EA12
:1049F0000C019040E41AA2BF01EB0451294330BDE1
:104A00006FEA04041F3C1CDA0C340EDC04F11404BD
:104A1000C4F1200220FA04F001FA02F340EA030094
:104A200021FA04F345EA030130BDC4F10C04C4F1DA
:104A3000200220FA02F001FA04F340EA03002946BA
:104A400030BD21FA04F0294630BD94F0000F83F404
:104A5000801306BF81F480110134013D4EE77FEAE7
:104A6000645C18BF7FEA655C29D094EA050F08BF33
:104A700090EA020F05D054EA000C04BF1946104614
:104A800030BD91EA030F1EBF0021002030BD5FEA58
:104A9000545C05D14000494128BF41F0004130BD80
:104AA00014F580043CBF01F5801130BD01F00045D4
:104AB00045F0FE4141F470014FF0000030BD7FEA47
:104AC000645C1ABF194610467FEA655C1CBF0B4642
:104AD000024650EA013406BF52EA033591EA030F59
:104AE00041F4002130BD00BF90F0000F04BF002151
:104AF000704730B54FF4806404F132044FF0000584
:104B00004FF0000150E700BF90F0000F04BF0021FC
:104B1000704730B54FF4806404F1320410F0004562
:104B200048BF40424FF000013EE700BF42004FEA5D
:104B3000E2014FEA31014FEA02701FBF12F07F43DA
:104B400093F07F4F81F06051704792F0000F14BFD7
:104B500093F07F4F704730B54FF4607401F000451B
:104B600021F0004120E700BF50EA010208BF704772
:104B700030B54FF000050AE050EA010208BF704767
:104B800030B511F0004502D5404261EB41014FF4D0
:104B9000806404F132045FEA915C3FF4DCAE4FF0D4
:104BA00003025FEADC0C18BF03325FEADC0C18BFBB
:104BB000033202EBDC02C2F1200300FA03FC20FA0C
:104BC00002F001FA03FE40EA0E0021FA02F1144459
:104BD000C1E600BF4FF0FF3C06E000BF4FF0010C04
:104BE00002E000BF4FF0010C4DF804CD4FEA410C3C
:104BF0007FEA6C5C4FEA430C18BF7FEA6C5C1BD009
:104C000001B050EA410C0CBF52EA430C91EA030F89
:104C100002BF90EA020F0020704710F1000F91EAE6
:104C2000030F58BF994208BF90422CBFD8176FEAB4
:104C3000E37040F0010070474FEA410C7FEA6C5C82
:104C400002D150EA013C07D14FEA430C7FEA6C5C89
:104C5000D6D152EA033CD3D05DF8040B704700BFB5
:104C60008446104662468C461946634600E000BF03
:104C700001B5FFF7B7FF002848BF10F1000F01BDD5
:104C80004DF808EDFFF7F4FF0CBF012000205DF8A0
:104C900008FB00BF4DF808EDFFF7EAFF34BF012025
:104CA00000205DF808FB00BF4DF808EDFFF7E0FFBE
:104CB00094BF012000205DF808FB00BF4DF808ED0F
:104CC000FFF7CEFF94BF012000205DF808FB00BF76
:104CD0004DF808EDFFF7C4FF34BF012000205DF858
:104CE00008FB00BF80F0004002E000BF81F00041FF
:104CF00042001FBF5FEA410392EA030F7FEA226C82
:104D00007FEA236C6AD04FEA1262D2EB1363C1BF11
:104D1000D218414048404140B8BF5B42192B88BF80
:104D2000704710F0004F40F4000020F07F4018BFA3
:104D3000404211F0004F41F4000121F07F4118BFC3
:104D4000494292EA030F3FD0A2F1010241FA03FC6B
:104D500010EB0C00C3F1200301FA03F100F0004353
:104D600002D5494260EB4000B0F5000F13D3B0F11B
:104D7000807F06D340084FEA310102F10102FE2A8A
:104D800051D2B1F1004F40EBC25008BF20F00100FA
:104D900040EA03007047490040EB000010F4000FA8
:104DA000A2F10102EDD1B0FA80FCACF1080CB2EB3B
:104DB0000C0200FA0CF0AABF00EBC250524218439A
:104DC000BCBFD0401843704792F0000F81F400013F
:104DD00006BF80F400000132013BB5E74FEA410312
:104DE0007FEA226C18BF7FEA236C21D092EA030F7E
:104DF00004D092F0000F08BF0846704790EA010FF8
:104E00001CBF0020704712F07F4F04D1400028BF24
:104E100040F00040704712F100723CBF00F5000006
:104E2000704700F0004343F0FE4040F4000070473C
:104E30007FEA226216BF08467FEA236301464202E8
:104E400006BF5FEA412390EA010F40F480007047FB
:104E50004FF0000304E000BF10F0004348BF4042A1
:104E60005FEA000C08BF704743F0964301464FF0DD
:104E700000001CE050EA010208BF70474FF0000339
:104E80000AE000BF50EA010208BF704711F000437A
:104E900002D5404261EB41015FEA010C02BF84464A
:104EA0000146002043F0B64308BFA3F18053A3F5A9
:104EB0000003BCFA8CF2083AA3EBC25310DB01FAF0
:104EC00002FC634400FA02FCC2F12002BCF1004F74
:104ED00020FA02F243EB020008BF20F00100704705
:104EE00002F1200201FA02FCC2F1200250EA4C0059
:104EF00021FA02F243EB020008BF20EADC7070479F
:104F00004FF0FF0C1CEAD0521EBF1CEAD15392EAAC
:104F10000C0F93EA0C0F6FD01A4480EA010C400288
:104F200018BF5FEA41211ED04FF0006343EA5010E2
:104F300043EA5111A0FB01310CF00040B1F5000F24
:104F40003EBF490041EAD3715B0040EA010062F1D3
:104F50007F02FD2A1DD8B3F1004F40EBC25008BFBD
:104F600020F00100704790F0000F0CF0004C08BFDB
:104F700049024CEA502040EA51207F3AC2BFD2F1A8
:104F8000FF0340EAC250704740F400004FF00003B6
:104F9000013A5DDC12F1190FDCBF00F000407047F0
:104FA000C2F10002410021FA02F1C2F1200200FA2E
:104FB00002FC5FEA310040F1000053EA4C0308BFF5
:104FC00020EADC70704792F0000F00F0004C02BF46
:104FD000400010F4000F013AF9D040EA0C0093F0C1
:104FE000000F01F0004C02BF490011F4000F013B1B
:104FF000F9D041EA0C018FE70CEAD15392EA0C0F89
:1050000018BF93EA0C0F0AD030F0004C18BF31F0F3
:10501000004CD8D180EA010000F00040704790F0C9
:10502000000F17BF90F0004F084691F0000F91F06D
:10503000004F14D092EA0C0F01D142020FD193EA33
:105040000C0F03D14B0218BF084608D180EA0100BB
:1050500000F0004040F0FE4040F40000704740F097
:10506000FE4040F4400070474FF0FF0C1CEAD05265
:105070001EBF1CEAD15392EA0C0F93EA0C0F69D0C1
:10508000A2EB030280EA010C49024FEA402037D02C
:105090004FF0805343EA111143EA10130CF0004023
:1050A0008B4238BF5B0042F17D024FF4000C8B4213
:1050B00024BF5B1A40EA0C00B3EB510F24BFA3EBF3
:1050C000510340EA5C00B3EB910F24BFA3EB9103C3
:1050D00040EA9C00B3EBD10F24BFA3EBD10340EA1D
:1050E000DC001B0118BF5FEA1C1CE0D1FD2A3FF663
:1050F00050AF8B4240EBC25008BF20F00100704718
:105100000CF0004C4CEA50207F32C2BFD2F1FF03BA
:1051100040EAC250704740F400004FF00003013AEB
:1051200037E792F0000F00F0004C02BF400010F48F
:10513000000F013AF9D040EA0C0093F0000F01F0A3
:10514000004C02BF490011F4000F013BF9D041EAC5
:105150000C0195E70CEAD15392EA0C0F08D14202F8
:105160007FF47DAF93EA0C0F7FF470AF084676E7CB
:1051700093EA0C0F04D14B023FF44CAF08466EE7A4
:1051800030F0004C18BF31F0004CCAD130F0004272
:105190007FF45CAF31F000437FF43CAF5FE700BFCA
:1051A0004FF0FF3C06E000BF4FF0010C02E000BFF3
:1051B0004FF0010C4DF804CD4FEA40024FEA410395
:1051C0007FEA226C18BF7FEA236C11D001B052EA4B
:1051D000530C18BF90EA010F58BFB2EB030088BF11
:1051E000C81738BF6FEAE17018BF40F00100704780
:1051F0007FEA226C02D15FEA402C05D17FEA236C62
:10520000E4D15FEA412CE1D05DF8040B704700BFA8
:10521000844608466146FFE70FB5FFF7C9FF00283F
:1052200048BF10F1000F0FBD4DF808EDFFF7F4FF78
:105230000CBF012000205DF808FB00BF4DF808ED11
:10524000FFF7EAFF34BF012000205DF808FB00BF34
:105250004DF808EDFFF7E0FF94BF012000205DF856
:1052600008FB00BF4DF808EDFFF7D2FF94BF012007
:1052700000205DF808FB00BF4DF808EDFFF7C8FF00
:1052800034BF012000205DF808FB00BF42000ED2B1
:10529000B2F1FE4F0BD34FF09E03B3EB126209D471
:1052A0004FEA002343F0004323FA02F070474FF027
:1052B0000000704712F1610F01D1420202D14FF09C
:1052C000FF3070474FF00000704700BF032A2DE900
:1052D000F00109D82AB10023CC5CC45401339342B5
:1052E000FAD1BDE8F00170470B468218014603E091
:1052F0002478013301F8014B11F0030F1C46F7D15C
:1053000013F003055DD06E42C5F1040CED009B590E
:105310004FEACC0C08E00434A7593B4607FA0CF7D7
:1053200048EA070741F8047B571A23FA05F8032FC8
:10533000F1DC03E014F8013B01F8013B8A42F9D8A3
:10534000CFE753F8404C41F8404C53F83C4C41F8FF
:105350003C4C53F8384C41F8384C53F8344C41F835
:10536000344C53F8304C41F8304C53F82C4C41F845
:105370002C4C53F8284C41F8284C53F8244C41F855
:10538000244C53F8204C41F8204C53F81C4C41F865
:105390001C4C53F8184C41F8184C53F8144C41F875
:1053A000144C53F8104C41F8104C53F80C4C41F885
:1053B0000C4C53F8084C41F8084C53F8044C41F895
:1053C000044C561A1D460C46403340313F2EB8DC83
:1053D0002B460FE053F8101C44F8101C53F80C1C1B
:1053E00044F80C1C53F8081C44F8081C53F8041C1F
:1053F00044F8041C161B1D4610330F2E214604F1E1
:105400001004E7DC2B4602E0246841F8044B551AEF
:105410001C46032D03F10403F6DC8FE7032AC9B20F
:1054200070B408D82AB10346121803F8011B93423E
:10543000FBD170BC70478218044601E004F8011BE0
:1054400014F0030FFAD14FF0013303FB01F31FE017
:1054500044F8403C44F83C3C44F8383C44F8343C84
:1054600044F8303C44F82C3C44F8283C44F8243CB4
:1054700044F8203C44F81C3C44F8183C44F8143CE4
:1054800044F8103C44F80C3C44F8083C44F8043C14
:10549000161B254640343F2EDADC2C4607E044F844
:1054A000103C44F80C3C44F8083C44F8043C161BFF
:1054B000254610340F2EF2DC01E045F8043B541B66
:1054C000032CFADC01E005F8011B9542FBD3B0E7A1
:1054D00020F0030110F00300C0F1000051F8043B7C
:1054E00000F1040C4FEACC0C6FF000021CBF22FA52
:1054F0000CF213434FF0010C4CEA0C2C4CEA0C4C10
:10550000A3EB0C0222EA030212EACC1204BF51F808
:10551000043B0430F4D013F0FF0F1FBF013013F42D
:105520007F4F013013F47F0F18BF0130704700BF69
:1055300041EA000313F0030F034670B414BF0025C3
:105540000125032A94BF002505F001050C460646F7
:10555000CDB9B2B10D783446531E04F8015B55B194
:10556000B21C73B111F8015F1446013B02F8015CF3
:105570000132002DF5D123B10022013B04F8012BAB
:10558000FBD170BC7047214654F8045BA5F101368D
:1055900026EA050616F0803F05D1043A43F8045B7D
:1055A000032A2146EFD81E46D3E700BF4144435F9C
:1055B000506F6C6C5F7461736B000000303132337C
:1055C0003435363738394162436445466849494A7B
:1055D0004C4F50727455752E2D5F207E306D79338F
:1055E0005B5F707F7B771F4E3D4F471730103C0E3F
:1055F0007E67050F3E1C8001080000002534640012
:105600002533642E253164002532642E2532640052
:105610002531642E25336400494E495400000000B2
:1056200049444C45000000004B4559424F4152440B
:10563000000000000000000000000000000000006A
:10564000000000000000000000000000000000005A
:10565000444154412053435245454E0038560008BA
:1056600038560008385600087C5600080000000034
:105670005056000820354574000000009C56000874
:10568000385600085C560008BC56000800000000B0
:105690007456000820627249000000003856000865
:1056A0007C5600085C5600083856000821000000AF
:1056B0009456000820435F3100000000DC560008CB
:1056C000385600087C5600087C570008000000008F
:1056D000B456000820435F3200000000FC5600086A
:1056E000BC5600087C560008F45700080000000073
:1056F000D456000820435F33000000001C57000808
:10570000DC5600087C5600085458000800000000D1
:10571000F456000820435F34000000003C570008A6
:10572000FC5600087C560008B45800080000000031
:105730001457000820435F35000000005C57000844
:105740001C5700087C56000814590008000000008F
:105750003457000820435F36000000003856000828
:105760003C5700087C5600087459000800000000EF
:105770005457000820436849000000009C57000867
:1057800038560008BC5600083856000804000000CF
:105790007457000820434C4F00000000BC5700081D
:1057A0007C570008BC560008385600080500000069
:1057B000945700082055684900000000DC57000895
:1057C0009C570008BC560008385600080600000028
:1057D000B457000820554C4F000000003856000810
:1057E000BC570008BC5600083856000807000000E7
:1057F000D45700080C58000838560008DC5600083A
:1058000038560008090000007457000824580008A2
:10581000F4570008DC560008385600080A0000005B
:10582000945700083C5800080C580008DC56000843
:10583000385600080B000000B4570008385600081E
:1058400024580008DC560008385600080C000000F8
:10585000D45700086C58000838560008FC56000859
:10586000385600080E0000007457000884580008DD
:1058700054580008FC560008385600080F00000075
:10588000945700089C5800086C580008FC56000803
:105890003856000810000000B457000838560008B9
:1058A00084580008FC560008385600081100000013
:1058B000D4570008CC580008385600081C57000878
:1058C000385600081300000074570008E458000818
:1058D000B45800081C57000838560008140000008F
:1058E00094570008FC580008CC5800081C570008C2
:1058F0003856000815000000B45700083856000854
:10590000E45800081C57000838560008160000002C
:10591000D45700082C590008385600083C57000896
:105920003856000818000000745700084459000851
:10593000145900083C5700083856000819000000A8
:10594000945700085C5900082C5900083C5700087F
:10595000385600081A000000B457000838560008EE
:10596000445900083C570008385600081B00000046
:10597000D45700088C590008385600085C570008B6
:10598000385600081D00000074570008A45900088C
:10599000745900085C570008385600081E000000C3
:1059A00094570008BC5900088C5900085C5700083F
:1059B000385600081F000000B45700083856000889
:1059C000A45900085C570008385600082000000061
:1059D000D4570008446973706C617950726F6365C5
:1059E0007373000025342E3366000000302E3030F3
:1059F000300000005858585858000000202020203F
:105A0000200000005350495F315F5441534B000068
:085A1000FFFFFFFFAAAAAAAAEA
:0400000508000000EF
:00000001FF
