:020000040800F2
:10000000E81700202501000891010008910100086F
:100010009101000891010008910100080000000012
:100020000000000000000000000000002D42000859
:100030009101000800000000314300086D430008F2
:100040009101000891010008910100089101000848
:100050009101000891010008910100089101000838
:100060009101000891010008910100089101000828
:100070009101000891010008910100089101000818
:1000800091010008910100088D07000800000000A0
:1000900000000000000000000000000091010008C6
:1000A00091010008910100089101000891010008E8
:1000B00091010008910100089101000891010008D8
:1000C00091010008910100089101000891010008C8
:1000D00091010008910100089101000891010008B8
:1000E0009101000891010008910100080000000042
:1000F0000000000000000000000000000000000000
:1001000000000000000000000000000000000000EF
:1001100000000000000000009101000891010008AB
:100120005FF808F180B582B000AF46F67003C0F604
:1001300000037B6040F20003C2F200033B600BE06F
:100140007B681A683B681A603B6803F104033B60F4
:100150007B6803F104037B603A6840F20C03C2F24F
:1001600000039A42ECD3084808494FF00002884245
:10017000B8BF40F8042BFADB00F00EF801F044F8A9
:1001800007F10807BD4680BD10000020E4130020E1
:1001900080B400AFFEE700BF80B500AF4FF48053DE
:1001A000C4F202034FF48052C4F20202126842F019
:1001B00001021A604FF48052C4F202024FF48053DD
:1001C000C4F202035B6819464FF00003CFF6FF0349
:1001D00001EA030353604FF48053C4F202034FF467
:1001E0008052C4F20202126822F0847222F4803239
:1001F0001A604FF48053C4F202034FF48052C4F2E9
:100200000202126822F480221A604FF48053C4F272
:1002100002034FF48052C4F20202526822F4FE023A
:100220005A604FF48053C4F202034FF41F029A60E5
:100230004FF48053C4F202034FF00002DA6200F080
:1002400009F84FF46D43CEF200034FF000629A605C
:1002500080BD00BF80B500AF00F002F880BD00BFD8
:1002600080B483B000AF4FF000037B604FF0000319
:100270003B604FF48053C4F202034FF48052C4F247
:100280000202126842F480321A604FF48053C4F2C2
:1002900002031B6803F400333B607B6803F1010336
:1002A0007B603B68002B03D17B68B3F5A06FECD17A
:1002B0004FF48053C4F202031B6803F40033002B95
:1002C00003D04FF001033B6002E04FF000033B60BE
:1002D0003B68012B6DD14FF48053C4F202034FF4FD
:1002E0008052C4F2020252685A604FF48053C4F242
:1002F00002034FF48052C4F2020252685A604FF473
:100300008053C4F202034FF48052C4F202025268D6
:100310005A604FF48053C4F202034FF48052C4F287
:100320000202526822F47C125A604FF48053C4F2E5
:1003300002034FF48052C4F20202526842F498124F
:100340005A604FF48053C4F202034FF48052C4F257
:100350000202126842F080721A6000BF4FF48053AC
:10036000C4F202031B6803F00073002BF6D04FF4B5
:100370008053C4F202034FF48052C4F20202526866
:1003800022F003025A604FF48053C4F202034FF488
:100390008052C4F20202526842F002025A6000BF68
:1003A0004FF48053C4F202035B6803F00C03082B84
:1003B000F6D107F10C07BD4680BC704780B489B008
:1003C00000AF786039604FF00003FB614FF000032D
:1003D0003B614FF00003BB614FF00003FB604FF047
:1003E00000037B614FF00003BB603B68DB7803F0E8
:1003F0000F03FB613B68DB7803F01003002B05D093
:100400003B689B78FA6942EA0303FB613B681B88FF
:1004100003F0FF03002B51D07B681B687B614FF01A
:100420000003BB6144E0BB694FF0010202FA03F331
:10043000FB603B681B881A46FB6802EA03033B61CA
:100440003A69FB689A422FD1BB694FEA8303FB608C
:10045000FB684FF00F0202FA03F3BB60BB686FEA60
:1004600003037A6902EA03037B61FB68FA6902FA13
:1004700003F37A6942EA03037B613B68DB78282B4C
:1004800007D1BB694FF0010202FA03F27B685A619F
:100490000AE03B68DB78482B06D1BB694FF00102CC
:1004A00002FA03F27B681A61BB6903F10103BB61C5
:1004B000BB69072BB7D97B687A691A603B681B88D0
:1004C000FF2B56D97B685B687B614FF00003BB61F3
:1004D00049E0BB6903F108034FF0010202FA03F39C
:1004E000FB603B681B881A46FB6802EA03033B611A
:1004F0003A69FB689A4232D1BB694FEA8303FB60D9
:10050000FB684FF00F0202FA03F3BB60BB686FEAAF
:1005100003037A6902EA03037B61FB68FA6902FA62
:1005200003F37A6942EA03037B613B68DB78282B9B
:1005300008D1BB6903F108034FF0010202FA03F28C
:100540007B685A613B68DB78482B08D1BB6903F1B3
:1005500008034FF0010202FA03F27B681A61BB69DB
:1005600003F10103BB61BB69072BB2D97B687A69D0
:100570005A6007F12407BD4680BC704780B485B03F
:1005800000AF78600B467B804FF00003FB737B6805
:100590009B681A467B8802EA0303002B03D04FF0C6
:1005A0000103FB7302E04FF00003FB73FB7B184673
:1005B00007F11407BD4680BC704700BF80B483B00C
:1005C00000AF786013460A467A807B707B78002BF8
:1005D00003D07A887B681A6102E07A887B685A6166
:1005E00007F10C07BD4680BC704700BF80B58CB0DA
:1005F00004AF4FF012033B724FF000037B724FF0D9
:100600000003BB724FF00103FB7207F108031846A9
:1006100004F0F2FC4FF400704FF0010101F0B6F964
:100620004FF004004FF0010101F0B0F94FF0010369
:10063000BB804FF00003FB714FF00303BB7107F168
:1006400004034FF40060C4F201001946FFF7B6FE40
:100650004FF00003FB604FF001033B744FF00003C9
:100660007B744FF460237B614FF00003BB614FF05C
:1006700000033B7707F10C034FF41050C4F2010064
:10068000194602F00BF94FF41050C4F201004FF07C
:10069000010102F0F9FA4FF41050C4F201004FF0DA
:1006A00000014FF001024FF0070302F045FA4FF44A
:1006B0001050C4F201004FF4E04102F005FA4FF48B
:1006C0001050C4F201004FF0010102F0E1F94FF4C3
:1006D0001050C4F201004FF0010102F03FF94FF455
:1006E0001050C4F2010002F07BF900BF4FF410502B
:1006F000C4F2010002F084F90346002BF6D14FF456
:100700001050C4F201004FF490614FF0010202F06A
:1007100041F94FF41050C4F2010002F08DF900BF0E
:100720004FF41050C4F2010002F096F90346002B7A
:10073000F6D14FF001004FF002014FF0000203F03C
:1007400045FE024641F2B413C2F200031A6046F2BB
:100750007C53C0F600034FF0010200924FF00002FC
:1007600001924FF0000202924FF00002039240F615
:10077000A900C0F6000019464FF080024FF00003B8
:1007800001F098F907F12007BD4680BD80B500AFA4
:100790004FF41050C4F201004FF4906102F0B4FA2B
:1007A0000346002B26D04FF41050C4F201004FF442
:1007B000906102F0DFFA4FF41050C4F201004FF0E4
:1007C000140102F087FA03461A4641F2B013C2F24E
:1007D00000031A8041F2B413C2F200031B681846EA
:1007E00041F2B011C2F200014FF000024FF00003DD
:1007F00003F036FF184680BD80B485B000AF786046
:100800000B467B804FF00003FB8141E04FF000037B
:10081000BB8131E0BB894FEA43037A68D3181A8859
:10082000BB8903F101034FEA43037968CB181B88A6
:100830009A421DD9BB894FEA43037A68D3181B88B3
:100840007B81BB894FEA43037A68D318BA8902F1E6
:1008500001024FEA420279688A1812881A80BB891D
:1008600003F101034FEA43037A68D3187A891A80A7
:10087000BB8903F10103BB81BA897988FB89CB1A53
:1008800003F1FF339A42C5DBFB8903F10103FB81CE
:10089000FA897B8803F1FF339A42B7DB07F114072B
:1008A000BD4680BC704700BF80B582B000AF7860A5
:1008B0004FF0050001F034FA4FF41050C4F201007B
:1008C0004FF0010102F01CF901E003F0F3FC41F2EA
:1008D000B413C2F200031B68184603F0CDFF0346B1
:1008E000002BF2D041F2B413C2F200031A6840F2B6
:1008F0001003C2F200031B784FEA430140F21403D5
:10090000C2F20003CB18104619464FF000024FF018
:10091000000303F0EDFE40F21003C2F200031B7867
:1009200003F10103DBB203F01F03DAB240F210035C
:10093000C2F200031A7040F25400C2F2000040F20A
:100940001401C2F200014FF0400205F0A7FC40F292
:100950005400C2F200004FF02001FFF74DFF40F2BB
:100960005403C2F20003DB8B1A4640F25403C2F276
:1009700000031B8CD3184FEAD372D3184FEA6303DA
:100980001A4641F2A433C2F200039A6041F2A43342
:10099000C2F200039B689BB24FF00000194600F0C2
:1009A00075F803F087FC83E780B485B000AF78600A
:1009B00039604FF00003FB604FF00003BB604FF461
:1009C000E843C4F200031B68FB607B6840F6FE72DC
:1009D00002FA03F36FEA0303FA6802EA0303FB6017
:1009E0003B681A683B685B681A433B689B681A431C
:1009F0003B68DB6842EA0303BB607B68BA6802FAC3
:100A000003F3FA6842EA0303FB604FF4E843C4F2DD
:100A10000003FA681A6007F11407BD4680BC7047EE
:100A200080B483B000AF78600B46FB70FB78002B7E
:100A300012D04FF4E843C4F200034FF4E842C4F28A
:100A40000002126811467A684FF0010000FA02F2C3
:100A500041EA02021A6013E04FF4E843C4F20003D3
:100A60004FF4E842C4F20002126811467A684FF06F
:100A7000010000FA02F26FEA020201EA02021A60C1
:100A800007F10C07BD4680BC704700BF80B485B03D
:100A900000AF78600B467B804FF00003FB604FF4A3
:100AA000E843C4F20003FB60FA687B68D31803F1E3
:100AB0000803FB60FB687A881A6007F11407BD46DB
:100AC00080BC704780B588B000AFF860B9603B600B
:100AD0001346FB7107F11002FB79B86811461A46FC
:100AE0004FF0200302F060F90346012B26D041F2BB
:100AF000E033C2F200031B6818464FF000014FF0CC
:100B0000FF324FF0000303F0F3FD0346012B17D132
:100B100007F11003F86819463A6800F017F841F237
:100B2000E033C2F200031B6818464FF000014FF09B
:100B300000024FF0000303F001FD02E000BF00E0FF
:100B400000BF07F12007BD4680BD00BFF0B58BB0E8
:100B500000AFF860B9607A604FF0000387F8273083
:100B60004FF0000387F826304FF0000387F8253058
:100B70004FF0000387F8243007F114034FF0000210
:100B80001A6003F104034FF000021A6003F104033A
:100B90004FF000021A6003F104034FF000021A60E4
:100BA00003F10403B86805F07BFC034687F82430A2
:100BB0004FF0000387F8273022E097F827307A6853
:100BC000D3181B78202B09D197F8273007F128017B
:100BD000CB184FF0200203F8142C0BE097F82730C5
:100BE00097F82720B9688A18127807F12801CB18DE
:100BF00003F8142C97F8273003F1010387F8273006
:100C000097F8272097F824309A42D6D3FB685B8860
:100C10001946FB681B881C46FB68D88941F2B8124C
:100C2000C2F200020B464FEAC3035B1A4FEA4303CA
:100C30001B194FEA4303D31802465A80FB685B88AE
:100C40001946FB681B881C46FB68188A41F2B812DB
:100C5000C2F200020B464FEAC3035B1A4FEA43039A
:100C60001B1903F101034FEA4303D31802465A80CC
:100C7000FB685B881946FB681B881C46FB689889E3
:100C800041F2B812C2F200020B464FEAC3035B1AEC
:100C90004FEA43031B1903F102034FEA4303D3183E
:100CA00002465A80FB685B881946FB681B881C4615
:100CB000FB68188941F2B812C2F200020B464FEAF3
:100CC000C3035B1A4FEA43031B1903F103034FEA03
:100CD0004303D31802465A80FB685B881946FB68B9
:100CE0001B881C46FB68588941F2B812C2F2000208
:100CF0000B464FEAC3035B1A4FEA43031B1903F188
:100D000004034FEA4303D31802465A80FB685B880A
:100D10001946FB681B88184641F2B812C2F200025D
:100D20000B464FEAC3035B1A4FEA43031B1803F158
:100D300005034FEA4303D3184FF480725A80FB68CF
:100D40005B881946FB681B88184641F2B812C2F24C
:100D500000020B464FEAC3035B1A4FEA43031B181A
:100D600003F106034FEA4303D3184FF400725A808D
:100D7000FB685B881946FB681B88184641F2B8126D
:100D8000C2F200020B464FEAC3035B1A4FEA430369
:100D90001B1803F107034FEA4303D3184FF44072C3
:100DA0005A80FB685B881946FB681B88184641F22D
:100DB000B812C2F200020B464FEAC3035B1A4FEAB5
:100DC00043031B1803F108034FEA4303D3184FF4FE
:100DD00080625A80FB685B881946FB681B8818464E
:100DE00041F2B812C2F200020B464FEAC3035B1A8B
:100DF0004FEA43031B1803F109034FEA4303D318D7
:100E00004FF4A0625A80FB685B881946FB681B8818
:100E1000184641F2B812C2F200020B464FEAC30371
:100E20005B1A4FEA43031B1803F10A034FEA43031B
:100E3000D3184FF4C0625A80FB685B881946FB6880
:100E40001B88184641F2B812C2F200020B464FEA64
:100E5000C3035B1A4FEA43031B1803F10B034FEA6A
:100E60004303D3184FF4E0625A80FB685B8819464D
:100E7000FB681B88184641F2B812C2F200020B460A
:100E80004FEAC3035B1A4FEA43031B1803F10C0339
:100E90004FEA4303D3184FF400625A8097F8253085
:100EA00003F1050387F825304FF0000387F827305A
:100EB00081E197F8273007F12802D31813F8143C82
:100EC0002F2B46D997F8273007F12801CB1813F8B4
:100ED000143C392B3DD8FB685B88194697F82550A0
:100EE000FB681B881C4697F8273007F12802D318A7
:100EF00013F8143CA3F1300246F28C53C0F6000301
:100F00009B1893F821301A4697F82530A3F1040373
:100F10009BB24FEA03239BB29BB242EA03039BB20C
:100F200098B241F2B812C2F200020B464FEAC30374
:100F30005B1A4FEA43035B191B194FEA4303D318AB
:100F400002465A8097F8253003F1010387F82530CF
:100F50002BE197F8273007F12801CB1813F8143C40
:100F60002E2B40F0C28097F82730002B39D1FB6838
:100F70005B88194697F82550FB681B881C46FB6860
:100F80005B88184697F825C0FB681B881E4641F20F
:100F9000B812C2F2000203464FEAC3031B1A4FEA1B
:100FA000430363449B194FEA4303D3185B8843F020
:100FB000800398B241F2B812C2F200020B464FEA27
:100FC000C3035B1A4FEA43035B191B194FEA430340
:100FD000D31802465A8097F8253003F1010387F8A9
:100FE000253097F82730002B00F0DE8097F8273067
:100FF00003F1FF3307F12802D31813F8143C2E2B0A
:101000003AD1FB685B88194697F82550FB681B8826
:101010001C46FB685B88184697F825C0FB681B8850
:101020001E4641F2B812C2F2000203464FEAC30361
:101030001B1A4FEA430363449B194FEA4303D31837
:101040005B8843F0800398B241F2B812C2F200020A
:101050000B464FEAC3035B1A4FEA43035B191B19A4
:101060004FEA4303D31802465A8097F8253003F11C
:10107000010387F8253098E0FB685B88194697F8EC
:10108000253003F1FF35FB681B881C46FB685B8835
:10109000184697F8253003F1FF3CFB681B881E4675
:1010A00041F2B812C2F2000203464FEAC3031B1A10
:1010B0004FEA430363449B194FEA4303D3185B8809
:1010C00043F0800398B241F2B812C2F200020B461C
:1010D0004FEAC3035B1A4FEA43035B191B194FEA3C
:1010E0004303D31802465A805FE04FF00A0387F8A3
:1010F00026304CE097F8273007F12801CB1813F879
:10110000142C97F8261046F28C53C0F600035B5C53
:101110009A4236D1FB685B88194697F82550FB68E0
:101120001B881C4697F8262046F28C53C0F6000315
:101130009B1893F821301A4697F82530A3F1040341
:101140009BB24FEA03239BB29BB242EA03039BB2DA
:1011500098B241F2B812C2F200020B464FEAC30342
:101160005B1A4FEA43035B191B194FEA4303D31879
:1011700002465A8097F8253003F1010387F825309D
:1011800009E097F8263003F1010387F8263097F835
:101190002630202BAED997F82520FB68DB8803F199
:1011A00005039A420FDC00E000BF97F8273003F1F7
:1011B000010387F8273097F8272097F824309A42C0
:1011C000FFF477AE00E000BF97F82530184607F12E
:1011D0002C07BD46F0BD00BF80B582B000AF78607F
:1011E00003F078FD00F08AF800F02CFCFFF7FEF920
:1011F00002F060F802F05AFA4FF0000000F030FD03
:1012000007F10807BD4680BD80B584B004AFFEF786
:10121000C3FF46F2D053C0F600034FF00102009224
:101220004FF0000201924FF0000202924FF00002D4
:10123000039241F2D910C0F6000019464FF0800227
:101240004FF0000300F036FC00F098FDFEE700BF11
:1012500080B400AF41F2B813C2F200034FF00102B4
:101260001A7041F2B813C2F200034FF00002DA83A1
:1012700041F2B813C2F200034FF000029A8341F228
:10128000B813C2F200034FF001021A8441F2B813FE
:10129000C2F200034FF004025A8441F2B813C2F2C2
:1012A000000340F609229A8441F2B813C2F2000307
:1012B0004FF41062DA8441F2B813C2F200035B8C7F
:1012C00003F1FF339BB29BB243F430639BB29AB2FB
:1012D00041F2B813C2F200031A8541F2B813C2F208
:1012E000000340F601425A8541F2B813C2F20003EE
:1012F0004FF470629A85BD4680BC704780B582B05D
:1013000000AF4FF00003FB71FFF7A2FF03F0B0FC4A
:10131000FB79184607F10807BD4680BD80B483B04D
:1013200000AF78600B46FB707B68FA781A704FF05C
:101330000103184607F10C07BD4680BC704700BF8B
:1013400080B485B000AF786039604FF00003FB6077
:101350000FE03B681A787B681A707B6803F1010321
:101360007B603B6803F101033B60FB6803F1010311
:10137000FB603B681B78002BEBD1FB68184607F13C
:101380001407BD4680BC704780B586B000AFF860DA
:101390007A603B600B46FB724FF000037B617B6819
:1013A00003F1FF337B603B68092B25D93A684CF683
:1013B000CD43CCF6CC43A3FB02134FEAD303FA7A16
:1013C000F86811467A68FFF7DFFF78617B69FA6891
:1013D000D318FB6013E0FB7AF8681946FFF79EFF0D
:1013E000FB6803F10103FB607B6903F101037B618F
:1013F0007B6803F1FF337B607B68002BEBDC396893
:101400004CF6CD43CCF6CC43A3FB01234FEAD302E9
:1014100013464FEA83039B184FEA4303CA1AD3B219
:1014200003F13003DBB2F8681946FFF777FF034694
:101430007A69D3187B617B69184607F11807BD46A6
:1014400080BD00BF80B586B000AFF8607A603B60B9
:101450000B46FB724FF000037B613B68002B04DA04
:101460003B68C3F100033B6101E03B683B617B6883
:1014700003F1FF337B603B69092B2AD93B68002BC2
:1014800012DA3A694CF6CD43CCF6CC43A3FB0213F7
:101490004FEAD303C3F10003FA7AF86811467A6879
:1014A000FFF7D0FF78610FE03A694CF6CD43CCF6F8
:1014B000CC43A3FB02134FEAD303FA7AF868114630
:1014C0007A68FFF7BFFF78617B69FA68D318FB6021
:1014D0002BE03B68002B15DA7B6803F1FF337B6060
:1014E00010E0FB7AF8681946FFF718FFFB6803F174
:1014F0000103FB607B6903F101037B617B6803F1FE
:10150000FF337B607B68002BEBDC3B68002B0CDA45
:10151000F8684FF02D01FFF701FF03467A69D318F1
:101520007B61FB6803F10103FB6039694CF6CD4335
:10153000CCF6CC43A3FB01234FEAD30213464FEA78
:1015400083039B184FEA4303CA1AD3B203F1300353
:10155000DBB2F8681946FFF7E1FE03467A69D31853
:101560007B617B69184607F11807BD4680BD00BF47
:1015700080B588B002AFF8607A600A46FA72FB70F4
:101580004FF000037B617B6803F1FF337B603B6AB4
:101590004FEA1313002B24D03B6A4FEA1311FA7A57
:1015A000FB780091F86811467A68FFF7E1FF03467F
:1015B0007A69D3187B617B69FA68D318FB6013E002
:1015C000FB7AF8681946FFF7A9FEFB6803F10103EF
:1015D000FB607B6903F101037B617B6803F1FF33EF
:1015E0007B607B68002BEBDC3B6A03F00F03092B6D
:1015F0000CD83B6ADBB203F00F03DBB203F130031C
:10160000DBB2F8681946FFF789FE1BE0FB78002B78
:101610000CD03B6ADBB203F00F03DBB203F13703FC
:10162000DBB2F8681946FFF779FE0BE03B6ADBB2E4
:1016300003F00F03DBB203F15703DBB2F86819467E
:10164000FFF76CFE7B6903F101037B617B69184640
:1016500007F11807BD4680BD80B58AB002AFF860BB
:10166000B9607A603B604FF00003BB614FF000034C
:101670007B61FB68002B00F01C81FB684FF00002CF
:101680001A7017E17B681B78252B10D07B681A78BD
:10169000FB681A70FB6803F10103FB607B6803F1D0
:1016A00001037B607B6903F101037B6102E17B68DD
:1016B00003F101031B78252B10D1FB684FF02502A5
:1016C0001A70FB6803F10103FB607B6803F10203FE
:1016D0007B607B6903F101037B61EBE04FF020034A
:1016E000FB774FF00003BB777B6803F101037B605E
:1016F0007B681B78302B1BD14FF03003FB777B6866
:1017000003F101037B6014E0BB7F1A464FEA8202BB
:10171000D3184FEA4303DAB27B681B78D318DBB2E5
:10172000A3F13003BB777B6803F101037B6000E02A
:1017300000BF7B681B782F2B03D97B681B78392B64
:10174000E2D9BA7F7B69D3181A46BB689A4205D999
:10175000BB68DAB27B69DBB2D31ABB777B681B78D4
:10176000A3F15803202B00F2948001A252F823F039
:1017700045180008931800089318000893180008EB
:10178000931800089318000893180008931800088D
:101790009318000893180008931800087B18000895
:1017A000F51700089318000893180008931800080C
:1017B00093180008F51700089318000893180008FC
:1017C000931800089318000893180008931800084D
:1017D000931800089318000893180008651800086B
:1017E000931800080D1800089318000893180008B3
:1017F00025180008BA7F3B6803F1040139601B68B3
:10180000F97FF868FFF71EFEB86145E0BA7F3B68D4
:1018100003F1040139601B68F97FF868FFF7B4FD34
:10182000B86139E0BA7F3B6803F104013960196897
:10183000FB7F0091F86819464FF00003FFF798FE10
:10184000B86129E0BA7F3B6803F104013960196887
:10185000FB7F0091F86819464FF00103FFF788FEFF
:10186000B86119E03B6803F104023A601B68F8684C
:101870001946FFF765FDB8610EE03B6803F104020D
:101880003A601B68DBB2F8681946FFF747FDB8619C
:1018900002E04FF0FF332CE07B6803F101037B6033
:1018A000BB69FA68D318FB607A69BB69D3187B619E
:1018B00000E000BF7B681B78002B04D07A69BB680E
:1018C0009A42FFF4DFAE7A69BB689A4204D2FB68A1
:1018D0004FF000021A700BE0FB6803F1FF33FB606E
:1018E000FB684FF000021A707B6903F1FF337B61E4
:1018F0007B69184607F12007BD4680BD0CB480B552
:1019000084B000AF7860396007F11C03BB60786871
:101910003968BA69BB68FFF79FFEF860FB68184634
:1019200007F11007BD46BDE8804002B0704700BF18
:1019300080B483B000AF78600B46FB70FB78002B5F
:101940000ED04FF48053C4F202034FF48052C4F21D
:101950000202526911467A6841EA02025A610FE0B6
:101960004FF48053C4F202034FF48052C4F20202D7
:10197000526911467A686FEA020201EA02025A616C
:1019800007F10C07BD4680BC704700BF80B483B030
:1019900000AF78600B46FB70FB78002B0ED04FF445
:1019A0008053C4F202034FF48052C4F202029269DF
:1019B00011467A6841EA02029A610FE04FF48053BF
:1019C000C4F202034FF48052C4F20202926911463B
:1019D0007A686FEA020201EA02029A6107F10C07D3
:1019E000BD4680BC704700BF80B483B000AF786054
:1019F0000B46FB70FB78002B0ED04FF48053C4F2E3
:101A000002034FF48052C4F20202D26911467A688E
:101A100041EA0202DA610FE04FF48053C4F202039C
:101A20004FF48052C4F20202D26911467A686FEA1A
:101A3000020201EA0202DA6107F10C07BD4680BC2E
:101A4000704700BF80B586B000AF4FF004004FF084
:101A50000101FFF79BFF4FF000504FF00101FFF72E
:101A6000C3FF4FF01003BB804FF00003FB7107F181
:101A700004034FF40060C4F201001946FEF79EFC17
:101A80004FF00003BB604FF00003FB604FF000031A
:101A90007B6107F108034FF000001946FEF784FF51
:101AA0004FF000004FF00101FEF7BAFF07F11807F1
:101AB000BD4680BD80B58AB002AFF860B9603B60BA
:101AC0001346FB80FB881846396B00F0D9FDB861DE
:101AD000BB69002B00F0A680BB691A6BFB8803F181
:101AE000FF334FEA8303D3187B617B6923F007033D
:101AF0007B61FB880093B869B968BA6A7B6B00F0B8
:101B00009DFC7869F9683A6802F060FB03461A4662
:101B1000BB691A60FB6A002B02D0FB6ABA691A60C3
:101B200002F0D4FB40F27013C2F200031B6803F111
:101B3000010240F27013C2F200031A6040F29803EF
:101B4000C2F200031B68002B0FD140F29803C2F2CF
:101B50000003BA691A6040F27013C2F200031B68F6
:101B6000012B18D100F0A8FC15E040F28013C2F25E
:101B700000031B68002B0ED140F29803C2F2000351
:101B80001B68DA6ABB6A9A4205D840F29803C2F22F
:101B90000003BA691A60BB69DA6A40F27813C2F2CC
:101BA00000031B689A4206D9BB69DA6A40F27813CF
:101BB000C2F200031A6040F29413C2F200031B68E1
:101BC00003F1010240F29413C2F200031A60BB69F0
:101BD000DA6A40F27C13C2F200031B689A4206D90B
:101BE000BB69DA6A40F27C13C2F200031A60BB6977
:101BF000DA6A13464FEA83039B184FEA83031A46B7
:101C000040F29C03C2F20003D218BB6903F1040343
:101C10001046194602F04AFA4FF00103FB6102F048
:101C20006BFB02E04FF0FF33FB61FB69012B11D12D
:101C300040F28013C2F200031B68002B0AD040F26E
:101C40009803C2F200031B68DA6ABB6A9A4201D2A7
:101C500002F030FBFB69184607F12007BD4680BD46
:101C600080B584B000AF786002F030FB40F298039A
:101C7000C2F200031B687A689A4202D14FF0000357
:101C80007B607B68002B05D140F29803C2F2000311
:101C90001B6800E07B68FB60FB6803F104031846E7
:101CA00002F06AFAFB689B6A002B05D0FB6803F11F
:101CB0001803184602F060FAFB6803F1040340F2CF
:101CC0004410C2F20000194602F0F0F940F2581335
:101CD000C2F200031B6803F1010240F25813C2F282
:101CE00000031A6040F29413C2F200031B6803F170
:101CF000010240F29413C2F200031A6002F0FCFAEF
:101D000040F28013C2F200031B68002B04D07B68F2
:101D1000002B01D102F0CEFA07F11007BD4680BDBD
:101D200080B584B000AF78604FF00003FB607B6843
:101D3000002B19D000F05CF840F27413C2F20003DB
:101D40001A687B68D318BB6040F29803C2F20003A4
:101D50001B6803F10403184602F00EFAB86800F09D
:101D600049FC00F057F8F860FB68002B01D102F045
:101D7000A1FA07F11007BD4680BD00BF80B586B04F
:101D800004AF46F2D853C0F600034FF000020092B1
:101D90004FF0000201924FF0000202924FF0000259
:101DA000039242F21940C0F6000019464FF080023B
:101DB0004FF00003FFF77EFE78607B68012B13D1A4
:101DC0004FF0BF0080F3118840F28013C2F200038D
:101DD0004FF001021A6040F27413C2F200034FF098
:101DE00000021A6002F03CFA07F10807BD4680BD08
:101DF00080B400AF40F28413C2F200031B6803F109
:101E0000010240F28413C2F200031A60BD4680BC96
:101E1000704700BF90B583B000AF4FF000037B6008
:101E200002F054FA40F28413C2F200031B6803F17B
:101E3000FF3240F28413C2F200031A6040F28413AE
:101E4000C2F200031B68002B40F0868040F2701342
:101E5000C2F200031B68002B7ED04FF000033B60F2
:101E60003DE040F23013C2F20003DB68DB681C4641
:101E700004F11803184602F07FF904F10403184630
:101E800002F07AF9E26A40F27C13C2F200031B68A6
:101E90009A4205D9E26A40F27C13C2F200031A604A
:101EA000E26A13464FEA83039B184FEA83031A46FC
:101EB00040F29C03C2F20003D21804F1040310465E
:101EC000194602F0F3F8E26A40F29803C2F2000306
:101ED0001B68DB6A9A4202D34FF001033B6040F279
:101EE0003013C2F200031B68002BBAD140F28813F2
:101EF000C2F200031B68002B18D00DE000F034F88C
:101F000040F28813C2F200031B6803F1FF3240F273
:101F10008813C2F200031A6040F28813C2F2000371
:101F20001B68002BEAD14FF001033B603B68012B9B
:101F300006D040F28C13C2F200031B68012B0BD1B8
:101F40004FF001037B6040F28C13C2F200034FF0AC
:101F500000021A6002F0AEF902F0CEF97B68184672
:101F600007F10C07BD4690BD80B584B000AF40F2CC
:101F70008413C2F200031B68002B40F0C08040F2C3
:101F80007413C2F200031B6803F1010240F27413E0
:101F9000C2F200031A6040F27413C2F200031B681D
:101FA000002B40D140F22813C2F200031B68FB60F3
:101FB00040F22C13C2F200031A6840F22813C2F256
:101FC00000031A6040F22C13C2F20003FA681A6090
:101FD00040F29013C2F200031B6803F1010240F2C9
:101FE0009013C2F200031A6040F22813C2F20003F9
:101FF0001B681B68002B07D140F20003C2F20003EC
:102000004FF0FF321A600EE040F22813C2F20003D4
:102010001B68DB68DB68BB60BB685A6840F2000382
:10202000C2F200031A6040F27413C2F200031A688D
:1020300040F20003C2F200031B689A426BD340F2E5
:102040002813C2F200031B681B68002B07D140F263
:102050000003C2F200034FF0FF321A605BE040F26F
:102060002813C2F200031B68DB68DB68BB60BB6837
:102070005B687B6040F27413C2F200031A687B68ED
:102080009A4206D240F20003C2F200037A681A6054
:1020900041E0BB6803F10403184602F06DF8BB6829
:1020A0009B6A002B05D0BB6803F11803184602F0A9
:1020B00063F8BB68DA6A40F27C13C2F200031B6863
:1020C0009A4206D9BB68DA6A40F27C13C2F2000376
:1020D0001A60BB68DA6A13464FEA83039B184FEA1B
:1020E00083031A4640F29C03C2F20003D218BB6875
:1020F00003F104031046194601F0D8FF9FE740F2B0
:102100008813C2F200031B6803F1010240F2881336
:10211000C2F200031A6007F11007BD4680BD00BF80
:1021200080B483B000AF40F28413C2F200031B6896
:10213000002B14D040F28C13C2F200034FF00102C6
:102140001A604FE040F27C13C2F200031B6803F1F7
:10215000FF3240F27C13C2F200031A6000E000BFBD
:1021600040F27C13C2F200031A6813464FEA83035D
:102170009B184FEA83031A4640F29C03C2F2000305
:10218000D3181B68002BDDD040F27C13C2F2000391
:102190001A6813464FEA83039B184FEA83031A46D3
:1021A00040F29C03C2F20003D3187B607B685B683B
:1021B0005B681A467B685A607B685A687B6803F1E3
:1021C00008039A4205D17B685B685B681A467B68A6
:1021D0005A607B685B68DB681A4640F29803C2F27B
:1021E00000031A6007F10C07BD4680BC704700BFB2
:1021F00080B584B000AF7860396040F29803C2F2D5
:1022000000031B6803F118037868194601F078FF92
:1022100040F29803C2F200031B6803F1040318465E
:1022200001F0AAFF3B68B3F1FF3F0ED140F29803E3
:10223000C2F200031B6803F1040340F25C10C2F217
:102240000000194601F032FF0AE040F27413C2F2B6
:1022500000031A683B68D318FB60F86800F0CAF9FD
:1022600007F11007BD4680BD80B584B000AF78602F
:102270007B68DB68DB68BB60BB6803F1180318464A
:1022800001F07AFF40F28413C2F200031B68002BB6
:102290002BD1BB6803F10403184601F06DFFBB6846
:1022A000DA6A40F27C13C2F200031B689A4206D934
:1022B000BB68DA6A40F27C13C2F200031A60BB68A2
:1022C000DA6A13464FEA83039B184FEA83031A46E0
:1022D00040F29C03C2F20003D218BB6803F104036E
:1022E0001046194601F0E2FE09E0BB6803F118034D
:1022F00040F23010C2F20000194601F0D7FEBB6870
:10230000DA6A40F29803C2F200031B68DB6A9A4261
:1023100003D34FF00103FB6002E04FF00003FB60CA
:10232000FB68184607F11007BD4680BD80B483B036
:1023300000AF786040F29013C2F200031A687B6825
:102340001A6040F27413C2F200031A687B685A6084
:1023500007F10C07BD4680BC704700BF80B584B054
:1023600000AF7860396001F0B1FF3B681B68B3F1E2
:10237000FF3F03D14FF00003FB6038E07B681A6831
:1023800040F29013C2F200031B689A420CD07B68A3
:102390005A6840F27413C2F200031B689A4203D8D1
:1023A0004FF00103FB6022E040F27413C2F200031D
:1023B0001A687B685B68D21A3B681B689A4213D222
:1023C0003B681A687B68596840F27413C2F20003D4
:1023D0001B68CB1AD2183B681A607868FFF7A6FF13
:1023E0004FF00003FB6002E04FF00103FB6001F0DF
:1023F00083FFFB68184607F11007BD4680BD00BF8C
:1024000080B400AF40F28C13C2F200034FF001021F
:102410001A60BD4680BC704780B582B000AF78605E
:1024200000E000BF00F09AF840F29C03C2F2000303
:102430001B68012BF5D901F03DFFF3E780B584B0AF
:1024400000AFF860B9607A603B60FB6803F1340369
:102450001A46BB68104619464FF0100204F050F8B7
:10246000FB684FF0000283F843207B68042B02D9FD
:102470004FF004037B60FB687A68DA62FB687A6875
:102480005A64FB6803F10403184601F001FEFB687F
:1024900003F11803184601F0FBFDFB68FA681A61A6
:1024A0007B68C3F10502FB689A61FB68FA685A62AF
:1024B00007F11007BD4680BD80B582B000AF4FF078
:1024C00000037B6013E07A6813464FEA83039B188E
:1024D0004FEA83031A4640F29C03C2F20003D3186A
:1024E000184601F0B1FD7B6803F101037B607B6856
:1024F000042BE8D940F20010C2F2000001F0A4FD64
:1025000040F21410C2F2000001F09EFD40F23010C3
:10251000C2F2000001F098FD40F24410C2F2000047
:1025200001F092FD40F25C10C2F2000001F08CFD5F
:1025300040F22813C2F2000340F20012C2F200027D
:102540001A6040F22C13C2F2000340F21412C2F2DD
:1025500000021A6007F10807BD4680BD80B582B051
:1025600000AF40F25813C2F200031B68002B3CD0AE
:10257000FFF73EFC40F24413C2F200031B68002B3D
:1025800014BF002301237B60FFF744FC7B68002B12
:102590002BD101F09BFE40F24413C2F20003DB6832
:1025A000DB683B603B6803F10403184601F0E4FD7F
:1025B00040F27013C2F200031B6803F1FF3240F2D5
:1025C0007013C2F200031A6040F25813C2F2000303
:1025D0001B6803F1FF3240F25813C2F200031A6085
:1025E00001F08AFE386800F085F807F10807BD465B
:1025F00080BD00BF80B582B000AF786040F2980324
:10260000C2F200031B687A685A6040F27413C2F287
:1026100000031B687A689A4210D240F22C13C2F26F
:1026200000031A6840F29803C2F200031B6803F12A
:1026300004031046194601F063FD1DE040F2281323
:10264000C2F200031A6840F29803C2F200031B684A
:1026500003F104031046194601F052FD40F2000355
:10266000C2F200031B687A689A4205D240F2000366
:10267000C2F200037A681A6007F10807BD4680BD00
:1026800080B584B000AF03463960FB804FF048004E
:1026900002F0DAFD0346FB60FB68002B23D03B68A9
:1026A000002B07D1FB884FEA8303184602F0CCFDCC
:1026B000034600E03B68FA681363FB681B6B002B62
:1026C00006D1F86802F00CFE4FF00003FB600AE050
:1026D000FB681A6BFB884FEA830310464FF0A50195
:1026E0001A4603F083FEFB68184607F11007BD4643
:1026F00080BD00BF80B582B000AF78607B681B6B87
:10270000184602F0EDFD786802F0EAFD07F10807CF
:10271000BD4680BD80B483B000AF40F29803C2F2E2
:1027200000031B687B607B68184607F10C07BD46F9
:1027300080BC704780B584B000AF78607B68FB6078
:10274000FB68DA6A40F29803C2F200031B68DB6A96
:102750009A4257D240F29803C2F200031B68DB6A28
:10276000C3F10502FB689A61FB685969FB68DA6A84
:1027700013464FEA83039B184FEA83031A4640F23D
:102780009C03C2F20003D318994233D1FB6803F1D2
:102790000403184601F0F0FC40F29803C2F2000373
:1027A0001B68DA6AFB68DA62FB68DA6A40F27C135B
:1027B000C2F200031B689A4206D9FB68DA6A40F24B
:1027C0007C13C2F200031A60FB68DA6A13464FEA10
:1027D00083039B184FEA83031A4640F29C03C2F21C
:1027E0000003D218FB6803F104031046194601F0F8
:1027F0005DFC07E040F29803C2F200031B68DA6A4E
:10280000FB68DA6207F11007BD4680BD80B584B071
:1028100000AF78607B68FB607B68002B3AD0FB6878
:10282000DA6AFB685B6C9A4234D0FB6803F10403FC
:10283000184601F0A1FCFB685A6CFB68DA62FB6881
:10284000DB6AC3F10502FB689A61FB68DA6A40F251
:102850007C13C2F200031B689A4206D9FB68DA6A4D
:1028600040F27C13C2F200031A60FB68DA6A134676
:102870004FEA83039B184FEA83031A4640F29C03F6
:10288000C2F20003D218FB6803F104031046194694
:1028900001F00CFC07F11007BD4680BD80B485B087
:1028A00000AF786039604FF00003FB604FF0000329
:1028B000FB727B685B68FB60FB6823F4702323F486
:1028C0008073FB603B681A683B681B794FEA0323FF
:1028D00042EA0303FA6842EA0303FB607B68FA6892
:1028E0005A607B689B68FB60FA684FF2FD73CFF615
:1028F000F17302EA0303FB603B68DA683B689B689C
:102900001A433B685B794FEA430342EA0303FA68E0
:1029100042EA0303FB607B68FA689A607B68DB6AC3
:10292000FB60FB6823F47003FB603B681B7C03F1D6
:10293000FF33DAB2FB7A42EA0303FB72FB7A4FEA17
:102940000353FA6842EA0303FB607B68FA68DA62C1
:1029500007F11407BD4680BC704700BF80B483B048
:1029600000AF78600B46FB70FB78002B06D07B68CD
:102970009B6843F001027B689A6005E07B689B6876
:1029800023F001027B689A6007F10C07BD4680BC0A
:10299000704700BF80B485B000AF786013460A4628
:1029A0007A807B704FF00003FB737B88FB737B782E
:1029B000002B07D07B685B681A46FB7B1A437B6859
:1029C0005A6008E07B685B681A46FB7B6FEA03038A
:1029D0001A407B685A6007F11407BD4680BC7047F7
:1029E00080B483B000AF78607B689B6843F00802D6
:1029F0007B689A6007F10C07BD4680BC704700BF3A
:102A000080B485B000AF78604FF00003FB737B6843
:102A10009B6803F00803002B03D04FF00103FB7306
:102A200002E04FF00003FB73FB7B184607F114072D
:102A3000BD4680BC704700BF80B483B000AF7860F3
:102A40007B689B6843F004027B689A6007F10C077F
:102A5000BD4680BC704700BF80B485B000AF7860D1
:102A60004FF00003FB737B689B6803F00403002BAB
:102A700003D04FF00103FB7302E04FF00003FB7340
:102A8000FB7B184607F11407BD4680BC704700BFAA
:102A900080B483B000AF78600B46FB70FB78002BEE
:102AA00006D07B685B6843F480627B685A6005E00F
:102AB0007B685B6823F480627B685A6007F10C07CF
:102AC000BD4680BC704700BF80B485B000AF786061
:102AD00039604FF00003FB607B689B68FB60FB681C
:102AE00023F4E043FB60FA683B6842EA0303FB60BF
:102AF0007B68FA689A6007F11407BD4680BC70478E
:102B000080B483B000AF78600B46FB70FB78002B7D
:102B100006D07B689B6843F402127B689A6005E0EC
:102B20007B689B6823F402127B689A6007F10C07AC
:102B3000BD4680BC704700BF80B487B000AF7860EE
:102B4000F970BA707B704FF000037B614FF00003A7
:102B50003B614FF00003FB60FB78092B29D97B68B0
:102B6000DB687B61FA7813464FEA43039B18A3F1B5
:102B70001E034FF0070202FA03F33B613B696FEA61
:102B800003037A6902EA03037B617978FA781346D2
:102B90004FEA43039B18A3F11E0301FA03F33B61C1
:102BA0007A693B6942EA03037B617B687A69DA6090
:102BB00024E07B681B697B61FA7813464FEA430384
:102BC0009B184FF0070202FA03F33B613B696FEA7F
:102BD00003037A6902EA03037B617978FA78134682
:102BE0004FEA43039B1801FA03F33B617A693B699F
:102BF00042EA03037B617B687A691A617B689B6B9D
:102C00007B617B6903F440134FEA1353FB60FB685D
:102C1000DBB26FEA0303DAB2BB78D318DBB203F19D
:102C20000303DBB21A4613464FEA83039B184FF0A7
:102C30001F0202FA03F33B613B696FEA03037A69FF
:102C400002EA03037B61F978FB68DBB26FEA0303F6
:102C5000DAB2BB78D318DBB203F10303DBB21A4656
:102C600013464FEA83039B1801FA03F33B617A6929
:102C70003B6942EA03037B617B687A699A6307F1E7
:102C80001C07BD4680BC704780B485B000AF78603B
:102C90000B46FB704FF00003FB604FF00003BB607E
:102CA0007B689B6BFB60FB6823F44013FB60FB7845
:102CB00003F1FF33BB60BB684FEA0353FA6842EA93
:102CC0000303FB607B68FA689A6307F11407BD464B
:102CD00080BC704780B485B000AF78600B46FB7055
:102CE0004FF00003FB607B68FB60FA78FB68D31849
:102CF00003F12803FB60FB681B689BB2184607F1D1
:102D00001407BD4680BC704780B487B000AF7860C0
:102D10000B467B804FF00003FB754FF000033B61D7
:102D20004FF00003FB607B884FEA13239BB23B61AB
:102D30007B685B681A467B88DBB202EA0303FB60B0
:102D40007B681B681A463B6902EA0303002B06D026
:102D5000FB68002B03D04FF00103FB7502E04FF03E
:102D60000003FB75FB7D184607F11C07BD4680BCC0
:102D7000704700BF80B485B000AF78600B467B80A1
:102D80004FF00003FB737B884FEA13239BB2FB7366
:102D9000FB7B6FEA03027B681A6007F11407BD46EC
:102DA00080BC70470000000090B587B002AFF860AB
:102DB000B960FA71BB71F86802F09CFA0346002B07
:102DC00002D14FF00103E6E1FB79032B00F2E08131
:102DD00001A151F823F000BFE92D00086F2E000873
:102DE0006D2F0008633000084FF001031C46F8689F
:102DF000DF4903F00BFA0346002B02D14FF000032A
:102E00001C46E3B2002B01D0D94BFB604FF001030D
:102E10001C46F868D74903F017FA0346002B02D185
:102E20004FF000031C46E3B2002B01D0D14BFB60F6
:102E3000BB79202B0DD1F86803F010FA0346B8686F
:102E40004FF0080146F2E052C0F60002FEF756FDD0
:102E50009FE1F86803F002FA0346B8684FF00801F2
:102E600046F2E452C0F60002FEF748FD91E14FF051
:102E700001031C46F868BE4903F0C8F90346002B5D
:102E800002D14FF000031C46E3B2002B01D0B84B37
:102E9000FB60F86802F0D0FB02460B464FF00101E0
:102EA0000C4610461946ACA3D3E9002302F0A8FE55
:102EB0000346002B02D14FF000031C46E3B2002B67
:102EC00001D0AD4BFB60BB79202B27D1F86803F014
:102ED000C5F90446F868A94902F0FAFF0346184606
:102EE00003F0BCF901464CF6CD43CCF6CC43A3FB32
:102EF00001234FEAD30213464FEA83039B184FEA9C
:102F00004303CA1A0092B8684FF0080146F2EC5227
:102F1000C0F600022346FEF7F1FC3AE1F86803F040
:102F20009DF90446F868954902F0D2FF0346184619
:102F300003F094F901464CF6CD43CCF6CC43A3FB09
:102F400001234FEAD30213464FEA83039B184FEA4B
:102F50004303CA1A0092B8684FF0080146F2F852CB
:102F6000C0F600022346FEF7C9FC12E14FF0010350
:102F70001C46F8687E4903F049F90346002B02D14C
:102F80004FF000031C46E3B2002B01D0784BFB60EE
:102F9000F86802F051FB02460B464FF001010C4667
:102FA000104619466EA3D3E9002302F029FE03461A
:102FB000002B02D14FF000031C46E3B2002B01D0DE
:102FC0006F4BFB60BB79202B25D1F86803F046F9E5
:102FD0000446F8686B4902F07BFF0346184603F08D
:102FE0003DF9024648F21F53C5F2EB13A3FB02134F
:102FF0004FEA53134FF0640101FB03F3D31A00931C
:10300000B8684FF0080146F20462C0F60002234699
:10301000FEF774FCBDE0F86803F020F90446F86898
:10302000584902F055FF0346184603F017F90246C7
:1030300048F21F53C5F2EB13A3FB02134FEA5313DD
:103040004FF0640101FB03F3D31A0093B8684FF00B
:10305000080146F21062C0F600022346FEF74EFC5D
:1030600097E04FF001031C46F868414903F0CEF8A1
:103070000346002B02D14FF000031C46E3B2002BA5
:1030800001D03B4BFB60F86802F0D6FA02460B46D3
:103090004FF001010C461046194633A3D3E9002333
:1030A00002F0AEFD0346002B02D14FF000031C4698
:1030B000E3B2002B01D0344BFB60BB79202B25D130
:1030C000F86803F0CBF80446F868304902F000FFD6
:1030D0000346184603F0C2F8024644F6D353C1F241
:1030E0006203A3FB02134FEA93134FF47A7101FBBF
:1030F00003F3D31A0093B8684FF0080146F21C623C
:10310000C0F600022346FEF7F9FB42E0F86803F040
:10311000A5F80446F8681D4902F0DAFE0346184691
:1031200003F09CF8024644F6D353C1F26203A3FBBA
:1031300002134FEA93134FF47A7101FB03F3D31A8E
:103140000093B8684FF0080146F22862C0F600020A
:103150002346FEF7D3FB1CE033333333333F8F403A
:103160008FC2F5285CFF5840736891ED7CFF2340C7
:1031700000000000003C1C469AF979440000204100
:10318000E1FAC7420000C842E7FB1F4100007A4451
:1031900000BF4FF00003184607F11407BD4690BD6D
:1031A00090B587B000AF786039604FF00003FB75D1
:1031B0004FF00003BB753D4B3B614FF00103FB81BA
:1031C0005EE040F20803C2F200031A68FB7D7968F2
:1031D000CB181B7803F10103D3181B7803F0040309
:1031E000002B0DD1FB7D7A68D3181B782E2B04D1D0
:1031F000BB7D03F10103BB753EE04FF0010350E0DE
:10320000BB7D002B16D13869294902F061FE0346C7
:103210003B61FB7D7A68D3181B78A3F13003184615
:1032200002F002FE03463869194602F049FD0346E2
:103230003B6121E0FB891A464FEA8202D3184FEA2C
:103240004303FB81FB7D7A68D3181B78A3F130031D
:10325000184602F0E9FD0446FB89184602F0E4FD39
:1032600003462046194602F0E7FE03463869194630
:1032700002F026FD03463B61FB7D03F10103FB7574
:10328000FB7D7A68D3181B78002B9AD1BB7D012B6C
:1032900002D94FF0010304E03B683A691A604FF02D
:1032A0000003184607F11C07BD4690BD0000000052
:1032B0000000204180B586B004AF4FF008004FF009
:1032C0000101FEF763FB4FF47053BB804FF0020324
:1032D000BB714FF04803FB7107F104034FF44060EA
:1032E000C4F201001946FDF769F84FF001004FF0F4
:1032F00001014FF0000201F069F8024641F270331B
:10330000C2F200031A6046F23463C0F600034FF0C5
:10331000010200924FF0000201924FF0000202926F
:103320004FF00002039243F24530C0F60000194608
:103330004FF040024FF00003FEF7BCFB07F1080717
:10334000BD4680BD80B584B000AF78604FF000030B
:10335000FB734FF00A00FEF7E3FC00F02BF8034686
:10336000BB734FF00A00FEF7DBFC00F023F80346C6
:103370007B73BA7B7B7B9A4219D1BA7BFB7B9A42E7
:1033800015D0BB7BFB73BB7B3B73BB7B002B0ED091
:1033900041F27033C2F200031A6807F10C031046C1
:1033A00019464FF000024FF0000301F0C7F800F09B
:1033B00081FFCEE780B500AF4FF44060C4F201005A
:1033C0004FF48061FDF7DAF80346002B02D14FF08D
:1033D00045032BE04FF44060C4F201004FF400615C
:1033E000FDF7CCF80346002B02D14FF051031DE04E
:1033F0004FF44060C4F201004FF48051FDF7BEF875
:103400000346002B02D14FF03E030FE04FF4406023
:10341000C4F201004FF40051FDF7B0F80346002B51
:1034200002D14FF02B0301E04FF00003184680BD9E
:1034300080B483B000AF78607A6846F24463C0F627
:1034400000039A4206D041F2A033C2F200037A6828
:103450001A6000E000BF07F10C07BD4680BC704752
:1034600080B582B000AF41F2A033C2F200031B6806
:103470001A6846F24463C0F600039A4218D141F23A
:10348000A033C2F200031B689A6846F24463C0F698
:1034900000039A420CD041F2A033C2F200031B6831
:1034A0009B687B607B68DB681846FFF7C1FF08E01C
:1034B00041F2A033C2F200031B681B681846FFF7F5
:1034C000B7FF07F10807BD4680BD00BF80B582B0D9
:1034D00000AF4FF00003FB7141F2A033C2F20003D2
:1034E0001A6846F26863C0F600039A4215D041F2AA
:1034F000A430C2F200004FF0FF0100F059FC41F28D
:10350000A033C2F200031B685B690B48194646F200
:103510002072C0F60002FDF719FB40F29913C2F2C7
:1035200000034FF000021A704FF00103184607F134
:103530000807BD4680BD00BFD411002080B584B00F
:1035400000AF0346FB7140F29813C2F200031B78F0
:10355000002B41D1FB79452B11D0452B06DC2B2BC1
:1035600036D03E2B08D0002B03D032E0512B25D093
:103570002FE04FF0010352E0FFF772FF29E041F224
:10358000A033C2F200031B681B7C002B0CD041F25D
:10359000A033C2F200031A68FB791046194600F006
:1035A00043F84FF001033AE041F2A033C2F20003C6
:1035B0001B68DB681846FFF73BFF0AE041F2A033C7
:1035C000C2F200031B689B681846FFF731FF00E05A
:1035D00000BFFFF77BFF20E0FB79512B09D140F2C0
:1035E0009813C2F200034FF000021A70FFF76EFF4B
:1035F00013E041F2A033C2F200031B681B7CFB60A6
:10360000FB68002B09D041F2A033C2F200031A6814
:10361000FB791046194600F007F84FF001031846F1
:1036200007F11007BD4680BD80B582B000AF78605D
:103630000B46FB7040F29813C2F200034FF00102F8
:103640001A707B681B7CA3F10403032B26D801A20C
:1036500052F823F0793600088B36000865360008EA
:103660006F360008FB78184600F05EF816E0FB782D
:10367000184600F0BFF811E0FB7818464FF0000143
:103680004FF0040200F034F908E0FB7818464FF0E0
:1036900000014FF0050200F02BF900BF4FF00003CE
:1036A000184607F10807BD4680BD00BF80B584B04D
:1036B00004AF41F2A033C2F2000346F26862C0F6E2
:1036C00000021A60FFF702FF46F22873C0F60003FB
:1036D0004FF0010200924FF0000201924FF0000201
:1036E00002924FF00002039243F62960C0F60000F8
:1036F00019464FF480724FF00003FEF7DBF941F2F8
:10370000A430C2F200004FF0FF0100F051FB41F283
:10371000B813C2F200034FF0000283F82E204FF0DE
:1037200000031846BD4680BD80B582B000AF034699
:10373000FB71FB793E2B3AD0452B02D02B2B20D0AE
:1037400036E040F29913C2F200031B78002B07D138
:1037500040F29913C2F200034FF001021A7027E001
:1037600040F29913C2F200034FF000021A7040F2C7
:103770009813C2F200034FF000021A70FFF7A6FE82
:1037800016E041F2B813C2F200039B8C03F101036F
:103790009BB29BB203F00F039BB243F420639BB236
:1037A0009AB241F2B813C2F200039A8400E000BF5B
:1037B00040F29913C2F200031B78002B14D041F29F
:1037C000B813C2F200039B8C03F00F03184602F0FB
:1037D0002BFB0346064819464FF0000246F22073C1
:1037E000C0F60003FDF76EF907F10807BD4680BD7E
:1037F000D411002080B582B000AF0346FB71FB7985
:103800003E2B48D0452B02D02B2B2FD044E040F24A
:103810009913C2F200031B78002B16D141F2A43396
:10382000C2F2000393F8283003F00103DAB241F248
:10383000A433C2F2000383F8282040F29913C2F2A5
:1038400000034FF001021A7026E040F29913C2F211
:1038500000034FF000021A7040F29813C2F2000306
:103860004FF000021A70FFF731FE15E041F2A43369
:10387000C2F2000393F8283003F00103DBB2002BFF
:1038800014BF00230123DAB241F2A433C2F20003D1
:1038900083F8282000E000BF40F29913C2F2000331
:1038A0001B78002B1ED041F2A433C2F2000393F820
:1038B0002830012B0BD10D4846F23871C0F60001BB
:1038C00046F22072C0F60002FDF740F90AE0074810
:1038D00046F24071C0F6000146F22072C0F60002C6
:1038E000FDF734F907F10807BD4680BDD41100206B
:1038F00090B585B000AF13460246FA710A46BA7118
:103900007B71FB793E2B00F06181452B03D02B2B83
:1039100000F0068246E240F29913C2F200031B78DF
:10392000002B40F0E28040F2A113C2F200034FF0FE
:1039300000021A707B79042B02D0052B62D0B8E00C
:10394000B97941F2A432C2F200020B464FEA0313E6
:103950005B1A4FEA8303D31803F124031B68FB604F
:1039600041F2B813C2F200034FF0010283F82E2097
:10397000FB68184601F0BEFC0346002B38D0FB68FC
:103980004FF0010214461846BB4902F053FC0346AF
:10399000002B02D14FF000031C46E3B2002B27D0CE
:1039A000FB68184601F048FE02460B464FF0010145
:1039B0000C4610461946ACA3D3E9002302F00CF9DB
:1039C0000346002B02D14FF000031C46E3B2002B4C
:1039D0000ED0FA6841F2B813C2F2000393F82E3009
:1039E0001046A3491A464FF03103FFF7DDF960E0B6
:1039F0009F4846F24871C0F600014FF0060202F0FF
:103A00004DFC56E0B97941F2A432C2F200020B46F5
:103A10004FEA03135B1A4FEA8303D31803F1200321
:103A20001B88184602F0FCF90346FB6041F2B8130C
:103A3000C2F200034FF0000283F82E20FB684FF023
:103A40000102144618468C4902F0F4FB0346002B91
:103A500002D14FF000031C46E3B2002B1FD0FB68DD
:103A60004FF0010214461846844902F0D9FB034680
:103A7000002B02D14FF000031C46E3B2002B0ED006
:103A8000FA6841F2B813C2F2000393F82E301046E0
:103A900077491A464FF03003FFF786F909E074487A
:103AA00046F25071C0F600014FF0050202F0F6FB3D
:103AB00000BF70486E4946F22072C0F60002FDF762
:103AC00045F840F29913C2F200034FF001021A7058
:103AD00040F2A113C2F200031B7841F2A430C2F2FB
:103AE0000000194600F064F95CE107F10C0360483E
:103AF0001946FFF755FB0346002B56D1FB681846C5
:103B000001F0F8FB0346002B4FD0FB684FF0010299
:103B100014461846584902F08DFB0346002B02D18B
:103B20004FF000031C46E3B2002B3ED0FB684FF081
:103B3000010214461846514902F072FB0346002B5D
:103B400002D14FF000031C46E3B2002B2DD07B794D
:103B5000042B02D0052B11D027E0B979F86841F287
:103B6000A432C2F200020B464FEA03135B1A4FEA7B
:103B70008303D31803F12403186016E0BC79FB68B3
:103B8000184602F06BFB034699B241F2A432C2F22E
:103B9000000223464FEA03131B1B4FEA8303D3188B
:103BA00003F120030A461A8000BF40F29913C2F2C3
:103BB00000034FF000021A7040F29813C2F20003A3
:103BC0004FF000021A70FFF781FCEBE040F2A11306
:103BD000C2F200031B7803F10103DAB240F2A11331
:103BE000C2F200031A7041F2B813C2F2000393F854
:103BF0002E30032B7ED801A252F823F00D3C000892
:103C00002B3C0008813C0008BB3C000840F2A1139B
:103C1000C2F200031B78032B6ED940F2A113C2F24B
:103C200000034FF000021A706DE040F2A113C2F2DF
:103C300000031B78032B06D140F2A113C2F200034C
:103C40004FF004021A7040F2A113C2F200031B7875
:103C5000042B53D940F2A113C2F200034FF000022B
:103C60001A7050E0AFF3008033333333333F8F406B
:103C7000B4130020D411002000000000003C1C46BA
:103C800040F2A113C2F200031B78022B06D140F2CE
:103C9000A113C2F200034FF003021A7040F2A11305
:103CA000C2F200031B78042B2AD940F2A113C2F2FE
:103CB00000034FF000021A7025E040F2A113C2F297
:103CC00000031B78012B06D140F2A113C2F20003BE
:103CD0004FF002021A7040F2A113C2F200031B78E7
:103CE000042B0FD940F2A113C2F200034FF00002DF
:103CF0001A7008E000BF06E000BF04E000BF02E069
:103D000000BF00E000BF40F2A113C2F200031B7825
:103D100041F2A430C2F20000194600F049F841E037
:103D200040F2A113C2F200031B781A4641F2A433F9
:103D3000C2F200039B181B7C03F10103D9B241F2CC
:103D4000A433C2F200039B180A461A7440F2A1136E
:103D5000C2F200031B781A4641F2A433C2F20003F8
:103D60009B181B7C2F2B0DD940F2A113C2F200032C
:103D70001B781A4641F2A433C2F200039B181B7C45
:103D8000392B0ED940F2A113C2F200031B781A4658
:103D900041F2A433C2F200039B184FF030021A74B0
:103DA00000E000BF07F11407BD4690BDAFF30080EF
:103DB00080B582B000AF78600B46FB70FB78042BB7
:103DC00012D87B6803F11803184646F22071C0F63A
:103DD00000014FF0060202F061FAFB787A68D3180E
:103DE0004FF020021A761BE0FB780F2B0CD17B687A
:103DF00003F11803184646F25871C0F600014FF05F
:103E0000060202F04BFA0BE07B6803F11803184638
:103E100046F22071C0F600014FF0060202F03EFAB1
:103E200007F10807BD4680BDB0B586B000AF786029
:103E30004FF00003FB754FF00003BB754FF03200ED
:103E4000FDF76EFF41F27033C2F200031B681846A3
:103E500000F012FD0346002B12D041F27033C2F283
:103E600000031A6807F10F03104619464FF00002CD
:103E70004FF0000300F03CFCFB7B1846FFF75EFBB5
:103E8000BB7D012B04D8BB7D03F10103BB7506E0AC
:103E90004FF00003BB75FB7D83F00103FB7541F21E
:103EA000A033C2F200031A6846F26863C0F600034A
:103EB0009A4240F0818041F2A433C2F2000393F8A9
:103EC0002830012B5BD141F2A433C2F200031B8CDA
:103ED000184601F0A5FF0346184601F0ADFB044665
:103EE0000D4641F2A433C2F200039B68184601F06C
:103EF00097FF03461846514902F09EF803461846BC
:103F000001F09AFB02460B461046194644A3D3E93A
:103F1000002301F0E5FB02460B462046294601F04E
:103F20002DFA02460B46104619463FA3D3E900235B
:103F300001F000FD02460B4614461D4641F2A43333
:103F4000C2F200035B6A184601F076FB02460B469C
:103F50002046294601F0C4FB02460B46104619468E
:103F600001F058FE03463B61314839694FF00102C8
:103F700046F22073C0F60003FCF7A4FD1CE041F2FA
:103F8000A433C2F200039B68184601F049FF0346C0
:103F900018462A4902F050F803461846284901F00D
:103FA00097FF0346224819464FF0000246F220735D
:103FB000C0F60003FCF786FD41F2A033C2F2000315
:103FC0001A6846F2E863C0F600039A420AD041F24A
:103FD000A033C2F200031A6846F20873C0F6000369
:103FE0009A4217D140F29913C2F200031B78002BBA
:103FF00010D0FB7D002B05D00D480E490E4AFCF772
:10400000A5FD07E00A480B4946F22072C0F60002FF
:10401000FCF79CFD00F04EF910E700BFAFF3008005
:10402000000000000088A3400000000000408F4016
:10403000D4110020B4130020BC13002000008045E0
:1040400000401C45AFF3008080B483B000AF7860BF
:104050007B6803F108031A467B685A607B684FF05F
:10406000FF329A607B6803F108031A467B68DA60C6
:104070007B6803F108031A467B681A617B684FF07E
:1040800000021A6007F10C07BD4680BC704700BFF4
:1040900080B483B000AF78607B684FF000021A6193
:1040A00007F10C07BD4680BC704700BF80B485B0E7
:1040B00000AF786039607B685B68FB60FB685B68B9
:1040C0001A463B685A607B685A683B689A60FB688E
:1040D0005B683A689A603A68FB685A603A687B683D
:1040E0005A603B687A681A617B681B6803F10102B9
:1040F0007B681A6007F11407BD4680BC704700BF9B
:1041000080B485B000AF786039603B681B68BB60E5
:10411000BB68B3F1FF3F03D17B681B69FB600EE016
:104120007B6803F10803FB6002E0FB685B68FB60EF
:10413000FB685B681B681A46BB689A42F5D9FB6846
:104140005B681A463B685A603B685B683A689A60ED
:104150003B68FA689A603A68FB685A603B687A681C
:104160001A617B681B6803F101027B681A6007F122
:104170001407BD4680BC704780B485B000AF78603E
:104180007B685B687A6892689A607B689B687A68EB
:1041900052685A607B681B69FB60FB685A687B68E1
:1041A0009A4203D17B689A68FB685A607B684FF03B
:1041B00000021A61FB681B6803F1FF32FB681A609A
:1041C00007F11407BD4680BC704700BF80B485B0BE
:1041D00000AFF860B9607A60FB68A3F10403FB608C
:1041E000FB684FF080721A60FB68A3F10403FB6068
:1041F000BA68FB681A60FB68A3F10403FB60FB6804
:104200004FF000021A60FB68A3F11403FB607A68A8
:10421000FB681A60FB68A3F12003FB60FB6818468B
:1042200007F11407BD4680BC704700BF064B1968F4
:104230000868B0E8F00F80F309884FF0000080F3C1
:1042400011884EF00D0E704798000020034800685A
:10425000006880F3088862B600DF00BF08ED00E068
:1042600080B500AF4EF62053CEF200034EF620523A
:10427000CEF20002126842F47F021A604EF620531A
:10428000CEF200034EF62052CEF20002126842F047
:104290007F421A6000F086F840F20403C2F2000385
:1042A0004FF000021A60FFF7D1FF4FF000031846ED
:1042B00080BD00BF80B400AF4EF60453CEF20003C1
:1042C0004FF080521A60BD4680BC704780B400AF8A
:1042D0004FF0BF0080F3118840F20403C2F20003E4
:1042E0001B6803F1010240F20403C2F200031A60EA
:1042F000BD4680BC704700BF80B400AF40F20403ED
:10430000C2F200031B6803F1FF3240F20403C2F261
:1043100000031A6040F20403C2F200031B68002B82
:1043200003D14FF0000080F31188BD4680BC704778
:10433000EFF309800C4B1A6820E9F00F10602DE9AB
:1043400008404FF0BF0080F31188FDF7E9FE4FF001
:10435000000080F31188BDE8084019680868B0E8DB
:10436000F00F80F3098870479800002080B582B074
:1043700000AF4EF60453CEF200034FF080521A60A5
:104380004FF000037B604FF0BF0080F31188FDF712
:10439000EBFD4FF0000080F3118807F10807BD46E0
:1043A00080BD00BF80B400AF4EF21403CEF2000314
:1043B00045F6BF521A604EF21003CEF200034FF0E2
:1043C00007021A60BD4680BC704700BF80B588B048
:1043D00000AFF860B9601346FB714FF00003FB615A
:1043E000FB68002B56D04FF04C0000F02DFF034629
:1043F000BB61BB69002B4DD0FB68BA6802FB03F3BD
:1044000003F101037B61786900F01EFF03461A4641
:10441000BB691A60BB691B68002B38D0BB691A687E
:10442000FB68B96801FB03F3D218BB695A60BB692A
:104430004FF000029A63BB691A68BB699A60BB6956
:104440001A68FB6803F1FF33B96801FB03F3D21864
:10445000BB69DA60BB69FA68DA63BB69BA681A6477
:10446000BB694FF0FF325A64BB694FF0FF329A6468
:10447000BB6903F110031846FFF7E6FDBB6903F1C2
:1044800024031846FFF7E0FDBB69FB6102E0B86951
:1044900000F026FFFB69184607F12007BD4680BDE6
:1044A00080B584B000AF0346FB714FF04C0000F0C4
:1044B000CBFE0346FB60FB68002B38D0FB684FF057
:1044C00000025A60FB684FF000021A60FB684FF070
:1044D00000029A60FB684FF00002DA60FB684FF060
:1044E00000029A63FB684FF00102DA63FB684FF049
:1044F00000021A64FB684FF0FF325A64FB684FF009
:10450000FF329A64FB6803F110031846FFF79CFD25
:10451000FB6803F124031846FFF796FDF8684FF097
:1045200000014FF000024FF0000300F007F8FB68B5
:10453000184607F11007BD4680BD00BF80B588B0A2
:1045400000AFF860B9607A603B604FF00003FB6138
:1045500000E000BFFFF7BAFEFB689B6B1A46FB68E2
:10456000DB6B9A4218D2F868B9683A6800F096F99D
:10457000FB685B6A002B0AD0FB6803F12403184632
:10458000FDF772FE0346012B01D1FFF793FEFFF703
:10459000B3FE4FF001035DE07B68002B04D1FFF711
:1045A000ABFE4FF0000355E0FB69002B07D107F18C
:1045B00014031846FDF7BAFE4FF00103FB61FFF745
:1045C0009BFEFDF715FCFFF781FEFB685B6CB3F10A
:1045D000FF3F03D1FB684FF000025A64FB689B6CFD
:1045E000B3F1FF3F03D1FB684FF000029A64FFF77D
:1045F00083FE07F1140207F1040310461946FDF784
:10460000ADFE0346002B1ED1F86800F037FA0346D2
:10461000002B12D0FB6803F110027B68104619468C
:10462000FDF7E6FDF86800F0C3F9FDF7F3FB03467C
:10463000002B8ED1FFF73EFE8CE7F86800F0B8F94A
:10464000FDF7E8FB86E7F86800F0B2F9FDF7E2FB5A
:104650004FF00003184607F12007BD4680BD00BF9C
:1046600080B586B000AFF860B9607A603B604FF00B
:1046700000033B614FF0BF0080F31188FB689B6B28
:104680001A46FB68DB6B9A4225D2F868B9683A682B
:1046900000F004F9FB689B6CB3F1FF3F11D1FB689C
:1046A0005B6A002B13D0FB6803F124031846FDF767
:1046B000DBFD0346002B0AD07B684FF001021A6035
:1046C00005E0FB689B6C03F10102FB689A644FF004
:1046D00001037B6102E04FF000037B614FF00000BB
:1046E00080F311887B69184607F11807BD4680BD25
:1046F00080B588B000AFF860B9607A603B604FF079
:104700000003FB6100E000BFFFF7E0FDFB689B6B6F
:10471000002B40D0FB68DB68BB61F868B96800F02B
:104720001FF93B68002B1FD1FB689B6B03F1FF3225
:10473000FB689A63FB681B68002B05D1FDF7EAFF55
:1047400003461A46FB685A60FB681B69002B1DD0A4
:10475000FB6803F110031846FDF786FD0346012BA5
:1047600014D1FFF7A7FD11E0FB68BA69DA60FB68B6
:104770005B6A002B0AD0FB6803F124031846FDF79F
:1047800073FD0346002B01D0FFF794FDFFF7B4FD46
:104790004FF001036BE07B68002B04D1FFF7ACFD09
:1047A0004FF0000363E0FB69002B07D107F1100312
:1047B0001846FDF7BBFD4FF00103FB61FFF79CFDC1
:1047C000FDF716FBFFF782FDFB685B6CB3F1FF3F63
:1047D00003D1FB684FF000025A64FB689B6CB3F195
:1047E000FF3F03D1FB684FF000029A64FFF784FD9E
:1047F00007F1100207F1040310461946FDF7AEFD5C
:104800000346002B2CD1F86800F022F90346002B58
:1048100020D0FB681B68002B08D1FFF757FDFB6811
:104820005B681846FDF786FFFFF766FDFB6803F13E
:1048300024027B6810461946FDF7DAFCF86800F0A0
:10484000B7F8FDF7E7FA0346002B7FF45CAFFFF7FC
:1048500031FD59E7F86800F0ABF8FDF7DBFA53E7F4
:10486000F86800F0A5F8FDF7D5FA4FF000031846F8
:1048700007F12007BD4680BD80B584B000AF7860E9
:10488000FFF724FD7B689B6BFB60FFF735FDFB6842
:10489000184607F11007BD4680BD00BF80B584B043
:1048A00000AFF860B9607A60FB681B6C002B0DD11B
:1048B000FB681B68002B48D1FB685B681846FDF756
:1048C000A5FFFB684FF000025A603EE07B68002BBA
:1048D0001AD1FB689A68FB681B6C1046B9681A46C7
:1048E00001F0DCFCFB689A68FB681B6CD218FB6863
:1048F0009A60FB689A68FB685B689A4225D3FB68FC
:104900001A68FB689A6020E0FB68DA68FB681B6C39
:104910001046B9681A4601F0C1FCFB68DA68FB680A
:104920001B6CC3F10003D218FB68DA60FB68DA681D
:10493000FB681B689A4208D2FB685A68FB681B6CCC
:10494000C3F10003D218FB68DA60FB689B6B03F1CC
:104950000102FB689A6307F11007BD4680BD00BFE6
:1049600080B582B000AF786039607B681B68002B2F
:1049700019D07B68DA687B681B6CD2187B68DA60B8
:104980007B68DA687B685B689A4203D37B681A6845
:104990007B68DA607B68DA687B681B6C3868114674
:1049A0001A4601F07BFC07F10807BD4680BD00BF39
:1049B00080B582B000AF7860FFF788FC14E07B68B8
:1049C0005B6A002B15D07B6803F124031846FDF7C2
:1049D0004BFC0346002B01D0FDF712FD7B689B6C5E
:1049E00003F1FF327B689A647B689B6C002BE6DCEA
:1049F00000E000BF7B684FF0FF329A64FFF77CFC59
:104A0000FFF764FC14E07B681B69002B15D07B6802
:104A100003F110031846FDF727FC0346002B01D0D5
:104A2000FDF7EEFC7B685B6C03F1FF327B685A6438
:104A30007B685B6C002BE6DC00E000BF7B684FF01E
:104A4000FF325A64FFF758FC07F10807BD4680BDE6
:104A500080B584B000AF7860FFF738FC7B689B6B53
:104A6000002B14BF00230123FB60FFF745FCFB680C
:104A7000184607F11007BD4680BD00BF80B584B061
:104A800000AF7860FFF722FC7B689B6B1A467B685F
:104A9000DB6B9A4214BF00230123FB60FFF72CFC61
:104AA000FB68184607F11007BD4680BD80B485B08D
:104AB00000AF786039604FF00003FB607B681B68D3
:104AC000FB60FB6823F4FE4323F0F003FB603B68CC
:104AD0009A683B681B6A1A433B681B691A433B6828
:104AE0005B691A433B689B691A433B68DB691A435D
:104AF0003B685B6A1A433B689B6A42EA0303FA68B5
:104B000042EA0303FB607B68FA681A603B68DA6874
:104B10007B685A603B681A687B689A603B685A6891
:104B20007B68DA6007F11407BD4680BC704700BFA0
:104B300080B483B000AF78607B684FF000021A60E9
:104B40007B684FF000025A607B684FF000029A6069
:104B50007B684FF00002DA607B684FF000021A6158
:104B60007B684FF000025A617B684FF000029A6147
:104B70007B684FF00002DA617B684FF000021A6236
:104B80007B684FF000025A627B684FF000029A6225
:104B900007F10C07BD4680BC704700BF80B483B0EE
:104BA00000AF78600B46FB70FB78002B06D07B686B
:104BB0001B6843F001027B681A6008E07B681B6891
:104BC0001A464FF6FE7302EA03037A68136007F190
:104BD0000C07BD4680BC704780B485B000AF7860DC
:104BE0004FF00003FB734FF00003BB607B6803F0E2
:104BF0008053002B06D04FF48063C4F202031B687D
:104C0000BB6005E04FF00003C4F202031B68BB6009
:104C1000BA687B6802EA0303002B03D04FF001035C
:104C2000FB7302E04FF00003FB73FB7B184607F1B8
:104C30001407BD4680BC704780B483B000AF786075
:104C40007B6803F08053002B06D04FF48063C4F2DE
:104C500002037A685A6005E04FF00003C4F20203D1
:104C60007A685A6007F10C07BD4680BC704700BFE8
:104C700080B586B004AF4FF00003FB7146F260735D
:104C8000C0F600034FF0010200924FF000020192C3
:104C90004FF0000202924FF00002039244F6F960D6
:104CA000C0F6000019464FF040024FF00003FCF739
:104CB00001FF4FF00100FFF7F3FB024641F2E03342
:104CC000C2F200031A60FB79184607F10807BD46D7
:104CD00080BD00BF80B592B000AF41F214004FF02C
:104CE0000101FCF753FE4FF0A003A7F844304FF04A
:104CF000030387F846304FF0180387F8473007F171
:104D000044034FF40060C4F201001946FBF756FB60
:104D10004FF48073A7F844304FF0100387F8473002
:104D20004FF0030387F8463007F144034FF4006067
:104D3000C4F201001946FBF741FB4FF000033B862C
:104D40004FF482737B864FF40063BB864FF0000301
:104D5000FB864FF000033B874FF400737B874FF0D7
:104D60000003BB874FF00003FB8707F130034FF4CC
:104D70004050C4F20100194600F0B4F94FF440501D
:104D8000C4F201004FF0000100F03EFA4FF4405031
:104D9000C4F201004FF0010100F0F0F94FF400609F
:104DA000C4F201004FF480714FF00002FBF706FCE3
:104DB0004FF001004FF00101FCF7BAFD07F10403C9
:104DC0001846FFF7B5FE43F20C03C4F201037B6003
:104DD0004FF01003FB604FF000037B614FF0800346
:104DE000BB614FF48073FB614FF480633B624FF013
:104DF00000037B624FF00003BB624FF000037B6255
:104E00004FF00003FB6207F104034FF03000C4F2DF
:104E100002001946FFF74AFE4FF40070FFF70CFF3F
:104E200007F104031846FFF783FE43F20C03C4F2B4
:104E300001037B604FF00003FB604FF000037B61D8
:104E40004FF08003BB614FF48073FB614FF48063CC
:104E50003B624FF000037B624FF00003BB624FF0F8
:104E600000037B624FF00003FB6207F104034FF085
:104E70001C00C4F202001946FFF718FE4FF0200094
:104E8000FFF7DAFE4FF44050C4F201004FF0020188
:104E90004FF0010200F092F94FF44050C4F20100CB
:104EA0004FF001014FF0010200F088F907F14807C7
:104EB000BD4680BD80B582B000AF78600B467B8078
:104EC0004FF03003C4F202037A68DA604FF0300327
:104ED000C4F202037A885A604FF40070FFF7ACFE08
:104EE0004FF03000C4F202004FF00101FFF756FE10
:104EF00007F10807BD4680BD80B584B000AF78607B
:104F00004FF00003FB734FF00003FB7369E04FF4B5
:104F10000060C4F201004FF480714FF00002FBF713
:104F20004DFB41F2E033C2F200031B6818464FF01C
:104F300000014FF0FF324FF00003FFF7D9FB0346AB
:104F4000012B36D12B4AFB7B4FEA4303D31818467B
:104F50004FF00101FFF7AEFF01E0FFF7ABF94FF4AF
:104F60000070FFF739FE0346002BF6D04FF03000FB
:104F7000C4F202004FF00001FFF710FE01E0FFF75E
:104F800099F94FF44053C4F201031B899BB203F01B
:104F90008003002BF3D141F2E033C2F200031B681F
:104FA00018464FF000014FF000024FF00003FFF7EA
:104FB000C5FA4FF40060C4F201004FF480714FF065
:104FC0000102FBF7FBFA4FF40060C4F201004FF45A
:104FD00080714FF00002FBF7F1FAFB7B03F1010354
:104FE000FB73FB7B0C2B92D94FF03200FCF798FE41
:104FF00089E700BFBA11002080B487B000AF7860A5
:105000004FF000037B614FF000033B614FF00F0353
:10501000FB607B68DB78002B49D04FF46D43CEF208
:105020000003DB686FEA030303F4E0634FEA132332
:105030007B617B69C3F104033B617B69FA6822FAF7
:1050400003F3FB607B685B781A463B6902FA03F363
:105050007B617B689B781A46FB6802EA03037A69E6
:1050600042EA03037B617B694FEA03137B614FF4E0
:105070006143CEF200037A68127811467A69D2B29F
:105080005B1883F800234FF46143CEF200037A6883
:1050900012784FEA5212D2B27968097801F01F01F2
:1050A0004FF0010000FA01F143F8221014E04FF430
:1050B0006143CEF200037A6812784FEA5212D2B2FC
:1050C0007968097801F01F014FF0010000FA01F141
:1050D00002F1200243F8221007F11C07BD4680BCF4
:1050E000704700BF80B485B000AF786039604FF082
:1050F0000003FB817B681B88FB81FB8903F4415320
:10510000FB813B681A883B685B8842EA03039AB2DA
:105110003B689B8842EA03039AB23B68DB8842EA19
:1051200003039AB23B681B8942EA03039AB23B68C5
:105130005B8942EA03039AB23B689B8942EA030314
:105140009AB23B68DB8942EA03039AB2FB8942EADE
:105150000303FB817B68FA891A807B689B8B9BB277
:1051600023F400639AB27B689A833B681A8A7B684F
:105170001A8207F11407BD4680BC704780B483B023
:1051800000AF78600B46FB70FB78002B08D07B6883
:105190001B889BB243F040039AB27B681A8007E0F9
:1051A0007B681B889BB223F040039AB27B681A800D
:1051B00007F10C07BD4680BC704700BF80B483B0C8
:1051C00000AF786013460A467A807B707B78002BAC
:1051D00009D07B689B889AB27B8842EA03039AB223
:1051E0007B689A800BE07B689B889AB27B886FEA29
:1051F00003039BB202EA03039AB27B689A8007F129
:105200000C07BD4680BC704780B483B000AF7860A7
:105210000B46FB70FB78002B08D07B681B889BB289
:1052200043F400539AB27B681A8007E07B681B88BE
:105230009BB223F400539AB27B681A8007F10C07E3
:10524000BD4680BC704700BF80B584B000AF7860B9
:105250004FF00003FB607B6803F00703002B05D0D1
:105260007B6823F0070303F108037B60FCF7C0FDB4
:1052700041F2A813C2F200031A687B68D21840F604
:10528000FF739A4224D841F2A813C2F200031A68AD
:105290007B68D21841F2A813C2F200031B689A423D
:1052A00016D941F2A813C2F200031A6840F2A813FB
:1052B000C2F20003D318FB6041F2A813C2F200034C
:1052C0001A687B68D21841F2A813C2F200031A6070
:1052D000FCF7A0FDFB68184607F11007BD4680BD2E
:1052E00080B483B000AF786007F10C07BD4680BC86
:1052F000704700BFD0F1010338BF0023B0F1004F69
:1053000008BF43F00103002B2ED1A0F5000300F1EC
:10531000FF42B3F1FE4F2CBF00230123B2F1FE4F39
:1053200038BF43F00103EBB94FF6FE73411EC0F2E4
:105330007F0300F10042013A99428CBF0021012114
:105340009A428CBF0B4641F001037BB910F5000F68
:1053500014BF00230123B0F1FF4F14BF184643F0E0
:1053600001007047042070470220704703207047F7
:1053700081F0004102E000BF83F0004330B54FEA06
:1053800041044FEA430594EA050F08BF90EA020F73
:105390001FBF54EA000C55EA020C7FEA645C7FEA06
:1053A000655C00F0E2804FEA5454D4EB5555B8BF29
:1053B0006D420CDD2C4480EA020281EA030382EA9A
:1053C000000083EA010180EA020281EA0303362D2C
:1053D00088BF30BD11F0004F4FEA01314FF4801CFF
:1053E0004CEA113102D0404261EB410113F0004F11
:1053F0004FEA03334CEA133302D0524263EB4303C8
:1054000094EA050F00F0A780A4F10104D5F1200E65
:105410000DDB02FA0EFC22FA05F2801841F10001C0
:1054200003FA0EF2801843FA05F359410EE0A5F194
:1054300020050EF1200E012A03FA0EFC28BF4CF0C5
:10544000020C43FA05F3C01851EBE37101F000457B
:1054500007D54FF0000EDCF1000C7EEB00006EEB88
:105460000101B1F5801F1BD3B1F5001F0CD3490812
:105470005FEA30004FEA3C0C04F101044FEA445269
:1054800012F5800F80F09A80BCF1004F08BF5FEAF0
:10549000500C50F1000041EB045141EA050130BDD0
:1054A0005FEA4C0C404141EB010111F4801FA4F173
:1054B0000104E9D191F0000F04BF01460020B1FAC8
:1054C00081F308BF2033A3F10B03B3F120020CDA00
:1054D0000C3208DD02F1140CC2F10C0201FA0CF0DE
:1054E00021FA02F10CE002F11402D8BFC2F1200C43
:1054F00001FA02F120FA0CFCDCBF41EA0C019040F9
:10550000E41AA2BF01EB0451294330BD6FEA040441
:105510001F3C1CDA0C340EDC04F11404C4F120022C
:1055200020FA04F001FA02F340EA030021FA04F33E
:1055300045EA030130BDC4F10C04C4F1200220FA95
:1055400002F001FA04F340EA0300294630BD21FAD3
:1055500004F0294630BD94F0000F83F4801306BF99
:1055600081F480110134013D4EE77FEA645C18BF8D
:105570007FEA655C29D094EA050F08BF90EA020F24
:1055800005D054EA000C04BF1946104630BD91EA1C
:10559000030F1EBF0021002030BD5FEA545C05D11F
:1055A0004000494128BF41F0004130BD14F580045E
:1055B0003CBF01F5801130BD01F0004545F0FE41D2
:1055C00041F470014FF0000030BD7FEA645C1ABF07
:1055D000194610467FEA655C1CBF0B46024650EA3E
:1055E000013406BF52EA033591EA030F41F400216A
:1055F00030BD00BF90F0000F04BF0021704730B5F0
:105600004FF4806404F132044FF000054FF00001C4
:1056100050E700BF90F0000F04BF0021704730B585
:105620004FF4806404F1320410F0004548BF40425A
:105630004FF000013EE700BF42004FEAE2014FEAAF
:1056400031014FEA02701FBF12F07F4393F07F4F8A
:1056500081F06051704792F0000F14BF93F07F4FBC
:10566000704730B54FF4607401F0004521F00041FF
:1056700020E700BF50EA010208BF704730B54FF085
:1056800000050AE050EA010208BF704730B511F08A
:10569000004502D5404261EB41014FF4806404F1C2
:1056A00032045FEA915C3FF4DCAE4FF003025FEA44
:1056B000DC0C18BF03325FEADC0C18BF033202EBCC
:1056C000DC02C2F1200300FA03FC20FA02F001FA26
:1056D00003FE40EA0E0021FA02F11444C1E600BFC5
:1056E00070B54FF0FF0C4CF4E06C1CEA11541DBF78
:1056F0001CEA135594EA0C0F95EA0C0F00F0DEF843
:105700002C4481EA030621EA4C5123EA4C5350EA27
:10571000013518BF52EA033541F4801143F4801378
:1057200038D0A0FB02CE4FF00005E1FB02E506F009
:105730000042E0FB03E54FF00006E1FB03569CF05E
:10574000000F18BF4EF0010EA4F1FF04B6F5007F64
:1057500064F5407404D25FEA4E0E6D4146EB0606D6
:1057600042EAC62141EA55514FEAC52040EA5E505F
:105770004FEACE2EB4F1FD0C88BFBCF5E06F1ED809
:10578000BEF1004F08BF5FEA500E50F1000041EB40
:10579000045170BD06F0004646EA010140EA0200ED
:1057A00081EA0301B4EB5C04C2BFD4EB0C0541EA0F
:1057B000045170BD41F480114FF0000E013C00F324
:1057C000AB8014F1360FDEBF002001F0004170BD48
:1057D000C4F10004203C35DA0C341BDC04F1140461
:1057E000C4F1200500FA05F320FA04F001FA05F2ED
:1057F00040EA020001F0004221F0004110EBD370BA
:1058000021FA04F642EB06015EEA430E08BF20EAE5
:10581000D37070BDC4F10C04C4F1200500FA04F388
:1058200020FA05F001FA04F240EA020001F000411A
:1058300010EBD37041F100015EEA430E08BF20EA8D
:10584000D37070BDC4F1200500FA05F24EEA020ED5
:1058500020FA04F301FA05F243EA020321FA04F004
:1058600001F0004121FA04F220EA020000EBD370BB
:105870005EEA430E08BF20EAD37070BD94F0000FBB
:105880000FD101F00046400041EB010111F4801FEF
:1058900008BF013CF7D041EA060195F0000F18BFA0
:1058A000704703F00046520043EB030313F4801FDC
:1058B00008BF013DF7D043EA0603704794EA0C0F96
:1058C0000CEA135518BF95EA0C0F0CD050EA4106AC
:1058D00018BF52EA4306D1D181EA030101F0004129
:1058E0004FF0000070BD50EA410606BF1046194651
:1058F00052EA430619D094EA0C0F02D150EA01365D
:1059000013D195EA0C0F05D152EA03361CBF10469D
:1059100019460AD181EA030101F0004141F0FE413C
:1059200041F470014FF0000070BD41F0FE4141F4C0
:10593000780170BD70B54FF0FF0C4CF4E06C1CEAC0
:1059400011541DBF1CEA135594EA0C0F95EA0C0F75
:1059500000F0A7F8A4EB050481EA030E52EA033530
:105960004FEA013100F088804FEA03334FF0805551
:1059700045EA131343EA12634FEA022245EA11157E
:1059800045EA10654FEA00260EF000419D4208BF2F
:10599000964244F1FD0404F5407402D25B084FEADC
:1059A0003202B61A65EB03055B084FEA32024FF488
:1059B00080104FF4002CB6EB020E75EB030E22BFE5
:1059C000B61A754640EA0C005B084FEA3202B6EBA5
:1059D000020E75EB030E22BFB61A754640EA5C0054
:1059E0005B084FEA3202B6EB020E75EB030E22BFE4
:1059F000B61A754640EA9C005B084FEA3202B6EBE5
:105A0000020E75EB030E22BFB61A754640EADC00A3
:105A100055EA060E18D04FEA051545EA16754FEA05
:105A200006164FEAC30343EA52734FEAC2025FEA23
:105A30001C1CC0D111F4801F0BD141EA00014FF0B2
:105A400000004FF0004CB6E711F4801F04BF014383
:105A50000020B4F1FD0C88BFBCF5E06F3FF6AFAE9F
:105A6000B5EB030C04BFB6EB020C5FEA500C50F12F
:105A7000000041EB045170BD0EF0004E4EEA1131B2
:105A800014EB5C04C2BFD4EB0C0541EA045170BDB9
:105A900041F480114FF0000E013C90E645EA060EFD
:105AA0008DE60CEA135594EA0C0F08BF95EA0C0F2B
:105AB0003FF43BAF94EA0C0F0AD150EA01347FF473
:105AC00034AF95EA0C0F7FF425AF104619462CE74A
:105AD00095EA0C0F06D152EA03353FF4FDAE1046AD
