:020000040800F2
:1000000060170020250100089101000891010008F7
:100010009101000891010008910100080000000012
:10002000000000000000000000000000D52B0008C8
:100030009101000800000000D92C0008152D0008CF
:100040009101000891010008910100089101000848
:100050009101000891010008910100089101000838
:100060009101000891010008910100089101000828
:100070009101000891010008910100089101000818
:1000800091010008910100087107000800000000BC
:1000900000000000000000000000000091010008C6
:1000A00091010008910100089101000891010008E8
:1000B00091010008910100089101000891010008D8
:1000C00091010008910100089101000891010008C8
:1000D00091010008910100089101000891010008B8
:1000E0009101000891010008910100080000000042
:1000F0000000000000000000000000000000000000
:1001000000000000000000000000000000000000EF
:1001100000000000000000009101000891010008AB
:100120005FF808F180B582B000AF44F22823C0F632
:1001300000037B6040F20003C2F200033B600BE06F
:100140007B681A683B681A603B6803F104033B60F4
:100150007B6803F104037B603A6840F20803C2F253
:1001600000039A42ECD3084808494FF00002884245
:10017000B8BF40F8042BFADB00F00EF800F0FAFEEE
:1001800007F10807BD4680BD080000205C13002071
:1001900080B400AFFEE700BF80B500AF4FF48053DE
:1001A000C4F202034FF48052C4F20202126842F019
:1001B00001021A604FF48052C4F202024FF48053DD
:1001C000C4F202035B6819464FF00003CFF6FF0349
:1001D00001EA030353604FF48053C4F202034FF467
:1001E0008052C4F20202126822F0847222F4803239
:1001F0001A604FF48053C4F202034FF48052C4F2E9
:100200000202126822F480221A604FF48053C4F272
:1002100002034FF48052C4F20202526822F4FE023A
:100220005A604FF48053C4F202034FF41F029A60E5
:100230004FF48053C4F202034FF00002DA6200F080
:1002400009F84FF46D43CEF200034FF000629A605C
:1002500080BD00BF80B500AF00F002F880BD00BFD8
:1002600080B483B000AF4FF000037B604FF0000319
:100270003B604FF48053C4F202034FF48052C4F247
:100280000202126842F480321A604FF48053C4F2C2
:1002900002031B6803F400333B607B6803F1010336
:1002A0007B603B68002B03D17B68B3F5A06FECD17A
:1002B0004FF48053C4F202031B6803F40033002B95
:1002C00003D04FF001033B6002E04FF000033B60BE
:1002D0003B68012B6DD14FF48053C4F202034FF4FD
:1002E0008052C4F2020252685A604FF48053C4F242
:1002F00002034FF48052C4F2020252685A604FF473
:100300008053C4F202034FF48052C4F202025268D6
:100310005A604FF48053C4F202034FF48052C4F287
:100320000202526822F47C125A604FF48053C4F2E5
:1003300002034FF48052C4F20202526842F498124F
:100340005A604FF48053C4F202034FF48052C4F257
:100350000202126842F080721A6000BF4FF48053AC
:10036000C4F202031B6803F00073002BF6D04FF4B5
:100370008053C4F202034FF48052C4F20202526866
:1003800022F003025A604FF48053C4F202034FF488
:100390008052C4F20202526842F002025A6000BF68
:1003A0004FF48053C4F202035B6803F00C03082B84
:1003B000F6D107F10C07BD4680BC704780B489B008
:1003C00000AF786039604FF00003FB614FF000032D
:1003D0003B614FF00003BB614FF00003FB604FF047
:1003E00000037B614FF00003BB603B68DB7803F0E8
:1003F0000F03FB613B68DB7803F01003002B05D093
:100400003B689B78FA6942EA0303FB613B681B88FF
:1004100003F0FF03002B51D07B681B687B614FF01A
:100420000003BB6144E0BB694FF0010202FA03F331
:10043000FB603B681B881A46FB6802EA03033B61CA
:100440003A69FB689A422FD1BB694FEA8303FB608C
:10045000FB684FF00F0202FA03F3BB60BB686FEA60
:1004600003037A6902EA03037B61FB68FA6902FA13
:1004700003F37A6942EA03037B613B68DB78282B4C
:1004800007D1BB694FF0010202FA03F27B685A619F
:100490000AE03B68DB78482B06D1BB694FF00102CC
:1004A00002FA03F27B681A61BB6903F10103BB61C5
:1004B000BB69072BB7D97B687A691A603B681B88D0
:1004C000FF2B56D97B685B687B614FF00003BB61F3
:1004D00049E0BB6903F108034FF0010202FA03F39C
:1004E000FB603B681B881A46FB6802EA03033B611A
:1004F0003A69FB689A4232D1BB694FEA8303FB60D9
:10050000FB684FF00F0202FA03F3BB60BB686FEAAF
:1005100003037A6902EA03037B61FB68FA6902FA62
:1005200003F37A6942EA03037B613B68DB78282B9B
:1005300008D1BB6903F108034FF0010202FA03F28C
:100540007B685A613B68DB78482B08D1BB6903F1B3
:1005500008034FF0010202FA03F27B681A61BB69DB
:1005600003F10103BB61BB69072BB2D97B687A69D0
:100570005A6007F12407BD4680BC704780B485B03F
:1005800000AF78600B467B804FF00003FB737B6805
:100590009B681A467B8802EA0303002B03D04FF0C6
:1005A0000103FB7302E04FF00003FB73FB7B184673
:1005B00007F11407BD4680BC704700BF80B483B00C
:1005C00000AF786013460A467A807B707B78002BF8
:1005D00003D07A887B681A6102E07A887B685A6166
:1005E00007F10C07BD4680BC704700BF80B58CB0DA
:1005F00004AF4FF012033B724FF000037B724FF0D9
:100600000003BB724FF00103FB7207F108031846A9
:1006100003F002F94FF400704FF0010100F062FDA9
:100620004FF004004FF0010100F05CFD4FF00103BA
:10063000BB804FF00003FB714FF00303BB7107F168
:1006400004034FF40060C4F201001946FFF7B6FE40
:100650004FF00003FB604FF001033B744FF00003C9
:100660007B744FF460237B614FF00003BB614FF05C
:1006700000033B7707F10C034FF41050C4F2010064
:10068000194601F0B7FC4FF41050C4F201004FF0CE
:10069000010101F0A5FE4FF41050C4F201004FF02B
:1006A00000014FF001024FF0070301F0F1FD4FF49C
:1006B0001050C4F201004FF4E04101F0B1FD4FF4DD
:1006C0001050C4F201004FF0010101F08DFD4FF414
:1006D0001050C4F201004FF0010101F0EBFC4FF4A7
:1006E0001050C4F2010001F027FD00BF4FF410507C
:1006F000C4F2010001F030FD0346002BF6D14FF4A7
:100700001050C4F201004FF490614FF0010201F06B
:10071000EDFC4FF41050C4F2010001F039FD00BFB0
:100720004FF41050C4F2010001F042FD0346002BCB
:10073000F6D143F6F453C0F600034FF001020092E5
:100740004FF0000201924FF0000202924FF00002BF
:10075000039240F2CD70C0F6000019464FF08002BF
:100760004FF0000300F052FD07F12007BD4680BDA9
:1007700080B500AF4FF41050C4F201004FF4906107
:1007800001F06EFE0346002B1DD04FF41050C4F252
:1007900001004FF4906101F099FE4FF41050C4F243
:1007A00001004FF0140101F041FE03461A4641F2E8
:1007B0002813C2F200031A8040F20803C2F20003B9
:1007C0004FF001021A70184680BD00BF80B584B09A
:1007D00000AF78604FF00003FB7340F20C03C2F2ED
:1007E00000034FF000021A604FF00003FB7331E08A
:1007F0004FF0050000F040FE4FF41050C4F201002D
:100800004FF0010101F028FD01E002F027FA40F26B
:100810000803C2F200031B78002BF6D040F2080355
:10082000C2F200034FF000021A7041F22813C2F224
:1008300000031B881A4640F20C03C2F200031B6837
:10084000D21840F20C03C2F200031A60FB7B03F1E2
:100850000103FB73FB7B1F2BCAD940F20C03C2F2CE
:1008600000031B684FEA53139AB241F22813C2F2F5
:1008700000031A8041F22813C2F200031B884FF0D4
:100880000000194600F07CF841F23013C2F2000378
:100890004FF0000283F82E209FE700BF80B485B0A0
:1008A00000AF786039604FF00003FB604FF0000349
:1008B000BB604FF4E843C4F200031B68FB607B6835
:1008C00040F6FE7202FA03F36FEA0303FA6802EAE3
:1008D0000303FB603B681A683B685B681A433B682C
:1008E0009B681A433B68DB6842EA0303BB607B6892
:1008F000BA6802FA03F3FA6842EA0303FB604FF4B2
:10090000E843C4F20003FA681A6007F11407BD4611
:1009100080BC704780B483B000AF78600B46FB703A
:10092000FB78002B12D04FF4E843C4F200034FF4DD
:10093000E842C4F20002126811467A684FF00100E2
:1009400000FA02F241EA02021A6013E04FF4E843AF
:10095000C4F200034FF4E842C4F2000212681146E8
:100960007A684FF0010000FA02F26FEA020201EA2F
:1009700002021A6007F10C07BD4680BC704700BF39
:1009800080B485B000AF78600B467B804FF00003E9
:10099000FB604FF4E843C4F20003FB60FA687B6835
:1009A000D31803F10803FB60FB687A881A6007F12B
:1009B0001407BD4680BC7047F0B585B000AF7860C5
:1009C00039604FF00003FB734FF00003BB734FF02F
:1009D00000037B734FF000033B73386803F09CF90E
:1009E00003463B737B685B8819467B681B881C4603
:1009F0007B68D88941F23012C2F200020B464FEAFE
:100A0000C3035B1A4FEA43031B194FEA4303D3188E
:100A100002465A807B685B8819467B681B881C46A7
:100A20007B68188A41F23012C2F200020B464FEA8C
:100A3000C3035B1A4FEA43031B1903F101034FEA97
:100A40004303D31802465A807B685B8819467B684B
:100A50001B881C467B68988941F23012C2F2000262
:100A60000B464FEAC3035B1A4FEA43031B1903F11A
:100A700002034FEA4303D31802465A807B685B881F
:100A800019467B681B881C467B68188941F2301226
:100A9000C2F200020B464FEAC3035B1A4FEA43035C
:100AA0001B1903F103034FEA4303D31802465A808C
:100AB0007B685B8819467B681B881C467B68588965
:100AC00041F23012C2F200020B464FEAC3035B1A36
:100AD0004FEA43031B1903F104034FEA4303D318FE
:100AE00002465A807B685B8819467B681B881846DB
:100AF00041F23012C2F200020B464FEAC3035B1A06
:100B00004FEA43031B1803F105034FEA4303D318CD
:100B10004FF480725A807B685B8819467B681B881B
:100B2000184641F23012C2F200020B464FEAC303EC
:100B30005B1A4FEA43031B1803F106034FEA430312
:100B4000D3184FF400725A807B685B8819467B6823
:100B50001B88184641F23012C2F200020B464FEADF
:100B6000C3035B1A4FEA43031B1803F107034FEA61
:100B70004303D3184FF440725A807B685B88194650
:100B80007B681B88184641F23012C2F200020B4605
:100B90004FEAC3035B1A4FEA43031B1803F1080330
:100BA0004FEA4303D3184FF480625A807B685B8816
:100BB00019467B681B88184641F23012C2F20002C7
:100BC0000B464FEAC3035B1A4FEA43031B1803F1BA
:100BD00009034FEA4303D3184FF4A0625A807B689D
:100BE0005B8819467B681B88184641F23012C2F2B6
:100BF00000020B464FEAC3035B1A4FEA43031B187C
:100C000003F10A034FEA4303D3184FF4C0625A803A
:100C10007B685B8819467B681B88184641F2301256
:100C2000C2F200020B464FEAC3035B1A4FEA4303CA
:100C30001B1803F10B034FEA4303D3184FF4E06290
:100C40005A807B685B8819467B681B88184641F28E
:100C50003012C2F200020B464FEAC3035B1A4FEA9E
:100C600043031B1803F10C034FEA4303D3184FF45B
:100C700000625A807B7B03F105037B734FF0000316
:100C8000FB7352E1FB7B3A68D3181B782F2B3BD9BF
:100C9000FB7B3A68D3181B78392B35D87B685B8887
:100CA00019467D7B7B681B881C46FB7B3A68D31802
:100CB0001B78A3F1300243F60463C0F600039B18CF
:100CC000DB7F1A467B7BA3F104039BB24FEA03232D
:100CD0009BB29BB242EA03039BB298B241F230123C
:100CE000C2F200020B464FEAC3035B1A4FEA43030A
:100CF0005B191B194FEA4303D31802465A807B7BCA
:100D000003F101037B730CE1FB7B3A68D3181B787A
:100D10002E2B40F0B580FB7B002B36D17B685B88A7
:100D200019467D7B7B681B881C467B685B88184660
:100D300097F80DC07B681B881E4641F23012C2F244
:100D4000000203464FEAC3031B1A4FEA43036344FE
:100D50009B194FEA4303D3185B8843F0800398B292
:100D600041F23012C2F200020B464FEAC3035B1A93
:100D70004FEA43035B191B194FEA4303D31802469A
:100D80005A807B7B03F101037B73FB7B002B00F01C
:100D9000C780FB7B03F1FF333A68D3181B782E2BF7
:100DA00037D17B685B8819467D7B7B681B881C4636
:100DB0007B685B88184697F80DC07B681B881E46C9
:100DC00041F23012C2F2000203464FEAC3031B1A7B
:100DD0004FEA430363449B194FEA4303D3185B88EC
:100DE00043F0800398B241F23012C2F200020B4687
:100DF0004FEAC3035B1A4FEA43035B191B194FEA1F
:100E00004303D31802465A807B7B03F101037B73B3
:100E100087E07B685B8819467B7B03F1FF357B6845
:100E20001B881C467B685B8818467B7B03F1FF3C74
:100E30007B681B881E4641F23012C2F20002034654
:100E40004FEAC3031B1A4FEA430363449B194FEA5B
:100E50004303D3185B8843F0800398B241F2301209
:100E6000C2F200020B464FEAC3035B1A4FEA430388
:100E70005B191B194FEA4303D31802465A8050E00E
:100E80004FF00A03BB7340E0FB7B3A68D3181A7833
:100E9000B97B43F60463C0F600035B5C9A4230D131
:100EA0007B685B8819467D7B7B681B881C46BA7B08
:100EB00043F60463C0F600039B18DB7F1A467B7B76
:100EC000A3F104039BB24FEA03239BB29BB242EA15
:100ED00003039BB298B241F23012C2F200020B46F9
:100EE0004FEAC3035B1A4FEA43035B191B194FEA2E
:100EF0004303D31802465A807B7B03F101037B73C3
:100F000006E0BB7B03F10103BB73BB7B1E2BBBD98C
:100F10007A7B7B68DB8803F105039A420BDC00E0F7
:100F200000BFFB7B03F10103FB73FA7B3B7B9A421F
:100F3000FFF4A8AE00E000BF7B7B184607F1140762
:100F4000BD46F0BD80B582B000AF786002F0D2FA45
:100F500000F08AF800F022F9FFF748FB01F0DCFC12
:100F600001F0CCFA4FF0000000F026FA07F1080774
:100F7000BD4680BD80B584B004AFFFF70DF943F6E0
:100F80006063C0F600034FF0010200924FF00002D0
:100F900001924FF0000202924FF00002039240F6DD
:100FA0004570C0F6000019464FF080024FF0000374
:100FB00000F02CF900F08EFAFEE700BF80B400AF1D
:100FC00041F23013C2F200034FF001021A7041F2F5
:100FD0003013C2F200034FF00002DA8341F2301303
:100FE000C2F200034FF000029A8341F23013C2F2C2
:100FF00000034FF001021A8441F23013C2F20003E1
:101000004FF004025A8441F23013C2F2000340F65A
:1010100009229A8441F23013C2F200034FF41062A5
:10102000DA8441F23013C2F200035B8C03F1FF3328
:101030009BB29BB243F430639BB29AB241F230133D
:10104000C2F200031A8541F23013C2F2000340F6E7
:1010500001425A8541F23013C2F200034FF470622C
:101060009A85BD4680BC704780B582B000AF4FF016
:101070000003FB71FFF7A2FF02F00AFAFB791846A2
:1010800007F10807BD4680BD80B483B000AF78602B
:101090000B46FB70FB78002B0ED04FF48053C4F24C
:1010A00002034FF48052C4F20202526911467A6878
:1010B00041EA02025A610FE04FF48053C4F2020386
:1010C0004FF48052C4F20202526911467A686FEA04
:1010D000020201EA02025A6107F10C07BD4680BC18
:1010E000704700BF80B483B000AF78600B46FB70E0
:1010F000FB78002B0ED04FF48053C4F202034FF460
:101100008052C4F20202926911467A6841EA0202F0
:101110009A610FE04FF48053C4F202034FF48052FF
:10112000C4F20202926911467A686FEA020201EA89
:1011300002029A6107F10C07BD4680BC704700BFF0
:1011400080B483B000AF78600B46FB70FB78002B57
:101150000ED04FF48053C4F202034FF48052C4F215
:101160000202D26911467A6841EA0202DA610FE0AE
:101170004FF48053C4F202034FF48052C4F20202CF
:10118000D26911467A686FEA020201EA0202DA6164
:1011900007F10C07BD4680BC704700BF80B586B024
:1011A00000AF4FF004004FF00101FFF79BFF4FF03D
:1011B00000504FF00101FFF7C3FF4FF01003BB8059
:1011C0004FF00003FB7107F104034FF40060C4F219
:1011D00001001946FFF7F2F84FF00003BB604FF033
:1011E0000003FB604FF000037B6107F108034FF041
:1011F00000001946FFF752FB4FF000004FF00101CD
:10120000FFF788FB07F11807BD4680BD80B58AB09F
:1012100002AFF860B9603B601346FB80FB8818465C
:10122000396B00F0D9FDB861BB69002B00F0A680D6
:10123000BB691A6BFB8803F1FF334FEA8303D318B2
:101240007B617B6923F007037B61FB880093B869AE
:10125000B968BA6A7B6B00F09DFC7869F9683A68F6
:1012600001F088FC03461A46BB691A60FB6A002B32
:1012700002D0FB6ABA691A6001F0FCFC40F2E80394
:10128000C2F200031B6803F1010240F2E803C2F25C
:1012900000031A6040F21003C2F200031B68002B27
:1012A0000FD140F21003C2F20003BA691A6040F293
:1012B000E803C2F200031B68012B18D100F0A8FC60
:1012C00015E040F2F803C2F200031B68002B0ED1B8
:1012D00040F21003C2F200031B68DA6ABB6A9A424A
:1012E00005D840F21003C2F20003BA691A60BB6964
:1012F000DA6A40F2F003C2F200031B689A4206D990
:10130000BB69DA6A40F2F003C2F200031A6040F2ED
:101310000C13C2F200031B6803F1010240F20C132C
:10132000C2F200031A60BB69DA6A40F2F403C2F247
:1013300000031B689A4206D9BB69DA6A40F2F403DB
:10134000C2F200031A60BB69DA6A13464FEA8303EC
:101350009B184FEA83031A4640F21403C2F20003BB
:10136000D218BB6903F104031046194601F072FB61
:101370004FF00103FB6101F093FC02E04FF0FF33FB
:10138000FB61FB69012B11D140F2F803C2F20003AB
:101390001B68002B0AD040F21003C2F200031B6846
:1013A000DA6ABB6A9A4201D201F058FCFB6918461E
:1013B00007F12007BD4680BD80B584B000AF7860DE
:1013C00001F058FC40F21003C2F200031B687A6877
:1013D0009A4202D14FF000037B607B68002B05D15D
:1013E00040F21003C2F200031B6800E07B68FB6060
:1013F000FB6803F10403184601F092FBFB689B6A4B
:10140000002B05D0FB6803F11803184601F088FB98
:10141000FB6803F1040340F2BC00C2F2000019466D
:1014200001F018FB40F2D003C2F200031B6803F185
:10143000010240F2D003C2F200031A6040F20C1322
:10144000C2F200031B6803F1010240F20C13C2F266
:1014500000031A6001F024FC40F2F803C2F200031A
:101460001B68002B04D07B68002B01D101F0F6FB38
:1014700007F11007BD4680BD80B584B000AF78602D
:101480004FF00003FB607B68002B19D000F05CF884
:1014900040F2EC03C2F200031A687B68D318BB6009
:1014A00040F21003C2F200031B6803F10403184664
:1014B00001F036FBB86800F049FC00F057F8F8601E
:1014C000FB68002B01D101F0C9FB07F11007BD46F5
:1014D00080BD00BF80B586B004AF43F66863C0F638
:1014E00000034FF0000200924FF0000201924FF013
:1014F000000202924FF00002039241F67130C0F6F2
:10150000000019464FF080024FF00003FFF77EFE07
:1015100078607B68012B13D14FF0BF0080F31188F6
:1015200040F2F803C2F200034FF001021A6040F2E9
:10153000EC03C2F200034FF000021A6001F064FBFA
:1015400007F10807BD4680BD80B400AF40F2FC0340
:10155000C2F200031B6803F1010240F2FC03C2F275
:1015600000031A60BD4680BC704700BF90B583B0D1
:1015700000AF4FF000037B6001F07CFB40F2FC0306
:10158000C2F200031B6803F1FF3240F2FC03C2F217
:1015900000031A6040F2FC03C2F200031B68002B38
:1015A00040F0868040F2E803C2F200031B68002B83
:1015B0007ED04FF000033B603DE040F2A803C2F252
:1015C0000003DB68DB681C4604F11803184601F0D1
:1015D000A7FA04F10403184601F0A2FAE26A40F205
:1015E000F403C2F200031B689A4205D9E26A40F292
:1015F000F403C2F200031A60E26A13464FEA83035F
:101600009B184FEA83031A4640F21403C2F2000308
:10161000D21804F104031046194601F01BFAE26ADD
:1016200040F21003C2F200031B68DB6A9A4202D345
:101630004FF001033B6040F2A803C2F200031B68B5
:10164000002BBAD140F20013C2F200031B68002B3A
:1016500018D00DE000F034F840F20013C2F200039D
:101660001B6803F1FF3240F20013C2F200031A605C
:1016700040F20013C2F200031B68002BEAD14FF0C6
:1016800001033B603B68012B06D040F20413C2F219
:1016900000031B68012B0BD14FF001037B6040F26C
:1016A0000413C2F200034FF000021A6001F0D6FAF0
:1016B00001F0F6FA7B68184607F10C07BD4690BDAD
:1016C00080B584B000AF40F2FC03C2F200031B6897
:1016D000002B40F0C08040F2EC03C2F200031B6814
:1016E00003F1010240F2EC03C2F200031A6040F27F
:1016F000EC03C2F200031B68002B40D140F2A003B0
:10170000C2F200031B68FB6040F2A403C2F20003B4
:101710001A6840F2A003C2F200031A6040F2A40368
:10172000C2F20003FA681A6040F20813C2F2000322
:101730001B6803F1010240F20813C2F200031A60B1
:1017400040F2A003C2F200031B681B68002B07D104
:1017500040F20003C2F200034FF0FF321A600EE0C5
:1017600040F2A003C2F200031B68DB68DB68BB60C9
:10177000BB685A6840F20003C2F200031A6040F2EC
:10178000EC03C2F200031A6840F20003C2F2000345
:101790001B689A426BD340F2A003C2F200031B689D
:1017A0001B68002B07D140F20003C2F200034FF088
:1017B000FF321A605BE040F2A003C2F200031B6834
:1017C000DB68DB68BB60BB685B687B6040F2EC0396
:1017D000C2F200031A687B689A4206D240F2000304
:1017E000C2F200037A681A6041E0BB6803F10403A7
:1017F000184601F095F9BB689B6A002B05D0BB68C1
:1018000003F11803184601F08BF9BB68DA6A40F25D
:10181000F403C2F200031B689A4206D9BB68DA6A75
:1018200040F2F403C2F200031A60BB68DA6A13469E
:101830004FEA83039B184FEA83031A4640F21403CE
:10184000C2F20003D218BB6803F104031046194624
:1018500001F000F99FE740F20013C2F200031B6899
:1018600003F1010240F20013C2F200031A6007F113
:101870001007BD4680BD00BF80B483B000AF40F20A
:10188000FC03C2F200031B68002B14D040F20413C7
:10189000C2F200034FF001021A604FE040F2F4037D
:1018A000C2F200031B6803F1FF3240F2F403C2F2FC
:1018B00000031A6000E000BF40F2F403C2F200032C
:1018C0001A6813464FEA83039B184FEA83031A46AC
:1018D00040F21403C2F20003D3181B68002BDDD0C2
:1018E00040F2F403C2F200031A6813464FEA83037E
:1018F0009B184FEA83031A4640F21403C2F2000316
:10190000D3187B607B685B685B681A467B685A60AB
:101910007B685A687B6803F108039A4205D17B68AB
:101920005B685B681A467B685A607B685B68DB684B
:101930001A4640F21003C2F200031A6007F10C07C6
:10194000BD4680BC704700BF80B584B000AF7860F2
:10195000396040F21003C2F200031B6803F1180360
:101960007868194601F0A0F840F21003C2F20003B3
:101970001B6803F10403184601F0D2F83B68B3F189
:10198000FF3F0ED140F21003C2F200031B6803F1C7
:10199000040340F2D400C2F20000194601F05AF8E4
:1019A0000AE040F2EC03C2F200031A683B68D31865
:1019B000FB60F86800F0CAF907F11007BD4680BD6A
:1019C00080B584B000AF78607B68DB68DB68BB60A3
:1019D000BB6803F11803184601F0A2F840F2FC03BB
:1019E000C2F200031B68002B2BD1BB6803F1040378
:1019F000184601F095F8BB68DA6A40F2F403C2F2C7
:101A000000031B689A4206D9BB68DA6A40F2F40305
:101A1000C2F200031A60BB68DA6A13464FEA830316
:101A20009B184FEA83031A4640F21403C2F20003E4
:101A3000D218BB6803F104031046194601F00AF8F6
:101A400009E0BB6803F1180340F2A800C2F20000ED
:101A5000194600F0FFFFBB68DA6A40F21003C2F2D9
:101A600000031B68DB6A9A4203D34FF00103FB605B
:101A700002E04FF00003FB60FB68184607F1100717
:101A8000BD4680BD80B483B000AF786040F20813DB
:101A9000C2F200031A687B681A6040F2EC03C2F2DB
:101AA00000031A687B685A6007F10C07BD4680BCCA
:101AB000704700BF80B584B000AF7860396001F036
:101AC000D9F83B681B68B3F1FF3F03D14FF0000327
:101AD000FB6038E07B681A6840F20813C2F200032A
:101AE0001B689A420CD07B685A6840F2EC03C2F241
:101AF00000031B689A4203D84FF00103FB6022E009
:101B000040F2EC03C2F200031A687B685B68D21AE9
:101B10003B681B689A4213D23B681A687B68596815
:101B200040F2EC03C2F200031B68CB1AD2183B68E8
:101B30001A607868FFF7A6FF4FF00003FB6002E031
:101B40004FF00103FB6001F0ABF8FB68184607F1AA
:101B50001007BD4680BD00BF80B400AF40F2041343
:101B6000C2F200034FF001021A60BD4680BC70470C
:101B700080B582B000AF786000E000BF00F09AF856
:101B800040F21403C2F200031B68012BF5D901F0E7
:101B900065F8F3E780B584B000AFF860B9607A60AB
:101BA0003B60FB6803F134031A46BB6810461946D4
:101BB0004FF0100202F0E0F8FB684FF0000283F8EB
:101BC00043207B68042B02D94FF004037B60FB6841
:101BD0007A68DA62FB687A685A64FB6803F1040386
:101BE000184600F029FFFB6803F11803184600F0BF
:101BF00023FFFB68FA681A617B68C3F10502FB6882
:101C00009A61FB68FA685A6207F11007BD4680BD09
:101C100080B582B000AF4FF000037B6013E07A68BC
:101C200013464FEA83039B184FEA83031A4640F298
:101C30001403C2F20003D318184600F0D9FE7B68E3
:101C400003F101037B607B68042BE8D940F2780044
:101C5000C2F2000000F0CCFE40F28C00C2F20000A4
:101C600000F0C6FE40F2A800C2F2000000F0C0FE84
:101C700040F2BC00C2F2000000F0BAFE40F2D40014
:101C8000C2F2000000F0B4FE40F2A003C2F2000372
:101C900040F27802C2F200021A6040F2A403C2F2DB
:101CA000000340F28C02C2F200021A6007F108073A
:101CB000BD4680BD80B582B000AF40F2D003C2F215
:101CC00000031B68002B3CD0FFF73EFC40F2BC0336
:101CD000C2F200031B68002B14BF002301237B60AA
:101CE000FFF744FC7B68002B2BD100F0C3FF40F2D0
:101CF000BC03C2F20003DB68DB683B603B6803F1B6
:101D00000403184600F00CFF40F2E803C2F200039F
:101D10001B6803F1FF3240F2E803C2F200031A60CD
:101D200040F2D003C2F200031B6803F1FF3240F21D
:101D3000D003C2F200031A6000F0B2FF386800F06E
:101D400085F807F10807BD4680BD00BF80B582B0A9
:101D500000AF786040F21003C2F200031B687A689B
:101D60005A6040F2EC03C2F200031B687A689A42A0
:101D700010D240F2A403C2F200031A6840F210032A
:101D8000C2F200031B6803F104031046194600F079
:101D90008BFE1DE040F2A003C2F200031A6840F27D
:101DA0001003C2F200031B6803F104031046194636
:101DB00000F07AFE40F20003C2F200031B687A686A
:101DC0009A4205D240F20003C2F200037A681A6018
:101DD00007F10807BD4680BD80B584B000AF03465B
:101DE0003960FB804FF0480001F03EFE0346FB6087
:101DF000FB68002B23D03B68002B07D1FB884FEA00
:101E00008303184601F030FE034600E03B68FA68A1
:101E10001363FB681B6B002B06D1F86801F070FEA2
:101E20004FF00003FB600AE0FB681A6BFB884FEA87
:101E3000830310464FF0A5011A4601F013FFFB681B
:101E4000184607F11007BD4680BD00BF80B582B0BF
:101E500000AF78607B681B6B184601F051FE786814
:101E600001F04EFE07F10807BD4680BD80B483B087
:101E700000AF40F21003C2F200031B687B607B6876
:101E8000184607F10C07BD4680BC704780B584B08A
:101E900000AF78607B68FB60FB68DA6A40F2100391
:101EA000C2F200031B68DB6A9A4257D240F2100369
:101EB000C2F200031B68DB6AC3F10502FB689A618A
:101EC000FB685969FB68DA6A13464FEA83039B187B
:101ED0004FEA83031A4640F21403C2F20003D318F8
:101EE000994233D1FB6803F10403184600F018FE51
:101EF00040F21003C2F200031B68DA6AFB68DA6280
:101F0000FB68DA6A40F2F403C2F200031B689A42EB
:101F100006D9FB68DA6A40F2F403C2F200031A60E1
:101F2000FB68DA6A13464FEA83039B184FEA830380
:101F30001A4640F21403C2F20003D218FB6803F100
:101F400004031046194600F085FD07E040F2100337
:101F5000C2F200031B68DA6AFB68DA6207F1100755
:101F6000BD4680BD80B584B000AF78607B68FB6003
:101F70007B68002B3AD0FB68DA6AFB685B6C9A429C
:101F800034D0FB6803F10403184600F0C9FDFB6878
:101F90005A6CFB68DA62FB68DB6AC3F10502FB6816
:101FA0009A61FB68DA6A40F2F403C2F200031B682C
:101FB0009A4206D9FB68DA6A40F2F403C2F20003DF
:101FC0001A60FB68DA6A13464FEA83039B184FEAEC
:101FD00083031A4640F21403C2F20003D218FB68CE
:101FE00003F104031046194600F034FD07F1100711
:101FF000BD4680BD80B485B000AF786039604FF0D9
:102000000003FB604FF00003FB727B685B68FB60C2
:10201000FB6823F4702323F48073FB603B681A6829
:102020003B681B794FEA032342EA0303FA6842EA5A
:102030000303FB607B68FA685A607B689B68FB60FF
:10204000FA684FF2FD73CFF6F17302EA0303FB6007
:102050003B68DA683B689B681A433B685B794FEAE8
:10206000430342EA0303FA6842EA0303FB607B6826
:10207000FA689A607B68DB6AFB60FB6823F4700394
:10208000FB603B681B7C03F1FF33DAB2FB7A42EA68
:102090000303FB72FB7A4FEA0353FA6842EA030335
:1020A000FB607B68FA68DA6207F11407BD4680BC02
:1020B000704700BF80B483B000AF78600B46FB7000
:1020C000FB78002B06D07B689B6843F001027B689D
:1020D0009A6005E07B689B6823F001027B689A6048
:1020E00007F10C07BD4680BC704700BF80B485B0C7
:1020F00000AF786013460A467A807B704FF0000389
:10210000FB737B88FB737B78002B07D07B685B6855
:102110001A46FB7B1A437B685A6008E07B685B6861
:102120001A46FB7B6FEA03031A407B685A6007F18B
:102130001407BD4680BC704780B483B000AF7860A0
:102140007B689B6843F008027B689A6007F10C0784
:10215000BD4680BC704700BF80B485B000AF7860DA
:102160004FF00003FB737B689B6803F00803002BB0
:1021700003D04FF00103FB7302E04FF00003FB7349
:10218000FB7B184607F11407BD4680BC704700BFB3
:1021900080B483B000AF78607B689B6843F0040232
:1021A0007B689A6007F10C07BD4680BC704700BF92
:1021B00080B485B000AF78604FF00003FB737B689C
:1021C0009B6803F00403002B03D04FF00103FB7363
:1021D00002E04FF00003FB73FB7B184607F1140786
:1021E000BD4680BC704700BF80B483B000AF78604C
:1021F0000B46FB70FB78002B06D07B685B6843F4D2
:1022000080627B685A6005E07B685B6823F48062CB
:102210007B685A6007F10C07BD4680BC704700BF61
:1022200080B485B000AF786039604FF00003FB6088
:102230007B689B68FB60FB6823F4E043FB60FA6803
:102240003B6842EA0303FB607B68FA689A6007F127
:102250001407BD4680BC704780B483B000AF78607F
:102260000B46FB70FB78002B06D07B689B6843F421
:1022700002127B689A6005E07B689B6823F4021277
:102280007B689A6007F10C07BD4680BC704700BFB1
:1022900080B487B000AF7860F970BA707B704FF08F
:1022A00000037B614FF000033B614FF00003FB60D4
:1022B000FB78092B29D97B68DB687B61FA781346A8
:1022C0004FEA43039B18A3F11E034FF0070202FAE3
:1022D00003F33B613B696FEA03037A6902EA030394
:1022E0007B617978FA7813464FEA43039B18A3F190
:1022F0001E0301FA03F33B617A693B6942EA030377
:102300007B617B687A69DA6024E07B681B697B61AA
:10231000FA7813464FEA43039B184FF0070202FA7C
:1023200003F33B613B696FEA03037A6902EA030343
:102330007B617978FA7813464FEA43039B1801FAD8
:1023400003F33B617A693B6942EA03037B617B6883
:102350007A691A617B689B6B7B617B6903F440132C
:102360004FEA1353FB60FB68DBB26FEA0303DAB298
:10237000BB78D318DBB203F10303DBB21A46134672
:102380004FEA83039B184FF01F0202FA03F33B61ED
:102390003B696FEA03037A6902EA03037B61F97818
:1023A000FB68DBB26FEA0303DAB2BB78D318DBB2A7
:1023B00003F10303DBB21A4613464FEA83039B186B
:1023C00001FA03F33B617A693B6942EA03037B61EB
:1023D0007B687A699A6307F11C07BD4680BC704729
:1023E00080B485B000AF78600B46FB704FF00003FF
:1023F000FB604FF00003BB607B689B6BFB60FB687E
:1024000023F44013FB60FB7803F1FF33BB60BB6830
:102410004FEA0353FA6842EA0303FB607B68FA68F9
:102420009A6307F11407BD4680BC704780B485B03D
:1024300000AF78600B46FB704FF00003FB607B68D9
:10244000FB60FA78FB68D31803F12803FB60FB6894
:102450001B689BB2184607F11407BD4680BC704745
:1024600080B487B000AF78600B467B804FF00003EC
:10247000FB754FF000033B614FF00003FB607B886E
:102480004FEA13239BB23B617B685B681A467B88EB
:10249000DBB202EA0303FB607B681B681A463B69F8
:1024A00002EA0303002B06D0FB68002B03D04FF099
:1024B0000103FB7502E04FF00003FB75FB7D18463E
:1024C00007F11C07BD4680BC704700BF80B485B0D3
:1024D00000AF78600B467B804FF00003FB737B8876
:1024E0004FEA13239BB2FB73FB7B6FEA03027B680B
:1024F0001A6007F11407BD4680BC704780B586B0EE
:1025000004AF4FF008004FF00101FEF7EBFD4FF470
:102510007053BB804FF00203BB714FF04803FB7157
:1025200007F104034FF44060C4F201001946FDF7BF
:1025300045FF43F67063C0F600034FF001020092BE
:102540004FF0000201924FF0000202924FF00002A1
:10255000039242F27150C0F6000019464FF040025B
:102560004FF00003FEF752FE07F10807BD4680BD9D
:1025700080B584B000AF78604FF00003FB7304E0D7
:1025800000BF02E000BF00E000BF4FF00A00FEF70E
:1025900073FF00F01FF80346BB734FF00A00FEF70D
:1025A0006BFF00F017F803467B73BA7B7B7B9A4284
:1025B000E6D1BA7BFB7B9A42E4D0BB7BFB73BB7B4F
:1025C0003B73BB7B002BDFD03B7B184600F0D0F881
:1025D000DBE700BF80B500AF4FF44060C4F20100FC
:1025E0004FF48061FDF7CAFF0346002B02D14FF084
:1025F00045032BE04FF44060C4F201004FF400614A
:10260000FDF7BCFF0346002B02D14FF051031DE044
:102610004FF44060C4F201004FF48051FDF7AEFF6B
:102620000346002B02D14FF03E030FE04FF4406011
:10263000C4F201004FF40051FDF7A0FF0346002B48
:1026400002D14FF02B0301E04FF00003184680BD8C
:1026500080B483B000AF78607A6843F68063C0F6D8
:1026600000039A4206D041F21433C2F200037A68A2
:102670001A6000E000BF07F10C07BD4680BC704740
:1026800080B582B000AF41F21433C2F200031B6880
:102690001A6843F68063C0F600039A4218D141F2EB
:1026A0001433C2F200031B689A6843F68063C0F6D5
:1026B00000039A420CD041F21433C2F200031B68AB
:1026C0009B687B607B68DB681846FFF7C1FF08E00A
:1026D00041F21433C2F200031B681B681846FFF76F
:1026E000B7FF07F10807BD4680BD00BF80B582B0C7
:1026F00000AF4FF00003FB7141F21433C2F200034C
:102700001A6843F6A463C0F600039A4207D140F268
:102710001113C2F200034FF001021A7018E040F2E8
:102720001113C2F200034FF000021A7041F2183088
:10273000C2F200004FF0FF0100F04EF941F21433F5
:10274000C2F200031B685B6908481946FEF734F9BA
:1027500040F21213C2F200034FF000021A704FF061
:102760000103184607F10807BD4680BD4C11002043
:1027700080B584B000AF0346FB7140F21013C2F283
:1027800000031B78002B41D1FB79452B11D0452B41
:1027900006DC2B2B36D03E2B08D0002B03D032E0AA
:1027A000512B25D02FE04FF0010352E0FFF768FFD7
:1027B00029E041F21433C2F200031B681B7C002B9A
:1027C0000CD041F21433C2F200031A68FB791046B0
:1027D000194600F043F84FF001033AE041F2143398
:1027E000C2F200031B68DB681846FFF731FF0AE0FE
:1027F00041F21433C2F200031B689B681846FFF7CE
:1028000027FF00E000BFFFF771FF20E0FB79512BAD
:1028100009D140F21013C2F200034FF000021A7007
:10282000FFF764FF13E041F21433C2F200031B68A8
:102830001B7CFB60FB68002B09D041F21433C2F211
:1028400000031A68FB791046194600F007F84FF0AC
:102850000103184607F11007BD4680BD80B582B060
:1028600000AF78600B46FB7040F21013C2F2000319
:102870004FF001021A707B681B7CA3F104031D2B2F
:1028800043D801A252F823F00B2900080B290008B5
:102890000B2900080B2900080B2900080B29000848
:1028A0000B2900080B2900080B2900080B29000838
:1028B0000B2900080B2900080B2900080B29000828
:1028C0000B2900080B2900080B2900080B29000818
:1028D0000B2900080B2900080B2900080B29000808
:1028E0000B2900080B2900080B2900080B290008F8
:1028F0000B2900080B2900080B29000801290008F2
:10290000FB78184600F022F800BF4FF0000318468D
:1029100007F10807BD4680BD80B500AF41F2143312
:10292000C2F2000343F6A462C0F600021A60FFF789
:10293000DDFE41F21830C2F200004FF0FF0100F05E
:102940004BF84FF00003184680BD00BF80B582B041
:1029500000AF0346FB71FB793E2B23D0452B01D002
:102960002B2B20E040F21213C2F200031B78002B45
:1029700007D140F21213C2F200034FF001021A70A5
:1029800011E040F21213C2F200034FF000021A707D
:1029900040F21013C2F200034FF000021A70FFF76A
:1029A000A5FE00E000BF40F21213C2F200031B7844
:1029B000002B01D000F004F807F10807BD4680BDE8
:1029C00080B400AF40F21113C2F200034FF00002D6
:1029D0001A70BD4680BC704780B483B000AF786089
:1029E0000B46FB7007F10C07BD4680BC704700BF6B
:1029F00080B483B000AF78607B6803F108031A46A7
:102A00007B685A607B684FF0FF329A607B6803F105
:102A100008031A467B68DA607B6803F108031A46EC
:102A20007B681A617B684FF000021A6007F10C079F
:102A3000BD4680BC704700BF80B483B000AF7860F3
:102A40007B684FF000021A6107F10C07BD4680BC9D
:102A5000704700BF80B485B000AF786039607B6894
:102A60005B68FB60FB685B681A463B685A607B6882
:102A70005A683B689A60FB685B683A689A603A6893
:102A8000FB685A603A687B685A603B687A681A61EA
:102A90007B681B6803F101027B681A6007F1140769
:102AA000BD4680BC704700BF80B485B000AF786081
:102AB00039603B681B68BB60BB68B3F1FF3F03D163
:102AC0007B681B69FB600EE07B6803F10803FB6019
:102AD00002E0FB685B68FB60FB685B681B681A468A
:102AE000BB689A42F5D9FB685B681A463B685A6036
:102AF0003B685B683A689A603B68FA689A603A6833
:102B0000FB685A603B687A681A617B681B6803F14E
:102B100001027B681A6007F11407BD4680BC70474C
:102B200080B485B000AF78607B685B687A68926833
:102B30009A607B689B687A6852685A607B681B69F8
:102B4000FB60FB685A687B689A4203D17B689A688D
:102B5000FB685A607B684FF000021A61FB681B68D3
:102B600003F1FF32FB681A6007F11407BD4680BC11
:102B7000704700BF80B485B000AFF860B9607A607C
:102B8000FB68A3F10403FB60FB684FF080721A60DE
:102B9000FB68A3F10403FB60BA68FB681A60FB687A
:102BA000A3F10403FB60FB684FF000021A60FB68AE
:102BB000A3F11403FB607A68FB681A60FB68A3F159
:102BC0002003FB60FB68184607F11407BD4680BC74
:102BD000704700BF064B19680868B0E8F00F80F333
:102BE00009884FF0000080F311884EF00D0E7047F9
:102BF0001000002003480068006880F3088862B66F
:102C000000DF00BF08ED00E080B500AF4EF62053B6
:102C1000CEF200034EF62052CEF20002126842F4C9
:102C20007F021A604EF62053CEF200034EF6205279
:102C3000CEF20002126842F07F421A6000F086F87D
:102C400040F20403C2F200034FF000021A60FFF7E3
:102C5000D1FF4FF00003184680BD00BF80B400AF25
:102C60004EF60453CEF200034FF080521A60BD4678
:102C700080BC704780B400AF4FF0BF0080F3118874
:102C800040F20403C2F200031B6803F1010240F2A8
:102C90000403C2F200031A60BD4680BC704700BF47
:102CA00080B400AF40F20403C2F200031B6803F1DA
:102CB000FF3240F20403C2F200031A6040F2040340
:102CC000C2F200031B68002B03D14FF0000080F319
:102CD0001188BD4680BC7047EFF309800C4B1A6821
:102CE00020E9F00F10602DE908404FF0BF0080F39D
:102CF0001188FEF7C1FD4FF0000080F31188BDE898
:102D0000084019680868B0E8F00F80F30988704738
:102D10001000002080B582B000AF4EF60453CEF212
:102D200000034FF080521A604FF000037B604FF0B9
:102D3000BF0080F31188FEF7C3FC4FF0000080F362
:102D4000118807F10807BD4680BD00BF80B400AF01
:102D50004EF21403CEF2000345F6BF521A604EF253
:102D60001003CEF200034FF007021A60BD4680BC8C
:102D7000704700BF80B584B000AF0346FB714FF0D1
:102D80004C0000F071FE0346FB60FB68002B38D05E
:102D9000FB684FF000025A60FB684FF000021A60B7
:102DA000FB684FF000029A60FB684FF00002DA60A7
:102DB000FB684FF000029A63FB684FF00102DA6390
:102DC000FB684FF000021A64FB684FF0FF325A6450
:102DD000FB684FF0FF329A64FB6803F1100318465A
:102DE000FFF706FEFB6803F124031846FFF700FE19
:102DF000F8684FF000014FF000024FF0000300F0C0
:102E000007F8FB68184607F11007BD4680BD00BFF4
:102E100080B588B000AFF860B9607A603B604FF071
:102E20000003FB6100E000BFFFF724FFFB689B6B22
:102E30001A46FB68DB6B9A4218D2F868B9683A68A0
:102E400000F03CF9FB685B6A002B0AD0FB6803F1D9
:102E500024031846FEF7B4FD0346012B01D1FFF70A
:102E6000FDFEFFF71DFF4FF001035DE07B68002BC7
:102E700004D1FFF715FF4FF0000355E0FB69002B6D
:102E800007D107F114031846FEF7FCFD4FF00103CC
:102E9000FB61FFF705FFFEF757FBFFF7EBFEFB6853
:102EA0005B6CB3F1FF3F03D1FB684FF000025A6443
:102EB000FB689B6CB3F1FF3F03D1FB684FF000024E
:102EC0009A64FFF7EDFE07F1140207F104031046C0
:102ED0001946FEF7EFFD0346002B1ED1F86800F0FF
:102EE000DDF90346002B12D0FB6803F110027B686A
:102EF00010461946FEF728FDF86800F069F9FEF75C
:102F000035FB0346002B8ED1FFF7A8FE8CE7F8684F
:102F100000F05EF9FEF72AFB86E7F86800F058F942
:102F2000FEF724FB4FF00003184607F12007BD46CB
:102F300080BD00BF80B588B000AFF860B9607A602E
:102F40003B604FF00003FB6100E000BFFFF792FE23
:102F5000FB689B6B002B40D0FB68DB68BB61F868AB
:102F6000B96800F00DF93B68002B1FD1FB689B6B23
:102F700003F1FF32FB689A63FB681B68002B05D1E5
:102F8000FEF774FF03461A46FB685A60FB681B692C
:102F9000002B1DD0FB6803F110031846FEF710FD4F
:102FA0000346012B14D1FFF759FE11E0FB68BA6903
:102FB000DA60FB685B6A002B0AD0FB6803F124032C
:102FC0001846FEF7FDFC0346002B01D0FFF746FE36
:102FD000FFF766FE4FF001036BE07B68002B04D126
:102FE000FFF75EFE4FF0000363E0FB69002B07D1A3
:102FF00007F110031846FEF745FD4FF00103FB6192
:10300000FFF74EFEFEF7A0FAFFF734FEFB685B6C9D
:10301000B3F1FF3F03D1FB684FF000025A64FB6835
:103020009B6CB3F1FF3F03D1FB684FF000029A6441
:10303000FFF736FE07F1100207F1040310461946A8
:10304000FEF738FD0346002B2CD1F86800F010F98C
:103050000346002B20D0FB681B68002B08D1FFF72C
:1030600009FEFB685B681846FEF710FFFFF718FEC5
:10307000FB6803F124027B6810461946FEF764FCE6
:10308000F86800F0A5F8FEF771FA0346002B7FF40C
:103090005CAFFFF7E3FD59E7F86800F099F8FEF739
:1030A00065FA53E7F86800F093F8FEF75FFA4FF01F
:1030B0000003184607F12007BD4680BD80B584B0E7
:1030C00000AFF860B9607A60FB681B6C002B0DD113
:1030D000FB681B68002B48D1FB685B681846FEF74D
:1030E00041FFFB684FF000025A603EE07B68002B16
:1030F0001AD1FB689A68FB681B6C1046B9681A46BF
:1031000000F008FDFB689A68FB681B6CD218FB682E
:103110009A60FB689A68FB685B689A4225D3FB68F3
:103120001A68FB689A6020E0FB68DA68FB681B6C31
:103130001046B9681A4600F0EDFCFB68DA68FB68D7
:103140001B6CC3F10003D218FB68DA60FB68DA6815
:10315000FB681B689A4208D2FB685A68FB681B6CC4
:10316000C3F10003D218FB68DA60FB689B6B03F1C4
:103170000102FB689A6307F11007BD4680BD00BFDE
:1031800080B582B000AF786039607B681B68002B27
:1031900019D07B68DA687B681B6CD2187B68DA60B0
:1031A0007B68DA687B685B689A4203D37B681A683D
:1031B0007B68DA607B68DA687B681B6C386811466C
:1031C0001A4600F0A7FC07F10807BD4680BD00BF06
:1031D00080B582B000AF7860FFF74CFD14E07B68EB
:1031E0005B6A002B15D07B6803F124031846FEF7B9
:1031F000E7FB0346002B01D0FEF7AEFC7B689B6C1F
:1032000003F1FF327B689A647B689B6C002BE6DCE1
:1032100000E000BF7B684FF0FF329A64FFF740FD8B
:10322000FFF728FD14E07B681B69002B15D07B6835
:1032300003F110031846FEF7C3FB0346002B01D031
:10324000FEF78AFC7B685B6C03F1FF327B685A6493
:103250007B685B6C002BE6DC00E000BF7B684FF016
:10326000FF325A64FFF71CFD07F10807BD4680BD19
:1032700080B584B000AF7860FFF7FCFC7B689B6B87
:10328000002B14BF00230123FB60FFF709FDFB683F
:10329000184607F11007BD4680BD00BF80B584B059
:1032A00000AF7860FFF7E6FC7B689B6B1A467B6893
:1032B000DB6B9A4214BF00230123FB60FFF7F0FC95
:1032C000FB68184607F11007BD4680BD80B485B085
:1032D00000AF786039604FF00003FB607B681B68CB
:1032E000FB60FB6823F4FE4323F0F003FB603B68C4
:1032F0009A683B681B6A1A433B681B691A433B6820
:103300005B691A433B689B691A433B68DB691A4354
:103310003B685B6A1A433B689B6A42EA0303FA68AC
:1033200042EA0303FB607B68FA681A603B68DA686C
:103330007B685A603B681A687B689A603B685A6889
:103340007B68DA6007F11407BD4680BC704700BF98
:1033500080B483B000AF78607B684FF000021A60E1
:103360007B684FF000025A607B684FF000029A6061
:103370007B684FF00002DA607B684FF000021A6150
:103380007B684FF000025A617B684FF000029A613F
:103390007B684FF00002DA617B684FF000021A622E
:1033A0007B684FF000025A627B684FF000029A621D
:1033B00007F10C07BD4680BC704700BF80B483B0E6
:1033C00000AF78600B46FB70FB78002B06D07B6863
:1033D0001B6843F001027B681A6008E07B681B6889
:1033E0001A464FF6FE7302EA03037A68136007F188
:1033F0000C07BD4680BC704780B485B000AF7860D4
:103400004FF00003FB734FF00003BB607B6803F0D9
:103410008053002B06D04FF48063C4F202031B6874
:10342000BB6005E04FF00003C4F202031B68BB6001
:10343000BA687B6802EA0303002B03D04FF0010354
:10344000FB7302E04FF00003FB73FB7B184607F1B0
:103450001407BD4680BC704780B483B000AF78606D
:103460007B6803F08053002B06D04FF48063C4F2D6
:1034700002037A685A6005E04FF00003C4F20203C9
:103480007A685A6007F10C07BD4680BC704700BFE0
:1034900080B586B004AF4FF00003FB7144F21C23EB
:1034A000C0F600034FF0010200924FF000020192BB
:1034B0004FF0000202924FF00002039243F21970A3
:1034C000C0F6000019464FF080024FF00003FDF7F0
:1034D0009DFE4FF00100FFF74DFC024641F25833CC
:1034E000C2F200031A60FB79184607F10807BD46CF
:1034F00080BD00BF80B592B000AF41F214004FF024
:103500000101FDF7EFFD4FF0A003A7F844304FF0A5
:10351000030387F846304FF0180387F8473007F168
:1035200044034FF40060C4F201001946FCF746FF63
:103530004FF48073A7F844304FF0100387F84730FA
:103540004FF0030387F8463007F144034FF400605F
:10355000C4F201001946FCF731FF4FF000033B862F
:103560004FF482737B864FF40063BB864FF00003F9
:10357000FB864FF000033B874FF400737B874FF0CF
:103580000003BB874FF00003FB8707F130034FF4C4
:103590004050C4F20100194600F0B4F94FF4405015
:1035A000C4F201004FF0000100F03EFA4FF4405029
:1035B000C4F201004FF0010100F0F0F94FF4006097
:1035C000C4F201004FF480714FF00002FCF7F6FFE7
:1035D0004FF001004FF00101FDF756FD07F1040324
:1035E0001846FFF7B5FE43F20C03C4F201037B60FB
:1035F0004FF01003FB604FF000037B614FF080033E
:10360000BB614FF48073FB614FF480633B624FF00A
:1036100000037B624FF00003BB624FF000037B624C
:103620004FF00003FB6207F104034FF03000C4F2D7
:1036300002001946FFF74AFE4FF40070FFF70CFF37
:1036400007F104031846FFF783FE43F20C03C4F2AC
:1036500001037B604FF00003FB604FF000037B61D0
:103660004FF08003BB614FF48073FB614FF48063C4
:103670003B624FF000037B624FF00003BB624FF0F0
:1036800000037B624FF00003FB6207F104034FF07D
:103690001C00C4F202001946FFF718FE4FF020008C
:1036A000FFF7DAFE4FF44050C4F201004FF0020180
:1036B0004FF0010200F092F94FF44050C4F20100C3
:1036C0004FF001014FF0010200F088F907F14807BF
:1036D000BD4680BD80B582B000AF78600B467B8070
:1036E0004FF03003C4F202037A68DA604FF030031F
:1036F000C4F202037A885A604FF40070FFF7ACFE00
:103700004FF03000C4F202004FF00101FFF756FE07
:1037100007F10807BD4680BD80B584B000AF786072
:103720004FF00003FB734FF00003FB7369E04FF4AD
:103730000060C4F201004FF480714FF00002FCF70A
:103740003DFF41F25833C2F200031B6818464FF0A8
:1037500000014FF0FF324FF00003FFF7EBFB034691
:10376000012B36D12B4AFB7B4FEA4303D318184673
:103770004FF00101FFF7AEFF01E0FFF76FFA4FF4E2
:103780000070FFF739FE0346002BF6D04FF03000F3
:10379000C4F202004FF00001FFF710FE01E0FFF756
:1037A0005DFA4FF44053C4F201031B899BB203F04E
:1037B0008003002BF3D141F25833C2F200031B689F
:1037C00018464FF000014FF000024FF00003FFF7E2
:1037D0001FFB4FF40060C4F201004FF480714FF002
:1037E0000102FCF7EBFE4FF40060C4F201004FF45D
:1037F00080714FF00002FCF7E1FEFB7B03F1010357
:10380000FB73FB7B0C2B92D94FF03200FDF734FE9B
:1038100089E700BF3211002080B487B000AF786024
:103820004FF000037B614FF000033B614FF00F034B
:10383000FB607B68DB78002B49D04FF46D43CEF200
:103840000003DB686FEA030303F4E0634FEA13232A
:103850007B617B69C3F104033B617B69FA6822FAEF
:1038600003F3FB607B685B781A463B6902FA03F35B
:103870007B617B689B781A46FB6802EA03037A69DE
:1038800042EA03037B617B694FEA03137B614FF4D8
:103890006143CEF200037A68127811467A69D2B297
:1038A0005B1883F800234FF46143CEF200037A687B
:1038B00012784FEA5212D2B27968097801F01F01EA
:1038C0004FF0010000FA01F143F8221014E04FF428
:1038D0006143CEF200037A6812784FEA5212D2B2F4
:1038E0007968097801F01F014FF0010000FA01F139
:1038F00002F1200243F8221007F11C07BD4680BCEC
:10390000704700BF80B485B000AF786039604FF079
:103910000003FB817B681B88FB81FB8903F4415317
:10392000FB813B681A883B685B8842EA03039AB2D2
:103930003B689B8842EA03039AB23B68DB8842EA11
:1039400003039AB23B681B8942EA03039AB23B68BD
:103950005B8942EA03039AB23B689B8942EA03030C
:103960009AB23B68DB8942EA03039AB2FB8942EAD6
:103970000303FB817B68FA891A807B689B8B9BB26F
:1039800023F400639AB27B689A833B681A8A7B6847
:103990001A8207F11407BD4680BC704780B483B01B
:1039A00000AF78600B46FB70FB78002B08D07B687B
:1039B0001B889BB243F040039AB27B681A8007E0F1
:1039C0007B681B889BB223F040039AB27B681A8005
:1039D00007F10C07BD4680BC704700BF80B483B0C0
:1039E00000AF786013460A467A807B707B78002BA4
:1039F00009D07B689B889AB27B8842EA03039AB21B
:103A00007B689A800BE07B689B889AB27B886FEA20
:103A100003039BB202EA03039AB27B689A8007F120
:103A20000C07BD4680BC704780B483B000AF78609F
:103A30000B46FB70FB78002B08D07B681B889BB281
:103A400043F400539AB27B681A8007E07B681B88B6
:103A50009BB223F400539AB27B681A8007F10C07DB
:103A6000BD4680BC704700BF80B584B000AF7860B1
:103A70004FF00003FB607B6803F00703002B05D0C9
:103A80007B6823F0070303F108037B60FDF75CFD0F
:103A900041F22013C2F200031A687B68D21840F684
:103AA000FF739A4224D841F22013C2F200031A682D
:103AB0007B68D21841F22013C2F200031B689A42BD
:103AC00016D941F22013C2F200031A6840F2201303
:103AD000C2F20003D318FB6041F22013C2F20003CC
:103AE0001A687B68D21841F22013C2F200031A60F0
:103AF000FDF73CFDFB68184607F11007BD4680BD89
:103B000080B483B000AF786007F10C07BD4680BC7D
:103B1000704700BF032A2DE9F00109D82AB100231C
:103B2000CC5CC45401339342FAD1BDE8F001704734
:103B30000B468218014603E02478013301F8014B5B
:103B400011F0030F1C46F7D113F003055DD06E4250
:103B5000C5F1040CED009B594FEACC0C08E004348D
:103B6000A7593B4607FA0CF748EA070741F8047BD8
:103B7000571A23FA05F8032FF1DC03E014F8013B90
:103B800001F8013B8A42F9D8CFE753F8404C41F89D
:103B9000404C53F83C4C41F83C4C53F8384C41F8FD
:103BA000384C53F8344C41F8344C53F8304C41F80D
:103BB000304C53F82C4C41F82C4C53F8284C41F81D
:103BC000284C53F8244C41F8244C53F8204C41F82D
:103BD000204C53F81C4C41F81C4C53F8184C41F83D
:103BE000184C53F8144C41F8144C53F8104C41F84D
:103BF000104C53F80C4C41F80C4C53F8084C41F85D
:103C0000084C53F8044C41F8044C561A1D460C4617
:103C1000403340313F2EB8DC2B460FE053F8101CE8
:103C200044F8101C53F80C1C44F80C1C53F8081CE6
:103C300044F8081C53F8041C44F8041C161B1D46C9
:103C400010330F2E214604F11004E7DC2B4602E06E
:103C5000246841F8044B551A1C46032D03F1040354
:103C6000F6DC8FE7032AC9B270B408D82AB103463C
:103C7000121803F8011B9342FBD170BC70478218E5
:103C8000044601E004F8011B14F0030FFAD14FF0D1
:103C9000013303FB01F31FE044F8403C44F83C3C93
:103CA00044F8383C44F8343C44F8303C44F82C3C6C
:103CB00044F8283C44F8243C44F8203C44F81C3C9C
:103CC00044F8183C44F8143C44F8103C44F80C3CCC
:103CD00044F8083C44F8043C161B254640343F2E6B
:103CE000DADC2C4607E044F8103C44F80C3C44F87D
:103CF000083C44F8043C161B254610340F2EF2DC19
:103D000001E045F8043B541B032CFADC01E005F804
:103D1000011B9542FBD3B0E720F0030110F0030034
:103D2000C0F1000051F8043B00F1040C4FEACC0C48
:103D30006FF000021CBF22FA0CF213434FF0010C8B
:103D40004CEA0C2C4CEA0C4CA3EB0C0222EA0302CA
:103D500012EACC1204BF51F8043B0430F4D013F043
:103D6000FF0F1FBF013013F47F4F013013F47F0F9B
:103D700018BF0130704700BF41EA000313F0030F82
:103D8000034670B414BF00250125032A94BF002503
:103D900005F001050C460646CDB9B2B10D783446A2
:103DA000531E04F8015B55B1B21C73B111F8015FE9
:103DB0001446013B02F8015C0132002DF5D123B11C
:103DC0000022013B04F8012BFBD170BC7047214657
:103DD00054F8045BA5F1013626EA050616F0803F8B
:103DE00005D1043A43F8045B032A2146EFD81E4666
:103DF000D3E700BF4144435F506F6C6C5F746173E5
:103E00006B00000030313233343536373839416297
:103E1000436445466849494A4C4F50727455752E63
:103E20002D5F207E306D79335B5F707F7B771F4E17
:103E30003D4F471730103C0E7E67050F3E1C80013A
:103E400008000000253464002533642E2531640009
:103E50002532642E253264002531642E253364001A
:103E6000494E49540000000049444C450000000000
:103E70004B4559424F4152440000000000000000F1
:103E80000000000000000000000000000000000032
:103E90000000000000000000444154412053435200
:103EA00045454E00803E0008803E0008803E0008E8
:103EB000C43E000800000000983E0008203545740C
:103EC00000000000E43E0008803E0008A43E000818
:103ED000043F000800000000BC3E00082062724958
:103EE00000000000803E0008C43E0008A43E000818
:103EF000803E000821000000DC3E000820435F31C6
:103F000000000000243F0008803E0008C43E000876
:103F1000C43F000800000000FC3E000820435F3260
:103F200000000000443F0008043F0008C43E0008B1
:103F30003C400008000000001C3F000820435F33A5
:103F400000000000643F0008243F0008C43E000851
:103F50009C400008000000003C3F000820435F3404
:103F600000000000843F0008443F0008C43E0008F1
:103F7000FC400008000000005C3F000820435F3563
:103F800000000000A43F0008643F0008C43E000891
:103F90005C410008000000007C3F000820435F36C1
:103FA00000000000803E0008843F0008C43E000876
:103FB000BC410008000000009C3F00082043684905
:103FC00000000000E43F0008803E0008043F0008B5
:103FD000803E000804000000BC3F000820434C4F16
:103FE0000000000004400008C43F0008043F00082F
:103FF000803E000805000000DC3F000820556849AD
:104000000000000024400008E43F0008043F0008CE
:10401000803E000806000000FC3F000820554C4F81
:1040200000000000803E000804400008043F000833
:10403000803E0008070000001C40000854400008B3
:10404000803E0008243F0008803E00080900000070
:10405000BC3F00086C4000083C400008243F0008BA
:10406000803E00080A000000DC3F00088440000891
:1040700054400008243F0008803E00080B00000068
:10408000FC3F0008803E00086C400008243F000808
:10409000803E00080C0000001C400008B4400008EE
:1040A000803E0008443F0008803E00080E000000EB
:1040B000BC3F0008CC4000089C400008443F00087A
:1040C000803E00080F000000DC3F0008E4400008CC
:1040D000B4400008443F0008803E00081000000083
:1040E000FC3F0008803E0008CC400008443F000828
:1040F000803E0008110000001C4000081441000828
:10410000803E0008643F0008803E00081300000065
:10411000BC3F00082C410008FC400008643F000838
:10412000803E000814000000DC3F00084441000805
:1041300014410008643F0008803E0008150000009C
:10414000FC3F0008803E00082C410008643F000846
:10415000803E0008160000001C4000087441000862
:10416000803E0008843F0008803E000818000000E0
:10417000BC3F00088C4100085C410008843F0008F7
:10418000803E000819000000DC3F0008A441000840
:1041900074410008843F0008803E00081A000000B7
:1041A000FC3F0008803E00088C410008843F000866
:1041B000803E00081B0000001C400008D44100089D
:1041C000803E0008A43F0008803E00081D0000005B
:1041D000BC3F0008EC410008BC410008A43F0008B7
:1041E000803E00081E000000DC3F0008044200087A
:1041F000D4410008A43F0008803E00081F000000D2
:10420000FC3F0008803E0008EC410008A43F000885
:10421000803E0008200000001C4000085350495F09
:08422000315F5441534B0000D3
:08422800FFFFFFFFAAAAAAAAEA
:0400000508000000EF
:00000001FF
