:020000040800F2
:10000000C812002025010008910100089101000894
:100010009101000891010008910100080000000012
:10002000000000000000000000000000A51700080C
:100030009101000800000000A9180008E518000858
:100040009101000891010008910100089101000848
:100050009101000891010008910100089101000838
:100060009101000891010008910100089101000828
:100070009101000891010008910100089101000818
:1000800091010008910100089101000800000000A2
:1000900000000000000000000000000091010008C6
:1000A00091010008910100089101000891010008E8
:1000B00091010008910100089101000891010008D8
:1000C00091010008910100089101000891010008C8
:1000D00091010008910100089101000891010008B8
:1000E0009101000891010008910100080000000042
:1000F0000000000000000000000000000000000000
:1001000000000000000000000000000000000000EF
:1001100000000000000000009101000891010008AB
:100120005FF808F180B582B000AF42F69803C0F6E0
:1001300000037B6040F20003C2F200033B600BE06F
:100140007B681A683B681A603B6803F104033B60F4
:100150007B6803F104037B603A6840F20803C2F253
:1001600000039A42ECD3084808494FF00002884245
:10017000B8BF40F8042BFADB00F00EF800F036FAB6
:1001800007F10807BD4680BD08000020C80E00200A
:1001900080B400AFFEE700BF80B500AF4FF48053DE
:1001A000C4F202034FF48052C4F20202126842F019
:1001B00001021A604FF48052C4F202024FF48053DD
:1001C000C4F202035B6819464FF00003CFF6FF0349
:1001D00001EA030353604FF48053C4F202034FF467
:1001E0008052C4F20202126822F0847222F4803239
:1001F0001A604FF48053C4F202034FF48052C4F2E9
:100200000202126822F480221A604FF48053C4F272
:1002100002034FF48052C4F20202526822F4FE023A
:100220005A604FF48053C4F202034FF41F029A60E5
:100230004FF48053C4F202034FF00002DA6200F080
:1002400009F84FF46D43CEF200034FF000629A605C
:1002500080BD00BF80B500AF00F002F880BD00BFD8
:1002600080B483B000AF4FF000037B604FF0000319
:100270003B604FF48053C4F202034FF48052C4F247
:100280000202126842F480321A604FF48053C4F2C2
:1002900002031B6803F400333B607B6803F1010336
:1002A0007B603B68002B03D17B68B3F5A06FECD17A
:1002B0004FF48053C4F202031B6803F40033002B95
:1002C00003D04FF001033B6002E04FF000033B60BE
:1002D0003B68012B6DD14FF48053C4F202034FF4FD
:1002E0008052C4F2020252685A604FF48053C4F242
:1002F00002034FF48052C4F2020252685A604FF473
:100300008053C4F202034FF48052C4F202025268D6
:100310005A604FF48053C4F202034FF48052C4F287
:100320000202526822F47C125A604FF48053C4F2E5
:1003300002034FF48052C4F20202526842F498124F
:100340005A604FF48053C4F202034FF48052C4F257
:100350000202126842F080721A6000BF4FF48053AC
:10036000C4F202031B6803F00073002BF6D04FF4B5
:100370008053C4F202034FF48052C4F20202526866
:1003800022F003025A604FF48053C4F202034FF488
:100390008052C4F20202526842F002025A6000BF68
:1003A0004FF48053C4F202035B6803F00C03082B84
:1003B000F6D107F10C07BD4680BC704780B489B008
:1003C00000AF786039604FF00003FB614FF000032D
:1003D0003B614FF00003BB614FF00003FB604FF047
:1003E00000037B614FF00003BB603B68DB7803F0E8
:1003F0000F03FB613B68DB7803F01003002B05D093
:100400003B689B78FA6942EA0303FB613B681B88FF
:1004100003F0FF03002B51D07B681B687B614FF01A
:100420000003BB6144E0BB694FF0010202FA03F331
:10043000FB603B681B881A46FB6802EA03033B61CA
:100440003A69FB689A422FD1BB694FEA8303FB608C
:10045000FB684FF00F0202FA03F3BB60BB686FEA60
:1004600003037A6902EA03037B61FB68FA6902FA13
:1004700003F37A6942EA03037B613B68DB78282B4C
:1004800007D1BB694FF0010202FA03F27B685A619F
:100490000AE03B68DB78482B06D1BB694FF00102CC
:1004A00002FA03F27B681A61BB6903F10103BB61C5
:1004B000BB69072BB7D97B687A691A603B681B88D0
:1004C000FF2B56D97B685B687B614FF00003BB61F3
:1004D00049E0BB6903F108034FF0010202FA03F39C
:1004E000FB603B681B881A46FB6802EA03033B611A
:1004F0003A69FB689A4232D1BB694FEA8303FB60D9
:10050000FB684FF00F0202FA03F3BB60BB686FEAAF
:1005100003037A6902EA03037B61FB68FA6902FA62
:1005200003F37A6942EA03037B613B68DB78282B9B
:1005300008D1BB6903F108034FF0010202FA03F28C
:100540007B685A613B68DB78482B08D1BB6903F1B3
:1005500008034FF0010202FA03F27B681A61BB69DB
:1005600003F10103BB61BB69072BB2D97B687A69D0
:100570005A6007F12407BD4680BC704780B483B041
:1005800000AF786013460A467A807B707B78002B38
:1005900003D07A887B681A6102E07A887B685A61A6
:1005A00007F10C07BD4680BC704700BF80B586B020
:1005B00000AF78604FF00003FB7542F68003C0F691
:1005C00000031B683B614FF00003BB8101F07AFD23
:1005D00000F096F84FF4FA6000F034FA4FF00000A3
:1005E00000F0D0F907F11807BD4680BD80B584B092
:1005F00004AFFFF7D1FD42F67803C0F600034FF0D9
:10060000010200924FF0000201924FF000020292AC
:100610004FF00002039240F2AD50C0F600001946C0
:100620004FF080024FF0000300F0D6F800F038FAE7
:10063000FEE700BF80B400AF40F61053C2F20003E3
:100640004FF001021A7040F61053C2F200034FF04F
:1006500000021A7740F61053C2F200034FF0000276
:1006600083F8382040F61053C2F200034FF0000226
:10067000DA8340F61053C2F200034FF000029A836F
:1006800040F61053C2F200034FF001021A8440F604
:100690001053C2F200034FF003025A8440F6105385
:1006A000C2F2000340F609229A8440F61053C2F2C7
:1006B00000034FF41062DA8440F61053C2F20003D4
:1006C0005B8C03F1FF339BB29BB243F430639BB26C
:1006D0009AB240F61053C2F200031A8540F6105346
:1006E000C2F2000340F601425A8540F61053C2F2AE
:1006F00000034FF470629A85BD4680BC704700BF0E
:1007000080B582B000AF4FF00003FB71FFF792FF9E
:1007100001F0A6FCFB79184607F10807BD4680BD2D
:1007200080B483B000AF78600B46FB70FB78002B81
:100730000ED04FF48053C4F202034FF48052C4F23F
:100740000202526911467A6841EA02025A610FE0D8
:100750004FF48053C4F202034FF48052C4F20202F9
:10076000526911467A686FEA020201EA02025A618E
:1007700007F10C07BD4680BC704700BF80B483B052
:1007800000AF78600B46FB70FB78002B0ED04FF467
:100790008053C4F202034FF48052C4F20202926901
:1007A00011467A6841EA02029A610FE04FF48053E1
:1007B000C4F202034FF48052C4F20202926911465D
:1007C0007A686FEA020201EA02029A6107F10C07F5
:1007D000BD4680BC704700BF80B58AB002AFF860EC
:1007E000B9603B601346FB80FB881846396B00F00C
:1007F000D9FDB861BB69002B00F0A680BB691A6BFC
:10080000FB8803F1FF334FEA8303D3187B617B69D5
:1008100023F007037B61FB880093B869B968BA6A63
:100820007B6B00F09DFC7869F9683A6800F08AFFFC
:1008300003461A46BB691A60FB6A002B02D0FB6AAA
:10084000BA691A6000F0FEFF40F2E003C2F2000352
:100850001B6803F1010240F2E003C2F200031A60D8
:1008600040F20803C2F200031B68002B0FD140F2D4
:100870000803C2F20003BA691A6040F2E003C2F250
:1008800000031B68012B18D100F0A8FC15E040F212
:10089000F003C2F200031B68002B0ED140F20803E4
:1008A000C2F200031B68DA6ABB6A9A4205D840F2BA
:1008B0000803C2F20003BA691A60BB69DA6A40F23F
:1008C000E803C2F200031B689A4206D9BB69DA6AE0
:1008D00040F2E803C2F200031A6040F20413C2F2CD
:1008E00000031B6803F1010240F20413C2F200038B
:1008F0001A60BB69DA6A40F2EC03C2F200031B68BB
:100900009A4206D9BB69DA6A40F2EC03C2F20003EC
:100910001A60BB69DA6A13464FEA83039B184FEAF1
:1009200083031A4640F20C03C2F20003D218BB69DB
:1009300003F104031046194600F074FE4FF0010362
:10094000FB6100F095FF02E04FF0FF33FB61FB69B4
:10095000012B11D140F2F003C2F200031B68002BFF
:100960000AD040F20803C2F200031B68DA6ABB6ACD
:100970009A4201D200F05AFFFB69184607F120079E
:10098000BD4680BD80B584B000AF786000F05AFFEE
:1009900040F20803C2F200031B687A689A4202D14F
:1009A0004FF000037B607B68002B05D140F2080309
:1009B000C2F200031B6800E07B68FB60FB6803F188
:1009C0000403184600F094FEFB689B6A002B05D0D8
:1009D000FB6803F11803184600F08AFEFB6803F178
:1009E000040340F2B400C2F20000194600F01AFEFF
:1009F00040F2C803C2F200031B6803F1010240F297
:100A0000C803C2F200031A6040F20413C2F20003EA
:100A10001B6803F1010240F20413C2F200031A60E2
:100A200000F026FF40F2F003C2F200031B68002B27
:100A300004D07B68002B01D100F0F8FE07F110070D
:100A4000BD4680BD80B584B000AF78604FF0000334
:100A5000FB607B68002B19D000F05CF840F2E403E7
:100A6000C2F200031A687B68D318BB6040F2080327
:100A7000C2F200031B6803F10403184600F038FEBD
:100A8000B86800F049FC00F057F8F860FB68002BEC
:100A900001D100F0CBFE07F11007BD4680BD00BFBD
:100AA00080B586B004AF42F68403C0F600034FF071
:100AB000000200924FF0000201924FF000020292F9
:100AC0004FF00002039241F23D10C0F600001946BB
:100AD0004FF080024FF00003FFF77EFE78607B68E6
:100AE000012B13D14FF0BF0080F3118840F2F003C7
:100AF000C2F200034FF001021A6040F2E403C2F2B6
:100B000000034FF000021A6000F066FE07F10807CC
:100B1000BD4680BD80B400AF40F2F403C2F20003D2
:100B20001B6803F1010240F2F403C2F200031A60F1
:100B3000BD4680BC704700BF90B583B000AF4FF09A
:100B400000037B6000F07EFE40F2F403C2F200037B
:100B50001B6803F1FF3240F2F403C2F200031A6093
:100B600040F2F403C2F200031B68002B40F08680C1
:100B700040F2E003C2F200031B68002B7ED04FF06E
:100B800000033B603DE040F2A003C2F20003DB68DB
:100B9000DB681C4604F11803184600F0A9FD04F1B7
:100BA0000403184600F0A4FDE26A40F2EC03C2F22E
:100BB00000031B689A4205D9E26A40F2EC03C2F2D4
:100BC00000031A60E26A13464FEA83039B184FEA58
:100BD00083031A4640F20C03C2F20003D21804F158
:100BE00004031046194600F01DFDE26A40F20803B6
:100BF000C2F200031B68DB6A9A4202D34FF0010382
:100C00003B6040F2A003C2F200031B68002BBAD184
:100C100040F2F803C2F200031B68002B18D00DE06D
:100C200000F034F840F2F803C2F200031B6803F14D
:100C3000FF3240F2F803C2F200031A6040F2F803F8
:100C4000C2F200031B68002BEAD14FF001033B60A6
:100C50003B68012B06D040F2FC03C2F200031B6884
:100C6000012B0BD14FF001037B6040F2FC03C2F279
:100C700000034FF000021A6000F0D8FD00F0F8FD0C
:100C80007B68184607F10C07BD4690BD80B584B05F
:100C900000AF40F2F403C2F200031B68002B40F0E7
:100CA000C08040F2E403C2F200031B6803F10102BA
:100CB00040F2E403C2F200031A6040F2E403C2F21D
:100CC00000031B68002B40D140F29803C2F20003DE
:100CD0001B68FB6040F29C03C2F200031A6840F2FA
:100CE0009803C2F200031A6040F29C03C2F20003B0
:100CF000FA681A6040F20013C2F200031B6803F1A5
:100D0000010240F20013C2F200031A6040F298039D
:100D1000C2F200031B681B68002B07D140F20003DE
:100D2000C2F200034FF0FF321A600EE040F2980367
:100D3000C2F200031B68DB68DB68BB60BB685A68F3
:100D400040F20003C2F200031A6040F2E403C2F270
:100D500000031A6840F20003C2F200031B689A42C3
:100D60006BD340F29803C2F200031B681B68002B90
:100D700007D140F20003C2F200034FF0FF321A60C5
:100D80005BE040F29803C2F200031B68DB68DB689B
:100D9000BB60BB685B687B6040F2E403C2F20003A7
:100DA0001A687B689A4206D240F20003C2F200033E
:100DB0007A681A6041E0BB6803F10403184600F04A
:100DC00097FCBB689B6A002B05D0BB6803F1180336
:100DD000184600F08DFCBB68DA6A40F2EC03C2F200
:100DE00000031B689A4206D9BB68DA6A40F2EC033A
:100DF000C2F200031A60BB68DA6A13464FEA830343
:100E00009B184FEA83031A4640F20C03C2F2000318
:100E1000D218BB6803F104031046194600F002FC27
:100E20009FE740F2F803C2F200031B6803F10102DE
:100E300040F2F803C2F200031A6007F11007BD4642
:100E400080BD00BF80B483B000AF40F2F403C2F2B3
:100E500000031B68002B14D040F2FC03C2F2000315
:100E60004FF001021A604FE040F2EC03C2F20003BF
:100E70001B6803F1FF3240F2EC03C2F200031A6078
:100E800000E000BF40F2EC03C2F200031A68134610
:100E90004FEA83039B184FEA83031A4640F20C0380
:100EA000C2F20003D3181B68002BDDD040F2EC0324
:100EB000C2F200031A6813464FEA83039B184FEAF5
:100EC00083031A4640F20C03C2F20003D3187B607E
:100ED0007B685B685B681A467B685A607B685A6807
:100EE0007B6803F108039A4205D17B685B685B6805
:100EF0001A467B685A607B685B68DB681A4640F27A
:100F00000803C2F200031A6007F10C07BD4680BC5B
:100F1000704700BF80B584B000AF7860396040F2A0
:100F20000803C2F200031B6803F11803786819462E
:100F300000F0A2FB40F20803C2F200031B6803F1B9
:100F40000403184600F0D4FB3B68B3F1FF3F0ED119
:100F500040F20803C2F200031B6803F1040340F2ED
:100F6000CC00C2F20000194600F05CFB0AE040F23F
:100F7000E403C2F200031A683B68D318FB60F86808
:100F800000F0CAF907F11007BD4680BD80B584B0F6
:100F900000AF78607B68DB68DB68BB60BB6803F12F
:100FA0001803184600F0A4FB40F2F403C2F2000359
:100FB0001B68002B2BD1BB6803F10403184600F01B
:100FC00097FBBB68DA6A40F2EC03C2F200031B68CD
:100FD0009A4206D9BB68DA6A40F2EC03C2F2000317
:100FE0001A60BB68DA6A13464FEA83039B184FEA1C
:100FF00083031A4640F20C03C2F20003D218BB6806
:1010000003F104031046194600F00CFB09E0BB682D
:1010100003F1180340F2A000C2F20000194600F0EC
:1010200001FBBB68DA6A40F20803C2F200031B68E6
:10103000DB6A9A4203D34FF00103FB6002E04FF0FA
:101040000003FB60FB68184607F11007BD4680BD32
:1010500080B483B000AF786040F20013C2F20003A6
:101060001A687B681A6040F2E403C2F200031A684F
:101070007B685A6007F10C07BD4680BC704700BF13
:1010800080B584B000AF7860396000F0DBFB3B686E
:101090001B68B3F1FF3F03D14FF00003FB6038E062
:1010A0007B681A6840F20013C2F200031B689A4280
:1010B0000CD07B685A6840F2E403C2F200031B685C
:1010C0009A4203D84FF00103FB6022E040F2E403B0
:1010D000C2F200031A687B685B68D21A3B681B681F
:1010E0009A4213D23B681A687B68596840F2E4035D
:1010F000C2F200031B68CB1AD2183B681A607868EA
:10110000FFF7A6FF4FF00003FB6002E04FF0010382
:10111000FB6000F0ADFBFB68184607F11007BD4609
:1011200080BD00BF80B400AF40F2FC03C2F20003F8
:101130004FF001021A60BD4680BC704780B582B096
:1011400000AF786000E000BF00F09AF840F20C03B6
:10115000C2F200031B68012BF5D900F067FBF3E72F
:1011600080B584B000AFF860B9607A603B60FB681E
:1011700003F134031A46BB68104619464FF01002BB
:1011800001F03CFBFB684FF0000283F843207B68D2
:10119000042B02D94FF004037B60FB687A68DA62A3
:1011A000FB687A685A64FB6803F10403184600F090
:1011B0002BFAFB6803F11803184600F025FAFB68C8
:1011C000FA681A617B68C3F10502FB689A61FB68E3
:1011D000FA685A6207F11007BD4680BD80B582B03B
:1011E00000AF4FF000037B6013E07A6813464FEACC
:1011F00083039B184FEA83031A4640F20C03C2F2A2
:101200000003D318184600F0DBF97B6803F10103F3
:101210007B607B68042BE8D940F27000C2F20000CA
:1012200000F0CEF940F28400C2F2000000F0C8F9EC
:1012300040F2A000C2F2000000F0C2F940F2B40097
:10124000C2F2000000F0BCF940F2CC00C2F2000093
:1012500000F0B6F940F29803C2F2000340F27002C7
:10126000C2F200021A6040F29C03C2F2000340F294
:101270008402C2F200021A6007F10807BD4680BD71
:1012800080B582B000AF40F2C803C2F200031B6811
:10129000002B3CD0FFF73EFC40F2B403C2F2000347
:1012A0001B68002B14BF002301237B60FFF744FC65
:1012B0007B68002B2BD100F0C5FA40F2B403C2F2D8
:1012C0000003DB68DB683B603B6803F104031846FE
:1012D00000F00EFA40F2E003C2F200031B6803F1D3
:1012E000FF3240F2E003C2F200031A6040F2C8038A
:1012F000C2F200031B6803F1FF3240F2C803C2F2DE
:1013000000031A6000F0B4FA386800F085F807F1BD
:101310000807BD4680BD00BF80B582B000AF7860D1
:1013200040F20803C2F200031B687A685A6040F278
:10133000E403C2F200031B687A689A4210D240F2BA
:101340009C03C2F200031A6840F20803C2F20003D1
:101350001B6803F104031046194600F08DF91DE0E7
:1013600040F29803C2F200031A6840F20803C2F286
:1013700000031B6803F104031046194600F07CF9D2
:1013800040F20003C2F200031B687A689A4205D259
:1013900040F20003C2F200037A681A6007F10807FE
:1013A000BD4680BD80B584B000AF03463960FB8088
:1013B0004FF0480001F0CAF80346FB60FB68002BC1
:1013C00023D03B68002B07D1FB884FEA83031846E4
:1013D00001F0BCF8034600E03B68FA681363FB6861
:1013E0001B6B002B06D1F86801F0FCF84FF00003EE
:1013F000FB600AE0FB681A6BFB884FEA8303104628
:101400004FF0A5011A4601F09FF9FB68184607F155
:101410001007BD4680BD00BF80B582B000AF7860C8
:101420007B681B6B184601F0DDF8786801F0DAF88C
:1014300007F10807BD4680BD80B483B000AF40F21D
:101440000803C2F200031B687B607B68184607F143
:101450000C07BD4680BC704780B584B000AF786093
:101460007B68FB60FB68DA6A40F20803C2F20003A3
:101470001B68DB6A9A4257D240F20803C2F20003AB
:101480001B68DB6AC3F10502FB689A61FB68596956
:10149000FB68DA6A13464FEA83039B184FEA83031B
:1014A0001A4640F20C03C2F20003D318994233D11A
:1014B000FB6803F10403184600F01AF940F2080330
:1014C000C2F200031B68DA6AFB68DA62FB68DA6A58
:1014D00040F2EC03C2F200031B689A4206D9FB6893
:1014E000DA6A40F2EC03C2F200031A60FB68DA6ABF
:1014F00013464FEA83039B184FEA83031A4640F2D0
:101500000C03C2F20003D218FB6803F10403104677
:10151000194600F087F807E040F20803C2F2000322
:101520001B68DA6AFB68DA6207F11007BD4680BD06
:1015300080B584B000AF78607B68FB607B68002B6F
:101540003AD0FB68DA6AFB685B6C9A4234D0FB687D
:1015500003F10403184600F0CBF8FB685A6CFB68F3
:10156000DA62FB68DB6AC3F10502FB689A61FB681B
:10157000DA6A40F2EC03C2F200031B689A4206D911
:10158000FB68DA6A40F2EC03C2F200031A60FB68FF
:10159000DA6A13464FEA83039B184FEA83031A461D
:1015A00040F20C03C2F20003D218FB6803F10403FB
:1015B0001046194600F036F807F11007BD4680BD09
:1015C00080B483B000AF78607B6803F108031A46EB
:1015D0007B685A607B684FF0FF329A607B6803F14A
:1015E00008031A467B68DA607B6803F108031A4631
:1015F0007B681A617B684FF000021A6007F10C07E4
:10160000BD4680BC704700BF80B483B000AF786037
:101610007B684FF000021A6107F10C07BD4680BCE1
:10162000704700BF80B485B000AF786039607B68D8
:101630005B68FB60FB685B681A463B685A607B68C6
:101640005A683B689A60FB685B683A689A603A68D7
:10165000FB685A603A687B685A603B687A681A612E
:101660007B681B6803F101027B681A6007F11407AD
:10167000BD4680BC704700BF80B485B000AF7860C5
:1016800039603B681B68BB60BB68B3F1FF3F03D1A7
:101690007B681B69FB600EE07B6803F10803FB605D
:1016A00002E0FB685B68FB60FB685B681B681A46CE
:1016B000BB689A42F5D9FB685B681A463B685A607A
:1016C0003B685B683A689A603B68FA689A603A6877
:1016D000FB685A603B687A681A617B681B6803F193
:1016E00001027B681A6007F11407BD4680BC704791
:1016F00080B485B000AF78607B685B687A68926878
:101700009A607B689B687A6852685A607B681B693C
:10171000FB60FB685A687B689A4203D17B689A68D1
:10172000FB685A607B684FF000021A61FB681B6817
:1017300003F1FF32FB681A6007F11407BD4680BC55
:10174000704700BF80B485B000AFF860B9607A60C0
:10175000FB68A3F10403FB60FB684FF080721A6022
:10176000FB68A3F10403FB60BA68FB681A60FB68BE
:10177000A3F10403FB60FB684FF000021A60FB68F2
:10178000A3F11403FB607A68FB681A60FB68A3F19D
:101790002003FB60FB68184607F11407BD4680BCB8
:1017A000704700BF064B19680868B0E8F00F80F377
:1017B00009884FF0000080F311884EF00D0E70473D
:1017C0000800002003480068006880F3088862B6BB
:1017D00000DF00BF08ED00E080B500AF4EF62053FB
:1017E000CEF200034EF62052CEF20002126842F40E
:1017F0007F021A604EF62053CEF200034EF62052BE
:10180000CEF20002126842F07F421A6000F086F8C1
:1018100040F20403C2F200034FF000021A60FFF727
:10182000D1FF4FF00003184680BD00BF80B400AF69
:101830004EF60453CEF200034FF080521A60BD46BC
:1018400080BC704780B400AF4FF0BF0080F31188B8
:1018500040F20403C2F200031B6803F1010240F2EC
:101860000403C2F200031A60BD4680BC704700BF8B
:1018700080B400AF40F20403C2F200031B6803F11E
:10188000FF3240F20403C2F200031A6040F2040384
:10189000C2F200031B68002B03D14FF0000080F35D
:1018A0001188BD4680BC7047EFF309800C4B1A6865
:1018B00020E9F00F10602DE908404FF0BF0080F3E1
:1018C0001188FFF7BFFA4FF0000080F31188BDE8E0
:1018D000084019680868B0E8F00F80F3098870477D
:1018E0000800002080B582B000AF4EF60453CEF25F
:1018F00000034FF080521A604FF000037B604FF0FE
:10190000BF0080F31188FFF7C1F94FF0000080F3AA
:10191000118807F10807BD4680BD00BF80B400AF45
:101920004EF21403CEF2000345F6BF521A604EF297
:101930001003CEF200034FF007021A60BD4680BCD0
:10194000704700BF80B584B000AF0346FB714FF015
:101950004C0000F0FBFD0346FB60FB68002B38D019
:10196000FB684FF000025A60FB684FF000021A60FB
:10197000FB684FF000029A60FB684FF00002DA60EB
:10198000FB684FF000029A63FB684FF00102DA63D4
:10199000FB684FF000021A64FB684FF0FF325A6494
:1019A000FB684FF0FF329A64FB6803F1100318469E
:1019B000FFF706FEFB6803F124031846FFF700FE5D
:1019C000F8684FF000014FF000024FF0000300F004
:1019D00007F8FB68184607F11007BD4680BD00BF39
:1019E00080B588B000AFF860B9607A603B604FF0B6
:1019F0000003FB6100E000BFFFF724FFFB689B6B67
:101A00001A46FB68DB6B9A4218D2F868B9683A68E4
:101A100000F03CF9FB685B6A002B0AD0FB6803F11D
:101A200024031846FFF7B2FA0346012B01D1FFF752
:101A3000FDFEFFF71DFF4FF001035DE07B68002B0B
:101A400004D1FFF715FF4FF0000355E0FB69002BB1
:101A500007D107F114031846FFF7FAFA4FF0010314
:101A6000FB61FFF705FFFFF755F8FFF7EBFEFB689B
:101A70005B6CB3F1FF3F03D1FB684FF000025A6487
:101A8000FB689B6CB3F1FF3F03D1FB684FF0000292
:101A90009A64FFF7EDFE07F1140207F10403104604
:101AA0001946FFF7EDFA0346002B1ED1F86800F047
:101AB000DDF90346002B12D0FB6803F110027B68AE
:101AC00010461946FFF726FAF86800F069F9FFF7A3
:101AD00033F80346002B8ED1FFF7A8FE8CE7F86899
:101AE00000F05EF9FFF728F886E7F86800F058F98B
:101AF000FFF722F84FF00003184607F12007BD4614
:101B000080BD00BF80B588B000AFF860B9607A6072
:101B10003B604FF00003FB6100E000BFFFF792FE67
:101B2000FB689B6B002B40D0FB68DB68BB61F868EF
:101B3000B96800F00DF93B68002B1FD1FB689B6B67
:101B400003F1FF32FB689A63FB681B68002B05D129
:101B5000FFF772FC03461A46FB685A60FB681B6974
:101B6000002B1DD0FB6803F110031846FFF70EFA97
:101B70000346012B14D1FFF759FE11E0FB68BA6947
:101B8000DA60FB685B6A002B0AD0FB6803F1240370
:101B90001846FFF7FBF90346002B01D0FFF746FE7E
:101BA000FFF766FE4FF001036BE07B68002B04D16A
:101BB000FFF75EFE4FF0000363E0FB69002B07D1E7
:101BC00007F110031846FFF743FA4FF00103FB61DA
:101BD000FFF74EFEFEF79EFFFFF734FEFB685B6CDF
:101BE000B3F1FF3F03D1FB684FF000025A64FB687A
:101BF0009B6CB3F1FF3F03D1FB684FF000029A6486
:101C0000FFF736FE07F1100207F1040310461946EC
:101C1000FFF736FA0346002B2CD1F86800F010F9D4
:101C20000346002B20D0FB681B68002B08D1FFF770
:101C300009FEFB685B681846FFF70EFCFFF718FE0D
:101C4000FB6803F124027B6810461946FFF762F92E
:101C5000F86800F0A5F8FEF76FFF0346002B7FF44D
:101C60005CAFFFF7E3FD59E7F86800F099F8FEF77D
:101C700063FF53E7F86800F093F8FEF75DFF4FF05D
:101C80000003184607F12007BD4680BD80B584B02B
:101C900000AFF860B9607A60FB681B6C002B0DD157
:101CA000FB681B68002B48D1FB685B681846FFF790
:101CB0003FFCFB684FF000025A603EE07B68002B5F
:101CC0001AD1FB689A68FB681B6C1046B9681A4603
:101CD00000F092FCFB689A68FB681B6CD218FB68EA
:101CE0009A60FB689A68FB685B689A4225D3FB6838
:101CF0001A68FB689A6020E0FB68DA68FB681B6C76
:101D00001046B9681A4600F077FCFB68DA68FB6891
:101D10001B6CC3F10003D218FB68DA60FB68DA6859
:101D2000FB681B689A4208D2FB685A68FB681B6C08
:101D3000C3F10003D218FB68DA60FB689B6B03F108
:101D40000102FB689A6307F11007BD4680BD00BF22
:101D500080B582B000AF786039607B681B68002B6B
:101D600019D07B68DA687B681B6CD2187B68DA60F4
:101D70007B68DA687B685B689A4203D37B681A6881
:101D80007B68DA607B68DA687B681B6C38681146B0
:101D90001A4600F031FC07F10807BD4680BD00BFC0
:101DA00080B582B000AF7860FFF74CFD14E07B682F
:101DB0005B6A002B15D07B6803F124031846FFF7FC
:101DC000E5F80346002B01D0FFF7ACF97B689B6C6C
:101DD00003F1FF327B689A647B689B6C002BE6DC26
:101DE00000E000BF7B684FF0FF329A64FFF740FDD0
:101DF000FFF728FD14E07B681B69002B15D07B687A
:101E000003F110031846FFF7C1F80346002B01D079
:101E1000FFF788F97B685B6C03F1FF327B685A64DB
:101E20007B685B6C002BE6DC00E000BF7B684FF05A
:101E3000FF325A64FFF71CFD07F10807BD4680BD5D
:101E400080B584B000AF7860FFF7FCFC7B689B6BCB
:101E5000002B14BF00230123FB60FFF709FDFB6883
:101E6000184607F11007BD4680BD00BF80B584B09D
:101E700000AF7860FFF7E6FC7B689B6B1A467B68D7
:101E8000DB6B9A4214BF00230123FB60FFF7F0FCD9
:101E9000FB68184607F11007BD4680BD80B485B0C9
:101EA00000AF786039604FF00003FB607B681B680F
:101EB000FB60FB6823F4FE4323F0F003FB603B6808
:101EC0009A683B681B6A1A433B681B691A433B6864
:101ED0005B691A433B689B691A433B68DB691A4399
:101EE0003B685B6A1A433B689B6A42EA0303FA68F1
:101EF00042EA0303FB607B68FA681A603B68DA68B1
:101F00007B685A603B681A687B689A603B685A68CD
:101F10007B68DA6007F11407BD4680BC704700BFDC
:101F200080B483B000AF78607B684FF000021A6025
:101F30007B684FF000025A607B684FF000029A60A5
:101F40007B684FF00002DA607B684FF000021A6194
:101F50007B684FF000025A617B684FF000029A6183
:101F60007B684FF00002DA617B684FF000021A6272
:101F70007B684FF000025A627B684FF000029A6261
:101F800007F10C07BD4680BC704700BF80B483B02A
:101F900000AF78600B46FB70FB78002B06D07B68A7
:101FA0001B6843F001027B681A6008E07B681B68CD
:101FB0001A464FF6FE7302EA03037A68136007F1CC
:101FC0000C07BD4680BC704780B485B000AF786018
:101FD0004FF00003FB734FF00003BB607B6803F01E
:101FE0008053002B06D04FF48063C4F202031B68B9
:101FF000BB6005E04FF00003C4F202031B68BB6046
:10200000BA687B6802EA0303002B03D04FF0010398
:10201000FB7302E04FF00003FB73FB7B184607F1F4
:102020001407BD4680BC704780B483B000AF7860B1
:102030007B6803F08053002B06D04FF48063C4F21A
:1020400002037A685A6005E04FF00003C4F202030D
:102050007A685A6007F10C07BD4680BC704700BF24
:1020600080B586B004AF4FF00003FB7142F68C03DD
:10207000C0F600034FF0010200924FF000020192FF
:102080004FF0000202924FF00002039242F2E92068
:10209000C0F6000019464FF040024FF00003FEF773
:1020A0009BFB4FF00100FFF74DFC024640F6C46376
:1020B000C2F200031A60FB79184607F10807BD4613
:1020C00080BD00BF80B592B000AF41F214004FF068
:1020D0000101FEF753FB4FF0A003A7F844304FF087
:1020E000030387F846304FF0180387F8473007F1AD
:1020F00044034FF40060C4F201001946FEF75EF994
:102100004FF01003A7F844304FF0100387F8473022
:102110004FF0030387F8463007F144034FF40060A3
:10212000C4F201001946FEF749F94FF000033B865F
:102130004FF482737B864FF40063BB864FF000033D
:10214000FB864FF000033B874FF400737B874FF013
:102150000003BB874FF00003FB8707F130034FF408
:102160004050C4F20100194600F03EF94FF44050CF
:10217000C4F201004FF0000100F0C8F94FF44050E4
:10218000C4F201004FF0010100F07AF94FF4006051
:10219000C4F201004FF010014FF00002FEF7EEF91B
:1021A0004FF001004FF00101FEF7BAFA07F1040306
:1021B0001846FFF7B5FE43F20C03C4F201037B603F
:1021C0004FF01003FB604FF000037B614FF0800382
:1021D000BB614FF48073FB614FF480633B624FF04F
:1021E00000037B624FF00003BB624FF000037B6291
:1021F0004FF00003FB6207F104034FF03000C4F21C
:1022000002001946FFF74AFE4FF40070FFF70CFF7B
:1022100007F104031846FFF783FE43F20C03C4F2F0
:1022200001037B604FF00003FB604FF000037B6114
:102230004FF08003BB614FF48073FB614FF4806308
:102240003B624FF000037B624FF00003BB624FF034
:1022500000037B624FF00003FB6207F104034FF0C1
:102260001C00C4F202001946FFF718FE4FF02000D0
:10227000FFF7DAFE4FF44050C4F201004FF00201C4
:102280004FF0010200F01CF94FF44050C4F201007D
:102290004FF001014FF0010200F012F907F1480779
:1022A000BD4680BD80B582B000AF78600B467B80B4
:1022B0004FF03003C4F202037A68DA604FF0300363
:1022C000C4F202037A885A604FF40070FFF7ACFE44
:1022D0004FF03000C4F202004FF00101FFF756FE4C
:1022E00007F10807BD4680BD80B584B000AF7860B7
:1022F0004FF00003FB734FF00003FB7369E04FF4F2
:102300000060C4F201004FF010014FF00002FEF730
:1023100035F940F6C463C2F200031B6818464FF05B
:1023200000014FF0FF324FF00003FFF7EBFB0346D5
:10233000012B36D12B4AFB7B4FEA4303D3181846B7
:102340004FF00101FFF7AEFF01E0FFF76FFA4FF426
:102350000070FFF739FE0346002BF6D04FF0300037
:10236000C4F202004FF00001FFF710FE01E0FFF79A
:102370005DFA4FF44053C4F201031B899BB203F092
:102380008003002BF3D140F6C463C2F200031B6844
:1023900018464FF000014FF000024FF00003FFF726
:1023A0001FFB4FF40060C4F201004FF010014FF02A
:1023B0000102FEF7E3F84FF40060C4F201004FF0B1
:1023C00010014FF00002FEF7D9F8FB7B03F1010387
:1023D000FB73FB7B0C2B92D94FF03200FEF732FBE4
:1023E00089E700BF120D002080B485B000AF78608F
:1023F00039604FF00003FB817B681B88FB81FB8900
:1024000003F44153FB813B681A883B685B8842EACE
:1024100003039AB23B689B8842EA03039AB23B6883
:10242000DB8842EA03039AB23B681B8942EA030352
:102430009AB23B685B8942EA03039AB23B689B8984
:1024400042EA03039AB23B68DB8942EA03039AB289
:10245000FB8942EA0303FB817B68FA891A807B6867
:102460009B8B9BB223F400639AB27B689A833B6890
:102470001A8A7B681A8207F11407BD4680BC704730
:1024800080B483B000AF78600B46FB70FB78002B04
:1024900008D07B681B889BB243F040039AB27B68EC
:1024A0001A8007E07B681B889BB223F040039AB236
:1024B0007B681A8007F10C07BD4680BC704700BFDF
:1024C00080B483B000AF786013460A467A807B7090
:1024D0007B78002B09D07B689B889AB27B8842EA84
:1024E00003039AB27B689A800BE07B689B889AB260
:1024F0007B886FEA03039BB202EA03039AB27B680C
:102500009A8007F10C07BD4680BC704780B483B049
:1025100000AF78600B46FB70FB78002B08D07B681F
:102520001B889BB243F400539AB27B681A8007E081
:102530007B681B889BB223F400539AB27B681A8095
:1025400007F10C07BD4680BC704700BF80B584B062
:1025500000AF78604FF00003FB607B6803F0070377
:10256000002B05D07B6823F0070303F108037B6091
:10257000FEF7D0FA40F60853C2F200031A687B68EF
:10258000D21840F6FF339A4224D840F60853C2F2DC
:1025900000031A687B68D21840F60853C2F20003A1
:1025A0001B689A4216D940F60853C2F200031A6813
:1025B00040F20813C2F20003D318FB6040F6085340
:1025C000C2F200031A687B68D21840F60853C2F2C0
:1025D00000031A60FEF7B0FAFB68184607F110070F
:1025E000BD4680BD80B483B000AF786007F10C07B2
:1025F000BD4680BC704700BF032A2DE9F00109D811
:102600002AB10023CC5CC45401339342FAD1BDE813
:10261000F00170470B468218014603E0247801332D
:1026200001F8014B11F0030F1C46F7D113F003051D
:102630005DD06E42C5F1040CED009B594FEACC0C05
:1026400008E00434A7593B4607FA0CF748EA0707A5
:1026500041F8047B571A23FA05F8032FF1DC03E055
:1026600014F8013B01F8013B8A42F9D8CFE753F84F
:10267000404C41F8404C53F83C4C41F83C4C53F82A
:10268000384C41F8384C53F8344C41F8344C53F83A
:10269000304C41F8304C53F82C4C41F82C4C53F84A
:1026A000284C41F8284C53F8244C41F8244C53F85A
:1026B000204C41F8204C53F81C4C41F81C4C53F86A
:1026C000184C41F8184C53F8144C41F8144C53F87A
:1026D000104C41F8104C53F80C4C41F80C4C53F88A
:1026E000084C41F8084C53F8044C41F8044C561A75
:1026F0001D460C46403340313F2EB8DC2B460FE0E0
:1027000053F8101C44F8101C53F80C1C44F80C1C13
:1027100053F8081C44F8081C53F8041C44F8041C23
:10272000161B1D4610330F2E214604F11004E7DC62
:102730002B4602E0246841F8044B551A1C46032D31
:1027400003F10403F6DC8FE7032AC9B270B408D89A
:102750002AB10346121803F8011B9342FBD170BC47
:1027600070478218044601E004F8011B14F0030FBF
:10277000FAD14FF0013303FB01F31FE044F8403C72
:1027800044F83C3C44F8383C44F8343C44F8303C91
:1027900044F82C3C44F8283C44F8243C44F8203CC1
:1027A00044F81C3C44F8183C44F8143C44F8103CF1
:1027B00044F80C3C44F8083C44F8043C161B2546FD
:1027C00040343F2EDADC2C4607E044F8103C44F855
:1027D0000C3C44F8083C44F8043C161B25461034D5
:1027E0000F2EF2DC01E045F8043B541B032CFADC0D
:1027F00001E005F8011B9542FBD3B0E741EA000375
:1028000013F0030F034670B414BF00250125032AFB
:1028100094BF002505F001050C460646CDB9B2B1BE
:102820000D783446531E04F8015B55B1B21C73B1E8
:1028300011F8015F1446013B02F8015C0132002DE2
:10284000F5D123B10022013B04F8012BFBD170BC70
:102850007047214654F8045BA5F1013626EA0506C7
:1028600016F0803F05D1043A43F8045B032A214661
:10287000EFD81E46D3E700BF494E49540000000080
:10288000FFFFD20449444C45000000005350495F0B
:08289000315F5441534B00007D
:08289800FFFFFFFFAAAAAAAA94
:0400000508000000EF
:00000001FF
