:020000040800F2
:10000000A8170020250100089101000891010008AF
:100010009101000891010008910100080000000012
:10002000000000000000000000000000D93E0008B1
:100030009101000800000000DD3F000819400008A1
:100040009101000891010008910100089101000848
:100050009101000891010008910100089101000838
:100060009101000891010008910100089101000828
:100070009101000891010008910100089101000818
:1000800091010008910100088D07000800000000A0
:1000900000000000000000000000000091010008C6
:1000A00091010008910100089101000891010008E8
:1000B00091010008910100089101000891010008D8
:1000C00091010008910100089101000891010008C8
:1000D00091010008910100089101000891010008B8
:1000E0009101000891010008910100080000000042
:1000F0000000000000000000000000000000000000
:1001000000000000000000000000000000000000EF
:1001100000000000000000009101000891010008AB
:100120005FF808F180B582B000AF46F27C03C0F6FC
:1001300000037B6040F20003C2F200033B600BE06F
:100140007B681A683B681A603B6803F104033B60F4
:100150007B6803F104037B603A6840F20C03C2F24F
:1001600000039A42ECD3084808494FF00002884245
:10017000B8BF40F8042BFADB00F00EF800F0F0FFF7
:1001800007F10807BD4680BD10000020A81300201D
:1001900080B400AFFEE700BF80B500AF4FF48053DE
:1001A000C4F202034FF48052C4F20202126842F019
:1001B00001021A604FF48052C4F202024FF48053DD
:1001C000C4F202035B6819464FF00003CFF6FF0349
:1001D00001EA030353604FF48053C4F202034FF467
:1001E0008052C4F20202126822F0847222F4803239
:1001F0001A604FF48053C4F202034FF48052C4F2E9
:100200000202126822F480221A604FF48053C4F272
:1002100002034FF48052C4F20202526822F4FE023A
:100220005A604FF48053C4F202034FF41F029A60E5
:100230004FF48053C4F202034FF00002DA6200F080
:1002400009F84FF46D43CEF200034FF000629A605C
:1002500080BD00BF80B500AF00F002F880BD00BFD8
:1002600080B483B000AF4FF000037B604FF0000319
:100270003B604FF48053C4F202034FF48052C4F247
:100280000202126842F480321A604FF48053C4F2C2
:1002900002031B6803F400333B607B6803F1010336
:1002A0007B603B68002B03D17B68B3F5A06FECD17A
:1002B0004FF48053C4F202031B6803F40033002B95
:1002C00003D04FF001033B6002E04FF000033B60BE
:1002D0003B68012B6DD14FF48053C4F202034FF4FD
:1002E0008052C4F2020252685A604FF48053C4F242
:1002F00002034FF48052C4F2020252685A604FF473
:100300008053C4F202034FF48052C4F202025268D6
:100310005A604FF48053C4F202034FF48052C4F287
:100320000202526822F47C125A604FF48053C4F2E5
:1003300002034FF48052C4F20202526842F498124F
:100340005A604FF48053C4F202034FF48052C4F257
:100350000202126842F080721A6000BF4FF48053AC
:10036000C4F202031B6803F00073002BF6D04FF4B5
:100370008053C4F202034FF48052C4F20202526866
:1003800022F003025A604FF48053C4F202034FF488
:100390008052C4F20202526842F002025A6000BF68
:1003A0004FF48053C4F202035B6803F00C03082B84
:1003B000F6D107F10C07BD4680BC704780B489B008
:1003C00000AF786039604FF00003FB614FF000032D
:1003D0003B614FF00003BB614FF00003FB604FF047
:1003E00000037B614FF00003BB603B68DB7803F0E8
:1003F0000F03FB613B68DB7803F01003002B05D093
:100400003B689B78FA6942EA0303FB613B681B88FF
:1004100003F0FF03002B51D07B681B687B614FF01A
:100420000003BB6144E0BB694FF0010202FA03F331
:10043000FB603B681B881A46FB6802EA03033B61CA
:100440003A69FB689A422FD1BB694FEA8303FB608C
:10045000FB684FF00F0202FA03F3BB60BB686FEA60
:1004600003037A6902EA03037B61FB68FA6902FA13
:1004700003F37A6942EA03037B613B68DB78282B4C
:1004800007D1BB694FF0010202FA03F27B685A619F
:100490000AE03B68DB78482B06D1BB694FF00102CC
:1004A00002FA03F27B681A61BB6903F10103BB61C5
:1004B000BB69072BB7D97B687A691A603B681B88D0
:1004C000FF2B56D97B685B687B614FF00003BB61F3
:1004D00049E0BB6903F108034FF0010202FA03F39C
:1004E000FB603B681B881A46FB6802EA03033B611A
:1004F0003A69FB689A4232D1BB694FEA8303FB60D9
:10050000FB684FF00F0202FA03F3BB60BB686FEAAF
:1005100003037A6902EA03037B61FB68FA6902FA62
:1005200003F37A6942EA03037B613B68DB78282B9B
:1005300008D1BB6903F108034FF0010202FA03F28C
:100540007B685A613B68DB78482B08D1BB6903F1B3
:1005500008034FF0010202FA03F27B681A61BB69DB
:1005600003F10103BB61BB69072BB2D97B687A69D0
:100570005A6007F12407BD4680BC704780B485B03F
:1005800000AF78600B467B804FF00003FB737B6805
:100590009B681A467B8802EA0303002B03D04FF0C6
:1005A0000103FB7302E04FF00003FB73FB7B184673
:1005B00007F11407BD4680BC704700BF80B483B00C
:1005C00000AF786013460A467A807B707B78002BF8
:1005D00003D07A887B681A6102E07A887B685A6166
:1005E00007F10C07BD4680BC704700BF80B58CB0DA
:1005F00004AF4FF012033B724FF000037B724FF0D9
:100600000003BB724FF00103FB7207F108031846A9
:1006100004F048FB4FF400704FF0010101F062F963
:100620004FF004004FF0010101F05CF94FF00103BD
:10063000BB804FF00003FB714FF00303BB7107F168
:1006400004034FF40060C4F201001946FFF7B6FE40
:100650004FF00003FB604FF001033B744FF00003C9
:100660007B744FF460237B614FF00003BB614FF05C
:1006700000033B7707F10C034FF41050C4F2010064
:10068000194602F0B7F84FF41050C4F201004FF0D1
:10069000010102F0A5FA4FF41050C4F201004FF02E
:1006A00000014FF001024FF0070302F0F1F94FF49F
:1006B0001050C4F201004FF4E04102F0B1F94FF4E0
:1006C0001050C4F201004FF0010102F08DF94FF417
:1006D0001050C4F201004FF0010102F0EBF84FF4AA
:1006E0001050C4F2010002F027F900BF4FF410507F
:1006F000C4F2010002F030F90346002BF6D14FF4AA
:100700001050C4F201004FF490614FF0010202F06A
:10071000EDF84FF41050C4F2010002F039F900BFB7
:100720004FF41050C4F2010002F042F90346002BCE
:10073000F6D14FF001004FF002014FF0000203F03C
:100740009BFC024641F27413C2F200031A6045F6A4
:100750006453C0F600034FF0010200924FF0000214
:1007600001924FF0000202924FF00002039240F219
:10077000F970C0F6000019464FF080024FF00003F8
:1007800001F044F907F12007BD4680BD80B500AFF8
:100790004FF41050C4F201004FF4906102F060FA7F
:1007A0000346002B26D04FF41050C4F201004FF442
:1007B000906102F08BFA4FF41050C4F201004FF038
:1007C000140102F033FA03461A4641F27013C2F2E2
:1007D00000031A8041F27413C2F200031B6818462A
:1007E00041F27011C2F200014FF000024FF000031D
:1007F00003F08CFD184680BD80B584B000AF7860F2
:100800004FF0050001F038FA4FF41050C4F2010027
:100810004FF0010102F020F901E003F0A1FB41F2E9
:100820007413C2F200031B68184603F07BFE0346F4
:10083000002BF2D041F27413C2F200031A6840F2A6
:100840001003C2F200031B784FEA430140F2140385
:10085000C2F20003CB18104619464FF000024FF0C9
:10086000000303F09BFD40F21003C2F200031B786B
:1008700003F10103DBB203F01F03DAB240F210030D
:10088000C2F200031A7040F25403C2F200034FF0A8
:1008900000021A604FF00003FB7316E0FA7B40F28F
:1008A0001403C2F2000333F812301A4640F2540324
:1008B000C2F200031B68D21840F25403C2F20003D4
:1008C0001A60FB7B03F10103FB73FB7B1F2BE5D954
:1008D00040F25403C2F200031B684FEA531241F284
:1008E0006433C2F200039A6041F27013C2F2000353
:1008F0001B884FF00000194600F076F803F030FB3B
:100900007EE700BF80B485B000AF786039604FF0FB
:100910000003FB604FF00003BB604FF4E843C4F2F8
:1009200000031B68FB607B6840F6FE7202FA03F36B
:100930006FEA0303FA6802EA0303FB603B681A6884
:100940003B685B681A433B689B681A433B68DB68FB
:1009500042EA0303BB607B68BA6802FA03F3FA68F1
:1009600042EA0303FB604FF4E843C4F20003FA6871
:100970001A6007F11407BD4680BC704780B483B08D
:1009800000AF78600B46FB70FB78002B12D04FF461
:10099000E843C4F200034FF4E842C4F200021268D4
:1009A00011467A684FF0010000FA02F241EA0202B1
:1009B0001A6013E04FF4E843C4F200034FF4E84236
:1009C000C4F20002126811467A684FF0010000FA82
:1009D00002F26FEA020201EA02021A6007F10C0752
:1009E000BD4680BC704700BF80B485B000AF786062
:1009F0000B467B804FF00003FB604FF4E843C4F2EA
:100A00000003FB60FA687B68D31803F10803FB60FE
:100A1000FB687A881A6007F11407BD4680BC7047EE
:100A200080B588B000AFF860B9603B601346FB71D9
:100A300007F11002FB79B86811461A464FF02003FF
:100A400002F05EF90346012B26D041F2A433C2F234
:100A500000031B6818464FF000014FF0FF324FF0C3
:100A6000000303F09BFC0346012B17D107F1100391
:100A7000F86819463A6800F017F841F2A433C2F258
:100A800000031B6818464FF000014FF000024FF0C2
:100A9000000303F0A9FB02E000BF00E000BF07F184
:100AA0002007BD4680BD00BFF0B58BB000AFF86039
:100AB000B9607A604FF0000387F827304FF00003E9
:100AC00087F826304FF0000387F825304FF00003F9
:100AD00087F8243007F114034FF000021A6003F185
:100AE00004034FF000021A6003F104034FF0000208
:100AF0001A6003F104034FF000021A6003F10403CB
:100B0000B86805F0C1F8034687F824304FF00003B9
:100B100087F8273022E097F827307A68D3181B78B7
:100B2000202B09D197F8273007F12801CB184FF077
:100B3000200203F8142C0BE097F8273097F82720B1
:100B4000B9688A18127807F12801CB1803F8142C19
:100B500097F8273003F1010387F8273097F827200B
:100B600097F824309A42D6D3FB685B881946FB6815
:100B70001B881C46FB68D88941F27812C2F2000239
:100B80000B464FEAC3035B1A4FEA43031B194FEAB4
:100B90004303D31802465A80FB685B881946FB68FA
:100BA0001B881C46FB68188A41F27812C2F20002C8
:100BB0000B464FEAC3035B1A4FEA43031B1903F1C9
:100BC00001034FEA4303D31802465A80FB685B884F
:100BD0001946FB681B881C46FB68988941F278120D
:100BE000C2F200020B464FEAC3035B1A4FEA43030B
:100BF0001B1903F102034FEA4303D31802465A803C
:100C0000FB685B881946FB681B881C46FB681889D3
:100C100041F27812C2F200020B464FEAC3035B1A9C
:100C20004FEA43031B1903F103034FEA4303D318AD
:100C300002465A80FB685B881946FB681B881C4685
:100C4000FB68588941F27812C2F200020B464FEA63
:100C5000C3035B1A4FEA43031B1903F104034FEA72
:100C60004303D31802465A80FB685B881946FB6829
:100C70001B88184641F27812C2F200020B464FEA76
:100C8000C3035B1A4FEA43031B1803F105034FEA42
:100C90004303D3184FF480725A80FB685B8819466F
:100CA000FB681B88184641F27812C2F200020B461C
:100CB0004FEAC3035B1A4FEA43031B1803F1060311
:100CC0004FEA4303D3184FF400725A80FB685B88E5
:100CD0001946FB681B88184641F27812C2F20002DE
:100CE0000B464FEAC3035B1A4FEA43031B1803F199
:100CF00007034FEA4303D3184FF440725A80FB684E
:100D00005B881946FB681B88184641F27812C2F2CC
:100D100000020B464FEAC3035B1A4FEA43031B185A
:100D200003F108034FEA4303D3184FF480625A805B
:100D3000FB685B881946FB681B88184641F27812ED
:100D4000C2F200020B464FEAC3035B1A4FEA4303A9
:100D50001B1803F109034FEA4303D3184FF4A062B1
:100D60005A80FB685B881946FB681B88184641F26D
:100D70007812C2F200020B464FEAC3035B1A4FEA35
:100D800043031B1803F10A034FEA4303D3184FF43C
:100D9000C0625A80FB685B881946FB681B8818464E
:100DA00041F27812C2F200020B464FEAC3035B1A0B
:100DB0004FEA43031B1803F10B034FEA4303D31815
:100DC0004FF4E0625A80FB685B881946FB681B8819
:100DD000184641F27812C2F200020B464FEAC303F2
:100DE0005B1A4FEA43031B1803F10C034FEA43035A
:100DF000D3184FF400625A8097F8253003F10503A9
:100E000087F825304FF0000387F827307FE197F807
:100E1000273007F12802D31813F8143C2F2B45D99B
:100E200097F8273007F12801CB1813F8143C392B19
:100E30003CD8FB685B88194697F82550FB681B88EF
:100E40001C4697F8273007F12802D31813F8143CF2
:100E5000A3F1300245F67453C0F600039B18DB7F04
:100E60001A4697F82530A3F104039BB24FEA0323F7
:100E70009BB29BB242EA03039BB298B241F2781252
:100E8000C2F200020B464FEAC3035B1A4FEA430368
:100E90005B191B194FEA4303D31802465A8097F88F
:100EA000253003F1010387F825302AE197F8273030
:100EB00007F12801CB1813F8143C2E2B40F0C28008
:100EC00097F82730002B39D1FB685B88194697F8D3
:100ED0002550FB681B881C46FB685B88184697F802
:100EE00025C0FB681B881E4641F27812C2F2000240
:100EF00003464FEAC3031B1A4FEA430363449B199B
:100F00004FEA4303D3185B8843F0800398B241F261
:100F10007812C2F200020B464FEAC3035B1A4FEA93
:100F200043035B191B194FEA4303D31802465A8047
:100F300097F8253003F1010387F8253097F827301B
:100F4000002B00F0DD8097F8273003F1FF3307F125
:100F50002802D31813F8143C2E2B3AD1FB685B8877
:100F6000194697F82550FB681B881C46FB685B8870
:100F7000184697F825C0FB681B881E4641F2781278
:100F8000C2F2000203464FEAC3031B1A4FEA4303AF
:100F900063449B194FEA4303D3185B8843F08003F3
:100FA00098B241F27812C2F200020B464FEAC30334
:100FB0005B1A4FEA43035B191B194FEA4303D3182B
:100FC00002465A8097F8253003F1010387F825304F
:100FD00097E0FB685B88194697F8253003F1FF35E9
:100FE000FB681B881C46FB685B88184697F8253011
:100FF00003F1FF3CFB681B881E4641F27812C2F2E7
:10100000000203464FEAC3031B1A4FEA430363443B
:101010009B194FEA4303D3185B8843F0800398B2CF
:1010200041F27812C2F200020B464FEAC3035B1A88
:101030004FEA43035B191B194FEA4303D3180246D7
:101040005A805EE04FF00A0387F826304BE097F8AD
:10105000273007F12801CB1813F8142C97F8261025
:1010600045F67453C0F600035B5C9A4235D1FB68C9
:101070005B88194697F82550FB681B881C4697F833
:10108000262045F67453C0F600039B18DB7F1A46F2
:1010900097F82530A3F104039BB24FEA03239BB2D8
:1010A0009BB242EA03039BB298B241F27812C2F2B9
:1010B00000020B464FEAC3035B1A4FEA43035B1976
:1010C0001B194FEA4303D31802465A8097F825307C
:1010D00003F1010387F8253009E097F8263003F182
:1010E000010387F8263097F826301E2BAFD997F8E2
:1010F0002520FB68DB8803F105039A420FDC00E042
:1011000000BF97F8273003F1010387F8273097F8DD
:10111000272097F824309A42FFF479AE00E000BF10
:1011200097F82530184607F12C07BD46F0BD00BFE3
:1011300080B582B000AF786003F022FC00F08AF83E
:1011400000F02CFCFFF752FA02F060F802F074FA9B
:101150004FF0000000F030FD07F10807BD4680BDEC
:1011600080B584B004AFFFF717F845F6B453C0F666
:1011700000034FF0010200924FF0000201924FF085
:10118000000202924FF00002039241F23110C0F6C9
:10119000000019464FF080024FF0000300F036FCCB
:1011A00000F098FDFEE700BF80B400AF41F2781375
:1011B000C2F200034FF001021A7041F27813C2F23A
:1011C00000034FF00002DA8341F27813C2F2000309
:1011D0004FF000029A8341F27813C2F200034FF0FD
:1011E00001021A8441F27813C2F200034FF00402A4
:1011F0005A8441F27813C2F2000340F609229A841D
:1012000041F27813C2F200034FF41062DA8441F223
:101210007813C2F200035B8C03F1FF339BB29BB2E5
:1012200043F430639BB29AB241F27813C2F20003E6
:101230001A8541F27813C2F2000340F601425A8542
:1012400041F27813C2F200034FF470629A85BD46F2
:1012500080BC704780B582B000AF4FF00003FB71D7
:10126000FFF7A2FF03F05AFBFB79184607F10807C6
:10127000BD4680BD80B483B000AF78600B46FB7084
:101280007B68FA781A704FF00103184607F10C07D3
:10129000BD4680BC704700BF80B485B000AF7860A9
:1012A00039604FF00003FB600FE03B681A787B6801
:1012B0001A707B6803F101037B603B6803F1010353
:1012C0003B60FB6803F10103FB603B681B78002B6C
:1012D000EBD1FB68184607F11407BD4680BC704788
:1012E00080B586B000AFF8607A603B600B46FB7259
:1012F0004FF000037B617B6803F1FF337B603B6849
:10130000092B25D93A684CF6CD43CCF6CC43A3FB48
:1013100002134FEAD303FA7AF86811467A68FFF7A6
:10132000DFFF78617B69FA68D318FB6013E0FB7A12
:10133000F8681946FFF79EFFFB6803F10103FB60A5
:101340007B6903F101037B617B6803F1FF337B6001
:101350007B68002BEBDC39684CF6CD43CCF6CC43F4
:10136000A3FB01234FEAD30213464FEA83039B18E2
:101370004FEA4303CA1AD3B203F13003DBB2F86871
:101380001946FFF777FF03467A69D3187B617B69BB
:10139000184607F11807BD4680BD00BF80B586B06E
:1013A00000AFF8607A603B600B46FB724FF00003C1
:1013B0007B613B68002B04DA3B68C3F100033B61AF
:1013C00001E03B683B617B6803F1FF337B603B6975
:1013D000092B2AD93B68002B12DA3A694CF6CD4327
:1013E000CCF6CC43A3FB02134FEAD303C3F10003B3
:1013F000FA7AF86811467A68FFF7D0FF78610FE053
:101400003A694CF6CD43CCF6CC43A3FB02134FEA2A
:10141000D303FA7AF86811467A68FFF7BFFF78615C
:101420007B69FA68D318FB602BE03B68002B15DA68
:101430007B6803F1FF337B6010E0FB7AF8681946A4
:10144000FFF718FFFB6803F10103FB607B6903F101
:1014500001037B617B6803F1FF337B607B68002BBA
:10146000EBDC3B68002B0CDAF8684FF02D01FFF73E
:1014700001FF03467A69D3187B61FB6803F101031E
:10148000FB6039694CF6CD43CCF6CC43A3FB01237A
:101490004FEAD30213464FEA83039B184FEA4303F4
:1014A000CA1AD3B203F13003DBB2F8681946FFF76A
:1014B000E1FE03467A69D3187B617B69184607F120
:1014C0001807BD4680BD00BF80B588B002AFF86088
:1014D0007A600A46FA72FB704FF000037B617B680A
:1014E00003F1FF337B603B6A4FEA1313002B24D0D8
:1014F0003B6A4FEA1311FA7AFB780091F8681146BB
:101500007A68FFF7E1FF03467A69D3187B617B694C
:10151000FA68D318FB6013E0FB7AF8681946FFF706
:10152000A9FEFB6803F10103FB607B6903F1010382
:101530007B617B6803F1FF337B607B68002BEBDC16
:101540003B6A03F00F03092B0CD83B6ADBB203F0B4
:101550000F03DBB203F13003DBB2F8681946FFF783
:1015600089FE1BE0FB78002B0CD03B6ADBB203F05A
:101570000F03DBB203F13703DBB2F8681946FFF75C
:1015800079FE0BE03B6ADBB203F00F03DBB203F141
:101590005703DBB2F8681946FFF76CFE7B6903F16D
:1015A00001037B617B69184607F11807BD4680BDC2
:1015B00080B58AB002AFF860B9607A603B604FF0E6
:1015C0000003BB614FF000037B61FB68002B00F060
:1015D0001C81FB684FF000021A7017E17B681B78D2
:1015E000252B10D07B681A78FB681A70FB6803F112
:1015F0000103FB607B6803F101037B607B6903F1FE
:1016000001037B6102E17B6803F101031B78252B59
:1016100010D1FB684FF025021A70FB6803F101033B
:10162000FB607B6803F102037B607B6903F10103CC
:101630007B61EBE04FF02003FB774FF00003BB77BB
:101640007B6803F101037B607B681B78302B1BD127
:101650004FF03003FB777B6803F101037B6014E0FC
:10166000BB7F1A464FEA8202D3184FEA4303DAB22D
:101670007B681B78D318DBB2A3F13003BB777B68A0
:1016800003F101037B6000E000BF7B681B782F2B18
:1016900003D97B681B78392BE2D9BA7F7B69D318D1
:1016A0001A46BB689A4205D9BB68DAB27B69DBB2DD
:1016B000D31ABB777B681B78A3F15803202B00F269
:1016C000948001A252F823F09D170008EB17000840
:1016D000EB170008EB170008EB170008EB170008E2
:1016E000EB170008EB170008EB170008EB170008D2
:1016F000EB170008D31700084D170008EB17000878
:10170000EB170008EB170008EB1700084D1700084F
:10171000EB170008EB170008EB170008EB170008A1
:10172000EB170008EB170008EB170008EB17000891
:10173000EB170008BD170008EB1700086517000835
:10174000EB170008EB1700087D170008BA7F3B680D
:1017500003F1040139601B68F97FF868FFF71EFE8A
:10176000B86145E0BA7F3B6803F1040139601B684A
:10177000F97FF868FFF7B4FDB86139E0BA7F3B68DC
:1017800003F1040139601968FB7F0091F86819467C
:101790004FF00003FFF798FEB86129E0BA7F3B687D
:1017A00003F1040139601968FB7F0091F86819465C
:1017B0004FF00103FFF788FEB86119E03B6803F1C1
:1017C00004023A601B68F8681946FFF765FDB861C6
:1017D0000EE03B6803F104023A601B68DBB2F86874
:1017E0001946FFF747FDB86102E04FF0FF332CE0E8
:1017F0007B6803F101037B60BB69FA68D318FB6067
:101800007A69BB69D3187B6100E000BF7B681B78F5
:10181000002B04D07A69BB689A42FFF4DFAE7A6984
:10182000BB689A4204D2FB684FF000021A700BE0CA
:10183000FB6803F1FF33FB60FB684FF000021A7096
:101840007B6903F1FF337B617B69184607F1200751
:10185000BD4680BD0CB480B584B000AF78603960FF
:1018600007F11C03BB6078683968BA69BB68FFF789
:101870009FFEF860FB68184607F11007BD46BDE8FB
:10188000804002B0704700BF80B483B000AF786082
:101890000B46FB70FB78002B0ED04FF48053C4F244
:1018A00002034FF48052C4F20202526911467A6870
:1018B00041EA02025A610FE04FF48053C4F202037E
:1018C0004FF48052C4F20202526911467A686FEAFC
:1018D000020201EA02025A6107F10C07BD4680BC10
:1018E000704700BF80B483B000AF78600B46FB70D8
:1018F000FB78002B0ED04FF48053C4F202034FF458
:101900008052C4F20202926911467A6841EA0202E8
:101910009A610FE04FF48053C4F202034FF48052F7
:10192000C4F20202926911467A686FEA020201EA81
:1019300002029A6107F10C07BD4680BC704700BFE8
:1019400080B483B000AF78600B46FB70FB78002B4F
:101950000ED04FF48053C4F202034FF48052C4F20D
:101960000202D26911467A6841EA0202DA610FE0A6
:101970004FF48053C4F202034FF48052C4F20202C7
:10198000D26911467A686FEA020201EA0202DA615C
:1019900007F10C07BD4680BC704700BF80B586B01C
:1019A00000AF4FF004004FF00101FFF79BFF4FF035
:1019B00000504FF00101FFF7C3FF4FF01003BB8051
:1019C0004FF00003FB7107F104034FF40060C4F211
:1019D00001001946FEF7F2FC4FF00003BB604FF028
:1019E0000003FB604FF000037B6107F108034FF039
:1019F00000001946FEF786FF4FF000004FF001018E
:101A0000FEF7BCFF07F11807BD4680BD80B58AB060
:101A100002AFF860B9603B601346FB80FB88184654
:101A2000396B00F0D9FDB861BB69002B00F0A680CE
:101A3000BB691A6BFB8803F1FF334FEA8303D318AA
:101A40007B617B6923F007037B61FB880093B869A6
:101A5000B968BA6A7B6B00F09DFC7869F9683A68EE
:101A600002F00AFA03461A46BB691A60FB6A002BA9
:101A700002D0FB6ABA691A6002F07EFA40F23013B3
:101A8000C2F200031B6803F1010240F23013C2F2FC
:101A900000031A6040F25803C2F200031B68002BD7
:101AA0000FD140F25803C2F20003BA691A6040F243
:101AB0003013C2F200031B68012B18D100F0A8FC00
:101AC00015E040F24013C2F200031B68002B0ED158
:101AD00040F25803C2F200031B68DA6ABB6A9A42FA
:101AE00005D840F25803C2F20003BA691A60BB6914
:101AF000DA6A40F23813C2F200031B689A4206D930
:101B0000BB69DA6A40F23813C2F200031A6040F28D
:101B10005413C2F200031B6803F1010240F2541394
:101B2000C2F200031A60BB69DA6A40F23C13C2F2E7
:101B300000031B689A4206D9BB69DA6A40F23C137B
:101B4000C2F200031A60BB69DA6A13464FEA8303E4
:101B50009B184FEA83031A4640F25C03C2F200036B
:101B6000D218BB6903F104031046194602F0F4F8D9
:101B70004FF00103FB6102F015FA02E04FF0FF3372
:101B8000FB61FB69012B11D140F24013C2F200034B
:101B90001B68002B0AD040F25803C2F200031B68F6
:101BA000DA6ABB6A9A4201D202F0DAF9FB69184696
:101BB00007F12007BD4680BD80B584B000AF7860D6
:101BC00002F0DAF940F25803C2F200031B687A68A7
:101BD0009A4202D14FF000037B607B68002B05D155
:101BE00040F25803C2F200031B6800E07B68FB6010
:101BF000FB6803F10403184602F014F9FB689B6AC2
:101C0000002B05D0FB6803F11803184602F00AF90F
:101C1000FB6803F1040340F20410C2F2000019460D
:101C200002F09AF840F21813C2F200031B6803F1A5
:101C3000010240F21813C2F200031A6040F254137A
:101C4000C2F200031B6803F1010240F25413C2F216
:101C500000031A6002F0A6F940F24013C2F200033A
:101C60001B68002B04D07B68002B01D102F078F9AF
:101C700007F11007BD4680BD80B584B000AF786025
:101C80004FF00003FB607B68002B19D000F05CF87C
:101C900040F23413C2F200031A687B68D318BB60A9
:101CA00040F25803C2F200031B6803F10403184614
:101CB00002F0B8F8B86800F049FC00F057F8F86096
:101CC000FB68002B01D102F04BF907F11007BD466C
:101CD00080BD00BF80B586B004AF45F6BC53C0F6EA
:101CE00000034FF0000200924FF0000201924FF00B
:101CF000000202924FF00002039242F27130C0F6ED
:101D0000000019464FF080024FF00003FFF77EFEFF
:101D100078607B68012B13D14FF0BF0080F31188EE
:101D200040F24013C2F200034FF001021A6040F289
:101D30003413C2F200034FF000021A6002F0E6F81A
:101D400007F10807BD4680BD80B400AF40F24413E0
:101D5000C2F200031B6803F1010240F24413C2F215
:101D600000031A60BD4680BC704700BF90B583B0C9
:101D700000AF4FF000037B6002F0FEF840F2441326
:101D8000C2F200031B6803F1FF3240F24413C2F2B7
:101D900000031A6040F24413C2F200031B68002BD8
:101DA00040F0868040F23013C2F200031B68002B23
:101DB0007ED04FF000033B603DE040F2F003C2F202
:101DC0000003DB68DB681C4604F11803184602F0C8
:101DD00029F804F10403184602F024F8E26A40F2FC
:101DE0003C13C2F200031B689A4205D9E26A40F232
:101DF0003C13C2F200031A60E26A13464FEA8303FF
:101E00009B184FEA83031A4640F25C03C2F20003B8
:101E1000D21804F104031046194601F09DFFE26A4E
:101E200040F25803C2F200031B68DB6A9A4202D3F5
:101E30004FF001033B6040F2F003C2F200031B6865
:101E4000002BBAD140F24813C2F200031B68002BEA
:101E500018D00DE000F034F840F24813C2F200034D
:101E60001B6803F1FF3240F24813C2F200031A600C
:101E700040F24813C2F200031B68002BEAD14FF076
:101E800001033B603B68012B06D040F24C13C2F2C9
:101E900000031B68012B0BD14FF001037B6040F264
:101EA0004C13C2F200034FF000021A6002F058F81F
:101EB00002F078F87B68184607F10C07BD4690BD24
:101EC00080B584B000AF40F24413C2F200031B6837
:101ED000002B40F0C08040F23413C2F200031B68B4
:101EE00003F1010240F23413C2F200031A6040F21F
:101EF0003413C2F200031B68002B40D140F2E80308
:101F0000C2F200031B68FB6040F2EC03C2F2000364
:101F10001A6840F2E803C2F200031A6040F2EC03D0
:101F2000C2F20003FA681A6040F25013C2F20003D2
:101F30001B6803F1010240F25013C2F200031A6061
:101F400040F2E803C2F200031B681B68002B07D1B4
:101F500040F20003C2F200034FF0FF321A600EE0BD
:101F600040F2E803C2F200031B68DB68DB68BB6079
:101F7000BB685A6840F20003C2F200031A6040F2E4
:101F80003413C2F200031A6840F20003C2F20003E5
:101F90001B689A426BD340F2E803C2F200031B684D
:101FA0001B68002B07D140F20003C2F200034FF080
:101FB000FF321A605BE040F2E803C2F200031B68E4
:101FC000DB68DB68BB60BB685B687B6040F2341336
:101FD000C2F200031A687B689A4206D240F20003FC
:101FE000C2F200037A681A6041E0BB6803F104039F
:101FF000184601F017FFBB689B6A002B05D0BB6831
:1020000003F11803184601F00DFFBB68DA6A40F2CD
:102010003C13C2F200031B689A4206D9BB68DA6A15
:1020200040F23C13C2F200031A60BB68DA6A13463E
:102030004FEA83039B184FEA83031A4640F25C037E
:10204000C2F20003D218BB6803F10403104619461C
:1020500001F082FE9FE740F24813C2F200031B68C2
:1020600003F1010240F24813C2F200031A6007F1C3
:102070001007BD4680BD00BF80B483B000AF40F202
:102080004413C2F200031B68002B14D040F24C131F
:10209000C2F200034FF001021A604FE040F23C131D
:1020A000C2F200031B6803F1FF3240F23C13C2F29C
:1020B00000031A6000E000BF40F23C13C2F20003CC
:1020C0001A6813464FEA83039B184FEA83031A46A4
:1020D00040F25C03C2F20003D3181B68002BDDD072
:1020E00040F23C13C2F200031A6813464FEA83031E
:1020F0009B184FEA83031A4640F25C03C2F20003C6
:10210000D3187B607B685B685B681A467B685A60A3
:102110007B685A687B6803F108039A4205D17B68A3
:102120005B685B681A467B685A607B685B68DB6843
:102130001A4640F25803C2F200031A6007F10C0776
:10214000BD4680BC704700BF80B584B000AF7860EA
:10215000396040F25803C2F200031B6803F1180310
:102160007868194601F022FE40F25803C2F20003DB
:102170001B6803F10403184601F054FE3B68B3F1F9
:10218000FF3F0ED140F25803C2F200031B6803F177
:10219000040340F21C10C2F20000194601F0DCFDFD
:1021A0000AE040F23413C2F200031A683B68D31805
:1021B000FB60F86800F0CAF907F11007BD4680BD62
:1021C00080B584B000AF78607B68DB68DB68BB609B
:1021D000BB6803F11803184601F024FE40F24413D3
:1021E000C2F200031B68002B2BD1BB6803F1040370
:1021F000184601F017FEBB68DA6A40F23C13C2F2DF
:1022000000031B689A4206D9BB68DA6A40F23C13A5
:10221000C2F200031A60BB68DA6A13464FEA83030E
:102220009B184FEA83031A4640F25C03C2F2000394
:10223000D218BB6803F104031046194601F08CFD67
:1022400009E0BB6803F1180340F2F000C2F200009D
:10225000194601F081FDBB68DA6A40F25803C2F208
:1022600000031B68DB6A9A4203D34FF00103FB6053
:1022700002E04FF00003FB60FB68184607F110070F
:10228000BD4680BD80B483B000AF786040F250138B
:10229000C2F200031A687B681A6040F23413C2F27B
:1022A00000031A687B685A6007F10C07BD4680BCC2
:1022B000704700BF80B584B000AF7860396001F02E
:1022C0005BFE3B681B68B3F1FF3F03D14FF0000397
:1022D000FB6038E07B681A6840F25013C2F20003DA
:1022E0001B689A420CD07B685A6840F23413C2F2E1
:1022F00000031B689A4203D84FF00103FB6022E001
:1023000040F23413C2F200031A687B685B68D21A89
:102310003B681B689A4213D23B681A687B6859680D
:1023200040F23413C2F200031B68CB1AD2183B6888
:102330001A607868FFF7A6FF4FF00003FB6002E029
:102340004FF00103FB6001F02DFEFB68184607F11A
:102350001007BD4680BD00BF80B400AF40F24C13F3
:10236000C2F200034FF001021A60BD4680BC704704
:1023700080B582B000AF786000E000BF00F09AF84E
:1023800040F25C03C2F200031B68012BF5D901F097
:10239000E7FDF3E780B584B000AFF860B9607A601C
:1023A0003B60FB6803F134031A46BB6810461946CC
:1023B0004FF0100203F098FCFB684FF0000283F826
:1023C00043207B68042B02D94FF004037B60FB6839
:1023D0007A68DA62FB687A685A64FB6803F104037E
:1023E000184601F0ABFCFB6803F11803184601F036
:1023F000A5FCFB68FA681A617B68C3F10502FB68FB
:102400009A61FB68FA685A6207F11007BD4680BD01
:1024100080B582B000AF4FF000037B6013E07A68B4
:1024200013464FEA83039B184FEA83031A4640F290
:102430005C03C2F20003D318184601F05BFC7B6812
:1024400003F101037B607B68042BE8D940F2C000F4
:10245000C2F2000001F04EFC40F2D400C2F20000D3
:1024600001F048FC40F2F000C2F2000001F042FC32
:1024700040F20410C2F2000001F03CFC40F21C10DB
:10248000C2F2000001F036FC40F2E803C2F20003A1
:1024900040F2C002C2F200021A6040F2EC03C2F243
:1024A000000340F2D402C2F200021A6007F10807EA
:1024B000BD4680BD80B582B000AF40F21813C2F2B5
:1024C00000031B68002B3CD0FFF73EFC40F20413D6
:1024D000C2F200031B68002B14BF002301237B60A2
:1024E000FFF744FC7B68002B2BD101F045FD40F247
:1024F0000413C2F20003DB68DB683B603B6803F156
:102500000403184601F08EFC40F23013C2F20003BF
:102510001B6803F1FF3240F23013C2F200031A606D
:1025200040F21813C2F200031B6803F1FF3240F2BD
:102530001813C2F200031A6001F034FD386800F08D
:1025400085F807F10807BD4680BD00BF80B582B0A1
:1025500000AF786040F25803C2F200031B687A684B
:102560005A6040F23413C2F200031B687A689A4240
:1025700010D240F2EC03C2F200031A6840F2580392
:10258000C2F200031B6803F104031046194601F070
:102590000DFC1DE040F2E803C2F200031A6840F2AD
:1025A0005803C2F200031B6803F1040310461946E6
:1025B00001F0FCFB40F20003C2F200031B687A68E2
:1025C0009A4205D240F20003C2F200037A681A6010
:1025D00007F10807BD4680BD80B584B000AF034653
:1025E0003960FB804FF0480002F084FC0346FB603A
:1025F000FB68002B23D03B68002B07D1FB884FEAF8
:102600008303184602F076FC034600E03B68FA6854
:102610001363FB681B6B002B06D1F86802F0B6FC55
:102620004FF00003FB600AE0FB681A6BFB884FEA7F
:10263000830310464FF0A5011A4603F0CBFAFB685E
:10264000184607F11007BD4680BD00BF80B582B0B7
:1026500000AF78607B681B6B184602F097FC7868C7
:1026600002F094FC07F10807BD4680BD80B483B03A
:1026700000AF40F25803C2F200031B687B607B6826
:10268000184607F10C07BD4680BC704780B584B082
:1026900000AF78607B68FB60FB68DA6A40F2580341
:1026A000C2F200031B68DB6A9A4257D240F2580319
:1026B000C2F200031B68DB6AC3F10502FB689A6182
:1026C000FB685969FB68DA6A13464FEA83039B1873
:1026D0004FEA83031A4640F25C03C2F20003D318A8
:1026E000994233D1FB6803F10403184601F09AFBC9
:1026F00040F25803C2F200031B68DA6AFB68DA6230
:10270000FB68DA6A40F23C13C2F200031B689A428B
:1027100006D9FB68DA6A40F23C13C2F200031A6081
:10272000FB68DA6A13464FEA83039B184FEA830378
:102730001A4640F25C03C2F20003D218FB6803F1B0
:1027400004031046194601F007FB07E040F2580366
:10275000C2F200031B68DA6AFB68DA6207F110074D
:10276000BD4680BD80B584B000AF78607B68FB60FB
:102770007B68002B3AD0FB68DA6AFB685B6C9A4294
:1027800034D0FB6803F10403184601F04BFBFB68EF
:102790005A6CFB68DA62FB68DB6AC3F10502FB680E
:1027A0009A61FB68DA6A40F23C13C2F200031B68CC
:1027B0009A4206D9FB68DA6A40F23C13C2F200037F
:1027C0001A60FB68DA6A13464FEA83039B184FEAE4
:1027D00083031A4640F25C03C2F20003D218FB687E
:1027E00003F104031046194601F0B6FA07F1100789
:1027F000BD4680BD80B485B000AF786039604FF0D1
:102800000003FB604FF00003FB727B685B68FB60BA
:10281000FB6823F4702323F48073FB603B681A6821
:102820003B681B794FEA032342EA0303FA6842EA52
:102830000303FB607B68FA685A607B689B68FB60F7
:10284000FA684FF2FD73CFF6F17302EA0303FB60FF
:102850003B68DA683B689B681A433B685B794FEAE0
:10286000430342EA0303FA6842EA0303FB607B681E
:10287000FA689A607B68DB6AFB60FB6823F470038C
:10288000FB603B681B7C03F1FF33DAB2FB7A42EA60
:102890000303FB72FB7A4FEA0353FA6842EA03032D
:1028A000FB607B68FA68DA6207F11407BD4680BCFA
:1028B000704700BF80B483B000AF78600B46FB70F8
:1028C000FB78002B06D07B689B6843F001027B6895
:1028D0009A6005E07B689B6823F001027B689A6040
:1028E00007F10C07BD4680BC704700BF80B485B0BF
:1028F00000AF786013460A467A807B704FF0000381
:10290000FB737B88FB737B78002B07D07B685B684D
:102910001A46FB7B1A437B685A6008E07B685B6859
:102920001A46FB7B6FEA03031A407B685A6007F183
:102930001407BD4680BC704780B483B000AF786098
:102940007B689B6843F008027B689A6007F10C077C
:10295000BD4680BC704700BF80B485B000AF7860D2
:102960004FF00003FB737B689B6803F00803002BA8
:1029700003D04FF00103FB7302E04FF00003FB7341
:10298000FB7B184607F11407BD4680BC704700BFAB
:1029900080B483B000AF78607B689B6843F004022A
:1029A0007B689A6007F10C07BD4680BC704700BF8A
:1029B00080B485B000AF78604FF00003FB737B6894
:1029C0009B6803F00403002B03D04FF00103FB735B
:1029D00002E04FF00003FB73FB7B184607F114077E
:1029E000BD4680BC704700BF80B483B000AF786044
:1029F0000B46FB70FB78002B06D07B685B6843F4CA
:102A000080627B685A6005E07B685B6823F48062C3
:102A10007B685A6007F10C07BD4680BC704700BF59
:102A200080B485B000AF786039604FF00003FB6080
:102A30007B689B68FB60FB6823F4E043FB60FA68FB
:102A40003B6842EA0303FB607B68FA689A6007F11F
:102A50001407BD4680BC704780B483B000AF786077
:102A60000B46FB70FB78002B06D07B689B6843F419
:102A700002127B689A6005E07B689B6823F402126F
:102A80007B689A6007F10C07BD4680BC704700BFA9
:102A900080B487B000AF7860F970BA707B704FF087
:102AA00000037B614FF000033B614FF00003FB60CC
:102AB000FB78092B29D97B68DB687B61FA781346A0
:102AC0004FEA43039B18A3F11E034FF0070202FADB
:102AD00003F33B613B696FEA03037A6902EA03038C
:102AE0007B617978FA7813464FEA43039B18A3F188
:102AF0001E0301FA03F33B617A693B6942EA03036F
:102B00007B617B687A69DA6024E07B681B697B61A2
:102B1000FA7813464FEA43039B184FF0070202FA74
:102B200003F33B613B696FEA03037A6902EA03033B
:102B30007B617978FA7813464FEA43039B1801FAD0
:102B400003F33B617A693B6942EA03037B617B687B
:102B50007A691A617B689B6B7B617B6903F4401324
:102B60004FEA1353FB60FB68DBB26FEA0303DAB290
:102B7000BB78D318DBB203F10303DBB21A4613466A
:102B80004FEA83039B184FF01F0202FA03F33B61E5
:102B90003B696FEA03037A6902EA03037B61F97810
:102BA000FB68DBB26FEA0303DAB2BB78D318DBB29F
:102BB00003F10303DBB21A4613464FEA83039B1863
:102BC00001FA03F33B617A693B6942EA03037B61E3
:102BD0007B687A699A6307F11C07BD4680BC704721
:102BE00080B485B000AF78600B46FB704FF00003F7
:102BF000FB604FF00003BB607B689B6BFB60FB6876
:102C000023F44013FB60FB7803F1FF33BB60BB6828
:102C10004FEA0353FA6842EA0303FB607B68FA68F1
:102C20009A6307F11407BD4680BC704780B485B035
:102C300000AF78600B46FB704FF00003FB607B68D1
:102C4000FB60FA78FB68D31803F12803FB60FB688C
:102C50001B689BB2184607F11407BD4680BC70473D
:102C600080B487B000AF78600B467B804FF00003E4
:102C7000FB754FF000033B614FF00003FB607B8866
:102C80004FEA13239BB23B617B685B681A467B88E3
:102C9000DBB202EA0303FB607B681B681A463B69F0
:102CA00002EA0303002B06D0FB68002B03D04FF091
:102CB0000103FB7502E04FF00003FB75FB7D184636
:102CC00007F11C07BD4680BC704700BF80B485B0CB
:102CD00000AF78600B467B804FF00003FB737B886E
:102CE0004FEA13239BB2FB73FB7B6FEA03027B6803
:102CF0001A6007F11407BD4680BC70470000000051
:102D000090B587B002AFF860B960FA71BB71F8682E
:102D100002F046F90346002B02D14FF00103E6E131
:102D2000FB79032B00F2E08101A151F823F000BFF1
:102D3000412D0008C72D0008C52E0008BB2F000834
:102D40004FF001031C46F868DF4902F053FE0346CA
:102D5000002B02D14FF000031C46E3B2002B01D040
:102D6000D94BFB604FF001031C46F868D74902F0CD
:102D70005FFE0346002B02D14FF000031C46E3B276
:102D8000002B01D0D14BFB60BB79202B0DD1F86813
:102D900002F058FE0346B8684FF0080145F6C452E9
:102DA000C0F60002FEF756FD9FE1F86802F04AFE09
:102DB0000346B8684FF0080145F6C852C0F6000255
:102DC000FEF748FD91E14FF001031C46F868BE494B
:102DD00002F010FE0346002B02D14FF000031C4608
:102DE000E3B2002B01D0B84BFB60F86802F07AFA2E
:102DF00002460B464FF001010C4610461946ACA3A3
:102E0000D3E9002302F040FB0346002B02D14FF030
:102E100000031C46E3B2002B01D0AD4BFB60BB7935
:102E2000202B27D1F86802F00DFE0446F868A94966
:102E300002F042FC0346184602F004FE01464CF63E
:102E4000CD43CCF6CC43A3FB01234FEAD302134678
:102E50004FEA83039B184FEA4303CA1A0092B868EB
:102E60004FF0080145F6D052C0F600022346FEF7A7
:102E7000F1FC3AE1F86802F0E5FD0446F86895498E
:102E800002F01AFC0346184602F0DCFD01464CF63F
:102E9000CD43CCF6CC43A3FB01234FEAD302134628
:102EA0004FEA83039B184FEA4303CA1A0092B8689B
:102EB0004FF0080145F6DC52C0F600022346FEF74B
:102EC000C9FC12E14FF001031C46F8687E4902F08C
:102ED00091FD0346002B02D14FF000031C46E3B2E4
:102EE000002B01D0784BFB60F86802F0FBF902463A
:102EF0000B464FF001010C46104619466EA3D3E96C
:102F0000002302F0C1FA0346002B02D14FF0000368
:102F10001C46E3B2002B01D06F4BFB60BB79202B2A
:102F200025D1F86802F08EFD0446F8686B4902F07E
:102F3000C3FB0346184602F085FD024648F21F53C4
:102F4000C5F2EB13A3FB02134FEA53134FF06401D6
:102F500001FB03F3D31A0093B8684FF0080145F65C
:102F6000E852C0F600022346FEF774FCBDE0F868A4
:102F700002F068FD0446F868584902F09DFB0346DC
:102F8000184602F05FFD024648F21F53C5F2EB13EC
:102F9000A3FB02134FEA53134FF0640101FB03F349
:102FA000D31A0093B8684FF0080145F6F452C0F602
:102FB00000022346FEF74EFC97E04FF001031C464B
:102FC000F868414902F016FD0346002B02D14FF08C
:102FD00000031C46E3B2002B01D03B4BFB60F868BA
:102FE00002F080F902460B464FF001010C461046F4
:102FF000194633A3D3E9002302F046FA0346002B17
:1030000002D14FF000031C46E3B2002B01D0344B39
:10301000FB60BB79202B25D1F86802F013FD044634
:10302000F868304902F048FB0346184602F00AFDF2
:10303000024644F6D353C1F26203A3FB02134FEAE4
:1030400093134FF47A7101FB03F3D31A0093B8681A
:103050004FF0080145F60062C0F600022346FEF775
:10306000F9FB42E0F86802F0EDFC0446F8681D49FF
:1030700002F022FB0346184602F0E4FC024644F646
:10308000D353C1F26203A3FB02134FEA93134FF42D
:103090007A7101FB03F3D31A0093B8684FF008016B
:1030A00045F60C62C0F600022346FEF7D3FB1CE097
:1030B00033333333333F8F408FC2F5285CFF5840A2
:1030C000736891ED7CFF234000000000003C1C462B
:1030D0009AF9794400002041E1FAC7420000C84251
:1030E000E7FB1F4100007A4400BF4FF00003184681
:1030F00007F11407BD4690BD90B587B000AF78606A
:1031000039604FF00003FB754FF00003BB753D4B7A
:103110003B614FF00103FB815EE040F20803C2F225
:1031200000031A68FB7D7968CB181B7803F1010353
:10313000D3181B7803F00403002B0DD1FB7D7A68B4
:10314000D3181B782E2B04D1BB7D03F10103BB7573
:103150003EE04FF0010350E0BB7D002B16D13869F3
:10316000294902F0A9FA03463B61FB7D7A68D3182E
:103170001B78A3F13003184602F04AFA0346386977
:10318000194602F091F903463B6121E0FB891A469A
:103190004FEA8202D3184FEA4303FB81FB7D7A6832
:1031A000D3181B78A3F13003184602F031FA044615
:1031B000FB89184602F02CFA03462046194602F015
:1031C0002FFB03463869194602F06EF903463B614E
:1031D000FB7D03F10103FB75FB7D7A68D3181B7837
:1031E000002B9AD1BB7D012B02D94FF0010304E0E3
:1031F0003B683A691A604FF00003184607F11C0754
:10320000BD4690BD000000000000204180B586B0A2
:1032100004AF4FF008004FF00101FEF763FB4FF4DD
:103220007053BB804FF00203BB714FF04803FB713A
:1032300007F104034FF44060C4F201001946FDF7A2
:10324000BDF84FF001004FF001014FF0000200F017
:1032500013FF024641F23033C2F200031A6045F612
:103260001863C0F600034FF0010200924FF0000215
:1032700001924FF0000202924FF00002039243F2DB
:103280009D20C0F6000019464FF040024FF00003A9
:10329000FEF7BCFB07F10807BD4680BD80B584B0D2
:1032A00000AF78604FF00003FB734FF00A00FEF7A9
:1032B000E3FC00F02BF80346BB734FF00A00FEF767
:1032C000DBFC00F023F803467B73BA7B7B7B9A42DE
:1032D00019D1BA7BFB7B9A4215D0BB7BFB73BB7BBE
:1032E0003B73BB7B002B0ED041F23033C2F20003A4
:1032F0001A6807F10C03104619464FF000024FF010
:10330000000300F071FF00F02BFECEE780B500AFA8
:103310004FF44060C4F201004FF48061FDF72EF9D4
:103320000346002B02D14FF045032BE04FF44060E1
:10333000C4F201004FF40061FDF720F90346002BB1
:1033400002D14FF051031DE04FF44060C4F2010080
:103350004FF48051FDF712F90346002B02D14FF0D4
:103360003E030FE04FF44060C4F201004FF40051FF
:10337000FDF704F90346002B02D14FF02B0301E0C7
:103380004FF00003184680BD80B483B000AF786072
:103390007A6845F62863C0F600039A4206D041F2E7
:1033A0006033C2F200037A681A6000E000BF07F1E0
:1033B0000C07BD4680BC704780B582B000AF41F2BB
:1033C0006033C2F200031B681A6845F62863C0F632
:1033D00000039A4218D141F26033C2F200031B6825
:1033E0009A6845F62863C0F600039A420CD041F271
:1033F0006033C2F200031B689B687B607B68DB68FC
:103400001846FFF7C1FF08E041F26033C2F2000343
:103410001B681B681846FFF7B7FF07F10807BD4692
:1034200080BD00BF80B582B000AF4FF00003FB71DC
:1034300041F26033C2F200031A6845F64C63C0F6ED
:1034400000039A4207D140F25913C2F200034FF031
:1034500001021A701CE040F25913C2F200034FF04F
:1034600000021A7041F26430C2F200004FF0FF0116
:1034700000F052FB41F26033C2F200031B685B694B
:103480000A48194645F64472C0F60002FDF70CFBE7
:1034900040F25A13C2F200034FF000021A704FF0CC
:1034A0000103184607F10807BD4680BD94110020AE
:1034B00080B584B000AF0346FB7140F25813C2F2EE
:1034C00000031B78002B41D1FB79452B11D0452BF4
:1034D00006DC2B2B36D03E2B08D0002B03D032E05D
:1034E000512B25D02FE04FF0010352E0FFF764FF8E
:1034F00029E041F26033C2F200031B681B7C002B01
:103500000CD041F26033C2F200031A68FB79104616
:10351000194600F043F84FF001033AE041F26033FE
:10352000C2F200031B68DB681846FFF72DFF0AE0B4
:1035300041F26033C2F200031B689B681846FFF734
:1035400023FF00E000BFFFF76DFF20E0FB79512B68
:1035500009D140F25813C2F200034FF000021A7072
:10356000FFF760FF13E041F26033C2F200031B6813
:103570001B7CFB60FB68002B09D041F26033C2F278
:1035800000031A68FB791046194600F007F84FF05F
:103590000103184607F11007BD4680BD80B582B013
:1035A00000AF78600B46FB7040F25813C2F2000384
:1035B0004FF001021A707B681B7CA3F10403052BFA
:1035C00032D801A252F823F0E1350008F3350008A3
:1035D0000536000817360008293600082936000885
:1035E000FB7818464FF000014FF0000200F062F83F
:1035F0001AE0FB7818464FF000014FF0010200F08E
:1036000059F811E0FB7818464FF000014FF0020224
:1036100000F050F808E0FB7818464FF000014FF03A
:10362000030200F047F800BF4FF00003184607F10F
:103630000807BD4680BD00BF80B584B004AF41F22D
:103640006033C2F2000345F64C62C0F600021A6015
:10365000FFF7E8FE45F64C73C0F600034FF0010299
:1036600000924FF0000201924FF0000202924FF0E0
:103670000002039243F69130C0F6000019464FF461
:1036800080724FF00003FEF7C1F941F26430C2F2DC
:1036900000004FF0FF0100F03FFA41F27813C2F250
:1036A00000034FF0020283F82E204FF0000318466B
:1036B000BD4680BD90B585B000AF13460246FA7195
:1036C0000A46BA717B71FB793E2B00F03A81452B9B
:1036D00003D02B2B00F0DA811AE240F25A13C2F227
:1036E00000031B78002B40F0A68040F26113C2F269
:1036F00000034FF000021A707B79032B3ED801A221
:1037000052F823F0153700082F3700084937000812
:1037100063370008BA7941F26433C2F200034FEA1A
:1037200082129B1803F128031B68FB6026E0BA791C
:1037300041F26433C2F200034FEA82129B1803F194
:1037400030031B68FB6019E0BA7941F26433C2F2BE
:1037500000034FEA82129B1803F134031B68FB60DD
:103760000CE0BA7941F26433C2F200034FEA8212EC
:103770009B1803F138031B68FB6000BFFB68184609
:1037800001F00EFC0346002B30D0FB684FF0010225
:1037900014461846BB4902F041F90346002B02D1FA
:1037A0004FF000031C46E3B2002B1FD0FB684FF024
:1037B000010214461846B44902F026F90346002BCC
:1037C00002D14FF000031C46E3B2002B0ED0FA6882
:1037D00041F27813C2F2000393F82E301046A74945
:1037E0001A464FF03003FFF78BFA08E0A34845F67E
:1037F0005C71C0F600014FF0060202F043F9A048E8
:103800009E4945F64472C0F60002FDF74DF940F2BC
:103810005A13C2F200034FF001021A7040F2611312
:10382000C2F200031B7841F26430C2F20000194674
:1038300000F072F96CE107F10C0390481946FFF7AC
:103840005BFC0346002B6BD1FB68184601F0A8FB1C
:103850000346002B64D0FB684FF001021446184663
:10386000884902F0DBF80346002B02D14FF0000339
:103870001C46E3B2002B53D0FB684FF00102144604
:103880001846814902F0C0F80346002B02D14FF0E0
:1038900000031C46E3B2002B42D07B79032B3FD8B8
:1038A00001A252F823F000BFB9380008D33800084D
:1038B000ED38000807390008B979FA6841F2643335
:1038C000C2F200034FEA81115B1803F128031A606A
:1038D00026E0B979FA6841F26433C2F200034FEA94
:1038E00081115B1803F130031A6019E0B979FA68A5
:1038F00041F26433C2F200034FEA81115B1803F115
:1039000034031A600CE0B979FA6841F26433C2F208
:1039100000034FEA81115B1803F138031A6000BFFE
:1039200040F25A13C2F200034FF000021A7040F244
:103930005813C2F200034FF000021A70FFF772FD35
:10394000E6E040F26113C2F200031B7803F10103C9
:10395000DAB240F26113C2F200031A7041F2781336
:10396000C2F2000393F82E30032B71D801A252F853
:1039700023F000BF85390008A3390008DD390008AD
:10398000173A000840F26113C2F200031B78032BC0
:1039900060D940F26113C2F200034FF000021A70C6
:1039A0005FE040F26113C2F200031B78032B06D1E3
:1039B00040F26113C2F200034FF004021A7040F2A9
:1039C0006113C2F200031B78042B45D940F2611346
:1039D000C2F200034FF000021A7042E040F261139D
:1039E000C2F200031B78022B06D140F26113C2F22F
:1039F00000034FF003021A7040F26113C2F2000399
:103A00001B78042B2AD940F26113C2F200034FF055
:103A100000021A7025E040F26113C2F200031B7825
:103A2000012B06D140F26113C2F200034FF00202F3
:103A30001A7040F26113C2F200031B78042B0FD9F5
:103A400040F26113C2F200034FF000021A7008E066
:103A500000BF06E000BF04E000BF02E000BF00E0DE
:103A600000BF40F26113C2F200031B7841F26430E0
:103A7000C2F20000194600F04FF849E0741300202C
:103A80009411002000000000003C1C4640F261132D
:103A9000C2F200031B781A4641F26433C2F20003FB
:103AA0009B181B7C03F10103D9B241F26433C2F2CB
:103AB00000039B180A461A7440F26113C2F2000315
:103AC0001B781A4641F26433C2F200039B181B7C38
:103AD0002F2B0DD940F26113C2F200031B781A4656
:103AE00041F26433C2F200039B181B7C392B0ED9C0
:103AF00040F26113C2F200031B781A4641F26433AC
:103B0000C2F200039B184FF030021A7400E000BFAD
:103B100007F11407BD4690BD80B582B000AF786054
:103B20000B46FB70FB78042B12D87B6803F118035B
:103B3000184645F64471C0F600014FF0060201F048
:103B4000A1FFFB787A68D3184FF020021A761BE0A9
:103B5000FB780F2B0CD17B6803F11803184645F650
:103B60006471C0F600014FF0060201F08BFF0BE01C
:103B70007B6803F11803184645F64471C0F600014E
:103B80004FF0060201F07EFF07F10807BD4680BD39
:103B900080B584B000AF78604FF00003FB734FF046
:103BA0000003BB734FF03200FEF766F841F230338A
:103BB000C2F200031B68184600F0B4FC0346002B59
:103BC00012D041F23033C2F200031A6807F10D033C
:103BD000104619464FF000024FF0000300F0DEFBE4
:103BE0007B7B1846FFF764FCBB7B012B04D8BB7BB7
:103BF00003F10103BB7306E04FF00003BB73FB7BD3
:103C000083F00103FB7341F26033C2F200031A68D0
:103C100045F64C63C0F600039A4212D141F2643378
:103C2000C2F200039B68184601F0EEFC03462E48E2
:103C300019464FF0000245F64473C0F60003FCF746
:103C4000EFFE41F26033C2F200031A6845F6AC633E
:103C5000C0F600039A422BD041F26033C2F2000357
:103C60001A6845F6CC63C0F600039A4220D041F2B0
:103C70006033C2F200031A6845F6EC63C0F6000335
:103C80009A4215D041F26033C2F200031A6845F639
:103C90000C73C0F600039A420AD041F26033C2F2BC
:103CA00000031A6845F62C73C0F600039A4217D138
:103CB00040F25A13C2F200031B78002B10D0FB7B9A
:103CC000002B05D008480949094AFCF7EDFE07E03A
:103CD0000548064945F64472C0F60002FCF7E4FECA
:103CE00000F03EF95EE700BF94110020741300203D
:103CF0007C13002080B483B000AF78607B6803F150
:103D000008031A467B685A607B684FF0FF329A605E
:103D10007B6803F108031A467B68DA607B6803F16D
:103D200008031A467B681A617B684FF000021A602C
:103D300007F10C07BD4680BC704700BF80B483B05C
:103D400000AF78607B684FF000021A6107F10C0742
:103D5000BD4680BC704700BF80B485B000AF7860BE
:103D600039607B685B68FB60FB685B681A463B6890
:103D70005A607B685A683B689A60FB685B683A687F
:103D80009A603A68FB685A603A687B685A603B6898
:103D90007A681A617B681B6803F101027B681A600C
:103DA00007F11407BD4680BC704700BF80B485B0E2
:103DB00000AF786039603B681B68BB60BB68B3F1DB
:103DC000FF3F03D17B681B69FB600EE07B6803F15A
:103DD0000803FB6002E0FB685B68FB60FB685B68F4
:103DE0001B681A46BB689A42F5D9FB685B681A469D
:103DF0003B685A603B685B683A689A603B68FA685F
:103E00009A603A68FB685A603B687A681A617B6816
:103E10001B6803F101027B681A6007F11407BD46B5
:103E200080BC704780B485B000AF78607B685B6809
:103E30007A6892689A607B689B687A6852685A6070
:103E40007B681B69FB60FB685A687B689A4203D1F8
:103E50007B689A68FB685A607B684FF000021A61C1
:103E6000FB681B6803F1FF32FB681A6007F1140757
:103E7000BD4680BC704700BF80B485B000AFF8601D
:103E8000B9607A60FB68A3F10403FB60FB684FF044
:103E900080721A60FB68A3F10403FB60BA68FB68D8
:103EA0001A60FB68A3F10403FB60FB684FF000029B
:103EB0001A60FB68A3F11403FB607A68FB681A6060
:103EC000FB68A3F12003FB60FB68184607F11407A9
:103ED000BD4680BC704700BF064B19680868B0E853
:103EE000F00F80F309884FF0000080F311884EF046
:103EF0000D0E70475800002003480068006880F3EA
:103F0000088862B600DF00BF08ED00E080B500AFB2
:103F10004EF62053CEF200034EF62052CEF20002AF
:103F2000126842F47F021A604EF62053CEF200036C
:103F30004EF62052CEF20002126842F07F421A6022
:103F400000F086F840F20403C2F200034FF00002D2
:103F50001A60FFF7D1FF4FF00003184680BD00BF85
:103F600080B400AF4EF60453CEF200034FF08052FF
:103F70001A60BD4680BC704780B400AF4FF0BF00F0
:103F800080F3118840F20403C2F200031B6803F1BE
:103F9000010240F20403C2F200031A60BD4680BC75
:103FA000704700BF80B400AF40F20403C2F20003C8
:103FB0001B6803F1FF3240F20403C2F200031A60EF
:103FC00040F20403C2F200031B68002B03D14FF040
:103FD000000080F31188BD4680BC7047EFF3098074
:103FE0000C4B1A6820E9F00F10602DE908404FF0E3
:103FF000BF0080F31188FEF73FF84FF0000080F318
:104000001188BDE8084019680868B0E8F00F80F32F
:10401000098870475800002080B582B000AF4EF686
:104020000453CEF200034FF080521A604FF00003A9
:104030007B604FF0BF0080F31188FDF741FF4FF028
:10404000000080F3118807F10807BD4680BD00BF5E
:1040500080B400AF4EF21403CEF2000345F6BF5217
:104060001A604EF21003CEF200034FF007021A60FE
:10407000BD4680BC704700BF80B588B000AFF86017
:10408000B9601346FB714FF00003FB61FB68002B26
:1040900056D04FF04C0000F02DFF0346BB61BB69CA
:1040A000002B4DD0FB68BA6802FB03F303F1010358
:1040B0007B61786900F01EFF03461A46BB691A60EF
:1040C000BB691B68002B38D0BB691A68FB68B968EC
:1040D00001FB03F3D218BB695A60BB694FF00002C1
:1040E0009A63BB691A68BB699A60BB691A68FB6806
:1040F00003F1FF33B96801FB03F3D218BB69DA603F
:10410000BB69FA68DA63BB69BA681A64BB694FF0C5
:10411000FF325A64BB694FF0FF329A64BB6903F106
:1041200010031846FFF7E6FDBB6903F124031846A8
:10413000FFF7E0FDBB69FB6102E0B86900F026FF14
:10414000FB69184607F12007BD4680BD80B584B0E5
:1041500000AF0346FB714FF04C0000F0CBFE03466E
:10416000FB60FB68002B38D0FB684FF000025A6000
:10417000FB684FF000021A60FB684FF000029A6083
:10418000FB684FF00002DA60FB684FF000029A63B0
:10419000FB684FF00102DA63FB684FF000021A641B
:1041A000FB684FF0FF325A64FB684FF0FF329A64AD
:1041B000FB6803F110031846FFF79CFDFB6803F151
:1041C00024031846FFF796FDF8684FF000014FF002
:1041D00000024FF0000300F007F8FB68184607F1F3
:1041E0001007BD4680BD00BF80B588B000AFF86045
:1041F000B9607A603B604FF00003FB6100E000BFF4
:10420000FFF7BAFEFB689B6B1A46FB68DB6B9A42B2
:1042100018D2F868B9683A6800F096F9FB685B6AEA
:10422000002B0AD0FB6803F124031846FDF7C8FFF2
:104230000346012B01D1FFF793FEFFF7B3FE4FF0CA
:1042400001035DE07B68002B04D1FFF7ABFE4FF06C
:10425000000355E0FB69002B07D107F11403184652
:10426000FEF710F84FF00103FB61FFF79BFEFDF72F
:104270006BFDFFF781FEFB685B6CB3F1FF3F03D181
:10428000FB684FF000025A64FB689B6CB3F1FF3F80
:1042900003D1FB684FF000029A64FFF783FE07F139
:1042A000140207F1040310461946FEF703F803460B
:1042B000002B1ED1F86800F037FA0346002B12D00D
:1042C000FB6803F110027B6810461946FDF73CFFBE
:1042D000F86800F0C3F9FDF749FD0346002B8ED1C5
:1042E000FFF73EFE8CE7F86800F0B8F9FDF73EFDF9
:1042F00086E7F86800F0B2F9FDF738FD4FF00003EB
:10430000184607F12007BD4680BD00BF80B586B0C6
:1043100000AFF860B9607A603B604FF000033B612A
:104320004FF0BF0080F31188FB689B6B1A46FB6857
:10433000DB6B9A4225D2F868B9683A6800F004F954
:10434000FB689B6CB3F1FF3F11D1FB685B6A002BEC
:1043500013D0FB6803F124031846FDF731FF034631
:10436000002B0AD07B684FF001021A6005E0FB6861
:104370009B6C03F10102FB689A644FF001037B61BF
:1043800002E04FF000037B614FF0000080F31188E2
:104390007B69184607F11807BD4680BD80B588B017
:1043A00000AFF860B9607A603B604FF00003FB61DA
:1043B00000E000BFFFF7E0FDFB689B6B002B40D0E7
:1043C000FB68DB68BB61F868B96800F01FF93B68FF
:1043D000002B1FD1FB689B6B03F1FF32FB689A63D4
:1043E000FB681B68002B05D1FEF740F903461A460F
:1043F000FB685A60FB681B69002B1DD0FB6803F14A
:1044000010031846FDF7DCFE0346012B14D1FFF71D
:10441000A7FD11E0FB68BA69DA60FB685B6A002BF4
:104420000AD0FB6803F124031846FDF7C9FE0346D2
:10443000002B01D0FFF794FDFFF7B4FD4FF001030F
:104440006BE07B68002B04D1FFF7ACFD4FF000035D
:1044500063E0FB69002B07D107F110031846FDF755
:1044600011FF4FF00103FB61FFF79CFDFDF76CFCB2
:10447000FFF782FDFB685B6CB3F1FF3F03D1FB6884
:104480004FF000025A64FB689B6CB3F1FF3F03D10D
:10449000FB684FF000029A64FFF784FD07F11002F9
:1044A00007F1040310461946FDF704FF0346002BED
:1044B0002CD1F86800F022F90346002B20D0FB68CD
:1044C0001B68002B08D1FFF757FDFB685B68184697
:1044D000FEF7DCF8FFF766FDFB6803F124027B685A
:1044E00010461946FDF730FEF86800F0B7F8FDF702
:1044F0003DFC0346002B7FF45CAFFFF731FD59E72D
:10450000F86800F0ABF8FDF731FC53E7F86800F00D
:10451000A5F8FDF72BFC4FF00003184607F1200724
:10452000BD4680BD80B584B000AF7860FFF724FD44
:104530007B689B6BFB60FFF735FDFB68184607F156
:104540001007BD4680BD00BF80B584B000AFF860E5
:10455000B9607A60FB681B6C002B0DD1FB681B688F
:10456000002B48D1FB685B681846FEF7FBF8FB6838
:104570004FF000025A603EE07B68002B1AD1FB68C6
:104580009A68FB681B6C1046B9681A4601F07AFA03
:10459000FB689A68FB681B6CD218FB689A60FB6822
:1045A0009A68FB685B689A4225D3FB681A68FB68C7
:1045B0009A6020E0FB68DA68FB681B6C1046B968FB
:1045C0001A4601F05FFAFB68DA68FB681B6CC3F1FE
:1045D0000003D218FB68DA60FB68DA68FB681B68C6
:1045E0009A4208D2FB685A68FB681B6CC3F100034F
:1045F000D218FB68DA60FB689B6B03F10102FB6871
:104600009A6307F11007BD4680BD00BF80B582B038
:1046100000AF786039607B681B68002B19D07B681D
:10462000DA687B681B6CD2187B68DA607B68DA68B2
:104630007B685B689A4203D37B681A687B68DA60A0
:104640007B68DA687B681B6C386811461A4601F093
:1046500019FA07F10807BD4680BD00BF80B582B0DA
:1046600000AF7860FFF788FC14E07B685B6A002B82
:1046700015D07B6803F124031846FDF7A1FD03461E
:10468000002B01D0FDF768FE7B689B6C03F1FF32C5
:104690007B689A647B689B6C002BE6DC00E000BFC3
:1046A0007B684FF0FF329A64FFF77CFCFFF764FCF5
:1046B00014E07B681B69002B15D07B6803F11003A5
:1046C0001846FDF77DFD0346002B01D0FDF744FEA3
:1046D0007B685B6C03F1FF327B685A647B685B6CC0
:1046E000002BE6DC00E000BF7B684FF0FF325A642D
:1046F000FFF758FC07F10807BD4680BD80B584B0C0
:1047000000AF7860FFF738FC7B689B6B002B14BF11
:1047100000230123FB60FFF745FCFB68184607F107
:104720001007BD4680BD00BF80B584B000AF786083
:10473000FFF722FC7B689B6B1A467B68DB6B9A4217
:1047400014BF00230123FB60FFF72CFCFB68184615
:1047500007F11007BD4680BD80B485B000AF78601A
:1047600039604FF00003FB607B681B68FB60FB68EF
:1047700023F4FE4323F0F003FB603B689A683B6838
:104780001B6A1A433B681B691A433B685B691A43FF
:104790003B689B691A433B68DB691A433B685B6A69
:1047A0001A433B689B6A42EA0303FA6842EA03033E
:1047B000FB607B68FA681A603B68DA687B685A605D
:1047C0003B681A687B689A603B685A687B68DA6065
:1047D00007F11407BD4680BC704700BF80B483B0AA
:1047E00000AF78607B684FF000021A607B684FF082
:1047F00000025A607B684FF000029A607B684FF0BD
:104800000002DA607B684FF000021A617B684FF0AB
:1048100000025A617B684FF000029A617B684FF09A
:104820000002DA617B684FF000021A627B684FF089
:1048300000025A627B684FF000029A6207F10C078F
:10484000BD4680BC704700BF80B483B000AF7860C5
:104850000B46FB70FB78002B06D07B681B6843F08F
:1048600001027B681A6008E07B681B681A464FF6F5
:10487000FE7302EA03037A68136007F10C07BD4672
:1048800080BC704780B485B000AF78604FF0000303
:10489000FB734FF00003BB607B6803F08053002B79
:1048A00006D04FF48063C4F202031B68BB6005E0CE
:1048B0004FF00003C4F202031B68BB60BA687B6858
:1048C00002EA0303002B03D04FF00103FB7302E065
:1048D0004FF00003FB73FB7B184607F11407BD463E
:1048E00080BC704780B483B000AF78607B6803F011
:1048F0008053002B06D04FF48063C4F202037A6821
:104900005A6005E04FF00003C4F202037A685A606F
:1049100007F10C07BD4680BC704700BF80B586B06C
:1049200004AF4FF00003FB7145F66C73C0F6000353
:104930004FF0010200924FF0000201924FF000028E
:1049400002924FF00002039244F6A530C0F6000038
:1049500019464FF040024FF00003FDF757F84FF0B3
:104960000100FFF7F3FB024641F2A433C2F2000359
:104970001A60FB79184607F10807BD4680BD00BFE5
:1049800080B592B000AF41F214004FF00101FCF786
:10499000A9FF4FF0A003A7F844304FF0030387F8B6
:1049A00046304FF0180387F8473007F144034FF4BF
:1049B0000060C4F201001946FBF700FD4FF480735C
:1049C000A7F844304FF0100387F847304FF0030347
:1049D00087F8463007F144034FF40060C4F2010049
:1049E0001946FBF7EBFC4FF000033B864FF4827354
:1049F0007B864FF40063BB864FF00003FB864FF0CD
:104A000000033B874FF400737B874FF00003BB87A5
:104A10004FF00003FB8707F130034FF44050C4F21E
:104A20000100194600F0B4F94FF44050C4F20100FF
:104A30004FF0000100F03EFA4FF44050C4F2010084
:104A40004FF0010100F0F0F94FF40060C4F20100F2
:104A50004FF480714FF00002FBF7B0FD4FF0010002
:104A60004FF00101FCF710FF07F104031846FFF7B0
:104A7000B5FE43F20C03C4F201037B604FF0100358
:104A8000FB604FF000037B614FF08003BB614FF48C
:104A90008073FB614FF480633B624FF000037B62E5
:104AA0004FF00003BB624FF000037B624FF0000346
:104AB000FB6207F104034FF03000C4F20200194614
:104AC000FFF74AFE4FF40070FFF70CFF07F10403F5
:104AD0001846FFF783FE43F20C03C4F201037B6028
:104AE0004FF00003FB604FF000037B614FF0800349
:104AF000BB614FF48073FB614FF480633B624FF006
:104B000000037B624FF00003BB624FF000037B6247
:104B10004FF00003FB6207F104034FF01C00C4F2E6
:104B200002001946FFF718FE4FF02000FFF7DAFEEB
:104B30004FF44050C4F201004FF002014FF0010267
:104B400000F092F94FF44050C4F201004FF001011F
:104B50004FF0010200F088F907F14807BD4680BD1B
:104B600080B582B000AF78600B467B804FF0300399
:104B7000C4F202037A68DA604FF03003C4F2020331
:104B80007A885A604FF40070FFF7ACFE4FF03000A7
:104B9000C4F202004FF00101FFF756FE07F10807CB
:104BA000BD4680BD80B584B000AF78604FF0000393
:104BB000FB734FF00003FB7369E04FF40060C4F235
:104BC00001004FF480714FF00002FBF7F7FC41F257
:104BD000A433C2F200031B6818464FF000014FF0E7
:104BE000FF324FF00003FFF7D9FB0346012B36D10C
:104BF0002B4AFB7B4FEA4303D31818464FF00101C1
:104C0000FFF7AEFF01E0FFF7ABF94FF40070FFF7DD
:104C100039FE0346002BF6D04FF03000C4F20200FC
:104C20004FF00001FFF710FE01E0FFF799F94FF494
:104C30004053C4F201031B899BB203F08003002B95
:104C4000F3D141F2A433C2F200031B6818464FF0BF
:104C500000014FF000024FF00003FFF7C5FA4FF4D8
:104C60000060C4F201004FF480714FF00102FBF7C5
:104C7000A5FC4FF40060C4F201004FF480714FF0C6
:104C80000002FBF79BFCFB7B03F10103FB73FB7B47
:104C90000C2B92D94FF03200FCF7EEFF89E700BFF2
:104CA0007A11002080B487B000AF78604FF0000325
:104CB0007B614FF000033B614FF00F03FB607B68AB
:104CC000DB78002B49D04FF46D43CEF20003DB6854
:104CD0006FEA030303F4E0634FEA13237B617B690C
:104CE000C3F104033B617B69FA6822FA03F3FB60BA
:104CF0007B685B781A463B6902FA03F37B617B6849
:104D00009B781A46FB6802EA03037A6942EA0303C6
:104D10007B617B694FEA03137B614FF46143CEF201
:104D200000037A68127811467A69D2B25B1883F868
:104D300000234FF46143CEF200037A6812784FEA01
:104D40005212D2B27968097801F01F014FF00100C8
:104D500000FA01F143F8221014E04FF46143CEF25F
:104D600000037A6812784FEA5212D2B27968097851
:104D700001F01F014FF0010000FA01F102F12002E1
:104D800043F8221007F11C07BD4680BC704700BFE6
:104D900080B485B000AF786039604FF00003FB81CC
:104DA0007B681B88FB81FB8903F44153FB813B68D3
:104DB0001A883B685B8842EA03039AB23B689B8887
:104DC00042EA03039AB23B68DB8842EA03039AB2E1
:104DD0003B681B8942EA03039AB23B685B8942EA5B
:104DE00003039AB23B689B8942EA03039AB23B6889
:104DF000DB8942EA03039AB2FB8942EA0303FB819F
:104E00007B68FA891A807B689B8B9BB223F40063D2
:104E10009AB27B689A833B681A8A7B681A8207F188
:104E20001407BD4680BC704780B483B000AF786083
:104E30000B46FB70FB78002B08D07B681B889BB26D
:104E400043F040039AB27B681A8007E07B681B88B6
:104E50009BB223F040039AB27B681A8007F10C07DB
:104E6000BD4680BC704700BF80B483B000AF78609F
:104E700013460A467A807B707B78002B09D07B68CA
:104E80009B889AB27B8842EA03039AB27B689A8035
:104E90000BE07B689B889AB27B886FEA03039BB226
:104EA00002EA03039AB27B689A8007F10C07BD46B9
:104EB00080BC704780B483B000AF78600B46FB7055
:104EC000FB78002B08D07B681B889BB243F400530F
:104ED0009AB27B681A8007E07B681B889BB223F438
:104EE00000539AB27B681A8007F10C07BD4680BC5C
:104EF000704700BF80B584B000AF78604FF000030A
:104F0000FB607B6803F00703002B05D07B6823F070
:104F1000070303F108037B60FCF716FF41F26813F7
:104F2000C2F200031A687B68D21840F6FF739A42F7
:104F300024D841F26813C2F200031A687B68D218C1
:104F400041F26813C2F200031B689A4216D941F27B
:104F50006813C2F200031A6840F26813C2F2000339
:104F6000D318FB6041F26813C2F200031A687B6831
:104F7000D21841F26813C2F200031A60FCF7F6FE81
:104F8000FB68184607F11007BD4680BD80B483B0AA
:104F900000AF786007F10C07BD4680BC704700BFCA
:104FA000D0F1010338BF0023B0F1004F08BF43F038
:104FB0000103002B2ED1A0F5000300F1FF42B3F155
:104FC000FE4F2CBF00230123B2F1FE4F38BF43F048
:104FD0000103EBB94FF6FE73411EC0F27F0300F1EF
:104FE0000042013A99428CBF002101219A428CBFB4
:104FF0000B4641F001037BB910F5000F14BF0023ED
:105000000123B0F1FF4F14BF184643F00100704771
:1050100004207047022070470320704781F0004150
:1050200002E000BF83F0004330B54FEA41044FEA8D
:10503000430594EA050F08BF90EA020F1FBF54EA28
:10504000000C55EA020C7FEA645C7FEA655C00F0C4
:10505000E2804FEA5454D4EB5555B8BF6D420CDD95
:105060002C4480EA020281EA030382EA000083EA18
:10507000010180EA020281EA0303362D88BF30BDB8
:1050800011F0004F4FEA01314FF4801C4CEA11310E
:1050900002D0404261EB410113F0004F4FEA03336D
:1050A0004CEA133302D0524263EB430394EA050FF8
:1050B00000F0A780A4F10104D5F1200E0DDB02FA67
:1050C0000EFC22FA05F2801841F1000103FA0EF2FB
:1050D000801843FA05F359410EE0A5F120050EF1C1
:1050E000200E012A03FA0EFC28BF4CF0020C43FAF2
:1050F00005F3C01851EBE37101F0004507D54FF0FF
:10510000000EDCF1000C7EEB00006EEB0101B1F54E
:10511000801F1BD3B1F5001F0CD349085FEA300094
:105120004FEA3C0C04F101044FEA445212F5800F9F
:1051300080F09A80BCF1004F08BF5FEA500C50F13C
:10514000000041EB045141EA050130BD5FEA4C0C1F
:10515000404141EB010111F4801FA4F10104E9D1A8
:1051600091F0000F04BF01460020B1FA81F308BF9F
:105170002033A3F10B03B3F120020CDA0C3208DD6B
:1051800002F1140CC2F10C0201FA0CF021FA02F146
:105190000CE002F11402D8BFC2F1200C01FA02F1B6
:1051A00020FA0CFCDCBF41EA0C019040E41AA2BFDB
:1051B00001EB0451294330BD6FEA04041F3C1CDAA3
:1051C0000C340EDC04F11404C4F1200220FA04F0C3
:1051D00001FA02F340EA030021FA04F345EA03016D
:1051E00030BDC4F10C04C4F1200220FA02F001FA2F
:1051F00004F340EA0300294630BD21FA04F02946B1
:1052000030BD94F0000F83F4801306BF81F4801149
:105210000134013D4EE77FEA645C18BF7FEA655CBC
:1052200029D094EA050F08BF90EA020F05D054EA8E
:10523000000C04BF1946104630BD91EA030F1EBF93
:105240000021002030BD5FEA545C05D14000494197
:1052500028BF41F0004130BD14F580043CBF01F58A
:10526000801130BD01F0004545F0FE4141F4700170
:105270004FF0000030BD7FEA645C1ABF194610464B
:105280007FEA655C1CBF0B46024650EA013406BF4C
:1052900052EA033591EA030F41F4002130BD00BF0B
:1052A00090F0000F04BF0021704730B54FF48064C8
:1052B00004F132044FF000054FF0000150E700BF49
:1052C00090F0000F04BF0021704730B54FF48064A8
:1052D00004F1320410F0004548BF40424FF0000195
:1052E0003EE700BF42004FEAE2014FEA31014FEAD8
:1052F00002701FBF12F07F4393F07F4F81F0605127
:10530000704792F0000F14BF93F07F4F704730B595
:105310004FF4607401F0004521F0004120E700BF28
:1053200050EA010208BF704730B54FF000050AE0AF
:1053300050EA010208BF704730B511F0004502D5B0
:10534000404261EB41014FF4806404F132045FEAB2
:10535000915C3FF4DCAE4FF003025FEADC0C18BF57
:1053600003325FEADC0C18BF033202EBDC02C2F14D
:10537000200300FA03FC20FA02F001FA03FE40EADF
:105380000E0021FA02F11444C1E600BF4FF0FF3CC9
:1053900006E000BF4FF0010C02E000BF4FF0010C2F
:1053A0004DF804CD4FEA410C7FEA6C5C4FEA430CA8
:1053B00018BF7FEA6C5C1BD001B050EA410C0CBFF7
:1053C00052EA430C91EA030F02BF90EA020F002059
:1053D000704710F1000F91EA030F58BF994208BFC0
:1053E00090422CBFD8176FEAE37040F0010070477D
:1053F0004FEA410C7FEA6C5C02D150EA013C07D1D4
:105400004FEA430C7FEA6C5CD6D152EA033CD3D01E
:105410005DF8040B704700BF8446104662468C4618
:105420001946634600E000BF01B5FFF7B7FF00284B
:1054300048BF10F1000F01BD4DF808EDFFF7F4FF74
:105440000CBF012000205DF808FB00BF4DF808EDFF
:10545000FFF7EAFF34BF012000205DF808FB00BF22
:105460004DF808EDFFF7E0FF94BF012000205DF844
:1054700008FB00BF4DF808EDFFF7CEFF94BF0120F9
:1054800000205DF808FB00BF4DF808EDFFF7C4FFF2
:1054900034BF012000205DF808FB00BF80F0004011
:1054A00002E000BF81F0004142001FBF5FEA4103FC
:1054B00092EA030F7FEA226C7FEA236C6AD04FEAFC
:1054C0001262D2EB1363C1BFD21841404840414041
:1054D000B8BF5B42192B88BF704710F0004F40F4F3
:1054E000000020F07F4018BF404211F0004F41F40F
:1054F000000121F07F4118BF494292EA030F3FD0DB
:10550000A2F1010241FA03FC10EB0C00C3F12003ED
:1055100001FA03F100F0004302D5494260EB40007C
:10552000B0F5000F13D3B0F1807F06D340084FEAE7
:10553000310102F10102FE2A51D2B1F1004F40EBDC
:10554000C25008BF20F0010040EA03007047490044
:1055500040EB000010F4000FA2F10102EDD1B0FA0F
:1055600080FCACF1080CB2EB0C0200FA0CF0AABF04
:1055700000EBC25052421843BCBFD04018437047A2
:1055800092F0000F81F4000106BF80F400000132A8
:10559000013BB5E74FEA41037FEA226C18BF7FEA7F
:1055A000236C21D092EA030F04D092F0000F08BFC1
:1055B0000846704790EA010F1CBF0020704712F0A8
:1055C0007F4F04D1400028BF40F00040704712F1E7
:1055D00000723CBF00F50000704700F0004343F04C
:1055E000FE4040F4000070477FEA226216BF084682
:1055F0007FEA23630146420206BF5FEA412390EA45
:10560000010F40F4800070474FF0000304E000BF3A
:1056100010F0004348BF40425FEA000C08BF7047EB
:1056200043F0964301464FF000001CE050EA0102AF
:1056300008BF70474FF000030AE000BF50EA0102C4
:1056400008BF704711F0004302D5404261EB4101B1
:105650005FEA010C02BF84460146002043F0B643D6
:1056600008BFA3F18053A3F50003BCFA8CF2083AFB
:10567000A3EBC25310DB01FA02FC634400FA02FC04
:10568000C2F12002BCF1004F20FA02F243EB02000B
:1056900008BF20F00100704702F1200201FA02FC6D
:1056A000C2F1200250EA4C0021FA02F243EB020060
:1056B00008BF20EADC7070474FF0FF0C1CEAD052A4
:1056C0001EBF1CEAD15392EA0C0F93EA0C0F6FD065
:1056D0001A4480EA010C400218BF5FEA41211ED043
:1056E0004FF0006343EA501043EA5111A0FB01312F
:1056F0000CF00040B1F5000F3EBF490041EAD37104
:105700005B0040EA010062F17F02FD2A1DD8B3F17F
:10571000004F40EBC25008BF20F00100704790F0EE
:10572000000F0CF0004C08BF49024CEA502040EA40
:1057300051207F3AC2BFD2F1FF0340EAC250704706
:1057400040F400004FF00003013A5DDC12F1190F44
:10575000DCBF00F000407047C2F10002410021FAB6
:1057600002F1C2F1200200FA02FC5FEA310040F1CE
:10577000000053EA4C0308BF20EADC70704792F047
:10578000000F00F0004C02BF400010F4000F013A7F
:10579000F9D040EA0C0093F0000F01F0004C02BF7A
:1057A000490011F4000F013BF9D041EA0C018FE7E9
:1057B0000CEAD15392EA0C0F18BF93EA0C0F0AD0EF
:1057C00030F0004C18BF31F0004CD8D180EA010015
:1057D00000F00040704790F0000F17BF90F0004FAE
:1057E000084691F0000F91F0004F14D092EA0C0F90
:1057F00001D142020FD193EA0C0F03D14B0218BF23
:10580000084608D180EA010000F0004040F0FE4068
:1058100040F40000704740F0FE4040F44000704704
:105820004FF0FF0C1CEAD0521EBF1CEAD15392EA83
:105830000C0F93EA0C0F69D0A2EB030280EA010C73
:1058400049024FEA402037D04FF0805343EA11110C
:1058500043EA10130CF000408B4238BF5B0042F16A
:105860007D024FF4000C8B4224BF5B1A40EA0C000F
:10587000B3EB510F24BFA3EB510340EA5C00B3EB41
:10588000910F24BFA3EB910340EA9C00B3EBD10F2F
:1058900024BFA3EBD10340EADC001B0118BF5FEA81
:1058A0001C1CE0D1FD2A3FF650AF8B4240EBC250AA
:1058B00008BF20F0010070470CF0004C4CEA50206B
:1058C0007F32C2BFD2F1FF0340EAC250704740F4BA
:1058D00000004FF00003013A37E792F0000F00F0AC
:1058E000004C02BF400010F4000F013AF9D040EA2A
:1058F0000C0093F0000F01F0004C02BF490011F4BE
:10590000000F013BF9D041EA0C0195E70CEAD153B5
:1059100092EA0C0F08D142027FF47DAF93EA0C0F9C
:105920007FF470AF084676E793EA0C0F04D14B0280
:105930003FF44CAF08466EE730F0004C18BF31F032
:10594000004CCAD130F000427FF45CAF31F000432C
:105950007FF43CAF5FE700BF4FF0FF3C06E000BFC5
:105960004FF0010C02E000BF4FF0010C4DF804CDE8
:105970004FEA40024FEA41037FEA226C18BF7FEAF8
:10598000236C11D001B052EA530C18BF90EA010FFA
:1059900058BFB2EB030088BFC81738BF6FEAE17089
:1059A00018BF40F0010070477FEA226C02D15FEA25
:1059B000402C05D17FEA236CE4D15FEA412CE1D091
:1059C0005DF8040B704700BF844608466146FFE758
:1059D0000FB5FFF7C9FF002848BF10F1000F0FBD3A
:1059E0004DF808EDFFF7F4FF0CBF012000205DF833
:1059F00008FB00BF4DF808EDFFF7EAFF34BF0120B8
:105A000000205DF808FB00BF4DF808EDFFF7E0FF50
:105A100094BF012000205DF808FB00BF4DF808EDA1
:105A2000FFF7D2FF94BF012000205DF808FB00BF04
:105A30004DF808EDFFF7C8FF34BF012000205DF8E6
:105A400008FB00BF42000ED2B2F1FE4F0BD34FF065
:105A50009E03B3EB126209D44FEA002343F00043E4
:105A600023FA02F070474FF00000704712F1610F07
:105A700001D1420202D14FF0FF3070474FF00000D9
:105A8000704700BF032A2DE9F00109D82AB100238D
:105A9000CC5CC45401339342FAD1BDE8F0017047A5
:105AA0000B468218014603E02478013301F8014BCC
:105AB00011F0030F1C46F7D113F003055DD06E42C1
:105AC000C5F1040CED009B594FEACC0C08E00434FE
:105AD000A7593B4607FA0CF748EA070741F8047B49
