:020000040800F2
:10000000F017002025010008910100089101000867
:100010009101000891010008910100080000000012
:10002000000000000000000000000000AD440008D7
:100030009101000800000000B1450008ED450008EE
:100040009101000891010008910100089101000848
:100050009101000891010008910100089101000838
:100060009101000891010008910100089101000828
:100070009101000891010008910100089101000818
:1000800091010008910100088D07000800000000A0
:1000900000000000000000000000000091010008C6
:1000A00091010008910100089101000891010008E8
:1000B00091010008910100089101000891010008D8
:1000C00091010008910100089101000891010008C8
:1000D00091010008910100089101000891010008B8
:1000E0009101000891010008910100080000000042
:1000F0000000000000000000000000000000000000
:1001000000000000000000000000000000000000EF
:1001100000000000000000009101000891010008AB
:100120005FF808F180B582B000AF46F64073C0F6C4
:1001300000037B6040F20003C2F200033B600BE06F
:100140007B681A683B681A603B6803F104033B60F4
:100150007B6803F104037B603A6840F21403C2F247
:1001600000039A42ECD3084808494FF00002884245
:10017000B8BF40F8042BFADB00F00EF801F046F8A7
:1001800007F10807BD4680BD18000020EC130020D1
:1001900080B400AFFEE700BF80B500AF4FF48053DE
:1001A000C4F202034FF48052C4F20202126842F019
:1001B00001021A604FF48052C4F202024FF48053DD
:1001C000C4F202035B6819464FF00003CFF6FF0349
:1001D00001EA030353604FF48053C4F202034FF467
:1001E0008052C4F20202126822F0847222F4803239
:1001F0001A604FF48053C4F202034FF48052C4F2E9
:100200000202126822F480221A604FF48053C4F272
:1002100002034FF48052C4F20202526822F4FE023A
:100220005A604FF48053C4F202034FF41F029A60E5
:100230004FF48053C4F202034FF00002DA6200F080
:1002400009F84FF46D43CEF200034FF000629A605C
:1002500080BD00BF80B500AF00F002F880BD00BFD8
:1002600080B483B000AF4FF000037B604FF0000319
:100270003B604FF48053C4F202034FF48052C4F247
:100280000202126842F480321A604FF48053C4F2C2
:1002900002031B6803F400333B607B6803F1010336
:1002A0007B603B68002B03D17B68B3F5A06FECD17A
:1002B0004FF48053C4F202031B6803F40033002B95
:1002C00003D04FF001033B6002E04FF000033B60BE
:1002D0003B68012B6DD14FF48053C4F202034FF4FD
:1002E0008052C4F2020252685A604FF48053C4F242
:1002F00002034FF48052C4F2020252685A604FF473
:100300008053C4F202034FF48052C4F202025268D6
:100310005A604FF48053C4F202034FF48052C4F287
:100320000202526822F47C125A604FF48053C4F2E5
:1003300002034FF48052C4F20202526842F498124F
:100340005A604FF48053C4F202034FF48052C4F257
:100350000202126842F080721A6000BF4FF48053AC
:10036000C4F202031B6803F00073002BF6D04FF4B5
:100370008053C4F202034FF48052C4F20202526866
:1003800022F003025A604FF48053C4F202034FF488
:100390008052C4F20202526842F002025A6000BF68
:1003A0004FF48053C4F202035B6803F00C03082B84
:1003B000F6D107F10C07BD4680BC704780B489B008
:1003C00000AF786039604FF00003FB614FF000032D
:1003D0003B614FF00003BB614FF00003FB604FF047
:1003E00000037B614FF00003BB603B68DB7803F0E8
:1003F0000F03FB613B68DB7803F01003002B05D093
:100400003B689B78FA6942EA0303FB613B681B88FF
:1004100003F0FF03002B51D07B681B687B614FF01A
:100420000003BB6144E0BB694FF0010202FA03F331
:10043000FB603B681B881A46FB6802EA03033B61CA
:100440003A69FB689A422FD1BB694FEA8303FB608C
:10045000FB684FF00F0202FA03F3BB60BB686FEA60
:1004600003037A6902EA03037B61FB68FA6902FA13
:1004700003F37A6942EA03037B613B68DB78282B4C
:1004800007D1BB694FF0010202FA03F27B685A619F
:100490000AE03B68DB78482B06D1BB694FF00102CC
:1004A00002FA03F27B681A61BB6903F10103BB61C5
:1004B000BB69072BB7D97B687A691A603B681B88D0
:1004C000FF2B56D97B685B687B614FF00003BB61F3
:1004D00049E0BB6903F108034FF0010202FA03F39C
:1004E000FB603B681B881A46FB6802EA03033B611A
:1004F0003A69FB689A4232D1BB694FEA8303FB60D9
:10050000FB684FF00F0202FA03F3BB60BB686FEAAF
:1005100003037A6902EA03037B61FB68FA6902FA62
:1005200003F37A6942EA03037B613B68DB78282B9B
:1005300008D1BB6903F108034FF0010202FA03F28C
:100540007B685A613B68DB78482B08D1BB6903F1B3
:1005500008034FF0010202FA03F27B681A61BB69DB
:1005600003F10103BB61BB69072BB2D97B687A69D0
:100570005A6007F12407BD4680BC704780B485B03F
:1005800000AF78600B467B804FF00003FB737B6805
:100590009B681A467B8802EA0303002B03D04FF0C6
:1005A0000103FB7302E04FF00003FB73FB7B184673
:1005B00007F11407BD4680BC704700BF80B483B00C
:1005C00000AF786013460A467A807B707B78002BF8
:1005D00003D07A887B681A6102E07A887B685A6166
:1005E00007F10C07BD4680BC704700BF80B58CB0DA
:1005F00004AF4FF012033B724FF000037B724FF0D9
:100600000003BB724FF00103FB7207F108031846A9
:1006100005F05AF84FF400704FF0010101F0B8F9FD
:100620004FF004004FF0010101F0B2F94FF0010367
:10063000BB804FF00003FB714FF00303BB7107F168
:1006400004034FF40060C4F201001946FFF7B6FE40
:100650004FF00003FB604FF001033B744FF00003C9
:100660007B744FF460237B614FF00003BB614FF05C
:1006700000033B7707F10C034FF41050C4F2010064
:10068000194602F00DF94FF41050C4F201004FF07A
:10069000010102F0FBFA4FF41050C4F201004FF0D8
:1006A00000014FF001024FF0070302F047FA4FF448
:1006B0001050C4F201004FF4E04102F007FA4FF489
:1006C0001050C4F201004FF0010102F0E3F94FF4C1
:1006D0001050C4F201004FF0010102F041F94FF453
:1006E0001050C4F2010002F07DF900BF4FF4105029
:1006F000C4F2010002F086F90346002BF6D14FF454
:100700001050C4F201004FF490614FF0010202F06A
:1007100043F94FF41050C4F2010002F08FF900BF0A
:100720004FF41050C4F2010002F098F90346002B78
:10073000F6D14FF001004FF002014FF0000203F03C
:1007400085FF024641F2CC13C2F200031A6046F65E
:100750004C43C0F600034FF0010200924FF000023C
:1007600001924FF0000202924FF00002039240F615
:10077000A900C0F6000019464FF080024FF00003B8
:1007800001F09AF907F12007BD4680BD80B500AFA2
:100790004FF41050C4F201004FF4906102F0B6FA29
:1007A0000346002B26D04FF41050C4F201004FF442
:1007B000906102F0E1FA4FF41050C4F201004FF0E2
:1007C000140102F089FA03461A4641F2C813C2F234
:1007D00000031A8041F2CC13C2F200031B681846D2
:1007E00041F2C811C2F200014FF000024FF00003C5
:1007F00004F076F8184680BD80B485B000AF78600C
:100800000B467B804FF00003FB8141E04FF000037B
:10081000BB8131E0BB894FEA43037A68D3181A8859
:10082000BB8903F101034FEA43037968CB181B88A6
:100830009A421DD9BB894FEA43037A68D3181B88B3
:100840007B81BB894FEA43037A68D318BA8902F1E6
:1008500001024FEA420279688A1812881A80BB891D
:1008600003F101034FEA43037A68D3187A891A80A7
:10087000BB8903F10103BB81BA897988FB89CB1A53
:1008800003F1FF339A42C5DBFB8903F10103FB81CE
:10089000FA897B8803F1FF339A42B7DB07F114072B
:1008A000BD4680BC704700BF80B582B000AF7860A5
:1008B0004FF0050001F036FA4FF41050C4F2010079
:1008C0004FF0010102F01EF901E003F033FE41F2A6
:1008D000CC13C2F200031B68184604F00DF903465E
:1008E000002BF2D041F2CC13C2F200031A6840F29E
:1008F0001803C2F200031B784FEA430140F21C03C5
:10090000C2F20003CB18104619464FF000024FF018
:10091000000304F02DF840F21803C2F200031B7824
:1009200003F10103DBB203F01F03DAB240F2180354
:10093000C2F200031A7040F25C00C2F2000040F202
:100940001C01C2F200014FF0400206F00FF840F225
:100950005C00C2F200004FF02001FFF74DFF40F2B3
:100960005C03C2F20003DB8B1A4640F25C03C2F266
:1009700000031B8CD3184FEAD372D3184FEA6303DA
:100980001A4641F2BC33C2F200039A6041F2BC3312
:10099000C2F200039B689BB24FF00000194600F0C2
:1009A00075F803F0C7FD83E780B485B000AF7860C9
:1009B00039604FF00003FB604FF00003BB604FF461
:1009C000E843C4F200031B68FB607B6840F6FE72DC
:1009D00002FA03F36FEA0303FA6802EA0303FB6017
:1009E0003B681A683B685B681A433B689B681A431C
:1009F0003B68DB6842EA0303BB607B68BA6802FAC3
:100A000003F3FA6842EA0303FB604FF4E843C4F2DD
:100A10000003FA681A6007F11407BD4680BC7047EE
:100A200080B483B000AF78600B46FB70FB78002B7E
:100A300012D04FF4E843C4F200034FF4E842C4F28A
:100A40000002126811467A684FF0010000FA02F2C3
:100A500041EA02021A6013E04FF4E843C4F20003D3
:100A60004FF4E842C4F20002126811467A684FF06F
:100A7000010000FA02F26FEA020201EA02021A60C1
:100A800007F10C07BD4680BC704700BF80B485B03D
:100A900000AF78600B467B804FF00003FB604FF4A3
:100AA000E843C4F20003FB60FA687B68D31803F1E3
:100AB0000803FB60FB687A881A6007F11407BD46DB
:100AC00080BC704780B588B000AFF860B9603B600B
:100AD0001346FB7107F11002FB79B86811461A46FC
:100AE0004FF0200302F060F90346012B26D041F2BB
:100AF000E833C2F200031B6818464FF000014FF0C4
:100B0000FF324FF0000303F033FF0346012B17D1F0
:100B100007F11003F86819463A6800F017F841F237
:100B2000E833C2F200031B6818464FF000014FF093
:100B300000024FF0000303F041FE02E000BF00E0BE
:100B400000BF07F12007BD4680BD00BFF0B58BB0E8
:100B500000AFF860B9607A604FF0000387F8273083
:100B60004FF0000387F826304FF0000387F8253058
:100B70004FF0000387F8243007F114034FF0000210
:100B80001A6003F104034FF000021A6003F104033A
:100B90004FF000021A6003F104034FF000021A60E4
:100BA00003F10403B86805F0E3FF034687F8243037
:100BB0004FF0000387F8273022E097F827307A6853
:100BC000D3181B78202B09D197F8273007F128017B
:100BD000CB184FF0200203F8142C0BE097F82730C5
:100BE00097F82720B9688A18127807F12801CB18DE
:100BF00003F8142C97F8273003F1010387F8273006
:100C000097F8272097F824309A42D6D3FB685B8860
:100C10001946FB681B881C46FB68D88941F2D01234
:100C2000C2F200020B464FEAC3035B1A4FEA4303CA
:100C30001B194FEA4303D31802465A80FB685B88AE
:100C40001946FB681B881C46FB68188A41F2D012C3
:100C5000C2F200020B464FEAC3035B1A4FEA43039A
:100C60001B1903F101034FEA4303D31802465A80CC
:100C7000FB685B881946FB681B881C46FB689889E3
:100C800041F2D012C2F200020B464FEAC3035B1AD4
:100C90004FEA43031B1903F102034FEA4303D3183E
:100CA00002465A80FB685B881946FB681B881C4615
:100CB000FB68188941F2D012C2F200020B464FEADB
:100CC000C3035B1A4FEA43031B1903F103034FEA03
:100CD0004303D31802465A80FB685B881946FB68B9
:100CE0001B881C46FB68588941F2D012C2F20002F0
:100CF0000B464FEAC3035B1A4FEA43031B1903F188
:100D000004034FEA4303D31802465A80FB685B880A
:100D10001946FB681B88184641F2D012C2F2000245
:100D20000B464FEAC3035B1A4FEA43031B1803F158
:100D300005034FEA4303D3184FF480725A80FB68CF
:100D40005B881946FB681B88184641F2D012C2F234
:100D500000020B464FEAC3035B1A4FEA43031B181A
:100D600003F106034FEA4303D3184FF400725A808D
:100D7000FB685B881946FB681B88184641F2D01255
:100D8000C2F200020B464FEAC3035B1A4FEA430369
:100D90001B1803F107034FEA4303D3184FF44072C3
:100DA0005A80FB685B881946FB681B88184641F22D
:100DB000D012C2F200020B464FEAC3035B1A4FEA9D
:100DC00043031B1803F108034FEA4303D3184FF4FE
:100DD00080625A80FB685B881946FB681B8818464E
:100DE00041F2D012C2F200020B464FEAC3035B1A73
:100DF0004FEA43031B1803F109034FEA4303D318D7
:100E00004FF4A0625A80FB685B881946FB681B8818
:100E1000184641F2D012C2F200020B464FEAC30359
:100E20005B1A4FEA43031B1803F10A034FEA43031B
:100E3000D3184FF4C0625A80FB685B881946FB6880
:100E40001B88184641F2D012C2F200020B464FEA4C
:100E5000C3035B1A4FEA43031B1803F10B034FEA6A
:100E60004303D3184FF4E0625A80FB685B8819464D
:100E7000FB681B88184641F2D012C2F200020B46F2
:100E80004FEAC3035B1A4FEA43031B1803F10C0339
:100E90004FEA4303D3184FF400625A8097F8253085
:100EA00003F1050387F825304FF0000387F827305A
:100EB00081E197F8273007F12802D31813F8143C82
:100EC0002F2B46D997F8273007F12801CB1813F8B4
:100ED000143C392B3DD8FB685B88194697F82550A0
:100EE000FB681B881C4697F8273007F12802D318A7
:100EF00013F8143CA3F1300246F65C43C0F600033D
:100F00009B1893F821301A4697F82530A3F1040373
:100F10009BB24FEA03239BB29BB242EA03039BB20C
:100F200098B241F2D012C2F200020B464FEAC3035C
:100F30005B1A4FEA43035B191B194FEA4303D318AB
:100F400002465A8097F8253003F1010387F82530CF
:100F50002BE197F8273007F12801CB1813F8143C40
:100F60002E2B40F0C28097F82730002B39D1FB6838
:100F70005B88194697F82550FB681B881C46FB6860
:100F80005B88184697F825C0FB681B881E4641F20F
:100F9000D012C2F2000203464FEAC3031B1A4FEA03
:100FA000430363449B194FEA4303D3185B8843F020
:100FB000800398B241F2D012C2F200020B464FEA0F
:100FC000C3035B1A4FEA43035B191B194FEA430340
:100FD000D31802465A8097F8253003F1010387F8A9
:100FE000253097F82730002B00F0DE8097F8273067
:100FF00003F1FF3307F12802D31813F8143C2E2B0A
:101000003AD1FB685B88194697F82550FB681B8826
:101010001C46FB685B88184697F825C0FB681B8850
:101020001E4641F2D012C2F2000203464FEAC30349
:101030001B1A4FEA430363449B194FEA4303D31837
:101040005B8843F0800398B241F2D012C2F20002F2
:101050000B464FEAC3035B1A4FEA43035B191B19A4
:101060004FEA4303D31802465A8097F8253003F11C
:10107000010387F8253098E0FB685B88194697F8EC
:10108000253003F1FF35FB681B881C46FB685B8835
:10109000184697F8253003F1FF3CFB681B881E4675
:1010A00041F2D012C2F2000203464FEAC3031B1AF8
:1010B0004FEA430363449B194FEA4303D3185B8809
:1010C00043F0800398B241F2D012C2F200020B4604
:1010D0004FEAC3035B1A4FEA43035B191B194FEA3C
:1010E0004303D31802465A805FE04FF00A0387F8A3
:1010F00026304CE097F8273007F12801CB1813F879
:10110000142C97F8261046F65C43C0F600035B5C8F
:101110009A4236D1FB685B88194697F82550FB68E0
:101120001B881C4697F8262046F65C43C0F6000351
:101130009B1893F821301A4697F82530A3F1040341
:101140009BB24FEA03239BB29BB242EA03039BB2DA
:1011500098B241F2D012C2F200020B464FEAC3032A
:101160005B1A4FEA43035B191B194FEA4303D31879
:1011700002465A8097F8253003F1010387F825309D
:1011800009E097F8263003F1010387F8263097F835
:101190002630202BAED997F82520FB68DB8803F199
:1011A00005039A420FDC00E000BF97F8273003F1F7
:1011B000010387F8273097F8272097F824309A42C0
:1011C000FFF477AE00E000BF97F82530184607F12E
:1011D0002C07BD46F0BD00BF80B582B000AF78607F
:1011E00003F08AFF04F0DEF800F08AF800F02CFC2F
:1011F000FFF7FCF902F05EF802F058FA4FF0000039
:1012000000F030FD07F10807BD4680BD80B584B011
:1012100004AFFEF7C1FF46F6A043C0F600034FF04F
:10122000010200924FF0000201924FF00002029280
:101230004FF00002039241F2D910C0F600001946A7
:101240004FF080024FF0000300F036FC00F098FDF4
:10125000FEE700BF80B400AF41F2D013C2F200033A
:101260004FF001021A7041F2D013C2F200034FF0A6
:101270000002DA8341F2D013C2F200034FF0000201
:101280009A8341F2D013C2F200034FF001021A8494
:1012900041F2D013C2F200034FF004025A8441F22B
:1012A000D013C2F2000340F609229A8441F2D0130F
:1012B000C2F200034FF41062DA8441F2D013C2F29A
:1012C00000035B8C03F1FF339BB29BB243F43063AA
:1012D0009BB29AB241F2D013C2F200031A8541F2D6
:1012E000D013C2F2000340F601425A8541F2D013F6
:1012F000C2F200034FF470629A85BD4680BC70470D
:1013000080B582B000AF4FF00003FB71FFF7A2FF82
:1013100004F016F8FB79184607F10807BD4680BDB2
:1013200080B483B000AF78600B46FB707B68FA78BE
:101330001A704FF00103184607F10C07BD4680BC38
:10134000704700BF80B485B000AF786039604FF05F
:101350000003FB600FE03B681A787B681A707B68BB
:1013600003F101037B603B6803F101033B60FB6811
:1013700003F10103FB603B681B78002BEBD1FB689A
:10138000184607F11407BD4680BC704780B586B08B
:1013900000AFF8607A603B600B46FB724FF00003D1
:1013A0007B617B6803F1FF337B603B68092B25D9A8
:1013B0003A684CF6CD43CCF6CC43A3FB02134FEA7C
:1013C000D303FA7AF86811467A68FFF7DFFF78618D
:1013D0007B69FA68D318FB6013E0FB7AF86819465A
:1013E000FFF79EFFFB6803F10103FB607B6903F1DC
:1013F00001037B617B6803F1FF337B607B68002B1B
:10140000EBDC39684CF6CD43CCF6CC43A3FB01238F
:101410004FEAD30213464FEA83039B184FEA430374
:10142000CA1AD3B203F13003DBB2F8681946FFF7EA
:1014300077FF03467A69D3187B617B69184607F109
:101440001807BD4680BD00BF80B586B000AFF8600C
:101450007A603B600B46FB724FF000037B613B6898
:10146000002B04DA3B68C3F100033B6101E03B68F9
:101470003B617B6803F1FF337B603B69092B2AD911
:101480003B68002B12DA3A694CF6CD43CCF6CC43DC
:10149000A3FB02134FEAD303C3F10003FA7AF868FF
:1014A00011467A68FFF7D0FF78610FE03A694CF691
:1014B000CD43CCF6CC43A3FB02134FEAD303FA7A15
:1014C000F86811467A68FFF7BFFF78617B69FA68B0
:1014D000D318FB602BE03B68002B15DA7B6803F127
:1014E000FF337B6010E0FB7AF8681946FFF718FFBE
:1014F000FB6803F10103FB607B6903F101037B617E
:101500007B6803F1FF337B607B68002BEBDC3B687F
:10151000002B0CDAF8684FF02D01FFF701FF0346AE
:101520007A69D3187B61FB6803F10103FB603969B9
:101530004CF6CD43CCF6CC43A3FB01234FEAD302B8
:1015400013464FEA83039B184FEA4303CA1AD3B2E8
:1015500003F13003DBB2F8681946FFF7E1FE0346FA
:101560007A69D3187B617B69184607F11807BD4675
:1015700080BD00BF80B588B002AFF8607A600A46CF
:10158000FA72FB704FF000037B617B6803F1FF335D
:101590007B603B6A4FEA1313002B24D03B6A4FEA6F
:1015A0001311FA7AFB780091F86811467A68FFF710
:1015B000E1FF03467A69D3187B617B69FA68D31827
:1015C000FB6013E0FB7AF8681946FFF7A9FEFB6899
:1015D00003F10103FB607B6903F101037B617B681D
:1015E00003F1FF337B607B68002BEBDC3B6A03F08D
:1015F0000F03092B0CD83B6ADBB203F00F03DBB2FD
:1016000003F13003DBB2F8681946FFF789FE1BE0EF
:10161000FB78002B0CD03B6ADBB203F00F03DBB28C
:1016200003F13703DBB2F8681946FFF779FE0BE0E8
:101630003B6ADBB203F00F03DBB203F15703DBB20B
:10164000F8681946FFF76CFE7B6903F101037B61C3
:101650007B69184607F11807BD4680BD80B58AB082
:1016600002AFF860B9607A603B604FF00003BB6185
:101670004FF000037B61FB68002B00F01C81FB68CE
:101680004FF000021A7017E17B681B78252B10D0F1
:101690007B681A78FB681A70FB6803F10103FB6032
:1016A0007B6803F101037B607B6903F101037B61CC
:1016B00002E17B6803F101031B78252B10D1FB6845
:1016C0004FF025021A70FB6803F10103FB607B6891
:1016D00003F102037B607B6903F101037B61EBE0B3
:1016E0004FF02003FB774FF00003BB777B6803F1DB
:1016F00001037B607B681B78302B1BD14FF03003DC
:10170000FB777B6803F101037B6014E0BB7F1A4623
:101710004FEA8202D3184FEA4303DAB27B681B78A0
:10172000D318DBB2A3F13003BB777B6803F101036D
:101730007B6000E000BF7B681B782F2B03D97B68A0
:101740001B78392BE2D9BA7F7B69D3181A46BB685C
:101750009A4205D9BB68DAB27B69DBB2D31ABB7790
:101760007B681B78A3F15803202B00F2948001A220
:1017700052F823F049180008971800089718000835
:10178000971800089718000897180008971800087D
:10179000971800089718000897180008971800086D
:1017A0007F180008F9170008971800089718000814
:1017B0009718000897180008F917000897180008EC
:1017C000971800089718000897180008971800083D
:1017D000971800089718000897180008971800082D
:1017E00069180008971800081118000897180008D1
:1017F0009718000829180008BA7F3B6803F1040114
:1018000039601B68F97FF868FFF71EFEB86145E094
:10181000BA7F3B6803F1040139601B68F97FF868FF
:10182000FFF7B4FDB86139E0BA7F3B6803F104010A
:1018300039601968FB7F0091F86819464FF0000382
:10184000FFF798FEB86129E0BA7F3B6803F1040115
:1018500039601968FB7F0091F86819464FF0010361
:10186000FFF788FEB86119E03B6803F104023A60B3
:101870001B68F8681946FFF765FDB8610EE03B6824
:1018800003F104023A601B68DBB2F8681946FFF7FF
:1018900047FDB86102E04FF0FF332CE07B6803F1B5
:1018A00001037B60BB69FA68D318FB607A69BB6986
:1018B000D3187B6100E000BF7B681B78002B04D04D
:1018C0007A69BB689A42FFF4DFAE7A69BB689A42D4
:1018D00004D2FB684FF000021A700BE0FB6803F1C2
:1018E000FF33FB60FB684FF000021A707B6903F165
:1018F000FF337B617B69184607F12007BD4680BD39
:101900000CB480B584B000AF7860396007F11C0377
:10191000BB6078683968BA69BB68FFF79FFEF860FA
:10192000FB68184607F11007BD46BDE8804002B0CD
:10193000704700BF80B483B000AF78600B46FB7087
:10194000FB78002B0ED04FF48053C4F202034FF407
:101950008052C4F20202526911467A6841EA0202D8
:101960005A610FE04FF48053C4F202034FF48052E7
:10197000C4F20202526911467A686FEA020201EA71
:1019800002025A6107F10C07BD4680BC704700BFD8
:1019900080B483B000AF78600B46FB70FB78002BFF
:1019A0000ED04FF48053C4F202034FF48052C4F2BD
:1019B0000202926911467A6841EA02029A610FE0D6
:1019C0004FF48053C4F202034FF48052C4F2020277
:1019D000926911467A686FEA020201EA02029A618C
:1019E00007F10C07BD4680BC704700BF80B483B0D0
:1019F00000AF78600B46FB70FB78002B0ED04FF4E5
:101A00008053C4F202034FF48052C4F20202D2693E
:101A100011467A6841EA0202DA610FE04FF480531E
:101A2000C4F202034FF48052C4F20202D26911469A
:101A30007A686FEA020201EA0202DA6107F10C0732
:101A4000BD4680BC704700BF80B586B000AF4FF088
:101A500004004FF00101FFF79BFF4FF000504FF0E3
:101A60000101FFF7C3FF4FF01003BB804FF00003ED
:101A7000FB7107F104034FF40060C4F20100194642
:101A8000FEF79CFC4FF00003BB604FF00003FB60CF
:101A90004FF000037B6107F108034FF00000194687
:101AA000FEF782FF4FF000004FF00101FEF7B8FF94
:101AB00007F11807BD4680BD80B58AB002AFF86057
:101AC000B9603B601346FB80FB881846396B00F019
:101AD000D9FDB861BB69002B00F0A680BB691A6B09
:101AE000FB8803F1FF334FEA8303D3187B617B69E3
:101AF00023F007037B61FB880093B869B968BA6A71
:101B00007B6B00F09DFC7869F9683A6802F09EFCF6
:101B100003461A46BB691A60FB6A002B02D0FB6AB7
:101B2000BA691A6002F012FD40F27813C2F20003A3
:101B30001B6803F1010240F27813C2F200031A603D
:101B400040F2A003C2F200031B68002B0FD140F249
:101B5000A003C2F20003BA691A6040F27813C2F21D
:101B600000031B68012B18D100F0A8FC15E040F21F
:101B70008813C2F200031B68002B0ED140F2A003B1
:101B8000C2F200031B68DA6ABB6A9A4205D840F2C7
:101B9000A003C2F20003BA691A60BB69DA6A40F2B4
:101BA0008013C2F200031B689A4206D9BB69DA6A45
:101BB00040F28013C2F200031A6040F29C13C2F29A
:101BC00000031B6803F1010240F29C13C2F2000300
:101BD0001A60BB69DA6A40F28413C2F200031B6820
:101BE0009A4206D9BB69DA6A40F28413C2F2000352
:101BF0001A60BB69DA6A13464FEA83039B184FEAFF
:101C000083031A4640F2A403C2F20003D218BB6950
:101C100003F104031046194602F044FA4FF00103A1
:101C2000FB6102F0A9FC02E04FF0FF33FB61FB69AE
:101C3000012B11D140F28813C2F200031B68002B64
:101C40000AD040F2A003C2F200031B68DA6ABB6A42
:101C50009A4201D202F06EFCFB69184607F1200798
:101C6000BD4680BD80B584B000AF786002F06EFCE8
:101C700040F2A003C2F200031B687A689A4202D1C4
:101C80004FF000037B607B68002B05D140F2A0037E
:101C9000C2F200031B6800E07B68FB60FB6803F195
:101CA0000403184602F064FAFB689B6A002B05D017
:101CB000FB6803F11803184602F05AFAFB6803F1B7
:101CC000040340F24C10C2F20000194602F0EAF997
:101CD00040F26013C2F200031B6803F1010240F2FC
:101CE0006013C2F200031A6040F29C13C2F20003B8
:101CF0001B6803F1010240F29C13C2F200031A6058
:101D000002F03AFC40F28813C2F200031B68002B79
:101D100004D07B68002B01D102F00CFC07F1100706
:101D2000BD4680BD80B584B000AF78604FF0000341
:101D3000FB607B68002B19D000F05CF840F27C134C
:101D4000C2F200031A687B68D318BB6040F2A0039C
:101D5000C2F200031B6803F10403184602F008FAFC
:101D6000B86800F049FC00F057F8F860FB68002BF9
:101D700001D102F0DFFB07F11007BD4680BD00BFB7
:101D800080B586B004AF46F6A843C0F600034FF016
:101D9000000200924FF0000201924FF00002029206
:101DA0004FF00002039242F21D40C0F600001946B7
:101DB0004FF080024FF00003FFF77EFE78607B68F3
:101DC000012B13D14FF0BF0080F3118840F288132C
:101DD000C2F200034FF001021A6040F27C13C2F21B
:101DE00000034FF000021A6002F07AFB07F10807C7
:101DF000BD4680BD80B400AF40F28C13C2F2000338
:101E00001B6803F1010240F28C13C2F200031A6056
:101E1000BD4680BC704700BF90B583B000AF4FF0A7
:101E200000037B6002F092FB40F28C13C2F20003CD
:101E30001B6803F1FF3240F28C13C2F200031A60F8
:101E400040F28C13C2F200031B68002B40F0868026
:101E500040F27813C2F200031B68002B7ED04FF0D3
:101E600000033B603DE040F23813C2F20003DB6840
:101E7000DB681C4604F11803184602F079F904F1F6
:101E80000403184602F074F9E26A40F28413C2F2C5
:101E900000031B689A4205D9E26A40F28413C2F239
:101EA00000031A60E26A13464FEA83039B184FEA65
:101EB00083031A4640F2A403C2F20003D21804F1CD
:101EC00004031046194602F0EDF8E26A40F2A0035E
:101ED000C2F200031B68DB6A9A4202D34FF001038F
:101EE0003B6040F23813C2F200031B68002BBAD1EA
:101EF00040F29013C2F200031B68002B18D00DE0D3
:101F000000F034F840F29013C2F200031B6803F1B2
:101F1000FF3240F29013C2F200031A6040F29013B5
:101F2000C2F200031B68002BEAD14FF001033B60B3
:101F30003B68012B06D040F29413C2F200031B68E9
:101F4000012B0BD14FF001037B6040F29413C2F2DE
:101F500000034FF000021A6002F0ECFA02F00CFBF2
:101F60007B68184607F10C07BD4690BD80B584B06C
:101F700000AF40F28C13C2F200031B68002B40F04C
:101F8000C08040F27C13C2F200031B6803F101021F
:101F900040F27C13C2F200031A6040F27C13C2F2DA
:101FA00000031B68002B40D140F23013C2F2000343
:101FB0001B68FB6040F23413C2F200031A6840F25F
:101FC0003013C2F200031A6040F23413C2F200036D
:101FD000FA681A6040F29813C2F200031B6803F11A
:101FE000010240F29813C2F200031A6040F230136B
:101FF000C2F200031B681B68002B07D140F20003EC
:10200000C2F200034FF0FF321A600EE040F23013CC
:10201000C2F200031B68DB68DB68BB60BB685A6800
:1020200040F20003C2F200031A6040F27C13C2F2D5
:1020300000031A6840F20003C2F200031B689A42D0
:102040006BD340F23013C2F200031B681B68002BF5
:1020500007D140F20003C2F200034FF0FF321A60D2
:102060005BE040F23013C2F200031B68DB68DB6800
:10207000BB60BB685B687B6040F27C13C2F200030C
:102080001A687B689A4206D240F20003C2F200034B
:102090007A681A6041E0BB6803F10403184602F055
:1020A00067F8BB689B6A002B05D0BB6803F1180377
:1020B000184602F05DF8BB68DA6A40F28413C2F297
:1020C00000031B689A4206D9BB68DA6A40F284139F
:1020D000C2F200031A60BB68DA6A13464FEA830350
:1020E0009B184FEA83031A4640F2A403C2F200038E
:1020F000D218BB6803F104031046194601F0D2FF61
:102100009FE740F29013C2F200031B6803F1010243
:1021100040F29013C2F200031A6007F11007BD46A7
:1021200080BD00BF80B483B000AF40F28C13C2F218
:1021300000031B68002B14D040F29413C2F200037A
:102140004FF001021A604FE040F28413C2F2000324
:102150001B6803F1FF3240F28413C2F200031A60DD
:1021600000E000BF40F28413C2F200031A68134675
:102170004FEA83039B184FEA83031A4640F2A403F5
:10218000C2F20003D3181B68002BDDD040F2841389
:10219000C2F200031A6813464FEA83039B184FEA02
:1021A00083031A4640F2A403C2F20003D3187B60F3
:1021B0007B685B685B681A467B685A607B685A6814
:1021C0007B6803F108039A4205D17B685B685B6812
:1021D0001A467B685A607B685B68DB681A4640F287
:1021E000A003C2F200031A6007F10C07BD4680BCD1
:1021F000704700BF80B584B000AF7860396040F2AE
:10220000A003C2F200031B6803F1180378681946A3
:1022100001F072FF40F2A003C2F200031B6803F159
:102220000403184601F0A4FF3B68B3F1FF3F0ED151
:1022300040F2A003C2F200031B6803F1040340F262
:102240006410C2F20000194601F02CFF0AE040F2CF
:102250007C13C2F200031A683B68D318FB60F8686D
:1022600000F0CAF907F11007BD4680BD80B584B003
:1022700000AF78607B68DB68DB68BB60BB6803F13C
:102280001803184601F074FF40F28C13C2F20003E9
:102290001B68002B2BD1BB6803F10403184601F027
:1022A00067FFBB68DA6A40F28413C2F200031B685E
:1022B0009A4206D9BB68DA6A40F28413C2F200037C
:1022C0001A60BB68DA6A13464FEA83039B184FEA29
:1022D00083031A4640F2A403C2F20003D218BB687B
:1022E00003F104031046194601F0DCFE09E0BB6867
:1022F00003F1180340F23810C2F20000194601F051
:10230000D1FEBB68DA6A40F2A003C2F200031B6888
:10231000DB6A9A4203D34FF00103FB6002E04FF007
:102320000003FB60FB68184607F11007BD4680BD3F
:1023300080B483B000AF786040F29813C2F200031B
:102340001A687B681A6040F27C13C2F200031A68B4
:102350007B685A6007F10C07BD4680BC704700BF20
:1023600080B584B000AF7860396002F0EFF83B6868
:102370001B68B3F1FF3F03D14FF00003FB6038E06F
:102380007B681A6840F29813C2F200031B689A42F5
:102390000CD07B685A6840F27C13C2F200031B68C1
:1023A0009A4203D84FF00103FB6022E040F27C1315
:1023B000C2F200031A687B685B68D21A3B681B682C
:1023C0009A4213D23B681A687B68596840F27C13C2
:1023D000C2F200031B68CB1AD2183B681A607868F7
:1023E000FFF7A6FF4FF00003FB6002E04FF0010390
:1023F000FB6002F0C1F8FB68184607F11007BD4604
:1024000080BD00BF80B400AF40F29413C2F200035D
:102410004FF001021A60BD4680BC704780B582B0A3
:1024200000AF786000E000BF00F09AF840F2A4032B
:10243000C2F200031B68012BF5D902F07BF8F3E729
:1024400080B584B000AFF860B9607A603B60FB682B
:1024500003F134031A46BB68104619464FF01002C8
:1024600004F0B6FBFB684FF0000283F843207B6862
:10247000042B02D94FF004037B60FB687A68DA62B0
:10248000FB687A685A64FB6803F10403184601F09C
:10249000FBFDFB6803F11803184601F0F5FDFB682E
:1024A000FA681A617B68C3F10502FB689A61FB68F0
:1024B000FA685A6207F11007BD4680BD80B582B048
:1024C00000AF4FF000037B6013E07A6813464FEAD9
:1024D00083039B184FEA83031A4640F2A403C2F217
:1024E0000003D318184601F0ABFD7B6803F101032C
:1024F0007B607B68042BE8D940F20810C2F2000030
:1025000001F09EFD40F21C10C2F2000001F098FDA7
:1025100040F23810C2F2000001F092FD40F24C107F
:10252000C2F2000001F08CFD40F26410C2F2000023
:1025300001F086FD40F23013C2F2000340F20812AF
:10254000C2F200021A6040F23413C2F2000340F2F9
:102550001C12C2F200021A6007F10807BD4680BDD6
:1025600080B582B000AF40F26013C2F200031B6876
:10257000002B3CD0FFF73EFC40F24C13C2F20003AC
:102580001B68002B14BF002301237B60FFF744FC72
:102590007B68002B2BD101F0D9FF40F24C13C2F223
:1025A0000003DB68DB683B603B6803F1040318460B
:1025B00001F0DEFD40F27813C2F200031B6803F164
:1025C000FF3240F27813C2F200031A6040F2601347
:1025D000C2F200031B6803F1FF3240F26013C2F243
:1025E00000031A6001F0C8FF386800F085F807F1B1
:1025F0000807BD4680BD00BF80B582B000AF7860DF
:1026000040F2A003C2F200031B687A685A6040F2ED
:102610007C13C2F200031B687A689A4210D240F21F
:102620003413C2F200031A6840F2A003C2F200039E
:102630001B6803F104031046194601F05DFD1DE01F
:1026400040F23013C2F200031A6840F2A003C2F253
:1026500000031B6803F104031046194601F04CFD0A
:1026600040F20003C2F200031B687A689A4205D266
:1026700040F20003C2F200037A681A6007F108070B
:10268000BD4680BD80B584B000AF03463960FB8095
:102690004FF0480003F040F90346FB60FB68002B55
:1026A00023D03B68002B07D1FB884FEA83031846F1
:1026B00003F032F9034600E03B68FA681363FB68F5
:1026C0001B6B002B06D1F86803F072F94FF0000382
:1026D000FB600AE0FB681A6BFB884FEA8303104635
:1026E0004FF0A5011A4604F0E9F9FB68184607F116
:1026F0001007BD4680BD00BF80B582B000AF7860D6
:102700007B681B6B184603F053F9786803F050F9A7
:1027100007F10807BD4680BD80B483B000AF40F22A
:10272000A003C2F200031B687B607B68184607F1B8
:102730000C07BD4680BC704780B584B000AF7860A0
:102740007B68FB60FB68DA6A40F2A003C2F2000318
:102750001B68DB6A9A4257D240F2A003C2F2000320
:102760001B68DB6AC3F10502FB689A61FB68596963
:10277000FB68DA6A13464FEA83039B184FEA830328
:102780001A4640F2A403C2F20003D318994233D18F
:10279000FB6803F10403184601F0EAFC40F2A003D1
:1027A000C2F200031B68DA6AFB68DA62FB68DA6A65
:1027B00040F28413C2F200031B689A4206D9FB68F8
:1027C000DA6A40F28413C2F200031A60FB68DA6A24
:1027D00013464FEA83039B184FEA83031A4640F2DD
:1027E000A403C2F20003D218FB6803F104031046ED
:1027F000194601F057FC07E040F2A003C2F20003C3
:102800001B68DA6AFB68DA6207F11007BD4680BD13
:1028100080B584B000AF78607B68FB607B68002B7C
:102820003AD0FB68DA6AFB685B6C9A4234D0FB688A
:1028300003F10403184601F09BFCFB685A6CFB682B
:10284000DA62FB68DB6AC3F10502FB689A61FB6828
:10285000DA6A40F28413C2F200031B689A4206D976
:10286000FB68DA6A40F28413C2F200031A60FB6864
:10287000DA6A13464FEA83039B184FEA83031A462A
:1028800040F2A403C2F20003D218FB6803F1040370
:102890001046194601F006FC07F11007BD4680BD41
:1028A00080B485B000AF786039604FF00003FB6002
:1028B0004FF00003FB727B685B68FB60FB6823F4EE
:1028C000702323F48073FB603B681A683B681B79B4
:1028D0004FEA032342EA0303FA6842EA0303FB6078
:1028E0007B68FA685A607B689B68FB60FA684FF205
:1028F000FD73CFF6F17302EA0303FB603B68DA680D
:102900003B689B681A433B685B794FEA430342EAA2
:102910000303FA6842EA0303FB607B68FA689A6083
:102920007B68DB6AFB60FB6823F47003FB603B6839
:102930001B7C03F1FF33DAB2FB7A42EA0303FB723A
:10294000FB7A4FEA0353FA6842EA0303FB607B68B1
:10295000FA68DA6207F11407BD4680BC704700BF11
:1029600080B483B000AF78600B46FB70FB78002B1F
:1029700006D07B689B6843F001027B689A6005E0A3
:102980007B689B6823F001027B689A6007F10C0763
:10299000BD4680BC704700BF80B485B000AF786092
:1029A00013460A467A807B704FF00003FB737B88E6
:1029B000FB737B78002B07D07B685B681A46FB7B38
:1029C0001A437B685A6008E07B685B681A46FB7BA9
:1029D0006FEA03031A407B685A6007F11407BD468B
:1029E00080BC704780B483B000AF78607B689B6820
:1029F00043F008027B689A6007F10C07BD4680BC73
:102A0000704700BF80B485B000AF78604FF000031E
:102A1000FB737B689B6803F00803002B03D04FF027
:102A20000103FB7302E04FF00003FB73FB7B1846CE
:102A300007F11407BD4680BC704700BF80B483B067
:102A400000AF78607B689B6843F004027B689A6003
:102A500007F10C07BD4680BC704700BF80B485B04D
:102A600000AF78604FF00003FB737B689B6803F056
:102A70000403002B03D04FF00103FB7302E04FF07F
:102A80000003FB73FB7B184607F11407BD4680BCAF
:102A9000704700BF80B483B000AF78600B46FB7016
:102AA000FB78002B06D07B685B6843F480627B6810
:102AB0005A6005E07B685B6823F480627B685A603B
:102AC00007F10C07BD4680BC704700BF80B485B0DD
:102AD00000AF786039604FF00003FB607B689B6853
:102AE000FB60FB6823F4E043FB60FA683B6842EA62
:102AF0000303FB607B68FA689A6007F11407BD4620
:102B000080BC704780B483B000AF78600B46FB7028
:102B1000FB78002B06D07B689B6843F402127B682D
:102B20009A6005E07B689B6823F402127B689A60D8
:102B300007F10C07BD4680BC704700BF80B487B06A
:102B400000AF7860F970BA707B704FF000037B6162
:102B50004FF000033B614FF00003FB60FB78092B53
:102B600029D97B68DB687B61FA7813464FEA430317
:102B70009B18A3F11E034FF0070202FA03F33B6117
:102B80003B696FEA03037A6902EA03037B617978A0
:102B9000FA7813464FEA43039B18A3F11E0301FA88
:102BA00003F33B617A693B6942EA03037B617B681B
:102BB0007A69DA6024E07B681B697B61FA781346E6
:102BC0004FEA43039B184FF0070202FA03F33B61FD
:102BD0003B696FEA03037A6902EA03037B61797850
:102BE000FA7813464FEA43039B1801FA03F33B615B
:102BF0007A693B6942EA03037B617B687A691A61FF
:102C00007B689B6B7B617B6903F440134FEA135332
:102C1000FB60FB68DBB26FEA0303DAB2BB78D31860
:102C2000DBB203F10303DBB21A4613464FEA830318
:102C30009B184FF01F0202FA03F33B613B696FEAF6
:102C400003037A6902EA03037B61F978FB68DBB26C
:102C50006FEA0303DAB2BB78D318DBB203F10303E4
:102C6000DBB21A4613464FEA83039B1801FA03F3BB
:102C70003B617A693B6942EA03037B617B687A695D
:102C80009A6307F11C07BD4680BC704780B485B0CD
:102C900000AF78600B46FB704FF00003FB604FF015
:102CA0000003BB607B689B6BFB60FB6823F44013F5
:102CB000FB60FB7803F1FF33BB60BB684FEA035353
:102CC000FA6842EA0303FB607B68FA689A6307F1DB
:102CD0001407BD4680BC704780B485B000AF7860F3
:102CE0000B46FB704FF00003FB607B68FB60FA78DB
:102CF000FB68D31803F12803FB60FB681B689BB2D9
:102D0000184607F11407BD4680BC704780B487B0F1
:102D100000AF78600B467B804FF00003FB754FF0EF
:102D200000033B614FF00003FB607B884FEA1323F5
:102D30009BB23B617B685B681A467B88DBB202EA28
:102D40000303FB607B681B681A463B6902EA0303C6
:102D5000002B06D0FB68002B03D04FF00103FB755E
:102D600002E04FF00003FB75FB7D184607F11C07DE
:102D7000BD4680BC704700BF80B485B000AF7860AE
:102D80000B467B804FF00003FB737B884FEA1323D5
:102D90009BB2FB73FB7B6FEA03027B681A6007F14F
:102DA0001407BD4680BC704790B587B002AFF8608D
:102DB000B960FA71BB71F86802F004FE0346002B9B
:102DC00002D14FF00103E6E1FB79032B00F2E08131
:102DD00001A151F823F000BFE92D00086F2E000873
:102DE0006D2F0008633000084FF001031C46F8689F
:102DF000DF4903F073FD0346002B02D14FF00003BF
:102E00001C46E3B2002B01D0D94BFB604FF001030D
:102E10001C46F868D74903F07FFD0346002B02D11A
:102E20004FF000031C46E3B2002B01D0D14BFB60F6
:102E3000BB79202B0DD1F86803F078FD0346B86804
:102E40004FF0080146F6B042C0F60002FEF758FD0A
:102E50009FE1F86803F06AFD0346B8684FF0080187
:102E600046F6B442C0F60002FEF74AFD91E14FF08B
:102E700001031C46F868BE4903F030FD0346002BF1
:102E800002D14FF000031C46E3B2002B01D0B84B37
:102E9000FB60F86802F038FF02460B464FF0010174
:102EA0000C4610461946ACA3D3E9002303F010FAF0
:102EB0000346002B02D14FF000031C46E3B2002B67
:102EC00001D0AD4BFB60BB79202B27D1F86803F014
:102ED0002DFD0446F868A94903F062FB0346184635
:102EE00003F024FD01464CF6CD43CCF6CC43A3FBC6
:102EF00001234FEAD30213464FEA83039B184FEA9C
:102F00004303CA1A0092B8684FF0080146F6BC4263
:102F1000C0F600022346FEF7F3FC3AE1F86803F03E
:102F200005FD0446F868954903F03AFB0346184648
:102F300003F0FCFC01464CF6CD43CCF6CC43A3FB9E
:102F400001234FEAD30213464FEA83039B184FEA4B
:102F50004303CA1A0092B8684FF0080146F6C84207
:102F6000C0F600022346FEF7CBFC12E14FF001034E
:102F70001C46F8687E4903F0B1FC0346002B02D1E1
:102F80004FF000031C46E3B2002B01D0784BFB60EE
:102F9000F86802F0B9FE02460B464FF001010C46FC
:102FA000104619466EA3D3E9002303F091F90346B6
:102FB000002B02D14FF000031C46E3B2002B01D0DE
:102FC0006F4BFB60BB79202B25D1F86803F0AEFC7A
:102FD0000446F8686B4903F0E3FA0346184603F029
:102FE000A5FC024648F21F53C5F2EB13A3FB0213E4
:102FF0004FEA53134FF0640101FB03F3D31A00931C
:10300000B8684FF0080146F6D442C0F600022346E5
:10301000FEF776FCBDE0F86803F088FC0446F8682B
:10302000584903F0BDFA0346184603F07FFC0246F8
:1030300048F21F53C5F2EB13A3FB02134FEA5313DD
:103040004FF0640101FB03F3D31A0093B8684FF00B
:10305000080146F6E042C0F600022346FEF750FCA7
:1030600097E04FF001031C46F868414903F036FC35
:103070000346002B02D14FF000031C46E3B2002BA5
:1030800001D03B4BFB60F86802F03EFE02460B4667
:103090004FF001010C461046194633A3D3E9002333
:1030A00003F016F90346002B02D14FF000031C4633
:1030B000E3B2002B01D0344BFB60BB79202B25D130
:1030C000F86803F033FC0446F868304903F068FA06
:1030D0000346184603F02AFC024644F6D353C1F2D5
:1030E0006203A3FB02134FEA93134FF47A7101FBBF
:1030F00003F3D31A0093B8684FF0080146F6EC4288
:10310000C0F600022346FEF7FBFB42E0F86803F03E
:103110000DFC0446F8681D4903F042FA03461846C0
:1031200003F004FC024644F6D353C1F26203A3FB4E
:1031300002134FEA93134FF47A7101FB03F3D31A8E
:103140000093B8684FF0080146F6F842C0F6000256
:103150002346FEF7D5FB1CE033333333333F8F4038
:103160008FC2F5285CFF5840736891ED7CFF2340C7
:1031700000000000003C1C469AF979440000204100
:10318000E1FAC7420000C842E7FB1F4100007A4451
:1031900000BF4FF00003184607F11407BD4690BD6D
:1031A00090B587B000AF786039604FF00003FB75D1
:1031B0004FF00003BB753D4B3B614FF00103FB81BA
:1031C0005EE040F21003C2F200031A68FB7D7968EA
:1031D000CB181B7803F10103D3181B7803F0040309
:1031E000002B0DD1FB7D7A68D3181B782E2B04D1D0
:1031F000BB7D03F10103BB753EE04FF0010350E0DE
:10320000BB7D002B16D13869294903F0C9F9034663
:103210003B61FB7D7A68D3181B78A3F13003184615
:1032200003F06AF903463869194603F0B1F803461A
:103230003B6121E0FB891A464FEA8202D3184FEA2C
:103240004303FB81FB7D7A68D3181B78A3F130031D
:10325000184603F051F90446FB89184603F04CF96F
:1032600003462046194603F04FFA034638691946CB
:1032700003F08EF803463B61FB7D03F10103FB7510
:10328000FB7D7A68D3181B78002B9AD1BB7D012B6C
:1032900002D94FF0010304E03B683A691A604FF02D
:1032A0000003184607F11C07BD4690BD0000000052
:1032B0000000204180B586B004AF4FF008004FF009
:1032C0000101FEF765FB4FF47053BB804FF0020322
:1032D000BB714FF04803FB7107F104034FF44060EA
:1032E000C4F201001946FDF769F84FF001004FF0F4
:1032F00001014FF0000201F0A9F9024641F28833C2
:10330000C2F200031A6046F60453C0F600034FF001
:10331000010200924FF0000201924FF0000202926F
:103320004FF00002039243F24530C0F60000194608
:103330004FF040024FF00003FEF7BEFB07F1080715
:10334000BD4680BD80B584B000AF78604FF000030B
:10335000FB734FF00A00FEF7E5FC00F02BF8034684
:10336000BB734FF00A00FEF7DDFC00F023F80346C4
:103370007B73BA7B7B7B9A4219D1BA7BFB7B9A42E7
:1033800015D0BB7BFB73BB7B3B73BB7B002B0ED091
:1033900041F28833C2F200031A6807F10C031046A9
:1033A00019464FF000024FF0000301F007FA01F058
:1033B000C1F8CEE780B500AF4FF44060C4F2010021
:1033C0004FF48061FDF7DAF80346002B02D14FF08D
:1033D00045032BE04FF44060C4F201004FF400615C
:1033E000FDF7CCF80346002B02D14FF051031DE04E
:1033F0004FF44060C4F201004FF48051FDF7BEF875
:103400000346002B02D14FF03E030FE04FF4406023
:10341000C4F201004FF40051FDF7B0F80346002B51
:1034200002D14FF02B0301E04FF00003184680BD9E
:1034300080B483B000AF78607A6846F61453C0F663
:1034400000039A4206D041F2B833C2F200037A6810
:103450001A6000E000BF07F10C07BD4680BC704752
:1034600080B582B000AF41F2B833C2F200031B68EE
:103470001A6846F61453C0F600039A4218D141F276
:10348000B833C2F200031B689A6846F61453C0F6BC
:1034900000039A420CD041F2B833C2F200031B6819
:1034A0009B687B607B68DB681846FFF7C1FF08E01C
:1034B00041F2B833C2F200031B681B681846FFF7DD
:1034C000B7FF07F10807BD4680BD00BF80B582B0D9
:1034D00000AF4FF00003FB7141F2B833C2F20003BA
:1034E0001A6846F63853C0F600039A4215D041F2E6
:1034F000BC30C2F200004FF0FF0100F055FC41F279
:10350000B833C2F200031B685B690B48194646F6E4
:10351000F052C0F60002FDF719FB40F2A113C2F20F
:1035200000034FF000021A704FF00103184607F134
:103530000807BD4680BD00BFEC11002080B584B0F7
:1035400000AF0346FB7140F2A013C2F200031B78E8
:10355000002B41D1FB79452B11D0452B06DC2B2BC1
:1035600036D03E2B08D0002B03D032E0512B25D093
:103570002FE04FF0010352E0FFF772FF29E041F224
:10358000B833C2F200031B681B7C002B0CD041F245
:10359000B833C2F200031A68FB791046194600F0EE
:1035A00043F84FF001033AE041F2B833C2F20003AE
:1035B0001B68DB681846FFF73BFF0AE041F2B833AF
:1035C000C2F200031B689B681846FFF731FF00E05A
:1035D00000BFFFF77BFF20E0FB79512B09D140F2C0
:1035E000A013C2F200034FF000021A70FFF76EFF43
:1035F00013E041F2B833C2F200031B681B7CFB608E
:10360000FB68002B09D041F2B833C2F200031A68FC
:10361000FB791046194600F007F84FF001031846F1
:1036200007F11007BD4680BD80B582B000AF78605D
:103630000B46FB7040F2A013C2F200034FF00102F0
:103640001A707B681B7CA3F10403032B26D801A20C
:1036500052F823F0793600088B36000865360008EA
:103660006F360008FB78184600F05EF816E0FB782D
:10367000184600F0C1F811E0FB7818464FF0000141
:103680004FF0040200F038F908E0FB7818464FF0DC
:1036900000014FF0050200F02FF900BF4FF00003CA
:1036A000184607F10807BD4680BD00BF80B584B04D
:1036B00004AF41F2B833C2F2000346F63852C0F606
:1036C00000021A60FFF702FF46F6F853C0F6000347
:1036D0004FF0010200924FF0000201924FF0000201
:1036E00002924FF00002039243F62160C0F6000000
:1036F00019464FF480724FF00003FEF7DDF941F2F6
:10370000BC30C2F200004FF0FF0100F04DFB41F26F
:10371000D013C2F200034FF0000283F82E204FF0C6
:1037200000031846BD4680BD80B582B000AF034699
:10373000FB71FB793E2B3CD0452B02D02B2B22D0AA
:1037400038E040F2A113C2F200031B78002B07D12E
:1037500040F2A113C2F200034FF001021A7029E0F7
:1037600001F0C6FB40F2A113C2F200034FF00002C9
:103770001A7040F2A013C2F200034FF000021A7058
:10378000FFF7A4FE16E041F2D013C2F200039B8CB7
:1037900003F101039BB29BB203F00F039BB243F40E
:1037A00020639BB29AB241F2D013C2F200039A8412
:1037B00000E000BF40F2A113C2F200031B78002B0F
:1037C00014D041F2D013C2F200039B8C03F00F031C
:1037D000184602F091FE0346064819464FF00002D3
:1037E00046F6F053C0F60003FDF76CF907F1080741
:1037F000BD4680BDEC11002080B582B000AF03460D
:10380000FB71FB793E2B4AD0452B02D02B2B31D0BC
:1038100046E040F2A113C2F200031B78002B16D140
:1038200041F2BC33C2F2000393F8283003F00103E5
:10383000DAB241F2BC33C2F2000383F8282040F22E
:10384000A113C2F200034FF001021A7028E001F048
:103850004FFB40F2A113C2F200034FF000021A70B6
:1038600040F2A013C2F200034FF000021A70FFF7FB
:103870002DFE15E041F2BC33C2F2000393F828306C
:1038800003F00103DBB2002B14BF00230123DAB2E3
:1038900041F2BC33C2F2000383F8282000E000BFED
:1038A00040F2A113C2F200031B78002B1ED041F29C
:1038B000BC33C2F2000393F82830012B0BD10D4822
:1038C00046F60861C0F6000146F6F052C0F6000266
:1038D000FDF73CF90AE0074846F61061C0F6000122
:1038E00046F6F052C0F60002FDF730F907F108077E
:1038F000BD4680BDEC11002090B585B000AF1346E9
:103900000246FA710A46BA717B71FB793E2B00F0D0
:103910005A81452B03D02B2B00F0FE813EE240F272
:10392000A113C2F200031B78002B40F0DE8040F2AE
:10393000A913C2F200034FF000021A707B79042B26
:1039400002D0052B60D0B4E0BA7941F2BC33C2F2A8
:1039500000034FF02C0101FB02F29B1803F124033A
:103960001B68FB6041F2D013C2F200034FF001026A
:1039700083F82E20FB68184602F024F80346002B3B
:1039800038D0FB684FF0010214461846B84902F0DF
:10399000B9FF0346002B02D14FF000031C46E3B2EF
:1039A000002B27D0FB68184602F0AEF902460B4602
:1039B0004FF001010C4610461946A9A3D3E9002394
:1039C00002F072FC0346002B02D14FF000031C46AC
:1039D000E3B2002B0ED0FA6841F2D013C2F200031A
:1039E00093F82E301046A0491A464FF03103FFF7E6
:1039F000DBF95EE09C4846F61861C0F600014FF026
:103A0000060202F0B3FF54E0BA7941F2BC33C2F2CD
:103A100000034FF02C0101FB02F29B1803F120037D
:103A20001B88184602F064FD0346FB6041F2D01388
:103A3000C2F200034FF0000283F82E20FB684FF023
:103A40000102144618468A4902F05CFF0346002B27
:103A500002D14FF000031C46E3B2002B1FD0FB68DD
:103A60004FF0010214461846824902F041FF034616
:103A7000002B02D14FF000031C46E3B2002B0ED006
:103A8000FA6841F2D013C2F2000393F82E301046C8
:103A900075491A464FF03003FFF786F909E072487E
:103AA00046F62061C0F600014FF0050202F05EFF0D
:103AB00000BF6E486C4946F6F052C0F60002FDF7B2
:103AC00045F840F2A113C2F200034FF001021A7050
:103AD00040F2A913C2F200031B7841F2BC30C2F2DB
:103AE0000000194600F060F958E107F10C035E4848
:103AF0001946FFF755FB0346002B53D1FB681846C8
:103B000001F060FF0346002B4CD0FB684FF0010230
:103B100014461846564902F0F5FE0346002B02D122
:103B20004FF000031C46E3B2002B3BD0FB684FF084
:103B30000102144618464F4902F0DAFE0346002BF4
:103B400002D14FF000031C46E3B2002B2AD07B7950
:103B5000042B02D0052B0FD022E0B979FA6841F28C
:103B6000BC33C2F200034FF02C0000FB01F15B18E4
:103B700003F124031A6013E0BC79FB68184602F0D5
:103B8000D5FE03469AB241F2BC33C2F200034FF0B5
:103B90002C0101FB04F15B1803F120031A8000BF24
:103BA00001F0A6F940F2A113C2F200034FF00002A7
:103BB0001A7040F2A013C2F200034FF000021A7014
:103BC000FFF784FCEAE040F2A913C2F200031B787D
:103BD00003F10103DAB240F2A913C2F200031A7032
:103BE00041F2D013C2F2000393F82E30032B7DD89C
:103BF00001A252F823F000BF093C0008273C00084E
:103C0000793C0008B33C000840F2A913C2F200035B
:103C10001B78032B6CD940F2A913C2F200034FF0BA
:103C200000021A706BE040F2A913C2F200031B7885
:103C3000032B06D140F2A913C2F200034FF0040295
:103C40001A7040F2A913C2F200031B78042B51D959
:103C500040F2A913C2F200034FF000021A704EE0C6
:103C600033333333333F8F40CC130020EC1100202B
:103C700000000000003C1C4640F2A913C2F2000301
:103C80001B78022B06D140F2A913C2F200034FF0B9
:103C900003021A7040F2A913C2F200031B78042B2E
:103CA0002AD940F2A913C2F200034FF000021A70A1
:103CB00025E040F2A913C2F200031B78012B06D1C4
:103CC00040F2A913C2F200034FF002021A7040F250
:103CD000A913C2F200031B78042B0FD940F2A913D9
:103CE000C2F200034FF000021A7008E000BF06E0C5
:103CF00000BF04E000BF02E000BF00E000BF40F2F0
:103D0000A913C2F200031B7841F2BC30C2F20000DA
:103D1000194600F049F841E040F2A913C2F200034D
:103D20001B781A4641F2BC33C2F200039B181B7C7D
:103D300003F10103D9B241F2BC33C2F200039B1874
:103D40000A461A7440F2A913C2F200031B781A46FD
:103D500041F2BC33C2F200039B181B7C2F2B0DD900
:103D600040F2A913C2F200031B781A4641F2BC3399
:103D7000C2F200039B181B7C392B0ED940F2A91309
:103D8000C2F200031B781A4641F2BC33C2F20003B0
:103D90009B184FF030021A7400E000BF07F11407BF
:103DA000BD4690BDAFF3008080B582B000AF7860B3
:103DB0000B46FB70FB78042B12D87B6803F11803C9
:103DC000184646F6F051C0F600014FF0060202F028
:103DD000CDFDFB787A68D3184FF020021A761BE0ED
:103DE000FB780F2B0CD17B6803F11803184646F6BD
:103DF0002861C0F600014FF0060202F0B7FD0BE0AB
:103E00007B6803F11803184646F6F051C0F600012E
:103E10004FF0060202F0AAFD07F10807BD4680BD7B
:103E2000B0B586B000AF78604FF00003FB754FF07F
:103E30000003BB754FF03200FDF774FF41F2883389
:103E4000C2F200031B68184600F056FE0346002B22
:103E500012D041F28833C2F200031A6807F10F034F
:103E6000104619464FF000024FF0000300F080FDAD
:103E7000FB7B1846FFF762FBBB7D012B04D8BB7DA3
:103E800003F10103BB7506E04FF00003BB75FB7D3A
:103E900083F00103FB7541F2B833C2F200031A68E4
:103EA00046F63853C0F600039A4240F0818041F252
:103EB000BC33C2F2000393F82830012B5BD141F2EE
:103EC000BC33C2F200031B8C184602F011FB034600
:103ED000184601F019FF04460D4641F2BC33C2F208
:103EE00000039B68184602F003FB0346184651493D
:103EF00002F00AFC0346184601F006FF02460B4694
:103F00001046194644A3D3E9002301F051FF0246AD
:103F10000B462046294601F099FD02460B46104605
:103F200019463FA3D3E9002302F06CF802460B4682
:103F300014461D4641F2BC33C2F200035B6A1846C8
:103F400001F0E2FE02460B462046294601F030FF12
:103F500002460B461046194602F0C4F903463B617F
:103F6000314839694FF0010246F6F053C0F60003BC
:103F7000FCF7A8FD1CE041F2BC33C2F200039B68D1
:103F8000184602F0B5FA034618462A4902F0BCFB6F
:103F900003461846284902F003FB03462248194607
:103FA0004FF0000246F6F053C0F60003FCF78AFD1E
:103FB00041F2B833C2F200031A6846F6B853C0F6AD
:103FC00000039A420AD041F2B833C2F200031A68E1
:103FD00046F6D853C0F600039A4217D140F2A11317
:103FE000C2F200031B78002B10D0FB7D002B05D004
:103FF0000D480E490E4AFCF7A9FD07E00A480B4997
:1040000046F6F052C0F60002FCF7A0FD00F092FA6E
:1040100010E700BFAFF30080000000000088A3405D
:104020000000000000408F40EC110020CC13002065
:10403000D41300200000804500401C45AFF30080F1
:1040400080B483B000AF78607B6803F108031A4640
:104050007B685A607B684FF0FF329A607B6803F19F
:1040600008031A467B68DA607B6803F108031A4686
:104070007B681A617B684FF000021A6007F10C0739
:10408000BD4680BC704700BF80B483B000AF78608D
:104090007B684FF000021A6107F10C07BD4680BC37
:1040A000704700BF80B485B000AF786039607B682E
:1040B0005B68FB60FB685B681A463B685A607B681C
:1040C0005A683B689A60FB685B683A689A603A682D
:1040D000FB685A603A687B685A603B687A681A6184
:1040E0007B681B6803F101027B681A6007F1140703
:1040F000BD4680BC704700BF80B485B000AF78601B
:1041000039603B681B68BB60BB68B3F1FF3F03D1FC
:104110007B681B69FB600EE07B6803F10803FB60B2
:1041200002E0FB685B68FB60FB685B681B681A4623
:10413000BB689A42F5D9FB685B681A463B685A60CF
:104140003B685B683A689A603B68FA689A603A68CC
:10415000FB685A603B687A681A617B681B6803F1E8
:1041600001027B681A6007F11407BD4680BC7047E6
:1041700080B485B000AF78607B685B687A689268CD
:104180009A607B689B687A6852685A607B681B6992
:10419000FB60FB685A687B689A4203D17B689A6827
:1041A000FB685A607B684FF000021A61FB681B686D
:1041B00003F1FF32FB681A6007F11407BD4680BCAB
:1041C000704700BF80B400AF4FF40053C4F2020345
:1041D00040F22312C4F267525A604FF40053C4F203
:1041E000020348F6AB12CCF6EF525A60BD4680BCD3
:1041F000704700BF80B400AF4FF40053C4F2020315
:104200004FF40052C4F20202126942F080021A61B5
:10421000BD4680BC704700BF80B584B000AF7860F9
:104220004FF00403FB734FF4302000F0E9F803462D
:10423000FB73FB7B042B32D14FF40053C4F2020317
:104240004FF40052C4F20202126942F002021A61F3
:104250004FF40053C4F202037A685A614FF40053DA
:10426000C4F202034FF40052C4F20202126942F097
:1042700040021A614FF4302000F0C2F80346FB738D
:104280004FF40053C4F202034FF40052C4F202028E
:104290001269114641F6FD7201EA02021A61FB7BC6
:1042A000184607F11007BD4680BD00BF80B584B039
:1042B00000AF786039604FF00403FB734FF00003E8
:1042C000BB604FF4005000F09BF80346FB73FB7B90
:1042D000042B47D14FF40053C4F202034FF40052B1
:1042E000C4F20202126942F001021A617B683A6864
:1042F00092B21A804FF4005000F082F80346FB732C
:10430000FB7B042B1FD17B6803F10203BB60BB68FE
:104310003A684FEA124292B21A804FF4005000F00D
:104320006FF80346FB734FF40053C4F202034FF4DB
:104330000052C4F202021269114641F6FE7201EA0D
:1043400002021A610EE04FF40053C4F202034FF46C
:104350000052C4F202021269114641F6FE7201EAED
:1043600002021A61FB7B184607F11007BD4680BDAB
:1043700080B483B000AF78604FF40053C4F20203FE
:104380007A68DA6007F10C07BD4680BC704700BF51
:1043900080B483B000AF4FF00403FB714FF40053BF
:1043A000C4F20203DB6803F00103DBB2002B03D08D
:1043B0004FF00103FB711CE04FF40053C4F2020301
:1043C000DB6803F00403002B03D04FF00203FB7102
:1043D0000FE04FF40053C4F20203DB6803F0100354
:1043E000002B03D04FF00303FB7102E04FF00403F6
:1043F000FB71FB79184607F10C07BD4680BC70477E
:1044000080B584B000AF78604FF00403FB73FFF712
:10441000BFFF0346FB7307E0FFF7BAFF0346FB73DA
:104420007B6803F1FF337B60FB7B012B02D17B6850
:10443000002BF1D17B68002B02D14FF00503FB73F9
:10444000FB7B184607F11007BD4680BD80B485B0E0
:1044500000AFF860B9607A60FB68A3F10403FB6009
:10446000FB684FF080721A60FB68A3F10403FB60E5
:10447000BA68FB681A60FB68A3F10403FB60FB6881
:104480004FF000021A60FB68A3F11403FB607A6826
:10449000FB681A60FB68A3F12003FB60FB68184609
:1044A00007F11407BD4680BC704700BF064B196872
:1044B0000868B0E8F00F80F309884FF0000080F33F
:1044C00011884EF00D0E7047A000002003480068D0
:1044D000006880F3088862B600DF00BF08ED00E0E6
:1044E00080B500AF4EF62053CEF200034EF62052B8
:1044F000CEF20002126842F47F021A604EF6205398
:10450000CEF200034EF62052CEF20002126842F0C4
:104510007F421A6000F086F840F20403C2F2000302
:104520004FF000021A60FFF7D1FF4FF0000318466A
:1045300080BD00BF80B400AF4EF60453CEF200033E
:104540004FF080521A60BD4680BC704780B400AF07
:104550004FF0BF0080F3118840F20403C2F2000361
:104560001B6803F1010240F20403C2F200031A6067
:10457000BD4680BC704700BF80B400AF40F204036A
:10458000C2F200031B6803F1FF3240F20403C2F2DF
:1045900000031A6040F20403C2F200031B68002B00
:1045A00003D14FF0000080F31188BD4680BC7047F6
:1045B000EFF309800C4B1A6820E9F00F10602DE929
:1045C00008404FF0BF0080F31188FDF7ABFD4FF0BE
:1045D000000080F31188BDE8084019680868B0E859
:1045E000F00F80F309887047A000002080B582B0EA
:1045F00000AF4EF60453CEF200034FF080521A6023
:104600004FF000037B604FF0BF0080F31188FDF78F
:10461000ADFC4FF0000080F3118807F10807BD469C
:1046200080BD00BF80B400AF4EF21403CEF2000391
:1046300045F6BF521A604EF21003CEF200034FF05F
:1046400007021A60BD4680BC704700BF80B588B0C5
:1046500000AFF860B9601346FB714FF00003FB61D7
:10466000FB68002B56D04FF04C0001F055F9034683
:10467000BB61BB69002B4DD0FB68BA6802FB03F33A
:1046800003F101037B61786901F046F903461A469C
:10469000BB691A60BB691B68002B38D0BB691A68FC
:1046A000FB68B96801FB03F3D218BB695A60BB69A8
:1046B0004FF000029A63BB691A68BB699A60BB69D4
:1046C0001A68FB6803F1FF33B96801FB03F3D218E2
:1046D000BB69DA60BB69FA68DA63BB69BA681A64F5
:1046E000BB694FF0FF325A64BB694FF0FF329A64E6
:1046F000BB6903F110031846FFF7A2FCBB6903F185
:1047000024031846FFF79CFCBB69FB6102E0B86913
:1047100001F04EF9FB69184607F12007BD4680BD40
:1047200080B584B000AF0346FB714FF04C0001F040
:10473000F3F80346FB60FB68002B38D0FB684FF0B2
:1047400000025A60FB684FF000021A60FB684FF0ED
:1047500000029A60FB684FF00002DA60FB684FF0DD
:1047600000029A63FB684FF00102DA63FB684FF0C6
:1047700000021A64FB684FF0FF325A64FB684FF086
:10478000FF329A64FB6803F110031846FFF758FCE8
:10479000FB6803F124031846FFF752FCF8684FF05A
:1047A00000014FF000024FF0000300F007F8FB6833
:1047B000184607F11007BD4680BD00BF80B588B020
:1047C00000AFF860B9607A603B604FF00003FB61B6
:1047D00000E000BFFFF7BAFEFB689B6B1A46FB6860
:1047E000DB6B9A4218D2F868B9683A6800F096F91B
:1047F000FB685B6A002B0AD0FB6803F124031846B0
:10480000FDF734FD0346012B01D1FFF793FEFFF7BF
:10481000B3FE4FF001035DE07B68002B04D1FFF78E
:10482000ABFE4FF0000355E0FB69002B07D107F109
:1048300014031846FDF77CFD4FF00103FB61FFF701
:104840009BFEFDF7D7FAFFF781FEFB685B6CB3F1C7
:10485000FF3F03D1FB684FF000025A64FB689B6C7A
:10486000B3F1FF3F03D1FB684FF000029A64FFF7FA
:1048700083FE07F1140207F1040310461946FDF701
:104880006FFD0346002B1ED1F86800F037FA03468F
:10489000002B12D0FB6803F110027B68104619460A
:1048A000FDF7A8FCF86800F0C3F9FDF7B5FA034678
:1048B000002B8ED1FFF73EFE8CE7F86800F0B8F9C8
:1048C000FDF7AAFA86E7F86800F0B2F9FDF7A4FA56
:1048D0004FF00003184607F12007BD4680BD00BF1A
:1048E00080B586B000AFF860B9607A603B604FF089
:1048F00000033B614FF0BF0080F31188FB689B6BA6
:104900001A46FB68DB6B9A4225D2F868B9683A68A8
:1049100000F004F9FB689B6CB3F1FF3F11D1FB6819
:104920005B6A002B13D0FB6803F124031846FDF7E4
:104930009DFC0346002B0AD07B684FF001021A60F1
:1049400005E0FB689B6C03F10102FB689A644FF081
:1049500001037B6102E04FF000037B614FF0000038
:1049600080F311887B69184607F11807BD4680BDA2
:1049700080B588B000AFF860B9607A603B604FF0F6
:104980000003FB6100E000BFFFF7E0FDFB689B6BED
:10499000002B40D0FB68DB68BB61F868B96800F0A9
:1049A0001FF93B68002B1FD1FB689B6B03F1FF32A3
:1049B000FB689A63FB681B68002B05D1FDF7ACFE12
:1049C00003461A46FB685A60FB681B69002B1DD022
:1049D000FB6803F110031846FDF748FC0346012B62
:1049E00014D1FFF7A7FD11E0FB68BA69DA60FB6834
:1049F0005B6A002B0AD0FB6803F124031846FDF71D
:104A000035FC0346002B01D0FFF794FDFFF7B4FD02
:104A10004FF001036BE07B68002B04D1FFF7ACFD86
:104A20004FF0000363E0FB69002B07D107F110038F
:104A30001846FDF77DFC4FF00103FB61FFF79CFD7D
:104A4000FDF7D8F9FFF782FDFB685B6CB3F1FF3F20
:104A500003D1FB684FF000025A64FB689B6CB3F112
:104A6000FF3F03D1FB684FF000029A64FFF784FD1B
:104A700007F1100207F1040310461946FDF770FC18
:104A80000346002B2CD1F86800F022F90346002BD6
:104A900020D0FB681B68002B08D1FFF757FDFB688F
:104AA0005B681846FDF748FEFFF766FDFB6803F1FB
:104AB00024027B6810461946FDF79CFBF86800F05D
:104AC000B7F8FDF7A9F90346002B7FF45CAFFFF7B9
:104AD00031FD59E7F86800F0ABF8FDF79DF953E7B1
:104AE000F86800F0A5F8FDF797F94FF000031846B5
:104AF00007F12007BD4680BD80B584B000AF786067
:104B0000FFF724FD7B689B6BFB60FFF735FDFB68BF
:104B1000184607F11007BD4680BD00BF80B584B0C0
:104B200000AFF860B9607A60FB681B6C002B0DD198
:104B3000FB681B68002B48D1FB685B681846FDF7D3
:104B400067FEFB684FF000025A603EE07B68002B76
:104B50001AD1FB689A68FB681B6C1046B9681A4644
:104B600001F004FFFB689A68FB681B6CD218FB68B5
:104B70009A60FB689A68FB685B689A4225D3FB6879
:104B80001A68FB689A6020E0FB68DA68FB681B6CB7
:104B90001046B9681A4601F0E9FEFB68DA68FB685E
:104BA0001B6CC3F10003D218FB68DA60FB68DA689B
:104BB000FB681B689A4208D2FB685A68FB681B6C4A
:104BC000C3F10003D218FB68DA60FB689B6B03F14A
:104BD0000102FB689A6307F11007BD4680BD00BF64
:104BE00080B582B000AF786039607B681B68002BAD
:104BF00019D07B68DA687B681B6CD2187B68DA6036
:104C00007B68DA687B685B689A4203D37B681A68C2
:104C10007B68DA607B68DA687B681B6C38681146F1
:104C20001A4601F0A3FE07F10807BD4680BD00BF8C
:104C300080B582B000AF7860FFF788FC14E07B6835
:104C40005B6A002B15D07B6803F124031846FDF73F
:104C50000DFB0346002B01D0FDF7D4FB7B689B6C5A
:104C600003F1FF327B689A647B689B6C002BE6DC67
:104C700000E000BF7B684FF0FF329A64FFF77CFCD6
:104C8000FFF764FC14E07B681B69002B15D07B6880
:104C900003F110031846FDF7E9FA0346002B01D093
:104CA000FDF7B0FB7B685B6C03F1FF327B685A64F5
:104CB0007B685B6C002BE6DC00E000BF7B684FF09C
:104CC000FF325A64FFF758FC07F10807BD4680BD64
:104CD00080B584B000AF7860FFF738FC7B689B6BD1
:104CE000002B14BF00230123FB60FFF745FCFB688A
:104CF000184607F11007BD4680BD00BF80B584B0DF
:104D000000AF7860FFF722FC7B689B6B1A467B68DC
:104D1000DB6B9A4214BF00230123FB60FFF72CFCDE
:104D2000FB68184607F11007BD4680BD80B485B00A
:104D300000AF786039604FF00003FB607B681B6850
:104D4000FB60FB6823F4FE4323F0F003FB603B6849
:104D50009A683B681B6A1A433B681B691A433B68A5
:104D60005B691A433B689B691A433B68DB691A43DA
:104D70003B685B6A1A433B689B6A42EA0303FA6832
:104D800042EA0303FB607B68FA681A603B68DA68F2
:104D90007B685A603B681A687B689A603B685A680F
:104DA0007B68DA6007F11407BD4680BC704700BF1E
:104DB00080B483B000AF78607B684FF000021A6067
:104DC0007B684FF000025A607B684FF000029A60E7
:104DD0007B684FF00002DA607B684FF000021A61D6
:104DE0007B684FF000025A617B684FF000029A61C5
:104DF0007B684FF00002DA617B684FF000021A62B4
:104E00007B684FF000025A627B684FF000029A62A2
:104E100007F10C07BD4680BC704700BF80B483B06B
:104E200000AF78600B46FB70FB78002B06D07B68E8
:104E30001B6843F001027B681A6008E07B681B680E
:104E40001A464FF6FE7302EA03037A68136007F10D
:104E50000C07BD4680BC704780B485B000AF786059
:104E60004FF00003FB734FF00003BB607B6803F05F
:104E70008053002B06D04FF48063C4F202031B68FA
:104E8000BB6005E04FF00003C4F202031B68BB6087
:104E9000BA687B6802EA0303002B03D04FF00103DA
:104EA000FB7302E04FF00003FB73FB7B184607F136
:104EB0001407BD4680BC704780B483B000AF7860F3
:104EC0007B6803F08053002B06D04FF48063C4F25C
:104ED00002037A685A6005E04FF00003C4F202034F
:104EE0007A685A6007F10C07BD4680BC704700BF66
:104EF00090B583B000AF4FF00003FB714FF000039B
:104F0000BB71FFF75FF940F2B413C2F200034FF038
:104F100001021A604FF03400FFF72AFA40F2AC1396
:104F2000C2F200034FF000021A6020E040F2AC131E
:104F3000C2F200031B6803F5003303F140034FEA9C
:104F400083231846FFF768F903461A4640F20D031B
:104F5000C2F200031A7040F2AC13C2F200031B68E5
:104F600003F1010240F2AC13C2F200031A6040F2F6
:104F7000AC13C2F200031A6840F2B413C2F2000389
:104F80001B689A4207D240F20D03C2F200031B785D
:104F9000DBB2042BCAD040F2B013C2F200034FF0D0
:104FA0000002C0F601021A604FF00003FB7158E0E6
:104FB000F879F97941F2D012C2F200020B464FEAB9
:104FC00083035B184FEA8303D31803F124031B8880
:104FD000DAB241F2BC33C2F200034FF02C0101FB04
:104FE00000F15B1803F128035A704FF00003BB7106
:104FF00030E040F2B013C2F200031868F979BC79CE
:1050000041F2BC32C2F200020B464FEA83035B1846
:105010004FEA43035B181B1903F1080352F82330CE
:105020001946FFF743F903461A4640F20D03C2F250
:1050300000031A7040F2B013C2F200031B6803F1C0
:10504000040240F2B013C2F200031A60BB7903F10C
:105050000103BB71BB79012BCBD9FB7903F10103B0
:10506000FB71FB79002BA3D0FFF7C4F840F2B0131B
:10507000C2F200034FF00002C0F601021A601FE006
:1050800040F2B013C2F200031B681A6840F2080332
:10509000C2F200031B689A4206D040F20C03C2F22F
:1050A00000034FF000021A7040F2B013C2F2000386
:1050B0001B6803F1040240F2B013C2F200031A604D
:1050C00040F2B013C2F200031A6840F2FF33C0F698
:1050D00001039A4207D840F20C03C2F200031B7886
:1050E000DBB2002BCCD140F20C03C2F200031B78E0
:1050F00007F10C07BD4690BD90B583B000AF4FF0EF
:105100000003FB714FF00003BB7140F2B013C2F219
:1051100000034FF00002C0F601021A604FF00003D6
:10512000FB71FCE04FF00003BB7127E0F979BC791B
:1051300040F2B013C2F200031B68186841F2BC329F
:10514000C2F200020B464FEA83035B184FEA4303A7
:105150005B181B1903F1080342F8230040F2B01357
:10516000C2F200031B6803F1040240F2B013C2F262
:1051700000031A60BB7903F10103BB71BB79012BFA
:10518000D4D9FA7941F2BC33C2F200034FF02C01BA
:1051900001FB02F29B1803F124031B684FF001028C
:1051A00014461846644901F099FB0346002B02D1CE
:1051B0004FF000031C46E3B2002B24D1FA7941F2F0
:1051C000BC33C2F200034FF02C0101FB02F29B182A
:1051D00003F124031B68184600F096FD02460B46B7
:1051E0004FF001010C461046194651A3D3E90023A4
:1051F00001F06EF80346002B02D14FF000031C466D
:10520000E3B2002B0DD0FA7941F2BC33C2F20003B5
:105210004FF02C0101FB02F29B1803F12403464AD4
:105220001A60FA7941F2BC33C2F200034FF02C014C
:1052300001FB02F29B1803F120031A8842F20F735C
:105240009A420ED9FA7941F2BC33C2F200034FF010
:105250002C0101FB02F29B1803F120034FF0000226
:105260001A80FA7941F2BC33C2F200034FF02C01EC
:1052700001FB02F29B1803F128031B78012B0ED9C6
:10528000FA7941F2BC33C2F200034FF02C0101FB6A
:1052900002F29B1803F128034FF000021A70FA790A
:1052A00041F2BC33C2F200034FF02C0101FB02F2C9
:1052B0009B1803F128035B780F2B0ED9FA7941F282
:1052C000BC33C2F200034FF02C0101FB02F29B1829
:1052D00003F128034FF00F025A70F979FA7941F27D
:1052E000BC33C2F200034FF02C0000FB02F29B180B
:1052F00003F128035B78184641F2D012C2F2000293
:105300000B464FEA83035B184FEA8303D31803F17C
:10531000240302461A80FB7903F10103FB71FB7938
:10532000002B3FF4FFAE07F10C07BD4690BD00BF58
:1053300033333333333F8F4000000000AFF300803E
:1053400080B586B004AF4FF00003FB7146F63063C2
:10535000C0F600034FF0010200924FF000020192EC
:105360004FF0000202924FF00002039245F2C95042
:10537000C0F6000019464FF040024FF00003FCF762
:105380009BFB4FF00100FFF7CBF9024641F2E833F7
:10539000C2F200031A60FB79184607F10807BD4600
:1053A00080BD00BF80B592B000AF41F214004FF055
:1053B0000101FCF7EDFA4FF0A003A7F844304FF0DD
:1053C000030387F846304FF0180387F8473007F19A
:1053D00044034FF40060C4F201001946FAF7EEFFEF
:1053E0004FF48073A7F844304FF0100387F847302C
:1053F0004FF0030387F8463007F144034FF4006091
:10540000C4F201001946FAF7D9FF4FF000033B86BA
:105410004FF482737B864FF40063BB864FF000032A
:10542000FB864FF000033B874FF400737B874FF000
:105430000003BB874FF00003FB8707F130034FF4F5
:105440004050C4F20100194600F0B4F94FF4405046
:10545000C4F201004FF0000100F03EFA4FF440505A
:10546000C4F201004FF0010100F0F0F94FF40060C8
:10547000C4F201004FF480714FF00002FBF79EF878
:105480004FF001004FF00101FCF754FA07F104035B
:105490001846FFF78DFC43F20C03C4F201037B6056
:1054A0004FF01003FB604FF000037B614FF080036F
:1054B000BB614FF48073FB614FF480633B624FF03C
:1054C00000037B624FF00003BB624FF000037B627E
:1054D0004FF00003FB6207F104034FF03000C4F209
:1054E00002001946FFF722FC4FF40070FFF7E4FCBE
:1054F00007F104031846FFF75BFC43F20C03C4F208
:1055000001037B604FF00003FB604FF000037B6101
:105510004FF08003BB614FF48073FB614FF48063F5
:105520003B624FF000037B624FF00003BB624FF021
:1055300000037B624FF00003FB6207F104034FF0AE
:105540001C00C4F202001946FFF7F0FB4FF02000E8
:10555000FFF7B2FC4FF44050C4F201004FF00201DB
:105560004FF0010200F092F94FF44050C4F20100F4
:105570004FF001014FF0010200F088F907F14807F0
:10558000BD4680BD80B582B000AF78600B467B80A1
:105590004FF03003C4F202037A68DA604FF0300350
:1055A000C4F202037A885A604FF40070FFF784FC5B
:1055B0004FF03000C4F202004FF00101FFF72EFC63
:1055C00007F10807BD4680BD80B584B000AF7860A4
:1055D0004FF00003FB734FF00003FB7369E04FF4DF
:1055E0000060C4F201004FF480714FF00002FAF73E
:1055F000E5FF41F2E833C2F200031B6818464FF0A2
:1056000000014FF0FF324FF00003FFF7B1F90346FE
:10561000012B36D12B4AFB7B4FEA4303D3181846A4
:105620004FF00101FFF7AEFF01E0FEF783FF4FF4FB
:105630000070FFF711FC0346002BF6D04FF030004E
:10564000C4F202004FF00001FFF7E8FB01E0FEF7B3
:1056500071FF4FF44053C4F201031B899BB203F066
:105660008003002BF3D141F2E833C2F200031B6840
:1056700018464FF000014FF000024FF00003FFF713
:105680009DF84FF40060C4F201004FF480714FF0B8
:105690000102FAF793FF4FF40060C4F201004FF4E7
:1056A00080714FF00002FAF789FFFB7B03F10103E1
:1056B000FB73FB7B0C2B92D94FF03200FCF732FBD3
:1056C00089E700BFD211002080B487B000AF7860B6
:1056D0004FF000037B614FF000033B614FF00F037D
:1056E000FB607B68DB78002B49D04FF46D43CEF232
:1056F0000003DB686FEA030303F4E0634FEA13235C
:105700007B617B69C3F104033B617B69FA6822FA20
:1057100003F3FB607B685B781A463B6902FA03F38C
:105720007B617B689B781A46FB6802EA03037A690F
:1057300042EA03037B617B694FEA03137B614FF409
:105740006143CEF200037A68127811467A69D2B2C8
:105750005B1883F800234FF46143CEF200037A68AC
:1057600012784FEA5212D2B27968097801F01F011B
:105770004FF0010000FA01F143F8221014E04FF459
:105780006143CEF200037A6812784FEA5212D2B225
:105790007968097801F01F014FF0010000FA01F16A
:1057A00002F1200243F8221007F11C07BD4680BC1D
:1057B000704700BF80B485B000AF786039604FF0AB
:1057C0000003FB817B681B88FB81FB8903F4415349
:1057D000FB813B681A883B685B8842EA03039AB204
:1057E0003B689B8842EA03039AB23B68DB8842EA43
:1057F00003039AB23B681B8942EA03039AB23B68EF
:105800005B8942EA03039AB23B689B8942EA03033D
:105810009AB23B68DB8942EA03039AB2FB8942EA07
:105820000303FB817B68FA891A807B689B8B9BB2A0
:1058300023F400639AB27B689A833B681A8A7B6878
:105840001A8207F11407BD4680BC704780B483B04C
:1058500000AF78600B46FB70FB78002B08D07B68AC
:105860001B889BB243F040039AB27B681A8007E022
:105870007B681B889BB223F040039AB27B681A8036
:1058800007F10C07BD4680BC704700BF80B483B0F1
:1058900000AF786013460A467A807B707B78002BD5
:1058A00009D07B689B889AB27B8842EA03039AB24C
:1058B0007B689A800BE07B689B889AB27B886FEA52
:1058C00003039BB202EA03039AB27B689A8007F152
:1058D0000C07BD4680BC704780B483B000AF7860D1
:1058E0000B46FB70FB78002B08D07B681B889BB2B3
:1058F00043F400539AB27B681A8007E07B681B88E8
:105900009BB223F400539AB27B681A8007F10C070C
:10591000BD4680BC704700BF80B584B000AF7860E2
:105920004FF00003FB607B6803F00703002B05D0FA
:105930007B6823F0070303F108037B60FCF75AFA46
:1059400041F2C013C2F200031A687B68D21840F615
:10595000FF739A4224D841F2C013C2F200031A68BE
:105960007B68D21841F2C013C2F200031B689A424E
:1059700016D941F2C013C2F200031A6840F2C013F4
:10598000C2F20003D318FB6041F2C013C2F200035D
:105990001A687B68D21841F2C013C2F200031A6081
:1059A000FCF73AFAFB68184607F11007BD4680BDC0
:1059B00080B483B000AF786007F10C07BD4680BCAF
:1059C000704700BFD0F1010338BF0023B0F1004F92
:1059D00008BF43F00103002B2ED1A0F5000300F116
:1059E000FF42B3F1FE4F2CBF00230123B2F1FE4F63
:1059F00038BF43F00103EBB94FF6FE73411EC0F20E
:105A00007F0300F10042013A99428CBF002101213D
:105A10009A428CBF0B4641F001037BB910F5000F91
:105A200014BF00230123B0F1FF4F14BF184643F009
:105A30000100704704207047022070470320704720
:105A400081F0004102E000BF83F0004330B54FEA2F
:105A500041044FEA430594EA050F08BF90EA020F9C
:105A60001FBF54EA000C55EA020C7FEA645C7FEA2F
:105A7000655C00F0E2804FEA5454D4EB5555B8BF52
:105A80006D420CDD2C4480EA020281EA030382EAC3
:105A9000000083EA010180EA020281EA0303362D55
:105AA00088BF30BD11F0004F4FEA01314FF4801C28
:105AB0004CEA113102D0404261EB410113F0004F3A
:105AC0004FEA03334CEA133302D0524263EB4303F1
:105AD00094EA050F00F0A780A4F10104D5F1200E8F
